:020000040800F2
:1000000090C300202D0200083102000833020008CE
:10001000350200083702000839020008000000001D
:100020000000000000000000000000003B0200088B
:100030003D020008000000003F02000841020008E5
:10004000430200084302000843020008430200087C
:10005000430200084302000843020008430200086C
:10006000430200084302000843020008430200085C
:10007000430200084302000843020008430200084C
:10008000430200084302000843020008430200083C
:10009000430200084302000843020008430200082C
:1000A000430200084302000843020008430200081C
:1000B0004302000843020008756E0008430200086E
:1000C00043020008430200084302000843020008FC
:1000D00043020008016F00084302000843020008C1
:1000E00043020008430200084302000843020008DC
:1000F00043020008430200084302000843020008CC
:100100004302000855550008430200084302000856
:1001100043020008430200084302000843020008AB
:10012000430200084302000843020008430200089B
:1001300000F002F800F06BF80AA090E8000C82448E
:100140008344AAF10107DA4501D100F060F8AFF26B
:10015000090EBAE80F0013F0010F18BFFB1A43F0A5
:10016000010318470CE900002CE900000A444FF095
:10017000000C10F8013B13F0070408BF10F8014B06
:100180001D1108BF10F8015B641E05D010F8016B4B
:10019000641E01F8016BF9D113F0080F1EBF10F8AF
:1001A000014BAD1C0C1B09D16D1E58BF01F801CBD2
:1001B000FAD505E014F8016B01F8016B6D1EF9D555
:1001C0009142D6D37047000000230024002500266A
:1001D000103A28BF78C1FBD8520728BF30C148BFAA
:1001E0000B607047642900F0BD80752900F0BA806B
:1001F000782900F0F380632900F03383732900F03D
:100200003883002070471FB51FBD10B510BD00F02A
:1002100095FB1146FFF7F7FF08F0C8FC00F0B3FBB1
:1002200003B4FFF7F2FF03BC07F02DF808480047BE
:10023000FEE7FEE7FEE7FEE7FEE7FEE7FEE7FEE796
:10024000FEE7FEE703480449024A044B70470000FA
:100250003101000890BF002090C3002090BF002013
:10026000704710B54C1084EA530404D54042C1F1E4
:10027000000138BF491E1B4204D55242C3F100039E
:1002800038BF5B1E00F013FA14F0804F04D04042D8
:10029000C1F1000138BF491E14F0004F04D0524292
:1002A000C3F1000338BF5B1E10BD00000FB404494A
:1002B00010B503AA029800F0E1FA10BC5DF814FB37
:1002C0000400002070B5044685690068C10601D5A8
:1002D000302600E02026C00707D070BDD4E90121F8
:1002E00030469047206A401C20626D1EF6D570BDD6
:1002F00070B5044685690078C00707D170BDD4E9A0
:10030000012120209047206A401C20626D1EF6D5F6
:1003100070BD70B50C460546012A05D028788006C8
:1003200000D5EA69002302E0012305E05B1C93424B
:1003300002D2E05C0028F9D1A869E618C01AA861C9
:10034000286A184428622846FFF7BCFF04E0D5E974
:10035000012114F8010B9047B442F8D32846FFF767
:10036000C7FF70BD2DE9F0410646002410687529CD
:10037000314616A510D0AFF30080002802DA4042C3
:1003800013A507E031688A0701D512A502E04907E5
:1003900004D511A5012401E0AFF3008000210A2259
:1003A00006F1240709E0B0FBF2FCB0FBF2F302FB1C
:1003B0001C00303078541846491C0028F3D12346DD
:1003C0002A463046BDE8F04100F0E8B900000000E0
:1003D0002D0000002B0000002000000070B5044636
:1003E0000D4621461068AFF300802188090502D52B
:1003F0000F4A7A4402E00E4A7A440E32002104F198
:10040000240305E000F00F060009965D5E54491CC8
:100410000028F7D120780023000704D5702D02D0E2
:1004200009B1022311322046BDE8704000F0B6B990
:100430001AE500002DE9F05F894604464FF0000AF6
:10044000DFF874B1FB44C0F820A02046E16888477B
:10045000002874D0252806D0D4E901219047206ACD
:10046000401C2062F1E700265F462046E16888478D
:100470002028054607DB312D05D2781910F8200C0D
:1004800008B10643F1E7B00701D526F00406C4F829
:100490001CA00027C4F818A02A2D09D0284606F071
:1004A000EBFE38B304EB8708303DC8F8185019E06C
:1004B00059F8041B204604EB87029161E1688847E4
:1004C000012F054618D1E069002820DA26F0200621
:1004D0001DE0D8F8180000EB800005EB4000303834
:1004E000C8F818002046E1688847054606F0C4FEB3
:1004F0000028EED1012F0AD02E2D08D12046E16828
:1005000088477F1C0546022F46F02006C4DBA06901
:10051000002803DA404246F00106A061F00701D04E
:1005200026F010066C2D0BD0682D09D04C2D39D03B
:100530006A2D35D0742D35D07A2D33D016E038E0C1
:10054000E1682F4620468847B842054609D16C2FFE
:1005500026D04FF48060E168064320468847054670
:1005600004E06C2F1AD04FF4807006430DB3A5F150
:100570004100192802D8203546F400664A4629462B
:10058000204626604E46FFF72DFE80B101280BD095
:10059000F61D26F0070000F1080956E74020E4E7C1
:1005A0008020D8E70020D6E706F104094DE7284669
:1005B00052E7206ABDE8F09FF0E4000040EA010342
:1005C000024630B59B0710D14FF0013400E008C25D
:1005D00008C91D1B9D4315EAC41FF8D013F0FF0185
:1005E00002F8011B0DD01B0AF8E711F8013B002BA4
:1005F00002F8013B05D011F8013B002B02F8013B4A
:10060000F3D130BD421E12F8013F002BFBD111F88F
:10061000013B002B02F8013BF9D17047032A40F25D
:10062000308010F0030C00F0158011F8013BBCF194
:10063000020F624498BF11F801CB00F8013B38BFAC
:1006400011F8013BA2F1040298BF00F801CB38BFBA
:1006500000F8013B11F0030300F02281083AC0F0DA
:10066000088051F8043B083A51F804CBA0E8081080
:10067000F5E7121D5CBF51F8043B40F8043BAFF3B3
:100680000080D20724BF11F8013B11F801CB48BF0D
:1006900011F8012B24BF00F8013B00F801CB48BF43
:1006A00000F8012B7047704770477047704753EA56
:1006B000020C00F069802DE9F04B4FF00006002B92
:1006C0001FBFB3FA83F503FA05F424FA05F65E407A
:1006D00012BF1643B2FA82F502FA05F4C5F12005FD
:1006E0001EBF22FA05FC44EA0C04203556EA044CED
:1006F0004FEA144418BF641C4FF000084FF0000983
:10070000904271EB030C39D3002919BFB1FA81F77C
:1007100001FA07F6B0FA80F700FA07F6C7F12007EA
:100720001EBF20FA07FC46EA0C062037B6FBF4FC95
:10073000A7EB0507103F07F01F0BCBF120060CFAC3
:100740000BFB2CFA06F644BFB3460026202FA4BFAD
:100750005E464FF0000B5BEA060C08BF4FF0010B42
:1007600019EB0B09ABFB027C48EB0608C01B06FB30
:1007700002CC0BFB03CC71EB0C01C1E70B4602462C
:1007800041464846BDE8F08B13B54FF000004FF0EE
:100790000001AFF30080BDE81C4070472DE9F04731
:1007A0000D4699469246044600F1240801688806E1
:1007B00004D5E06921F01001216000E00120A84289
:1007C00001DD471B00E00027A1697A1902EB09004F
:1007D000081AA0612078C00602D42046FFF772FDF7
:1007E000002608E0D4E901211AF806009047206AA3
:1007F000401C761C20624E45F4DB2078C0060AD5EA
:100800002046FFF75FFD06E0D4E901213020904744
:10081000206A401C2062381EA7F10107F4DC07E0C3
:10082000D4E9012118F805009047206A401C206295
:10083000281EA5F10105F3DC2046FFF759FD2078BD
:10084000000602D50220BDE8F0870120FBE710B5C5
:10085000436913B1AFF3008001E0FFF75AFD0120B7
:1008600010BD127800F124010A7000224A700122A2
:10087000EDE711684FF0FF32E9E70000074B70B574
:100880000D467B4400F043F80446284600F052F839
:1008900010B14FF0FF3070BD204670BD4F8000009A
:1008A00010B5203AC0F00B80B1E81850203AA0E80B
:1008B0001850B1E81850A0E81850BFF4F5AF5FEA3F
:1008C000027C24BFB1E81850A0E8185044BF18C9F2
:1008D00018C0BDE810405FEA827C24BF51F8043B99
:1008E00040F8043B08BF7047D20728BF31F8023BED
:1008F00048BF11F8012B28BF20F8023B48BF00F881
:10090000012B704701694A1C02610878704700B5E5
:100910008FB0CDE901310021059105497944CDE938
:10092000031011466846FFF785FD0FB000BD0000BB
:10093000E5FFFFFF007B00F080007047754600F088
:100940002BF8AE4605006946534620F00700854661
:1009500018B020B5FFF776FCBDE820404FF0000648
:100960004FF000074FF000084FF0000B21F0070197
:10097000AC46ACE8C009ACE8C009ACE8C009ACE8DA
:10098000C0098D46704710B50446AFF3008020467D
:10099000BDE81040FFF744BC004870472CBF002062
:1009A00000224FF4803105E00948406B00F08000E0
:1009B00000B103E0081EA1F10101F5D100BF09B9A2
:1009C0000320704740F2FF50014B98631046F8E750
:1009D00000800140024605E01348416B01F04500EC
:1009E00000B100E0F8E700BF01F0040020B10420EE
:1009F0000D4B98630320704701F0010018B10120EE
:100A0000094B9863F7E708480069904201D010202D
:100A1000F1E740F2FF50044B986318464069082301
:100A20001840C0B2E7E700000080014010B5002088
:100A30004FF4803205E0134B596B01F0450303B1CD
:100A400003E0131EA2F10102F5D100BF12B101F0C3
:100A500004033BB103200B4B9B6B43F00403094C95
:100A6000A36310BD01F0010333B10120054B9B6B63
:100A700043F00103034CA36340F2FF53014CA36313
:100A800000BFEEE70080014005E00C48416B01F03B
:100A9000450000B100E0F8E700BF01F0040038B104
:100AA0000648806B40F00400044A906303207047BE
:100AB00040F2FF50014A90630020F8E700800140B7
:100AC00070B503460C46002505E02148426B02F054
:100AD000450000B100E0F8E700BF02F0040038B1C3
:100AE0001B48806B40F00400194EB063032070BDBA
:100AF00002F0010038B11648806B40F00100144E3E
:100B0000B0630120F3E712480069984201D0102039
:100B1000EDE740F2FF500E4EB0633046416901F4FC
:100B2000604018B9080C20802846E0E701F4005026
:100B300008B11320DBE701F4804008B11020D6E7AC
:100B400001F4004008B10F20D1E72846CFE70000AC
:100B50000080014010B500204FF4803205E0114BB9
:100B6000596B01F0450303B103E0131EA2F101022A
:100B7000F5D100BF12B101F004033BB10320094BD2
:100B80009B6B43F00403074CA36310BD01F04003CB
:100B900033B10020034B9B6B43F04003014CA36334
:100BA00000BFF2E700800140FCB507460D46002675
:100BB000002400200090019008220121102004F060
:100BC000CDFC1020FFF706FF04460CB12046FCBD0B
:100BD0003A040121372004F0C1FC3720FFF7FAFE68
:100BE00004460CB12046F2E7012303220821101F1E
:100BF00004F0C8FC00220121332004F0AFFC3320B4
:100C0000FFF7E8FE04460CB12046E0E70DE0384867
:100C1000406B00F4001040B13548803000684DF85A
:100C20002600761C022E00D306E03148406B40F2CD
:100C30002A6108400028EAD000BF2D48406B00F030
:100C4000080038B12A48806B40F0080028498863C2
:100C50000420BCE72648406B00F0020038B124486D
:100C6000806B40F00200224988630220AFE72048F1
:100C7000406B00F0200038B11D48806B40F0200030
:100C80001B4988630620A2E71948406B00F40070F6
:100C900038B11748806B40F400701549886307200D
:100CA00095E740F2FF5012498863009800060099CA
:100CB00001F47F4140EA0120009901F47F0140EAFC
:100CC0001120009940EA11606860019800060199BE
:100CD00001F47F4140EA0120019901F47F0140EADB
:100CE0001120019940EA1160286020466FE700005A
:100CF000008001402DE9F05F824688461446204678
:100D0000E21704EB5272D2102146E31704EB53733F
:100D1000DB10A4EBC3030BB1012300E000231A4452
:100D2000624302F0FF099AF800600AF1010082466E
:100D30000578812E05DB402D03DBFF2D01D0FF2E32
:100D40000DD14FF0000B06E0002008F8010B0BF16D
:100D5000010000F0FF0BCB45F6DBBDE8F09F7F2DD7
:100D600003DAA5F14000C5B202E0A5F14100C5B229
:100D7000A6F18100C6B2BE2000FB065000FB09F7B9
:100D80000C2C06D0102C0DD0182C14D0202C24D1D3
:100D90001AE01348D0F80900C1194A46404606F047
:100DA00045F91AE00E48D0F81100C1194A464046EC
:100DB00006F03CF911E00A48D0F81900C1194A467A
:100DC000404606F033F908E00548D0F82100C11983
:100DD0004A46404606F02AF900BF00BF00BFBCE704
:100DE00000BF002072B6704762B670471CB504465B
:100DF0000020019000901F480088020401210D206E
:100E000004F0ACFB1C48406B009002E01A48406BB9
:100E10000090009800F045000028F7D0009800F0FE
:100E2000010038B11448806B40F00100124988631A
:100E300001201CBD009800F0040038B10E48806B02
:100E400040F004000C4988630320F2E70A48006977
:100E50000D2801D01020ECE740F2FF5006498863CE
:100E60000846406901900198C0F34320207000209B
:100E7000DFE7000014000020008001401448806972
:100E800040F00400124988610846806940F0400043
:100E900088611048006820F00F000E49086008467D
:100EA000006840F0080008600B48006820F47F20CC
:100EB000094908600846006840F4082008600648B0
:100EC0000C30006840F0180003490C31086070478E
:100ED00000100240000801400018014010B504460F
:100EE00014B101201B4908701A48007808B31A4849
:100EF000006838B11848001F006818B1174800682A
:100F0000012816D10A2006F04DFC00201149087076
:100F10001148006808B9012010BD0F48001F006883
:100F200008B90220F8E70D480068012810D1032015
:100F3000F2E70948006801280AD10748001F006845
:100F4000012805D10548006810B901200149087041
:100F50000020E1E70E0000201001234200012142A1
:100F600070B5044600261748058840884543154853
:100F7000808846F60401884216D1124880790128FB
:100F800012D100200F4988712A2048812B208881A6
:100F90000021084603F0C0FF01200A4988712B2078
:100FA00048812A20888103E00021084603F0B4FF2D
:100FB00004F0AEF9002602E003480480761CAE423D
:100FC000FAD370BD5C0200200008006C10B5044626
:100FD000002C66D16C498871F02008804FF4A07015
:100FE00048800846808849F2413188420BD06648E3
:100FF000808846F60401884205D06348808845F21F
:10100000103188421AD12C205F4908812A2048815A
:101010002B2088810846808846F60401884205D046
:101020005948808845F21031884206D14FF4A070AB
:10103000554908804FF4F0704880A1E052488088FC
:1010400045F21051884210D14FF430504E4908817A
:101050004FF4285048814FF42C5088814FF4F070A1
:1010600008804FF4487048808AE04748808841F6FD
:10107000631188420DD12C20434908812B204881DF
:101080002A2088814FF4F07008804FF4487048801F
:1010900076E022203C490881202048812120888157
:1010A0006EE00120384988714FF4A0700880F0206C
:1010B00048800846808849F24131884205D032484C
:1010C000808845F21031884207D12C202E490881B2
:1010D0002A2048812B2088813FE02B48808846F6D3
:1010E0000401884207D12C20274908812B20488100
:1010F0002A20888131E02448808845F210518842B6
:1011000010D14FF43050204908814FF428504881C5
:101110004FF42C5088814FF4487008804FF4F070E1
:1011200048801AE01848808841F6631188420DD142
:101130002C20154908812A2048812B2088814FF4D2
:10114000487008804FF4F070488006E022200E4975
:10115000088121204881202088810B48808846F61C
:101160000401884205D00848808845F21031884241
:1011700006D14FF4F070044908804FF4A070488005
:10118000002003F053FD10BD5C02002030B5034683
:101190000C4615465A48808849F24131884205D0AC
:1011A0005748808845F21031884214D15449488903
:1011B00004F0A8F8181204F09FF8D8B204F09CF8D4
:1011C0004F49888904F09EF8201204F095F8E0B2A7
:1011D00004F092F88CE04A48808845F21051884229
:1011E00020D14749488904F08DF8181204F084F89A
:1011F00043494989491C88B204F084F8D8B204F004
:101200007BF83F49888904F07DF8201204F074F8D7
:101210003B498989491C88B204F074F8E0B204F0B3
:101220006BF865E03648808841F66311884228D122
:101230003348807920B932480088401EC01A83B2F2
:101240002F49488904F05EF8181204F055F8D8B216
:1012500004F052F8181204F04FF8D8B204F04CF829
:101260002749888904F04EF8201204F045F8E0B2CE
:1012700004F042F8201204F03FF8E0B204F03CF829
:1012800036E01F48808846F6040188421DD11C487C
:101290008079012804D11A480088401EC01A83B200
:1012A0001749488904F02EF8181204F025F8D8B22E
:1012B00004F022F81249888904F024F8201204F07E
:1012C0001BF8E0B204F018F812E00D48807901280C
:1012D00004D10B480088401EC01A83B208494889CF
:1012E000194604F01FF806498889214604F01AF8C7
:1012F0000348008903490880881C058030BD000030
:101300005C020020FE07006C2DE9FC4F05460E46EE
:1013100017469846DDF82C900020019027488088D9
:1013200046F60401884229D124488079012825D134
:10133000AB46354621480088C01B401E86B2474652
:101340001E480088A0EB0B00401E1FFA80F800200A
:101350001A4988712A2048812B20888143463A46C1
:1013600031462846CDF80090FFF7CEFF0120134903
:1013700088712B2048812A2088811CE0781B401C22
:1013800080B20190344614E02146284603F0C4FDA3
:1013900003F0BEFF4FF0000A06E00948A0F80090F5
:1013A0000AF101001FFA80FA01988245F5DB601C02
:1013B00084B24445E8DDBDE8FC8F00005C020020FB
:1013C0000008006C10B5FD48406940F48070FB498E
:1013D00048610846806940F00800886108468069D5
:1013E00040F0200088610846806940F04000886134
:1013F0000846806940F480708861F148006820F0F8
:101400000F00EF4908600846006840F003000860DC
:10141000EC480068EC490840EA4908600846006862
:10142000EA490843E7490860081F006800F0FF2008
:10143000091F08600846006840F0BB100860E448D7
:1014400000680020E24908600846006840F0BB30B0
:101450000860081F006820F07040091F08600846F7
:10146000006840F030400860DA48406820F470209E
:10147000D84948600846406840F430204860084633
:10148000006820F00F0008600846006840F00B007C
:10149000086000204FF020418861C861CE49086093
:1014A0004FF02040806940F480504FF02041886127
:1014B0000846806940F4804088610846806940F0B1
:1014C000100088610846C069C8610846C06940F0DC
:1014D0000100C8610846C06940F47060C861BE4838
:1014E0000068C1F81C01BC480068C1F81C0108462E
:1014F000D0F81C0140F44070C1F81C010846806916
:1015000040F001008861322006F04CF9002003F021
:1015100057FBB249888008468088FF280ADB0846C6
:1015200080884FF6FF71884204D0AC488088B0F5BF
:10153000134F7CD1D32003F0E5FE03F037FBA7491E
:10154000888003F033FBA549888003F02FFBA34973
:101550008880084680884FF6FF7101EA00209F4985
:10156000888003F023FB9D49898808439B49888034
:101570000846808849F24131884258D0BF2003F0A4
:10158000C1FE03F013FB9549888003F00FFB9349DC
:10159000888003F00BFB9149888003F007FB8F499B
:1015A0008880084680884FF6FF7101EA00208B4949
:1015B000888003F0FBFA8949898808438749888035
:1015C0000846808846F6040188427AD0D42003F089
:1015D00099FE03F0EBFA8149888003F0E7FA7F492E
:1015E000888003F0E3FA7D498880084680884FF6BA
:1015F000FF7101EA00207949888003F0D7FA774922
:1016000089880843754988800846808845F21031EA
:10161000884256D04FF45A4003F074FE03F0C6FAE5
:101620006E4988804FF45B4003F06CFE00E048E0B8
:1016300003F0BCFA69498880084680884FF6FF713C
:1016400001EA0020654988804FF45C4003F05AFEAF
:1016500003F0ACFA614989880843604988800846EC
:101660008088B0F5004F02D145F2105088805B4869
:10167000808845F21051884223D0A12003F042FE19
:1016800003F094FA5549888003F090FA5349888012
:10169000084680884FF6FF7101EA00204F49888094
:1016A00003F084FA4D49898808434C4988800846EC
:1016B000808845F26171884203D141F66310474941
:1016C00088804648818846A0FEF7F0FD4348808820
:1016D00049F24131884270D1CF2003F013FE00203F
:1016E00003F00AFEC12003F007FE302003F004FEE1
:1016F000ED2003F007FE642003F0FEFD032003F05D
:10170000FBFD122003F0F8FD812003F0F5FDE82039
:1017100003F0F8FD852003F0EFFD102003F0ECFD51
:101720007A2003F0E9FDCB2003F0ECFD392003F033
:10173000E3FD2C2003F0E0FD002003F0DDFD34206C
:1017400003F0DAFD022003F0D7FDF72003F0DAFD05
:10175000202003F0D1FDEA2003F0D4FD002003F0A7
:10176000CBFD002003F0C8FDC02003F0CBFD1B2003
:1017700003F0C2FDC12003F0C5FD012003F0BCFD54
:10178000C52003F0BFFD302003F0B6FD302003F08C
:10179000B3FDC72003F0B6FDB72003F0ADFD362042
:1017A00003F0B0FD482003F0A7FD3A2003F0AAFDA6
:1017B000552003F0A1FDB1201AE0BFE00010024067
:1017C000000C01400414014000F0FF00BB0B00BB03
:1017D00004180140002001401C0100A05C02002010
:1017E000204C43442049443A25780D0A000000006B
:1017F00003F088FD002003F07FFD1A2003F07CFD3C
:10180000B62003F07FFD0A2003F076FDA22003F04E
:1018100073FDF22003F076FD002003F06DFD26201D
:1018200003F070FD012003F067FDE02003F06AFD86
:101830000F2003F061FD2A2003F05EFD282003F055
:101840005BFD082003F058FD0E2003F055FD082035
:1018500003F052FD542003F04FFDA92003F04CFD8E
:10186000432003F049FD0A2003F046FD0F2003F05A
:1018700043FD002003F040FD002003F03DFD00206B
:1018800003F03AFD002003F037FDE12003F03AFDBC
:10189000002003F031FD152003F02EFD172003F08A
:1018A0002BFD072003F028FD112003F025FD062065
:1018B00003F022FD2B2003F01FFD562003F01CFD3A
:1018C0003C2003F019FD052003F016FD102003F065
:1018D00013FD0F2003F010FD3F2003F00DFD3F200E
:1018E00003F00AFD0F2003F007FD2B2003F00AFD93
:1018F000002003F001FD002003F0FEFC012003F0B6
:10190000FBFC3F2003F0F8FC2A2003F0FBFC002046
:1019100003F0F2FC002003F0EFFC002003F0ECFCED
:10192000EF2003F0E9FC112003F0ECFC782005F037
:1019300039FF292003F0E6FC03F01DB9FE4880883A
:1019400046F6040188427CD1112003F0DBFC142010
:1019500005F028FFD02003F0D5FC072003F0CCFCD5
:10196000422003F0C9FC1D2003F0C6FCD12003F087
:10197000C9FC002003F0C0FC1A2003F0BDFC0920C4
:1019800003F0BAFCD22003F0BDFC012003F0B4FC4C
:10199000222003F0B1FCC02003F0B4FC102003F0BF
:1019A000ABFC3B2003F0A8FC002003F0A5FC0220C8
:1019B00003F0A2FC112003F09FFCC52003F0A2FC61
:1019C000032003F099FCC82003F09CFC002003F0E6
:1019D00093FC252003F090FC212003F08DFC0520D2
:1019E00003F08AFC002003F087FC0A2003F084FC4B
:1019F000652003F081FC252003F07EFC772003F0B6
:101A00007BFC502003F078FC0F2003F075FC0020D5
:101A100003F072FCF82003F075FC012003F06CFC6D
:101A2000FE2003F06FFC002003F066FC022003F0B0
:101A300063FC202003F066FC362003F063FC0820E2
:101A400000E02CE003F058FC3A2003F05BFC55204A
:101A500003F052FC2B2003F055FC002003F04CFC5B
:101A6000002003F049FC012003F046FC3F2003F076
:101A700043FC2A2003F046FC002003F03DFC00203C
:101A800003F03AFC012003F037FCDF2003F034FCC4
:101A9000782005F087FE292003F034FC4CE7A648A7
:101AA000808845F21031884240F07C87ED2003F0B9
:101AB00029FC012003F020FCFE2003F01DFCEE2099
:101AC00003F020FCDE2003F017FC212003F014FCBF
:101AD000F12003F017FC012003F00EFCDF2003F0DF
:101AE00011FC102003F008FCC42003F00BFC8F2035
:101AF00003F002FCC62003F005FC002003F0FCFB11
:101B0000E22003F0F9FBE22003F0F6FBE22003F011
:101B1000F3FBBF2003F0F6FBAA2003F0EDFBB0209F
:101B200003F0F0FB0D2003F0E7FB002003F0E4FBE3
:101B30000D2003F0E1FB002003F0DEFB112003F099
:101B4000DBFB002003F0D8FB192003F0D5FB0020BD
:101B500003F0D2FB212003F0CFFB002003F0CCFBED
:101B60002D2003F0C9FB002003F0C6FB3D2003F04D
:101B7000C3FB002003F0C0FB5D2003F0BDFB002091
:101B800003F0BAFB5D2003F0B7FB002003F0B4FBC9
:101B9000B12003F0B7FB802003F0AEFB002003F080
:101BA000ABFB8B2003F0A8FB002003F0A5FB9620E5
:101BB00003F0A2FB002003F09FFBB22003F0A2FB86
:101BC000002003F099FB002003F096FB022003F0B5
:101BD00093FB002003F090FB032003F08DFB00201B
:101BE00003F08AFBB32003F08DFB002003F084FB9D
:101BF000002003F081FB002003F07EFB002003F0B7
:101C00007BFB002003F078FB002003F075FB002035
:101C100003F072FB002003F06FFB002003F06CFB6D
:101C2000002003F069FB002003F066FB002003F0B6
:101C300063FB002003F060FB002003F05DFB00204D
:101C400003F05AFB002003F057FB002003F054FB85
:101C5000002003F051FB002003F04EFB002003F0B6
:101C60004BFB002003F048FB002003F045FB002065
:101C700003F042FB002003F03FFBB42003F042FBE3
:101C80008B2003F039FB002003F036FB962003F095
:101C900033FB002003F030FBA12003F02DFB0020DC
:101CA00003F02AFBB52003F02DFB022003F024FBF8
:101CB000002003F021FB032003F01EFB002003F0B3
:101CC0001BFB042003F018FB002003F015FBB620DB
:101CD00003F018FB002003F00FFB002003F00CFBC7
:101CE000B72003F00FFB002003F006FB002003F0F9
:101CF00003FB3F2003F000FB002003F0FDFA5E2011
:101D000003F0FAFA002003F0F7FA642003F0F4FA83
:101D1000002003F0F1FA8C2003F0EEFA002003F02B
:101D2000EBFAAC2003F0E8FA002003F0E5FADC203F
:101D300003F0E2FA002001E05C02002003F0DCFA8C
:101D4000702003F0D9FA002003F0D6FA902003F0B7
:101D5000D3FA002003F0D0FAEB2003F0CDFA0020F4
:101D600003F0CAFADC2003F0C7FA002003F0C4FA3B
:101D7000B82003F0C7FA002003F0BEFA002003F0F9
:101D8000BBFA002003F0B8FA002003F0B5FA0020F7
:101D900003F0B2FA002003F0AFFA002003F0ACFA2F
:101DA000002003F0A9FABA2003F0ACFA242003F0D3
:101DB000A3FA002003F0A0FA002003F09DFA00200F
:101DC00003F09AFAC12003F09DFA202003F094FA60
:101DD000002003F091FA542003F08EFA002003F063
:101DE0008BFAFF2003F088FA002003F085FAC22066
:101DF00003F088FA0A2003F07FFA002003F07CFA4F
:101E0000042003F079FA002003F076FAC32003F0EF
:101E100079FA3C2003F070FA002003F06DFA3A20C2
:101E200003F06AFA002003F067FA392003F064FA3D
:101E3000002003F061FA372003F05EFA002003F07F
:101E40005BFA3C2003F058FA002003F055FA3620E4
:101E500003F052FA002003F04FFA322003F04CFA5C
:101E6000002003F049FA2F2003F046FA002003F087
:101E700043FA2C2003F040FA002003F03DFA292019
:101E800003F03AFA002003F037FA262003F034FA80
:101E9000002003F031FA242003F02EFA002003F092
:101EA0002BFA242003F028FA002003F025FA23203F
:101EB00003F022FA002003F01FFA3C2003F01CFA82
:101EC000002003F019FA362003F016FA002003F080
:101ED00013FA322003F010FA002003F00DFA2F203D
:101EE00003F00AFA002003F007FA2C2003F004FAAA
:101EF000002003F001FA292003F0FEF9002003F08E
:101F0000FBF9262003F0F8F9002003F0F5F924206E
:101F100003F0F2F9002003F0EFF9242003F0ECF9CC
:101F2000002003F0E9F9232003F0E6F9002003F094
:101F3000E3F9C42003F0E6F9622003F0DDF90020A4
:101F400003F0DAF9052003F0D7F9002003F0D4F903
:101F5000842003F0D1F9002003F0CEF9F02003F043
:101F6000CBF9002003F0C8F9182003F0C5F90020D0
:101F700003F0C2F9A42003F0BFF9002003F0BCF97C
:101F8000182003F0B9F9002003F0B6F9502003F04F
:101F9000B3F9002003F0B0F90C2003F0ADF90020F4
:101FA00003F0AAF9172003F0A7F9002003F0A4F921
:101FB000952003F0A1F9002003F09EF9F32003F02F
:101FC0009BF9002003F098F9E62003F095F9002032
:101FD00003F092F9C52003F095F9322003F08CF953
:101FE000002003F089F9442003F086F9002003F073
:101FF00083F9652003F080F9002003F07DF9762055
:1020000003F07AF9002003F077F9882003F074F9DF
:10201000002003F071F9C62003F074F9202003F0CA
:102020006BF9002003F068F9172003F065F9002030
:1020300003F062F9012003F05FF9002003F05CF97E
:10204000C72003F05FF9002003F056F9002003F0E9
:1020500053F9002003F050F9002003F04DF9C82097
:1020600003F050F9002003F047F9002003F044F991
:10207000002003F041F9002003F03EF9C92003F0ED
:1020800041F9002003F038F9002003F035F9002071
:1020900003F032F9002003F02FF9002003F02CF9AF
:1020A000002003F029F9002003F026F9002003F0B6
:1020B00023F9002003F020F9002003F01DF900208F
:1020C00003F01AF9002003F017F9002003F014F9C7
:1020D000002003F011F9002003F00EF9002003F0B6
:1020E0000BF9E02003F00EF9162003F005F90020AB
:1020F00003F002F91C2003F0FFF8002003F0FCF8C5
:10210000212003F0F9F8002003F0F6F8362003F060
:10211000F3F8002003F0F0F8462003F0EDF800207B
:1021200003F0EAF8522003F0E7F8002003F0E4F8A7
:10213000642003F0E1F8002003F0DEF87A2003F0D9
:10214000DBF8002003F0D8F88B2003F0D5F800204E
:1021500003F0D2F8992003F0CFF8002003F0CCF878
:10216000A82003F0C9F8002003F0C6F8B92003F056
:10217000C3F8002003F0C0F8C42003F0BDF800202D
:1021800003F0BAF8CA2003F0B7F8002003F0B4F85F
:10219000D22003F0B1F8002003F0AEF8D92003F00C
:1021A000ABF8002003F0A8F8E02003F0A5F8002029
:1021B00003F0A2F8F32003F09FF8002003F09CF84E
:1021C000E12003F09FF8162003F096F8002003F0BA
:1021D00093F81C2003F090F8002003F08DF82220E3
:1021E00003F08AF8002003F087F8362003F084F823
:1021F000002003F081F8452003F07EF8002003F072
:102200007BF8522003F078F8002003F075F8642082
:1022100003F072F8002003F06FF87A2003F06CF8F6
:10222000002003F069F88B2003F066F8002003F02B
:1022300063F8992003F060F8002003F05DF8A8200F
:1022400003F05AF8002003F057F8B92003F054F8CF
:10225000002003F051F8C42003F04EF8002003F0F2
:102260004BF8CA2003F048F8002003F045F8D220CC
:1022700003F042F8002003F03FF8D82003F03CF8C8
:10228000002003F039F8E02003F036F8002003F0D6
:1022900033F8F32003F030F8002003F02DF8E220AB
:1022A00003F030F8052003F027F8002003F024F8AD
:1022B0000B2003F021F8002003F01EF81B2003F090
:1022C0001BF8002003F018F8342003F015F8002064
:1022D00003F012F8442003F00FF8002003F00CF88C
:1022E0004F2003F009F8002003F006F8612003F006
:1022F00003F8002003F000F8792002F0FDFF002031
:1023000002F0FAFF882002F0F7FF002002F0F4FF4D
:10231000972002F0F1FF002002F0EEFFA62002F06D
:10232000EBFF002002F0E8FFB72002F0E5FF0020FD
:1023300002F0E2FFC22002F0DFFF002002F0DCFF2B
:10234000C72002F0D9FF002002F0D6FFD12002F012
:10235000D3FF002002F0D0FFD62002F0CDFF0020F6
:1023600002F0CAFFDD2002F0C7FF002002F0C4FF28
:10237000F32002F0C1FF002002F0BEFFE32002F0D4
:10238000C1FF052002F0B8FF002002F0B5FF0A20CF
:1023900002F0B2FF002002F0AFFF1C2002F0ACFF01
:1023A000002002F0A9FF332002F0A6FF002002F077
:1023B000A3FF442002F0A0FF002002F09DFF502068
:1023C00002F09AFF002002F097FF622002F094FFD3
:1023D000002002F091FF782002F08EFF002002F032
:1023E0008BFF882002F088FF002002F085FF9720F5
:1023F00002F082FF002002F07FFFA62002F07CFFA7
:10240000002002F079FFB72002F076FF002002F0F2
:1024100073FFC22002F070FF002002F06DFFC720A2
:1024200002F06AFF002002F067FFD12002F064FF93
:10243000002002F061FFD52002F05EFF002002F0D4
:102440005BFFDD2002F058FF002002F055FFF32073
:1024500002F052FF002002F04FFFE42002F052FF92
:10246000012002F049FF002002F046FF012002F0A7
:1024700043FF002002F040FF022002F03DFF002059
:1024800002F03AFF2A2002F037FF002002F034FF6A
:102490003C2002F031FF002002F02EFF4B2002F022
:1024A0002BFF002002F028FF5D2002F025FF002016
:1024B00002F022FF742002F01FFF002002F01CFF38
:1024C000842002F019FF002002F016FF932002F092
:1024D00013FF002002F010FFA22002F00DFF0020E9
:1024E00002F00AFFB32002F007FF002002F004FF11
:1024F000BE2002F001FF002002F0FEFEC42002F028
:10250000FBFE002002F0F8FECD2002F0F5FE0020D8
:1025100002F0F2FED32002F0EFFE002002F0ECFE0B
:10252000DD2002F0E9FE002002F0E6FEF32002F0DA
:10253000E3FE002002F0E0FEE52002F0E3FE0020D2
:1025400002F0DAFE002002F0D7FE002002F0D4FEF6
:10255000002002F0D1FE022002F0CEFE002002F0A8
:10256000CBFE292002F0C8FE002002F0C5FE3C2070
:1025700002F0C2FE002002F0BFFE4B2002F0BCFEC3
:10258000002002F0B9FE5D2002F0B6FE002002F04D
:10259000B3FE742002F0B0FE002002F0ADFE8420F5
:1025A00002F0AAFE002002F0A7FE932002F0A4FE93
:1025B000002002F0A1FEA22002F09EFE002002F008
:1025C0009BFEB32002F098FE002002F095FEBE2094
:1025D00002F092FE002002F08FFEC42002F08CFE7A
:1025E000002002F089FECD2002F086FE002002F0DD
:1025F00083FED32002F080FE002002F07DFEDC206E
:1026000002F07AFE002002F077FEF32002F074FE62
:10261000002002F071FEE62002F074FE112002F0AC
:102620006BFE002002F068FE342002F065FE002000
:1026300002F062FE562002F05FFE002002F05CFE17
:10264000762002F059FE002002F056FE772002F0BC
:1026500053FE002002F050FE662002F04DFE0020E6
:1026600002F04AFE882002F047FE002002F044FEFD
:10267000992002F041FE002002F03EFEBB2002F055
:102680003BFE002002F038FE992002F035FE0020CB
:1026900002F032FE662002F02FFE002002F02CFE37
:1026A000552002F029FE002002F026FE552002F0FF
:1026B00023FE002002F020FE452002F01DFE002037
:1026C00002F01AFE432002F017FE002002F014FE72
:1026D000442002F011FE002002F00EFEE72002F07E
:1026E00011FE322002F008FE002002F005FE552007
:1026F00002F002FE002002F0FFFD762002F0FCFD59
:10270000002002F0F9FD662002F0F6FD002002F044
:10271000F3FD672002F0F0FD002002F0EDFD6720E0
:1027200002F0EAFD002002F0E7FD872002F0E4FD60
:10273000002002F0E1FD992002F0DEFD002002F011
:10274000DBFDBB2002F0D8FD002002F0D5FD992072
:1027500002F0D2FD002002F0CFFD772002F0CCFD88
:10276000002002F0C9FD442002F0C6FD002002F066
:10277000C3FD562002F0C0FD002002F0BDFD232065
:1027800002F0BAFD002002F0B7FD332002F0B4FDE4
:10279000002002F0B1FD452002F0AEFD002002F065
:1027A000ABFDE82002F0AEFD002002F0A5FD002008
:1027B00002F0A2FD992002F09FFD002002F09CFD96
:1027C000872002F099FD002002F096FD882002F09B
:1027D00093FD002002F090FD772002F08DFD002097
:1027E00002F08AFD662002F087FD002002F084FDE1
:1027F000882002F081FD002002F07EFDAA2002F078
:102800007BFD002002F078FDBB2002F075FD00206A
:1028100002F072FD992002F06FFD002002F06CFDC5
:10282000662002F069FD002002F066FD552002F0EE
:1028300063FD002002F060FD552002F05DFD0020E8
:1028400002F05AFD442002F057FD002002F054FD32
:10285000442002F051FD002002F04EFD552002F010
:102860004BFD002002F048FDE92002F04BFDAA20BC
:1028700002F042FD002002F03FFD002002F03CFD8E
:10288000002002F039FD002002F03CFDAA2002F0F9
:1028900033FDCF2002F036FD002002F02DFD002098
:1028A00002F02AFD002002F027FD002002F024FDA6
:1028B000002002F021FD002002F01EFD002002F0A9
:1028C0001BFD002002F018FD002002F015FD002085
:1028D00002F012FD002002F00FFD002002F00CFDBE
:1028E000002002F009FD002002F006FD002002F0A9
:1028F00003FD002002F000FD002002F0FDFCF020AE
:1029000002F000FD002002F0F7FC502002F0F4FC81
:10291000002002F0F1FC002002F0EEFC002002F0AA
:10292000EBFCF32002F0EEFC002002F0E5FCF920C5
:1029300002F0E8FC062002F0DFFC102002F0DCFCD4
:10294000292002F0D9FC002002F0D6FC3A2002F047
:10295000D9FC552002F0D0FC112002F0D3FC6420F9
:1029600004F020FF292002F0CDFC352002F0CAFC43
:10297000002002F0C1FC512002F0C4FCFF2002F054
:10298000BBFC532002F0BEFC2C2002F0B5FC55200D
:1029900002F0B8FC822002F0AFFC2C2002F0B2FC66
:1029A00002F0E9B8FE48808845F2105188427DD196
:1029B00055214FF4704002F0B5FCAA214FF20100FE
:1029C00002F0B0FC52214FF2020002F0ABFC0821F1
:1029D0004FF2030002F0A6FC01214FF2040002F0C6
:1029E000A1FC0D214FF4304002F09CFC0D214BF274
:1029F000010002F097FC0D214BF2020002F092FC64
:102A000034214FF4364002F08DFC34214BF201604A
:102A100002F088FC34214BF2026002F083FC0D21AD
:102A20004FF4314002F07EFC0D214BF2011002F018
:102A300079FC0D214BF2021002F074FC34214FF4AA
:102A4000374002F06FFC34214BF2017002F06AFC57
:102A500034214BF2027002F065FC00214FF4324049
:102A600002F060FC00214BF2012002F05BFC00212F
:102A70004BF2022002F056FC24214FF4384002F0C1
:102A800051FC24214BF6010002F04CFC24214BF6B2
:102A9000020002F047FC01214FF43F4002F042FCEB
:102AA0000F214FF4334002F03DFC00E0FDE30F2125
:102AB0004BF2013002F036FC0F214BF2023002F0F3
:102AC00031FC34214FF4394002F02CFC34214BF618
:102AD000011002F027FC34214BF6021002F022FC18
:102AE00008214FF4354002F01DFC08214BF2015043
:102AF00002F018FC08214BF2025002F013FC0321F3
:102B00004FF4424002F00EFC24214FF43A4002F010
:102B100009FC24214BF6012002F004FC24214BF691
:102B2000022002F0FFFB00214FF43C4002F0FAFBD0
:102B300078214BF6014002F0F5FB00214BF60240F4
:102B400002F0F0FB00214FF43D4002F0EBFB782156
:102B50004BF6015002F0E6FB00214BF6025002F06A
:102B6000E1FB00214FF43E4002F0DCFB64214BF618
:102B7000016002F0D7FB00214FF4514002F0D2FB7C
:102B800033214DF2011002F0CDFB00214DF2021075
:102B900002F0C8FB34214DF2031002F0C3FB002108
:102BA0004DF2041002F0BEFB3A214DF2051002F086
:102BB000B9FB00214DF2061002F0B4FB4A214DF2A0
:102BC000071002F0AFFB00214DF2081002F0AAFB43
:102BD0005C214DF2091002F0A5FB00214DF20A1014
:102BE00002F0A0FB81214DF20B1002F09BFB0021B3
:102BF0004DF20C1002F096FBA6214DF20D1002F0E2
:102C000091FB00214DF20E1002F08CFBE5214DF2FC
:102C10000F1002F087FB01214DF2101002F082FB31
:102C200013214DF2111002F07DFB01214DF2121023
:102C300002F078FB54214DF2131002F073FB0121D6
:102C40004DF2141002F06EFB82214DF2151002F0CD
:102C500069FB01214DF2161002F064FBCA214DF20E
:102C6000171002F05FFB02214DF2181002F05AFB20
:102C700000214DF2191002F055FB02214DF21A10FD
:102C800002F050FB01214DF21B1002F04BFB022120
:102C90004DF21C1002F046FB34214DF21D1002F0E3
:102CA00041FB02214DF21E1002F03CFB67214DF268
:102CB0001F1002F037FB02214DF2201002F032FB10
:102CC00084214DF2211002F02DFB02214DF2221041
:102CD00002F028FBA4214DF2231002F023FB022175
:102CE0004DF2241002F01EFBB7214DF2251002F028
:102CF00019FB02214DF2261002F014FBCF214DF2F8
:102D0000271002F00FFB02214DF2281002F00AFBFF
:102D1000DE214DF2291002F005FB02214DF22A10AE
:102D200002F000FBF2214DF22B1002F0FBFA02211F
:102D30004DF22C1002F0F6FAFE214DF22D1002F0A9
:102D4000F1FA03214DF22E1002F0ECFA10214DF2AF
:102D50002F1002F0E7FA03214DF2301002F0E2FAF0
:102D600033214DF2311002F0DDFA03214DF2321021
:102D700002F0D8FA6D214DF2331002F0D3FA00219F
:102D80004FF4524002F0CEFA33214DF2012002F00E
:102D9000C9FA00214DF2022002F0C4FA342101E008
:102DA0005C0200204DF2032002F0BCFA00214DF23B
:102DB000042002F0B7FA3A214DF2052002F0B2FAEF
:102DC00000214DF2062002F0ADFA4A214DF2072013
:102DD00002F0A8FA00214DF2082002F0A3FA5C21CB
:102DE0004DF2092002F09EFA00214DF20A2002F075
:102DF00099FA81214DF20B2002F094FA00214DF254
:102E00000C2002F08FFAA6214DF20D2002F08AFA72
:102E100000214DF20E2002F085FAE5214DF20F203F
:102E200002F080FA01214DF2102002F07BFA13210A
:102E30004DF2112002F076FA01214DF2122002F03B
:102E400071FA54214DF2132002F06CFA01214DF277
:102E5000142002F067FA82214DF2152002F062FA86
:102E600001214DF2162002F05DFACA214DF2172021
:102E700002F058FA02214DF2182002F053FA002114
:102E80004DF2192002F04EFA02214DF21A2002F002
:102E900049FA01214DF21B2002F044FA02214DF2C1
:102EA0001C2002F03FFA34214DF21D2002F03AFAC4
:102EB00002214DF21E2002F035FA67214DF21F204B
:102EC00002F030FA02214DF2202002F02BFA842188
:102ED0004DF2212002F026FA02214DF2222002F0CA
:102EE00021FAA4214DF2232002F01CFA02214DF216
:102EF000242002F017FAB7214DF2252002F012FA31
:102F000002214DF2262002F00DFACF214DF22720AA
:102F100002F008FA02214DF2282002F003FADE2125
:102F20004DF2292002F0FEF902214DF22A2002F092
:102F3000F9F9F2214DF22B2002F0F4F902214DF2C1
:102F40002C2002F0EFF9FE214DF22D2002F0EAF9DB
:102F500003214DF22E2002F0E5F910214DF22F2031
:102F600002F0E0F903214DF2302002F0DBF93321C9
:102F70004DF2312002F0D6F903214DF2322002F059
:102F8000D1F96D214DF2332002F0CCF900214FF43C
:102F9000534002F0C7F933214DF2013002F0C2F97B
:102FA00000214DF2023002F0BDF934214DF2033020
:102FB00002F0B8F900214DF2043002F0B3F93A21E1
:102FC0004DF2053002F0AEF900214DF2063002F06C
:102FD000A9F94A214DF2073002F0A4F900214DF27F
:102FE000083002F09FF95C214DF2093002F09AF9A5
:102FF00000214DF20A3002F095F981214DF20B309B
:1030000002F090F900214DF20C3002F08BF9A6216C
:103010004DF20D3002F086F900214DF20E3002F033
:1030200081F9E5214DF20F3002F07CF901214DF2DA
:10303000103002F077F913214DF2113002F072F9DD
:1030400001214DF2123002F06DF954214DF213308E
:1030500002F068F901214DF2143002F063F9822187
:103060004DF2153002F05EF901214DF2163002F0FA
:1030700059F9CA214DF2173002F054F902214DF2EC
:10308000183002F04FF900214DF2193002F04AF9E0
:1030900002214DF21A3002F045F901214DF21B30A8
:1030A00002F040F902214DF21C3002F03BF93421CC
:1030B0004DF21D3002F036F902214DF21E3002F0C1
:1030C00031F967214DF21F3002F02CF902214DF247
:1030D000203002F027F984214DF2213002F022F94C
:1030E00002214DF2223002F01DF9A4214DF22330CD
:1030F00002F018F902214DF2243002F013F9B72141
:103100004DF2253002F00EF902214DF2263002F088
:1031100009F9CF214DF2273002F004F902214DF2D6
:10312000283002F0FFF8DE214DF2293002F0FAF8E3
:1031300002214DF22A3002F0F5F8F2214DF22B3047
:1031400002F0F0F802214DF22C3002F0EBF8FE21F3
:103150004DF22D3002F0E6F803214DF22E3002F050
:10316000E1F810214DF22F3002F0DCF803214DF28E
:10317000303002F0D7F833214DF2313002F0D2F87E
:1031800003214DF2323002F0CDF86D214DF2333093
:1031900002F0C8F800214FF4544002F0C3F8332184
:1031A0004DF2014002F0BEF800214DF2024002F063
:1031B000B9F834214DF2034002F0B4F800214DF289
:1031C000044002F0AFF83A214DF2054002F0AAF8AF
:1031D00000214DF2064002F0A5F84A214DF20740C9
:1031E00002F0A0F800214DF2084002F09BF85C21AB
:1031F0004DF2094002F096F800214DF20A4002F02B
:1032000091F881214DF20B4002F08CF800214DF233
:103210000C4002F087F8A6214DF20D4002F082F832
:1032200000214DF20E4002F07DF8E5214DF20F40F5
:1032300002F078F801214DF2104002F073F81321EA
:103240004DF2114002F06EF801214DF2124002F0F1
:1032500069F854214DF2134002F064F801214DF257
:10326000144002F05FF882214DF2154002F05AF846
:1032700001214DF2164002F055F8CA214DF21740D7
:1032800002F050F802214DF2184002F04BF80021F4
:103290004DF2194002F046F802214DF21A4002F0B8
:1032A00041F801214DF21B4000E006E302F03AF83C
:1032B00002214DF21C4002F035F834214DF21D4040
:1032C00002F030F802214DF21E4002F02BF8672187
:1032D0004DF21F4002F026F802214DF2204002F08C
:1032E00021F884214DF2214002F01CF802214DF218
:1032F000224002F017F8A4214DF2234002F012F808
:1033000002214DF2244002F00DF8B7214DF2254084
:1033100002F008F802214DF2264002F003F8CF2116
:103320004DF2274001F0FEFF02214DF2284001F04E
:10333000F9FFDE214DF2294001F0F4FF02214DF2A8
:103340002A4001F0EFFFF2214DF22B4001F0EAFF9D
:1033500002214DF22C4001F0E5FFFE214DF22D40FF
:1033600001F0E0FF03214DF22E4001F0DBFF1021C0
:103370004DF22F4001F0D6FF03214DF2304001F015
:10338000D1FF33214DF2314001F0CCFF03214DF24A
:10339000324001F0C7FF6D214DF2334001F0C2FF12
:1033A00000214FF4554001F0BDFF33214DF2015093
:1033B00001F0B8FF00214DF2025001F0B3FF3421BB
:1033C0004DF2035001F0AEFF00214DF2045001F028
:1033D000A9FF3A214DF2055001F0A4FF00214DF262
:1033E000065001F09FFF4A214DF2075001F09AFF6D
:1033F00000214DF2085001F095FF5C214DF209507B
:1034000001F090FF00214DF20A5001F08BFF812165
:103410004DF20B5001F086FF00214DF20C5001F0EF
:1034200081FFA6214DF20D5001F07CFF00214DF2ED
:103430000E5001F077FFE5214DF20F5001F072FFC1
:1034400001214DF2105001F06DFF13214DF211508A
:1034500001F068FF01214DF2125001F063FF542189
:103460004DF2135001F05EFF01214DF2145001F0B6
:1034700059FF82214DF2155001F054FF01214DF208
:10348000165001F04FFFCA214DF2175001F04AFFCC
:1034900002214DF2185001F045FF00214DF2195064
:1034A00001F040FF02214DF21A5001F03BFF0121D3
:1034B0004DF21B5001F036FF02214DF21C5001F07D
:1034C00031FF34214DF21D5001F02CFF02214DF24D
:1034D0001E5001F027FF67214DF21F5001F022FF1F
:1034E00002214DF2205001F01DFF84214DF22150A8
:1034F00001F018FF02214DF2225001F013FFA42128
:103500004DF2235001F00EFF02214DF2245001F044
:1035100009FFB7214DF2255001F004FF02214DF2C1
:10352000265001F0FFFECF214DF2275001F0FAFEA8
:1035300002214DF2285001F0F5FEDE214DF2295016
:1035400001F0F0FE02214DF22A5001F0EBFEF221D3
:103550004DF22B5001F0E6FE02214DF22C5001F00D
:10356000E1FEFE214DF22D5001F0DCFE03214DF273
:103570002E5001F0D7FE10214DF22F5001F0D2FE57
:1035800003214DF2305001F0CDFE33214DF2315088
:1035900001F0C8FE03214DF2325001F0C3FE6D214F
:1035A0004DF2335001F0BEFE00214FF4564001F0C1
:1035B000B9FE33214DF2016001F0B4FE00214DF25D
:1035C000026001F0AFFE34214DF2036001F0AAFE6B
:1035D00000214DF2046001F0A5FE3A214DF2056094
:1035E00001F0A0FE00214DF2066001F09BFE4A2191
:1035F0004DF2076001F096FE00214DF2086001F0E7
:1036000091FE5C214DF2096001F08CFE00214DF22B
:103610000A6001F087FE81214DF20B6001F082FE0D
:1036200000214DF20C6001F07DFEA6214DF20D60EF
:1036300001F078FE00214DF20E6001F073FEE521ED
:103640004DF20F6001F06EFE01214DF2106001F0AD
:1036500069FE13214DF2116001F064FE01214DF26B
:10366000126001F05FFE54214DF2136001F05AFE2A
:1036700001214DF2146001F055FE82214DF21560DA
:1036800001F050FE01214DF2166001F04BFECA21FF
:103690004DF2176001F046FE02214DF2186001F074
:1036A00041FE00214DF2196001F03CFE02214DF275
:1036B0001A6001F037FE01214DF21B6001F032FE6D
:1036C00002214DF21C6001F02DFE34214DF21D60EF
:1036D00001F028FE02214DF21E6001F023FE672159
:1036E0004DF21F6001F01EFE02214DF2206001F03C
:1036F00019FE84214DF2216001F014FE02214DF2E9
:10370000226001F00FFEA4214DF2236001F00AFEB9
:1037100002214DF2246001F005FEB7214DF2256033
:1037200001F000FE02214DF2266001F0FBFDCF21E9
:103730004DF2276001F0F6FD02214DF2286001F004
:10374000F1FDDE214DF2296001F0ECFD02214DF288
:103750002A6001F0E7FDF2214DF22B6001F0E2FD5D
:1037600002214DF22C6001F0DDFDFE214DF22D60B5
:1037700001F0D8FD03214DF22E6001F0D3FD1021A0
:103780004DF22F6001F0CEFD03214DF2306001F0CB
:10379000C9FD33214DF2316001F0C4FD03214DF22A
:1037A000326001F0BFFD6D214DF2336001F0BAFDD2
:1037B00055214FF4704001F0B5FDAA214FF20100F0
:1037C00001F0B0FD52214FF2020001F0ABFD0821E3
:1037D0004FF2030001F0A6FD00214FF2040001F0BA
:1037E000A1FDCC214FF4314001F09CFD00214BF2B2
:1037F000011001F097FD05214FF4364001F092FDD4
:1038000070214FF4374001F08DFD70214BF20170B3
:1038100001F088FD01214FF4384001F083FD0321C0
:103820004BF6010001F07EFD03214BF6020001F092
:1038300079FD03214BF6030001F074FD02214FF4E2
:103840003C4001F06FFD00214BF6014001F06AFDA4
:1038500000214BF6024001F065FDD0214FF44940B4
:1038600001F060FD02214CF6011001F05BFD5021DA
:103870004CF6021001F056FD50214CF6031001F0F9
:1038800051FD50214CF6041001F04CFD00214FF485
:10389000545001F047FD55214FF4685001F042FDAE
:1038A0004FF4885001F02EFD782003F099FF4FF47B
:1038B000245001F027FD01F05EB9FE48808849F2EE
:1038C000253188427ED147F6F001E52001F02AFD3E
:1038D0004FF48071012001F025FD4FF4E0610220DA
:1038E00001F020FD41F23001032001F01BFD002119
:1038F000042001F017FD40F20221082001F012FD22
:103900000021092001F00EFD00210A2001F00AFD2E
:1039100000210C2001F006FD00210D2001F002FD28
:1039200000210F2001F0FEFC0021102001F0FAFC24
:103930000721112001F0F6FC0021122001F0F2FC19
:103940000021132001F0EEFC0021072001F0EAFC29
:1039500041F29061102001F0E5FC40F22721112096
:1039600001F0E0FC9D21122001F0DCFC4FF4C85175
:10397000132001F0D7FC2521292001F0D3FC0D21D3
:103980002B2001F0CFFC0721302001F0CBFC40F2CE
:103990000331312001F0C6FC0321322001F0C2FCCA
:1039A00040F20621352001F0BDFC0821362001F04F
:1039B000B9FC40F20641372001F0B4FC4FF44171EC
:1039C000382000E057E001F0ADFC0721392001F07C
:1039D000A9FC40F202613C2001F0A4FC08213D203A
:1039E00001F0A0FC0021502001F09CFCEF215120AF
:1039F00001F098FC0021522001F094FC40F23F11AC
:103A0000532001F08FFC4FF42741602001F08AFC25
:103A10000121612001F086FC00216A2001F082FC76
:103A20000021802001F07EFC0021812001F07AFC41
:103A30000021822001F076FC0021832001F072FC3D
:103A40000021842001F06EFC0021852001F06AFC39
:103A50001021902001F066FC4FF4C061922001F02B
:103A600061FC40F23311072001F05CFC22210020B0
:103A700001F058FC1FE78F48808849F228318842BE
:103A80007ED141F28F01EC2001F04CFC41F2342157
:103A9000EF2001F047FC4FF48071012001F042FC5F
:103AA0004FF4E061022001F03DFC41F230010320BF
:103AB00001F038FC0021042001F034FC40F2022126
:103AC000082001F02FFC0021092001F02BFC00212F
:103AD0000A2001F027FC01210C2001F023FC002129
:103AE0000D2001F01FFC00210F2001F01BFC002124
:103AF000102001F017FC0721112001F013FC002118
:103B0000122001F00FFC0021132001F00BFC012119
:103B1000072001F007FC322003F044FE41F29041FF
:103B2000102001F0FFFB40F22721112001F0FAFBE9
:103B3000322003F037FE8A21122001F0F3FB3220FD
:103B400003F030FE4FF4D051132001F0EBFB0621BF
:103B5000292001F0E7FB0D212B2001F0E3FB3220AF
:103B600003F020FE0021202001F0DCFB00212120B9
:103B700001F0D8FB322003F015FE0021302000E0D8
:103B800074E001F0CFFB40F20461312001F0CAFB88
:103B900040F20531322001F0C5FB0021352001F053
:103BA000C1FB40F60941362001F0BCFB4FF4017126
:103BB000372001F0B7FB40F20131382001F0B2FBB1
:103BC00040F20771392001F0ADFB00213C2001F0EB
:103BD000A9FB40F60A213D2001F0A4FB322003F0AE
:103BE000E1FD0021502001F09DFBEF21512001F06B
:103BF00099FB0021522001F095FB40F23F11532028
:103C000001F090FB4FF42741602001F08BFB012174
:103C1000612001F087FB00216A2001F083FB002175
:103C2000802001F07FFB0021812001F07BFB00213F
:103C3000822001F077FB0021832001F073FB00213B
:103C4000842001F06FFB0021852001F06BFB102127
:103C5000902001F067FB4FF4C061922001F062FBFD
:103C600040F23311072001F05DFB24E61148808803
:103C700049F2203188427DD10021084601F052FBF3
:103C80004FF48071012001F04DFB4FF4E061022000
:103C900001F048FB41F23001032001F043FB002119
:103CA000042001F03FFB40F20221082001F03AFB22
:103CB000002101E05C020020092001F033FB00211B
:103CC0000A2001F02FFB01210C2001F02BFB002129
:103CD0000D2001F027FB00210F2001F023FB3220F3
:103CE00003F060FD40F20111072001F01BFB3220C0
:103CF00003F058FD4FF48651102001F013FB07210B
:103D0000112001F00FFB4FF48871122001F00AFB23
:103D10004FF43061132001F005FB0021292001F050
:103D200001FB44F210012B2001F0FCFA002150208D
:103D300001F0F8FAEF21512001F0F4FA00215220AD
:103D400001F0F0FA40F23F11532001F0EBFA4FF48A
:103D50001C51602001F0E6FA0121612001F0E2FA35
:103D600000216A2001F0DEFA0021802001F0DAFA59
:103D7000002100E031E0812001F0D4FA002182200E
:103D800001F0D0FA0021832001F0CCFA0021842038
:103D900001F0C8FA0021852001F0C4FA102190201A
:103DA00001F0C0FA0021922001F0BCFA0121932019
:103DB00001F0B8FA4FF48871952001F0B3FA0021B0
:103DC000972001F0AFFA0021982001F0ABFA40F201
:103DD0007311072001F0A6FA6DE5FE48808849F2CC
:103DE000313188427DD141F21401E72001F09AFA85
:103DF0004FF48071012001F095FA4FF40071022018
:103E000001F090FA41F23801032001F08BFA40F200
:103E10000221082001F086FA0021092001F082FA2F
:103E200000210A2001F07EFA00210C2001F07AFA2C
:103E300000210D2001F076FA00210F2001F072FA26
:103E40000021102001F06EFA0721112001F06AFA1A
:103E50000021122001F066FA0021132001F062FA1D
:103E6000C82003F09FFC41F29061102001F05AFA43
:103E700040F22721112001F055FA322003F092FC84
:103E80000C21122001F04EFA322003F08BFC4FF48B
:103E90000061132001F046FA1121292001F042FAB5
:103EA0000B212B2001F03EFA322003F07BFC002195
:103EB000202001F037FA40F23F11212001F032FAC0
:103EC0000021302001F02EFA4FF48371312001F0EF
:103ED00029FA0021322001F025FA4FF40171352032
:103EE00000E064E001F01EFA41F20A61362001F0C0
:103EF00019FA40F20771372001F014FA4FF4837178
:103F0000382001F00FFA40F20771392001F00AFA67
:103F100040F202413C2001F005FA40F60F413D20FD
:103F200001F000FA0021502001F0FCF9EF215120AE
:103F300001F0F8F90021522001F0F4F940F23F11AC
:103F4000532001F0EFF94FF41C51602001F0EAF921
:103F50000121612001F0E6F900216A2001F0E2F977
:103F60000021802001F0DEF90021812001F0DAF942
:103F70000021822001F0D6F90021832001F0D2F93E
:103F80000021842001F0CEF90021852001F0CAF93A
:103F90001021902001F0C6F94FF4C061922001F089
:103FA000C1F940F23311072001F0BCF983E48948DC
:103FB000808845F2084188427ED14FF4807101200B
:103FC00001F0B0F94FF4E061022001F0ABF941F2E9
:103FD0003001032001F0A6F90021042001F0A2F92C
:103FE00040F20721082001F09DF90021092001F08D
:103FF00099F900210A2001F095F900210C2001F027
:1040000091F900210D2001F08DF900210F2001F020
:1040100089F9142003F0C6FB41F2B061102001F0D1
:1040200081F90121112001F07DF90121172001F012
:1040300079F94FF49C71122001F074F94FF400618A
:10404000132001F06FF90921292001F06BF90921F2
:104050002A2001F067F90021A42001F063F9002172
:10406000502001F05FF9EF21512001F05BF90021B0
:10407000522001F057F940F23F11532001F052F95C
:104080004FF41C51602001F04DF90121612001F035
:1040900049F900216A2001F045F90021802001F052
:1040A00041F90021812001F03DF90021822001F039
:1040B00039F90021832000E023E001F033F90021E9
:1040C000842001F02FF90021852001F02BF9132124
:1040D000902001F027F90021922001F023F903211B
:1040E000932001F01FF94FF48871952001F01AF91F
:1040F00040F27311072001F015F9322003F052FB52
:10410000B8E43448808841F2055188427ED10021CC
:10411000072001F007F9322003F044FB4FF48E71C1
:10412000122001F0FFF80121A42001F0FBF80F217B
:10413000082001F0F7F808210A2001F0F3F808211F
:104140000D2001F0EFF840F20771302001F0EAF89D
:104150000721312001F0E6F840F20361322001F03E
:10416000E1F84FF4E061332001F0DCF840F2022185
:10417000342001F0D7F80221352001F0D3F841F6C0
:104180000F71362001F0CEF840F20771372001F0B0
:10419000C9F80021382001F0C5F80021392001F0CC
:1041A000C1F840F207713A2001F0BCF800213B2031
:1041B00001F0B8F807213C2001F0B4F800213D20BF
:1041C00001F0B0F8322003F0EDFA0121072001F0F0
:1041D000A9F801E05C0200200121172001F0A2F8FB
:1041E000322003F0DFFA4FF4BD51102001F09AF8AD
:1041F00040F21721112001F095F84FF48F71122031
:1042000001F090F84FF47061132000E097E001F0A6
:1042100089F800212A2001F085F80A21292001F0DF
:1042200081F84FF49F71122001F07CF8002150209A
:1042300001F078F8EF21512001F074F800215220AC
:1042400001F070F840F23F11532001F06BF84FF489
:104250001C51602001F066F80121612001F062F834
:1042600000216A2001F05EF80021802001F05AF858
:104270000021812001F056F80021822001F052F83F
:104280000021832001F04EF80021842001F04AF83B
:104290000021852001F046F81321902001F042F81A
:1042A0004FF44071922001F03DF80521932001F078
:1042B00039F80021952001F035F80021972001F010
:1042C00031F80021982001F02DF84FF48071012081
:1042D00001F028F84FF4E061022001F023F841F2E8
:1042E0003801032001F01EF80021042001F01AF823
:1042F00000210C2001F016F800210F2001F012F827
:104300000021202001F00EF80021212001F00AF800
:104310002121072001F006F8142003F043FA61215F
:10432000072000F0FFFF142003F03CFA40F2731165
:10433000072000F0F7FF142003F034FA95E4FE485C
:1043400080884BF2055188427ED10021084600F05A
:10435000E9FF0021084600F0E5FF0021084600F0D3
:10436000E1FF0021084600F0DDFF0121A42000F05C
:10437000D9FF142003F016FA4FF41C51602000F00E
:10438000D1FF40F20221082000F0CCFF4FF405716C
:10439000302000F0C7FF43F21571312000F0C2FF5A
:1043A00040F20461322000F0BDFF40F61661332078
:1043B00000F0B8FF42F21121342000F0B3FF4FF4B7
:1043C000A851352000F0AEFF48F20751362000F02A
:1043D000A9FF41F20741372000F0A4FF41F2034159
:1043E000382000F09FFF2021392000F09BFF1A2188
:1043F000902000F097FF0021102000F093FF07218C
:10440000112000F08FFF0021122000F08BFF00210F
:10441000132000F087FF142003F0C4F94FF4E66185
:10442000102000F07FFF40F23711112000F07AFFDA
:10443000142003F0B7F94FF4DC71122000F072FF82
:10444000142003F0AFF900E083E04FF47061132013
:1044500000F068FF80212A2000F064FF4821292015
:1044600000F060FF142003F09DF94FF480710120EB
:1044700000F058FF4FF4E061022000F053FF41F2DA
:104480003801032000F04EFF40F20221082000F026
:1044900049FF00210A2000F045FF00210C2000F018
:1044A00041FF00210D2000F03DFF30210E2000F0E3
:1044B00039FF0021502000F035FFEF21512000F09E
:1044C00031FF0021522000F02DFF40F23F11532018
:1044D00000F028FF4FF41C51602000F023FF012161
:1044E000612000F01FFF00216A2000F01BFF112156
:1044F000902000F017FF4FF4C061922000F012FFEF
:1045000040F20241932000F00DFF0221942000F0C0
:1045100009FF142003F046F90121072000F002FFF3
:10452000142003F03FF96121072000F0FBFE40F268
:104530007311072000F0F6FE0021202000F0F2FEAB
:104540000021212000F0EEFE2221002000F0EAFEF2
:1045500011E3794880884CF2055188427ED10021D0
:10456000084600F0DFFE0021084600F0DBFE1420C4
:1045700003F018F90021084600F0D4FE0021084697
:1045800000F0D0FE0021084600F0CCFE00210846D5
:1045900000F0C8FE0121A42000F0C4FE142003F0A6
:1045A00001F94FF41C51602000F0BCFE40F60601FA
:1045B000082000F0B7FE40F20371302000F0B2FE98
:1045C0000121312000F0AEFE0421322000F0AAFECD
:1045D0004FF48171332000F0A5FE4FF44071342078
:1045E00000F0A0FE40F20311352000F09BFE1F21D9
:1045F000362000F097FE40F20371372000F092FE63
:104600000121382000F08EFE0421392000F08AFEBE
:104610001521902000F086FE4FF48261102000F0FA
:1046200081FE40F24721112000F07CFE4FF4DE7144
:10463000122000F077FE4FF46061132000F072FE4C
:10464000782003F0AFF84FF48071012000F06AFE8B
:104650004FF40071022000F065FE00E050E041F2EE
:104660003001032000F05EFE08210A2000F05AFE0F
:1046700000210C2000F056FE20210E2000F052FEFA
:1046800000210F2000F04EFE0021202000F04AFE05
:104690000021212000F046FE3D212A2000F042FEAC
:1046A000142003F07FF82D21292000F03BFE00218B
:1046B000502000F037FE4DF2EF01512000F032FEA5
:1046C0000021522000F02EFE40F23F11532000F056
:1046D00029FE0021612000F025FE00216A2000F063
:1046E00021FE4FF44071922000F01CFE0521932022
:1046F00000F018FE4FF48071072000F013FE3AE23C
:104700000D48808844F2315188427CD1012100203B
:1047100000F008FE0A2003F045F841F2286110205D
:1047200000F000FE0E21122000F0FCFD40F63921C1
:10473000132000F0F7FD01E05C0200200A2003F0E6
:1047400031F84021112000F0EDFD5021152000F03E
:10475000E9FD0A2003F026F81E21122000F0E2FDF8
:104760000A2003F01FF84FF4B151102000F0DAFDD9
:1047700042F63921132000F0D5FD0A2003F012F88B
:104780004FF48071012000F0CDFD4FF44071022004
:1047900000F0C8FD41F23801032000F0C3FD40F2F3
:1047A0000221082000F0BEFD08210A2000F0BAFD19
:1047B0000021302000F0B6FD40F20241312000F02F
:1047C000B1FD4FF48371322000F0ACFD40F2035193
:1047D000332000F0A7FD4FF48271342000F0A2FDD9
:1047E00040F20131352000F09DFD40F20771362086
:1047F00000F098FD40F20531372000F093FD4FF4B2
:104800000271382000E040E000F08CFD40F60B71B2
:10481000392000F087FD0221412000F083FD4FF494
:104820001C51602000F07EFD0121612000F07AFD26
:104830004FF40471902000F075FD4FF485719220C3
:1048400000F070FD0421932000F06CFD4FF48071A6
:10485000A02000F067FD0121072000F063FD212169
:10486000072000F05FFD2321072000F05BFD3321CE
:10487000072000F057FD40F23311072000F052FDF1
:104880000021A02000F04EFD75E1C048808844F270
:10489000355188427ED13021152000F043FD102192
:1048A0009A2000F03FFD2021112000F03BFD43F253
:1048B0002841102000F036FD0221122000F032FDC8
:1048C00041F23801132000F02DFD282002F06AFF8C
:1048D0001221084600F026FD282002F063FF43F273
:1048E0002041102000F01EFD43F23801132000F09B
:1048F00019FD462002F056FF0021302000F012FD85
:1049000040F20241312000F00DFD40F2073132202B
:1049100000F008FD4FF44171332000F003FD042145
:10492000342000F0FFFC40F20141352000F0FAFC99
:1049300040F20771362000F0F5FC40F205313720D7
:1049400000F0F0FC4FF4C261382000F0EBFC4FF4B3
:10495000C261392000F0E6FC4FF48071012000F0C4
:10496000E1FC4FF44071022000F0DCFC41F2300128
:10497000032000F0D7FC40F60801082000F0D2FC2C
:1049800008210A2000F0CEFC4FF41C51602000F0FA
:10499000C9FC00E031E00121612000F0C3FC4FF4CC
:1049A0009F71902000F0BEFC4FF48071922000F0C7
:1049B000B9FC4FF48071932000F0B4FC4FF44051E7
:1049C000A02000F0AFFC1021A32000F0ABFC0121DF
:1049D000072000F0A7FC2121072000F0A3FC2321E1
:1049E000072000F09FFC3321072000F09BFC40F2E1
:1049F0003311072000F096FCBDE06448808841F642
:104A000063118842F8D1E22000F07CFC1D2000F008
:104A100073FC022000F070FC042000F06DFC6420A8
:104A200002F0DEFEE02000F06DFC012000F064FCEE
:104A30000A2002F0B7FEE02000F064FC032000F042
:104A40005BFC0C2002F0AEFE012000F05BFC0A20B3
:104A500002F0A8FEE62000F055FC2F2000F04CFCF0
:104A6000FF2000F049FCFF2000F046FCB02000F0E1
:104A700049FC202000F040FC002000F03DFC032019
:104A800000F03AFC40F21F3000F036FC012000F04C
:104A900033FC40F2DF1000F02FFC002000F02CFC73
:104AA000B42000F02FFC042000F026FC40F21F4050
:104AB00000F022FC002000F01FFC2E2000F01CFC67
:104AC000002000F019FC002000F016FC002000F08F
:104AD00013FC002000F010FCB62000F013FC0220B4
:104AE00000F00AFC4FF4037000F006FC002000F018
:104AF00003FC172000F000FC152000F0FDFB002057
:104B000000F0FAFB002000F0F7FBF02000F0FAFBC9
:104B1000032000F0F1FB292000F0F4FBD02000F08E
:104B2000F1FB002000F0E8FBBE2000F0EBFB0520CD
:104B300000F0E2FBFE2000F0DFFB012000F0DCFBD8
:104B4000002000F0D9FB002000F0D6FB002000F090
:104B5000D3FBB82000F0D6FB032000F0CDFB0120F2
:104B600000F0CAFBBA2000F0CDFB012000F0C4FB2E
:104B7000642000F031F80020FCF728FA01200449F5
:104B800008604FF6FF70FCF7EBF910BD5C020020E7
:104B90008081214210B50246012000E050430B1EE7
:104BA000A1F10104E1B2F9D110BD000008B503483C
:104BB00000880090BDF8000008BD00000008006CEF
:104BC00010B50446204600F09DFB052002F008FECB
:104BD000FFF7ECFF10BD00002DE9F0470446BE20B2
:104BE00000F090FB052000F087FB204606F0C7F898
:104BF00007464FF066320C4B06F0D4F8054606F037
:104C000091F81FFA80F9484600F076FB012000F089
:104C100073FBFF2000F070FB002000F06DFB002014
:104C200000F06AFBBDE8F0876666044070B5044694
:104C300000230026B748807901280BD1B548808829
:104C400046F60401884205D0B248808841F66311D7
:104C5000884208D1AF488079F0B9AE48808841F6E3
:104C60006311884218D1082C15D2DFE804F004063D
:104C7000080A0C0E101206240DE007240BE0042491
:104C800009E0052407E0012405E0002403E00324F3
:104C900001E0022400BF00BF9E48808849F24131F4
:104CA000884217D09B48808846F60401884211D07C
:104CB0009848808845F2103188420BD0954880880A
:104CC00045F21051884205D09248808841F6631120
:104CD00088427DD1082C1CD2DFE804F00406090CC0
:104CE0000F12151800BF14E043F0800311E043F0E9
:104CF00040030EE043F0C0030BE043F0200308E064
:104D000043F0600305E043F0A00302E043F0E0035A
:104D100000BF00BF7F48808845F21051884202D111
:104D20004FF4585600E036267A48808845F2103114
:104D300088420DD07748808845F21051884207D0CC
:104D40007448808841F66311884201D043F008031B
:104D50007048808846F60401884201D143F002037E
:104D60001946304600F0DEFA6A48808841F6631141
:104D700088421DD003F0200068B16648008865496C
:104D80004988884214DA6348058840886149088068
:104D9000084645800CE05F4800885E4949888842A3
:104DA00006DD5C48058840885A49088008464580E9
:104DB0005848808845F21051884254D15549488955
:104DC00000F0A0FA002000F097FA5249498900E06B
:104DD00078E0491C88B200F095FA002000F08CFAC7
:104DE0004C494989891C88B200F08CFA49490988E4
:104DF000491EC1F30F2000F07FFA46494989C91CBA
:104E000088B200F07FFA43490978491EC8B200F021
:104E100073FA4049888900F075FA002000F06CFAB6
:104E20003C498989491C88B200F06CFA002000F0E6
:104E300063FA38498989891C88B200F063FA3549D8
:104E40004988491EC1F30F2000F056FA314989897B
:104E5000C91C88B200F056FA2E498978491EC8B29A
:104E600000F04AFA55E02B49488900F04BFA00203F
:104E700000F042FA002000F03FFA26490988491E56
:104E8000C1F30F2000F038FA22490978491EC8B250
:104E900000F032FA1F49888900F034FA002000F04F
:104EA0002BFA002000F028FA1A494988491EC1F35C
:104EB0000F2000F021FA17498978491EC8B200F086
:104EC0001BFA26E0082C1CD2DFE804F004070A0DC8
:104ED0000F12151843F0300313E043F0100310E0F5
:104EE00043F020030DE000BF0BE043F0380308E07F
:104EF00043F0280305E043F0180302E043F0080301
:104F000000BF00BF032643F480531946304600F02B
:104F100009FA70BD5C02002010B503460C466748D4
:104F2000808849F24131884205D06448808845F242
:104F30001031884214D16149488900F0E3F9181210
:104F400000F0DAF9D8B200F0D7F95C49888900F0AE
:104F5000D9F9201200F0D0F9E0B200F0CDF9ABE0C1
:104F60005648808846F6040188421DD1534880790E
:104F7000012804D151480088401EC01A83B24F490D
:104F8000488900F0BFF9181200F0B6F9D8B200F065
:104F9000B3F94A49888900F0B5F9201200F0ACF95C
:104FA000E0B200F0A9F987E04448808841F6631137
:104FB000884247D141488079A8B940480088401EBE
:104FC000C01A83B23D49488900F09CF9002000F0E6
:104FD00093F9002000F090F9181200F08DF9D8B282
:104FE00000F08AF916E03549488900F08BF918126B
:104FF00000F082F9D8B200F07FF930490988491EE3
:10500000C1F30F2000F078F92C490978491EC8B285
:1050100000F072F92949888900F074F9201200F033
:105020006BF9E0B200F068F924494988491EC1F3E0
:105030000F2000F061F921498978491EC8B200F0BB
:105040005BF939E01D48808845F21051884220D133
:105050001A49488900F056F9181200F04DF917491D
:105060004989491C88B200F04DF9D8B200F044F9E2
:105070001249888900F046F9201200F03DF90F49E5
:105080008989491C88B200F03DF9E0B200F034F99A
:1050900012E00A488079012804D108480088401E9F
:1050A000C01A83B205494889194600F03BF9034903
:1050B0008889214600F036F910BD00005C0200200E
:1050C0002DE9F84F80460F4616461C46BB46204643
:1050D000E31704EB5373DB1021464FEAE47C04EB47
:1050E0005C7C4FEAEC0CA4EBCC0CBCF1000F02D0C2
:1050F0004FF0010C01E04FF0000C6344224604EB3A
:10510000D27C4FEA6C0C03FB0CF3DBB20093A6F1EC
:105110002000C6B200255EE00C2C07D106EB46004D
:105120002F4901EB800010F805901BE0102C05D1F1
:105130002C4800EB061010F8059013E0182C07D14E
:1051400006EBC600284901EB800010F8059009E045
:10515000202C05D1254800EB861010F8059001E0C1
:10516000BDE8F88F4FF0000A2FE009F0800030B161
:105170001F48028839464046FCF708F807E00A98BD
:1051800028B91C48028839464046FBF7FFFF4FEA22
:1051900049604FEA1069781C87B217484088B842C6
:1051A00000DCDDE7A7EB0B00A0420AD15F4608F167
:1051B00001001FFA80F810480088404500DCCFE766
:1051C00006E00AF1010000F0FF0ABAF1080FCCDB9B
:1051D00000BF681CC5B2009885429DDB00BFBFE7D9
:1051E00066B50008DAB90008CABF000826CD000875
:1051F0000A0000200C0000205C0200202DE9FF4F77
:1052000081B0074691461E460E9D4FF0000A0024CD
:1052100039E0301B401EC1B20A20FFF7BBFCB9FBCE
:10522000F0F00A21B0FBF1F201FB1208BAF1000F15
:1052300016D1701EA04213DDB8F1000F0ED1002070
:10524000AB4605EBDB71491001FB0471009088B29D
:105250002B4620220299FFF733FF12E04FF0010A9C
:105260000020AB4605EBDB71491001FB0471009097
:1052700088B208F13001CAB22B460299FFF720FF2D
:1052800000BF601CC4B2B442C3DB05B0BDE8F08F00
:105290002DE9F84704460D4690469946DDE9096731
:1052A00004F0FF0A08EB04001FFA80F809EB050080
:1052B0001FFA80F916E0444502DB5446A81985B26E
:1052C0004D4500DB14E0002000903A783346294633
:1052D0002046FFF7F5FE304606EBD07104EB610186
:1052E0008CB27F1C38787E2802DC38782028E2DAFD
:1052F00000BFBDE8F8870000014908807047000042
:105300000008006C0149088070470000FE07006C2F
:105310000248008902490880704700005C020020B2
:10532000FE07006C024A1080921C1180704700003A
:10533000FE07006C1848806940F008001649886133
:105340000846806940F0400088611448006820F4F5
:105350007000124908600846006840F44010086078
:105360000E480C30006840F020000C490C310860F9
:105370000B48006820F4700009490860084600687E
:1053800040F44010086006480C30006840F02000EF
:1053900003490C310860704700100240000C0140C6
:1053A0000018014000B5002015490861C8601420AC
:1053B000486100208861C8610846006840F001002B
:1053C0000860084640680F4908400D494860084693
:1053D00000680D4908400A4908600846006820F442
:1053E000802008600846406820F4FE0048600020E5
:1053F000886000214FF0006000F058F800BD000008
:10540000001002400000FFF8FFFFF6FE2DE9F0411A
:105410000746884614461D46284600F033F8C5F175
:10542000040007FA00F60F20284100EA08000643AE
:1054300006F00F06E21704EBD2625211920002F15D
:10544000E022D2F800212146E31704EBD3635B117D
:10545000A4EB431C012303FA0CF31A432046E31781
:1054600004EBD3635B119B0003F1E023C3F800213D
:105470000348005D40EA061001490855BDE8F08187
:1054800000E400E00146072323EA01021202054B73
:1054900018684FF6FF031840034B18431043014BA5
:1054A000186070470CED00E00000FA05024A0A405F
:1054B0000243024B1A60704780FFFF1F08ED00E0B7
:1054C0007CB50546002400200090019000260DB117
:1054D000022600E000261848406900F0007008B17C
:1054E0000E207CBD1549098888B26946FBF75CFB34
:1054F00004460CB12046F4E7019800F48020C0B1C6
:105500000E48008802040121372000F027F83720D8
:10551000FBF760FA04460CB12046E2E7324601216F
:10552000062000F01BF80620FBF754FA044620463C
:10553000D7E72520D5E700000080014014000020B7
:105540000146034A506820F0FF000843506070474E
:105550000080014000B500F0FDFB00BD10B5034622
:10556000074CA260E0686FF30A0003F03F04204399
:1055700040EA811000BF40F48060014CE06010BD43
:105580000080014070B504460A4D6C6221F07E45F2
:10559000084EB5623546E86A20F0F70040EA02108E
:1055A00000BF03F0010540EA450040F00100354628
:1055B000E86270BD0080014010B5234B1B6843F4C6
:1055C0007043214C2360204B40331B6823F00103C0
:1055D0001D4C4034236023461B6847F6F074A343F8
:1055E000194C4034236023461B6843EA02132360AE
:1055F00023461B68236023461B68236023461B68E1
:1056000043F08003236023461B6843F40073236048
:1056100023461B6843F40063236023461B6843F45E
:10562000005323608B08241D2360084B241D236036
:10563000231D1860044B40331B6843F00103024CE8
:105640004034236010BD000004040240808001400B
:1056500030B50446002516480078032801D12720DC
:1056600030BD1348007838B111480078012803D0C4
:105670000F480078022818D1022C01D32720EFE729
:10568000E0B2FFF71DFF05467DB90A48406820F4E7
:10569000C0500849486008464068A1B240EAC120AD
:1056A000044948600846406848602846D8E700003A
:1056B0001000002000800140F0B5014600200022CB
:1056C000BE4B1B7881F85630BD4B1B88A1F8543077
:1056D000BC4B1B681A0E93090B70C2F383034B700B
:1056E00002F003038B70B74B1B68C3F30742CA7009
:1056F000B44B1B88C3F307220A71B24B1A784A7164
:105700005B681A0E1301CB80AE4B5B68C3F3074294
:10571000CB8843EA1213CB8002F00F030B72A94B24
:105720009B88C3F30722D3094B72C2F380138B7299
:10573000C2F34013CB72C2F300130B7300234B73FD
:105740009E4B1B783BB19D4B1B78012B03D09B4B91
:105750001B78032B4FD193071B0D0B61994B1A79C3
:105760000B6943EA82030B61964B9B681A0E0B6927
:1057700043EA92130B61C2F3C2030B7502F00703F5
:105780004B75904B9B68C3F3074253098B75C2F36B
:105790008203CB7593075B0F0B768A4B1B89C3F390
:1057A00007220B7E43EAD2130B760B695B1C0024A5
:1057B000C1E912340B7E9B1C012404FA03F3DC17AD
:1057C000D1E91256A5FB037C06FB03C305FB04339A
:1057D000C1E912730C7A0123A3400B650024D1E9BF
:1057E00012650B6DA6FB037C05FB03C306FB0433AC
:1057F000C1E912732EE0714B1B78022B2AD1714B39
:105800001A7993069B0A0B616E4B9B681A0E0B6903
:1058100043EA02230B616B4B9B68C3F307420B699E
:1058200013430B61674B1B89C3F307220B695B1C96
:105830004FF40074A3FB04464FF480630025A4FBDF
:10584000037C06FB03C304FB0533C1E912734FF469
:1058500000730B65C2F3801301F8193F93065B0ECA
:105860004B70584B1A7A4B7843EAD2134B7002F0C4
:105870007F038B70534BDB681A0ED309CB70C2F3D6
:1058800041130B71C2F382034B7193071B0F8B7192
:105890004C4BDB68C3F307428B7943EA92138B715D
:1058A000C2F34013CB7100230B7202F001034B7261
:1058B000444B9B89C3F30722D3098B72C2F3801335
:1058C000CB72C2F340130B73C2F300134B73C2F3DA
:1058D00081038B7302F00303CB733A4B1A7B53089B
:1058E0000B7401234B74384B1B681A0ECA74193998
:1058F000354B1B68C3F307421402CC85324B1B881F
:10590000C3F30722CB8D1343CB852F4B1A78140694
:105910000C635B681A0E0B6B43EA02440C632A4B60
:105920005B68C3F307420B6B43EA02240C63264B0C
:105930009B88C3F307220B6B13430B63224B1A792B
:1059400034235A54204B9B681A0E35235A541E4B4D
:105950009B68C3F3074214068C631B4B1B89C3F37C
:1059600007228B6B43EA02448C63174B1A7A8B6BCA
:1059700043EA02248C63144BDB681A0E8B6B1343CF
:105980008B63114BDB68C3F307423C235B5C43EA48
:1059900012143C235C5413071C0DCC870A4B9B89C3
:1059A000C3F30722CB8F1343CB87074B1A7B5408D3
:1059B00040235C54012441235C54F0BD10000020BE
:1059C00014000020700200208002002070B5002525
:1059D00000243948806940F0100037498861084642
:1059E000806940F0200088610846406940F480608A
:1059F00048610846406940F0020048612F4840680D
:105A00006FF313002D494860084640682C4908434D
:105A10002A4948602B48006820F4706029490860D2
:105A20000846006840F4306008600020264908609D
:105A300048608860C86048628862C862234888639A
:105A40000020C8630223312200210846FFF7DEFC54
:105A500000F0C4F8044614B900F03EF804461CB93E
:105A60001B48FFF729FE044634B91949B1F8541010
:105A7000080400F0BBFC04461CB90120FFF7E8FD58
:105A800004461CB113480078032812D1104890F83E
:105A9000560020B10E4890F85600012801D10A2581
:105AA00000E004252846FFF74BFD002000F0AAFC8B
:105AB0000446204670BD0000001002400010014066
:105AC000BBBB0B000014014000800140FF07C00079
:105AD000900200201000002018B500240120009042
