:020000040800F2
:1000000030FB0020150200083F5C0008651900085D
:100010003D5C0008750800086D81000800000000C4
:10002000000000000000000000000000157800083B
:10003000FD100008000000001D5F0008497A00085C
:100040002F0200082F0200082F0200082F020008CC
:100050002F0200082F0200082F0200082F020008BC
:100060002F0200082F0200082F0200082F020008AC
:100070002F0200082F0200082F0200082F0200089C
:100080002F0200082F0200082F0200082F0200088C
:100090002F0200082F0200082F0200082F0200087C
:1000A0002F0200082F0200082F0200082F0200086C
:1000B0002F0200082F0200082F0200082F0200085C
:1000C0002F0200082F0200082F0200082F0200084C
:1000D0002F020008B97E00082F020008217F0008C7
:1000E0002F0200082F0200082F0200082F0200082C
:1000F0002F0200082F0200082F0200082F0200081C
:100100002F020008CD6100082F0200082F0200080E
:100110002F0200082F0200082F0200082F020008FB
:100120002F0200082F0200082F0200082F020008EB
:1001300000F002F800F05FF80AA090E8000C82449A
:100140008344AAF10107DA4501D100F054F8AFF277
:10015000090EBAE80F0013F0010F18BFFB1A43F0A5
:10016000010318471CE500003CE500000A444FF07D
:10017000000C10F8013B13F0070408BF10F8014B06
:100180001D1108BF10F8015B641E05D010F8016B4B
:10019000641E01F8016BF9D113F0080F1EBF10F8AF
:1001A000014BAD1C0C1B09D16D1E58BF01F801CBD2
:1001B000FAD505E014F8016B01F8016B6D1EF9D555
:1001C0009142D6D37047000000230024002500266A
:1001D000103A28BF78C1FBD8520728BF30C148BFAA
:1001E0000B607047782900F09B80002070471FB596
:1001F0001FBD10B510BD00F00DFB1146FFF7F7FF56
:1002000009F032FF00F02BFB03B4FFF7F2FF03BC51
:1002100008F008F90948804709480047FEE7FEE76B
:10022000FEE7FEE7FEE7FEE7FEE7FEE7FEE7FEE7A6
:1002300004480549054A064B704700004D7A0008FE
:100240003101000830F5002030FB002030F700209D
:1002500030F70020704710B54C1084EA530404D5E1
:100260004042C1F1000138BF491E1B4204D5524231
:10027000C3F1000338BF5B1E00F0CEF914F0804FCD
:1002800004D04042C1F1000138BF491E14F0004FB4
:1002900004D05242C3F1000338BF5B1E10BD000002
:1002A0000FB4044910B503AA029800F085FA10BCF7
:1002B0005DF814FB840100202DE9F0410E46044650
:1002C000002020622046E168884730B3252805D009
:1002D000D4E901219047206A401CF2E7E1682046FA
:1002E00000278847050018D0A5F14100192802D839
:1002F00020354FF400673246294620462760FFF735
:1003000071FF40B1012804D0F61D26F0070608361B
:10031000D8E7361DD6E72846DAE7206ABDE8F0813F
:1003200070B504460D4621461068AFF30080218861
:10033000090502D50F4A7A4402E00E4A7A440E3289
:10034000002104F1240305E000F00F060009965D8A
:100350005E54491C0028F7D120780023000704D5FB
:10036000702D02D009B1022311322046BDE8704041
:1003700000F0C9B91CE3000010B5431E13F8014F8B
:10038000002CFBD105E011F8014B002C03F8014BC8
:1003900003D0521EF7D20021197010BD40EA0103AC
:1003A000024630B59B0710D14FF0013400E008C27F
:1003B00008C91D1B9D4315EAC41FF8D013F0FF01A7
:1003C00002F8011B0DD01B0AF8E711F8013B002BC6
:1003D00002F8013B05D011F8013B002B02F8013B6C
:1003E000F3D130BD10B5431C02E010F8011B71B110
:1003F0008107FAD14FF0013202C88C1A8C4314EAFB
:10040000C211F9D0C01A0A0603D0C01E10BDC01A0E
:1004100010BD0A0401D0801E10BD0902FCD0401E90
:1004200010BD421E12F8013F002BFBD111F8013B19
:10043000002B02F8013BF9D17047032A40F23080CB
:1004400010F0030C00F0158011F8013BBCF1020F15
:10045000624498BF11F801CB00F8013B38BF11F896
:10046000013BA2F1040298BF00F801CB38BF00F8AD
:10047000013B11F0030300F02580083AC0F008802A
:1004800051F8043B083A51F804CBA0E80810F5E70E
:10049000121D5CBF51F8043B40F8043BAFF30080F1
:1004A000D20724BF11F8013B11F801CB48BF11F866
:1004B000012B24BF00F8013B00F801CB48BF00F836
:1004C000012B704710B5203AC0F00B80B1E81850EE
:1004D000203AA0E81850B1E81850A0E81850BFF42E
:1004E000F5AF5FEA027C24BFB1E81850A0E81850CD
:1004F00044BF18C918C0BDE810405FEA827C24BF21
:1005000051F8043B40F8043B08BF7047D20728BFAE
:1005100031F8023B48BF11F8012B28BF20F8023BFD
:1005200048BF00F8012B70474FF000020429C0F0CB
:10053000128010F0030C00F01B80CCF1040CBCF115
:10054000020F18BF00F8012BA8BF20F8022BA1EB67
:100550000C0100F00DB85FEAC17C24BF00F8012B4C
:1005600000F8012B48BF00F8012B70474FF0000244
:1005700000B5134694469646203922BFA0E80C5099
:10058000A0E80C50B1F12001BFF4F7AF090728BF74
:10059000A0E80C5048BF0CC05DF804EB890028BFF0
:1005A00040F8042B08BF704748BF20F8022B11F019
:1005B000804F18BF00F8012B704710B5044610F0AB
:1005C000030F08BF11F0030F40F015804FF0013EFC
:1005D000121FC0F20E8051F8043BA3EB0E0C2CEA64
:1005E000030C1CEACE1C08BF40F8043BF0D0A1F17C
:1005F000040102F10402521E08DB11F8013B002B3A
:1006000000F8013BF7D11146FFF78EFF204610BDE1
:10061000704770477047704753EA020C00F06980DA
:100620002DE9F04B4FF00006002B1FBFB3FA83F506
:1006300003FA05F424FA05F65E4012BF1643B2FA37
:1006400082F502FA05F4C5F120051EBF22FA05FC69
:1006500044EA0C04203556EA044C4FEA144418BF0F
:10066000641C4FF000084FF00009904271EB030C3E
:1006700039D3002919BFB1FA81F701FA07F6B0FAA8
:1006800080F700FA07F6C7F120071EBF20FA07FC23
:1006900046EA0C062037B6FBF4FCA7EB0507103F33
:1006A00007F01F0BCBF120060CFA0BFB2CFA06F619
:1006B00044BFB3460026202FA4BF5E464FF0000B78
:1006C0005BEA060C08BF4FF0010B19EB0B09ABFB03
:1006D000027C48EB0608C01B06FB02CC0BFB03CCDC
:1006E00071EB0C01C1E70B46024641464846BDE8A6
:1006F000F08B13B54FF000004FF00001AFF3008016
:10070000BDE81C4070472DE9F0470D4699469246DA
:10071000044600F124080168880604D5E06921F048
:100720001001216000E00120A84201DD471B00E02C
:100730000027A1697A1902EB0900081AA061207844
:10074000C00602D42046AFF30080002608E0D4E9BA
:1007500001211AF806009047206A401C761C20628E
:100760004E45F4DB2078C0060AD52046AFF3008062
:1007700006E0D4E9012130209047206A401C206225
:10078000381EA7F10107F4DC07E0D4E9012118F8CD
:1007900005009047206A401C2062281EA5F1010533
:1007A000F3DC2046AFF300802078000602D502205B
:1007B000BDE8F0870120FBE7074B70B50D467B4491
:1007C00000F011F80446284600F020F810B14FF070
:1007D000FF3070BD204670BD8395000001694A1C42
:1007E00002610878704700B58FB0CDE90131002172
:1007F000059105497944CDE9031011466846FFF794
:100800005BFD0FB000BD0000E5FFFFFF007B00F0C7
:1008100080007047754600F029F8AE46050069462D
:10082000534620F00700854618B020B5FFF700FDBD
:10083000BDE820404FF000064FF000074FF00008E1
:100840004FF0000B21F00701AC46ACE8C009ACE862
:10085000C009ACE8C009ACE8C0098D467047044641
:10086000AFF300802046FFF7CFFC00000048704740
:10087000CCF40020FEE700002DE9FF5F0446DFF81E
:1008800030B10026CBF800600BF5F078C8F80060B6
:1008900008F5F079C9F8006008F5707ACAF80060C8
:1008A0000122A8F6D80008F047FD424D01276F62EB
:1008B00009E00BEB8001404B0422404808F0F6FDB4
:1008C000686A401C6862686AA042F2DB3B4808F034
:1008D000B9FB01223948029908F02EFD6F6209E048
:1008E00008EB8001344B0422344808F0DFFD686ACD
:1008F000401C6862686AA042F2DB304808F0A2FB44
:1009000001222E48039908F017FD6F6209E009EBF8
:100910008001294B0422294808F0C8FD686A401C60
:100920006862686AA042F2DB244808F08BFB01226F
:1009300022480E9908F000FD6F6209E00AEB800181
:100940001D4B04221D4808F0B1FD686A401C686216
:10095000686AA042F2DB194808F074FB42F2D00149
:100960001748FFF703FE012214480F9908F0E4FC32
:100970006E62134E13E0114A462102F58C6008F0B6
:1009800070FB686A4622C0EBC00000EB800006EBFB
:1009900040000C49FFF751FD686A401C6862686AB4
:1009A000A042E8DB04B00548BDE8F05F08F04ABBB0
:1009B000A00E002000000020DC010020A80700207D
:1009C00020160020080C002070B500254FF480345C
:1009D00003E0802005F0E8FB10B9641E601CF8D12C
:1009E0002CB140F2FF5005F09BFB284670BD032060
:1009F00070BD000070B50546114C616B11F0450FDC
:100A0000FBD0042005F0D0FB20B1042005F088FBCA
:100A1000032070BD012005F0C7FB20B1012005F0C7
:100A20007FFB012070BD2069A84201D0102070BD5D
:100A300040F2FF50A063606900F0080070BD000044
:100A40000080014010B500244FF480310F4B03E0CB
:100A50005A6B12F0450F02D1491E481CF8D109B15A
:100A6000500705D50324042005F05AFB204610BD8D
:100A7000012005F099FB18B10124012005F050FB7D
:100A800040F2FF5005F04CFB204610BD00800140B5
:100A900010B50A49486B10F0450FFBD0042005F053
:100AA00083FB20B1042005F03BFB032010BD40F286
:100AB000FF5005F035FB002010BD00000080014014
:100AC0002DE9F04107460D4600261B4C626B12F0E3
:100AD000450FFBD0042005F067FB28B1042005F08A
:100AE0001FFB0320BDE8F081012005F05DFB20B174
:100AF000012005F015FB0120F4E72069B84201D080
:100B00001020EFE740F2FF5005F00AFB626912F493
:100B1000604F03D0900405D51320E3E7100C288024
:100B20003046DFE7500401D51020DBE7100401D583
:100B30000F20D7E73046D5E70080014010B50024EC
:100B40004FF480320C4B03E0596B11F0450F02D18A
:100B5000521E501CF8D10AB1480705D503240420C1
:100B600005F0DEFA204610BD480603D500244020DB
:100B700005F0D6FA204610BD00800140002904D0BF
:100B8000016841F001010160704701684FF6FE7293
:100B9000114001607047000001684FF6FE7211407D
:100BA00001600021016041608160C1603649364AC0
:100BB0000839904204D1486840F00F0048607047FF
:100BC000314A1432904204D1486840F0F000486045
:100BD00070472D4A2832904204D1486840F4706032
:100BE00048607047284A3C32904204D1486840F43B
:100BF000704048607047244A5032904204D148689F
:100C000040F47020486070471F4A6432904204D11B
:100C1000486840F47000486070471B4A7832904240
:100C200004D1486840F0706048607047174A111F4F
:100C3000904204D1086840F00F0008607047134AE2
:100C40001432904204D1086840F0F0000860704708
:100C50000E4A2832904204D1086840F4706008605F
:100C600070470A4A3C32904204D1086840F4704010
:100C700008607047054A50329042FAD1086840F443
:100C8000702008607047000008000240080402401D
:100C900030B5026847F6F0739A430C6A8B682343B9
:100CA000D1E904452C4323438C692343CC69234376
:100CB0004C6A23438C6A234313430360CA6842602F
:100CC0000A6882604968C16030BD2DE9F0478CB088
:100CD0000446002600200021C0F11302C2EBC2022C
:100CE000C0EBC003224423445D5C575C5F54555401
:100CF000491C0629F8DB401C0A28ECDB00252946A4
:100D00002F1D0DE0C1EBC1021019837814F802C049
:100D100080F802C0A3544279C3784371C270491C61
:100D2000B942EFDBC5EBC5000119062201A8FFF7A8
:100D300044FC681CC0EBC00001198A46022201A8CD
:100D4000FFF71AFB4FF000088DF80C8001A809F09E
:100D50005EFE01A807F068FB0DF1100929F81600E6
:100D6000CDF80480CDF80880CDF80C800AF102019E
:100D7000042201A8FFF721FCA81CC0EBC000011948
:100D80008A46042201A8FFF7F7FA8DF80C8001A823
:100D900009F03DFE01A807F047FB711C29F811007E
:100DA000CDF80480CDF80880CDF80C800AF104015C
:100DB000022201A8FFF701FCED1CC5EBC5000119DB
:100DC000062201A8FFF7D8FA8DF80C8001A809F0D7
:100DD0001EFE01A807F028FBB11C29F81100CDF870
:100DE0000480CDF80880CDF80C80F61CF6B2FDB278
:100DF000142D84D304A800F0D5F80CB0BDE8F0871A
:100E00002DE9F04F8FB0044600210020C1F1090206
:100E100002EB820303EBC202131901EB810202EB26
:100E2000C10215192E5CC0F10B029F5C2F549E5419
:100E3000401C0C28F6DB491C0529E6DB00250DF1DA
:100E400004082E46AF1C4BE006EB860000EBC60103
:100E5000081981468278635C837062544179C27854
:100E60004271C170017A827902728171C17A427ACB
:100E7000C27241720146062201A8FFF79EFB0020C4
:100E800018F80020C0F1050118F8013008F800300A
:100E900008F80120401C0328F2DB4846062201A97D
:100EA000FFF78BFB09F10601062208F10600FFF7A8
:100EB00084FB002008EB00018B79C0F1050242445D
:100EC00092F806C081F806C09371401C0328F1DB3C
:100ED00009F10600062208F10601FFF76EFB761CF9
:100EE000BE42B1DB05EB850000EBC50000EB040B57
:100EF0000822594604A8FFF760FB4FF000098DF85F
:100F0000189004A809F083FD04A807F08DFA05EBFA
:100F100045060DF11C0A26F001012AF80100CDF862
:100F20001090CDF81490CDF818900BF1080105221F
:100F300004A8FFF742FB6D1C05EB850000EBC50024
:100F400001190D46042204A8FFF716FA8DF818902F
:100F500004A809F05CFD04A807F066FA012101EB82
:100F600056012AF81100CDF81090CDF81490CDF864
:100F70001890291D04A8FFF711FA04A809F047FDED
:100F800004A807F051FA022101EB56012AF81100DA
:100F9000FDB20A2DFFF455AF07A800F003F80FB01B
:100FA000BDE8F08F2DE9F0410446DFF844810021CF
:100FB000404600F07FFC4F4D01262E6021884046C0
:100FC00000F078FC00272F600021404600F072FC02
:100FD0006E606188404600F06DFC6F600021404605
:100FE00000F068FCAE60A188404600F063FCAF6092
:100FF0000021404600F05EFCEE60E188404600F0D3
:1010000059FCEF600021404600F054FC2E6121891C
:10101000404600F04FFC2F610021404600F04AFCA2
:101020006E616189404600F045FC6F6100214046D9
:1010300000F040FCAE61A189404600F03BFCAF618E
:101040000021404600F036FCEE61E189404600F0A8
:1010500031FCEF610021404600F02CFC2E63218A18
:10106000404600F027FC2F630021404600F022FCA0
:101070006E63618A404600F01DFC6F6300214046AC
:1010800000F018FCAE63A18A404600F013FCAF6389
:101090000021404600F00EFCEE63E18A404600F07D
:1010A00009FCEF630021404600F004FC124D2E6065
:1010B000218B404600F0FEFB2F600021404600F0EF
:1010C000F9FB6E60618B404600F0F4FB6F6000211D
:1010D000404600F0EFFBAE60A18B404600F0EAFB1B
:1010E000AF604046BDE8F041002100F0E3BB0000E6
:1010F0000010014080812342840124427047000097
:101100002DE9FF4F83B004464FF6FF79484600F0C3
:10111000FBFC7F4D00276F624FF001084FF0180A6B
:101120007C4E4FF4C87B18E0A968CDE901A804FB08
:101130000101C1EBC10101EB810106EB4101401C42
:10114000C0EB0010009109EA400118235A46142010
:1011500006F016FC686A401C6862686AA042E3DB1D
:10116000E87806F09BFCD5E9021001FB0400C0EB17
:10117000C00000EB800006EB400006F0DCFA012026
:1011800007F0A8FB002000F04DFC287101280CD0CE
:10119000022846D0052802D0A8690128F2D1C5F856
:1011A0001480AF6107B0BDE8F08F01225A4805995D
:1011B00008F0C2F801225948069908F0BDF8E8681D
:1011C000E978421C9142DDD1A96804FB0100A862C4
:1011D0005349544A51F8201052F8200000EBC00245
:1011E00002EB001001EB80014B4807F05CFF4E4919
:1011F000A86A4E4A51F8201052F8200000EB400235
:10120000C2EBC01001EBC001444807F04CFFA878C6
:1012100009F0D0F8A8690128B4D1052006F06CFCCB
:10122000B0E7E868401CE860E87890FBF4F104FB64
:101230001100401CC0B2E87006F030FCD5E9021085
:1012400001FB0400C0EBC00000EB800006EB400097
:1012500006F071FA012007F03DFBE868A04227D1B3
:10126000A868401CA860EF60484600F04DFCE87894
:1012700006F014FC6F6218E0A968CDE901A804FB30
:101280000101C1EBC10101EB810106EB4101401CF1
:10129000C0EB0010009109EA400118235A461420BF
:1012A00006F06EFB686A401C6862686AA042E3DB75
:1012B000D5E9021004FB010104988142B0D185F800
:1012C0000380AF60EF60484600F01EFCE87806F04F
:1012D000E5FB6F6218E0A968CDE901A804FB0101F4
:1012E000C1EBC10101EB810106EB4101401CC0EBE8
:1012F0000010009109EA400118235A46142006F014
:101300003FFB686A401C6862686AA04288DAE2E7CC
:101310000000002020160020D009002080050020B9
:1013200080100020A00E0020401400206012002039
:101330002DE9FE4305460C4616464FF6FF7000F0B9
:10134000E3FB2B4F4FF4784038804FF0010818230F
:10135000CDE90138C8220F210A20009506F010FBC4
:101360001F203880234AA119491C02F50A7007F092
:1013700078FE2020CDE901081F49034600914FF473
:101380004872B421142006F0FBFA1B4806F0D3F98A
:10139000012007F09FFA194A792102F2147007F030
:1013A00060FE174B00201862134D9C35A5F62E24C5
:1013B000186A00EB4002C0EBC00105EB4202214479
:1013C00016680E6092888A80401C18621428EFDB31
:1013D0000C4AF0211E2004F0B7FB0A48FFF775FC09
:1013E00003B00848BDE8F04382218238FFF7BEB859
:1013F00062010020D0090020F80B002080050020A9
:101400000000002066020020FEB54FF6FF7000F0DD
:101410007BFB18200126CDE901064EA10346009171
:10142000C8220F210A2006F0ABFA64214D48FFF7CD
:101430007BF846214C48FFF799F84C4D0020286274
:101440004B4F07F52864474A8021663202F63C106C
:1014500007F007FE286A00EB800101EBC00038446A
:10146000216B0160616B4160A16B8160414A802109
:1014700002F2147007F0F5FD3B488C30FEF7B2FF26
:101480003949821E8C313748FEF7D7FF3549364837
:10149000FEF7C7FF3348FEF7A5FF012806D0022854
:1014A0000AD003280ED0042817D111E0042232A15B
:1014B0002D48FEF761FF10E0032231A12A48FEF714
:1014C0005BFF0AE002222FA12748FEF755FF04E048
:1014D00001222DA12448FEF74FFF64212148FFF788
:1014E00023F8286A09282DD12020CDE901061E49BC
:1014F000034600914FF44872B4211E2006F040FAD2
:101500001949322201F14600FEF736FF16484630EF
:1015100006F011F9012007F0DDF946211248FFF726
:1015200025F8114846214630FEF7FEFF104AF0210B
:101530001C2004F0FDF90E48FFF762FC82210C48E4
:10154000FFF714F8286A401C28620A28FFF67BAFD0
:10155000FEBD0000C3A4CEC4BBF9B4A1D1A7CFB0D7
:1015600000000000F2020020080C00200000002013
:10157000E401002080050020202020200000000041
:101580002020200020200000200000008000A0F18A
:10159000C040002904D0016841F00101016070479A
:1015A0000168024A1140016070470000FEFF0F0011
:1015B00010B5D0E901121143D0E903231A431143B6
:1015C0004269114382691143C2691143026A11439E
:1015D000426A1143826A1143C26A1143026B11438A
:1015E00002689200A2F1C04211608168082907D107
:1015F00001688900A1F1C0410A6842F040020A6016
:10160000416BD1E9002342EA03128B688C891B02EB
:1016100043EA04431A430B8A42EA03520B7D896969
:1016200042EA03620A430168491C8900A1F1C041F2
:101630000A60C16AB1F5804F08D000686FF0704150
:101640008000A0F1C040C0F8041110BD816BD1E949
:10165000002342EA03128B680C8A1B0243EA0453FC
:101660001A430B7D896942EA036200680A438000DD
:10167000A0F1C040C0F8042110BD00002DE9FC47D6
:101680000E460024002700970197584D4FF0080A96
:10169000C5F800A0102068604FF04009C5F8089018
:1016A000EF604FF48068C5F81080284604F0ACFD68
:1016B0001020FFF79FF9002832D14D48008900041F
:1016C000286037206860C5F80890EF60C5F8108082
:1016D000284604F099FD3720FFF78CF900281FD128
:1016E000411E05F114000160C0F804A030218160A2
:1016F0000221C16007610121416104F02DFD2F60CD
:1017000033206860C5F80890EF60C5F8108028465F
:1017100004F07AFD3320FFF76DF90546280001D06B
:10172000BDE8FC874FF4001A6F46DFF8C88040F22E
:101730002A690AE0504604F037FD30B104F05EFD3E
:1017400047F82400641C022C04D2D8F8340010EAB4
:10175000090FEFD0082004F027FD20B1082004F085
:10176000DFFC0420DCE7022004F01EFD20B1022093
:1017700004F0D6FC0220D3E7202004F015FD20B1B0
:10178000202004F0CDFC0620CAE74FF40074204668
:1017900004F00AFD20B1204604F0C2FC0720BFE798
:1017A00040F2FF5004F0BCFC00980099000601F4E0
:1017B0007F4140EA0120009901F47F0140EA1120B5
:1017C000009940EA1160706001980199000601F4E7
:1017D0007F4140EA0120019901F47F0140EA112094
:1017E000019940EA11603060284699E718470020C7
:1017F00068010020008001402DE9F0410022CC78F2
:1018000004F00F03E40601D58C7823430C784FF0E5
:101810000F0714F0FF0F4FF0010C1CD005680CFAF5
:1018200002F40E882640A64211D1960007FA06F867
:1018300025EA080503FA06F848EA0505CE78282EB9
:1018400002D0482E02D002E0446100E00461521C44
:10185000082AE4D305600A88FF2A1ED945680022B9
:1018600002F108060CFA06F40E882640A64210D1B2
:10187000960007FA06F825EA080503FA06F848EA8A
:101880000505CE78282E00D14461CE78482E00D1AF
:101890000461521C082AE3D34560BDE8F08102468A
:1018A000002092680A4200D00120704741617047D1
:1018B00001617047C160704730B405460846134661
:1018C000590701D0012100E0002101EBD301594368
:1018D000CAB22C786978812C0AD3402908D3FF2911
:1018E00006D0FF2C04D07F290DD24039CDB20CE0B8
:1018F0000021002303E000F8013B491CC9B29142DA
:10190000F9D330BC70474139CDB2813CE1B2C1EB73
:10191000411404EB811105EB41015143104C0C2B98
:101920000BD0102B0FD0182B13D0202BE9D1D4F8CB
:10193000213030BC194406F06FBCD4F8093030BCFB
:10194000194406F069BCD4F8113030BC194406F0D3
:1019500063BCD4F8193030BC194406F05DBC0000FB
:10196000A0F40020FEE772B6704762B67047000030
:101970007CB505460022019200921E481E4900894E
:10198000000408600D20486040208860CA600001A3
:101990000861084604F038FC184C606B009001E0C8
:1019A000616B0091009911F0450FF9D0012004F00E
:1019B000FBFB20B1012004F0B3FB01207CBD04201F
:1019C00004F0F2FB20B1042004F0AAFB03207CBD4C
:1019D00020690D2801D010207CBD40F2FF5004F09A
:1019E0009FFB606901900198C0F34320287000209C
:1019F0007CBD0000680100201847002000800140E5
:101A000008B50121402004F0D3FA7C20ADF8000095
:101A100048208DF8030069460148FFF7EDFE08BD38
:101A20000018014070B50125354C002800D0257004
:101A30002078344EC0B110213046FFF730FFD0B1CE
:101A400008213046FFF72BFFA8B104213046FFF7ED
:101A500026FF80B120213046FFF721FF58B14021F9
:101A60003046FFF71CFF30B110213046FFF717FF5B
:101A7000012829D041E00A2006F02CFF0020207028
:101A800010213046FFF70BFFA0B108213046FFF7C9
:101A900006FF88B104213046FFF701FF70B1202115
:101AA0003046FFF7FCFE58B140213046FFF7F7FE05
:101AB00040B122E0012070BD032070BD022070BD46
:101AC000042070BD052070BD08213046FFF7E7FEF9
:101AD000012812D104213046FFF7E1FE01280CD184
:101AE00020213046FFF7DBFE012806D14021304699
:101AF000FFF7D5FE012800D12570002070BD000041
:101B000060010020001801402DE9F0430646002442
:101B1000174F38887D884543B888A0F5D0410439EF
:101B200002D1B879012807D00021084603F048FE09
:101B300004F04AF80F4916E00020B8714FF02A0966
:101B4000A7F80A904FF02B08A7F80C800021084650
:101B500003F036FE0120B871A7F80A80A7F80C90B0
:101B6000E6E70E80641CAC42FBD3BDE8F0830000C6
:101B7000F03600200008006C2DE9F04F4D492A2373
:101B80002B24898845F2105C4FF430584FF42859C3
:101B90004FF448754FF0F00A49F2413B4FF4A077FB
:101BA00045F210364FF4F072002810D041484FF043
:101BB000010E80F806E00780A0F802A0594501D088
:101BC000B14240D12C250581438184815CE03948B4
:101BD0004FF0000E80F806E0A0F800A047805945BD
:101BE00006D0A1F5D04ABAF1040A01D0B1420CD115
:101BF0002C25058143818481A1F5D043043B01D08C
:101C0000B14249D10780428046E0614509D1A0F840
:101C10000880A0F80A904FF42C5181810280458001
:101C20003AE0A1F5C856633E06D022210181202169
:101C30004181212181812FE02C21018144818381F7
:101C40000280458028E0A1F5D04ABAF1040A0BD001
:101C500061450ED1A0F80880A0F80A904FF42C53EB
:101C60008381058042800FE02C250581448183819A
:101C70000AE0A1F5C85CBCF1630C12D022230381F9
:101C80002123438120238381A1F5D043043B01D04C
:101C9000B14201D102804780BDE8F04F062003F039
:101CA00083BC4FF02C0CA0F808C0438184810580D0
:101CB0004280E9E7F036002000B503F081FD03F033
:101CC00083FF024802490088088000BD62010020AD
:101CD0000008006C2DE9FC4F074688460024154695
:101CE0000320A0EB42064BE0A8EB050081B207EB16
:101CF000040A01901FFA8AF0FFF7DEFFA8EB040048
:101D000081B207EB050900901FFA89F0FFF7D4FFB5
:101D100008EB040B1FFA8BF11FFA89F0FFF7CCFFD9
:101D200008EB05091FFA89F11FFA8AF0FFF7C4FFD3
:101D30001FFA89F1A7EB04091FFA89F0FFF7BCFF2E
:101D4000A7EB050A1FFA8BF11FFA8AF0FFF7B4FF21
:101D5000019881B21FFA89F0FFF7AEFF009881B2B7
:101D60001FFA8AF0FFF7A8FF641C002E03DA06EBC7
:101D70008406B61D04E0601B06EB80060A366D1E65
:101D8000AC42B1DDBDE8FC8F2DE9F04103460C46C5
:101D900090464B4F220A3846B9881D0A4089A1F562
:101DA0001346413E18D0A1F5A646103E14D0B6F514
:101DB000007623D03D46A1F5C85CAE792D88ED1A9A
:101DC0006D1EBCF1630C35D0A1F5D04CBCF1040CF8
:101DD00051D0012E64D064E003F0B0FE284603F039
:101DE000A7FED8B203F0A4FEB88903F0A7FE104600
:101DF00003F09EFEE0B203F09BFE59E003F09EFE6E
:101E0000284603F095FE7889401C80B203F096FEC8
:101E1000D8B203F08DFEB88903F090FE104603F0AF
:101E200087FEB889401C80B203F088FEE0B203F060
:101E30007FFE3DE006B9ABB203F080FE1D0A2846E6
:101E400003F076FED8B203F073FE284603F070FE6E
:101E5000D8B203F06DFEB88903F070FE104603F0AF
:101E600067FEE0B203F064FE104603F061FEE0B2EC
:101E700003F05EFE1CE0012E00D1ABB203F05EFE6B
:101E8000180A03F055FED8B203F052FEB88903F0E9
:101E900055FE104603F04CFEE0B203F049FE07E0A9
:101EA000ABB2194603F09AFEB889214603F096FEBC
:101EB000044938890880881CA0F80080BDE8F081BA
:101EC000F0360020FE07006C2DE9F8438146089E9D
:101ED00098461F4DA888A0F5D043043B02D1A879AD
:101EE000012806D0A2EB0900401C87B20C46194D10
:101EF0002BE00C462888811A491E89B24246A0EB85
:101F00000900401E83B20020A8712A276F814FF07C
:101F10002B08A5F80C8020460096FFF7D5FF01207E
:101F2000A871A5F80A80AF81BDE8F883214648462C
:101F300003F046FC03F048FE002002E02E80401C27
:101F400080B2B842FAD3641CA4B24445EED9EBE7A0
:101F5000F03600200008006C2DE9F04F9FB0012101
:101F60000D02284603F0FAFF01214FF4B47004F08B
:101F70001FF84FF00108ADF8788010278DF87B70BE
:101F800003248DF87A401EA9FE48FFF735FC4CF279
:101F90003370ADF8780018268DF87B608DF87A40A4
:101FA0001EA9F948FFF728FC4FF68070ADF87800BD
:101FB0008DF87B608DF87A401EA9F448FFF71CFC71
:101FC00041F20100ADF878008DF87B608DF87A4021
:101FD0001EA9EF48FFF710FCCDF8208000200990E3
:101FE0000F210A910B900C900D900E900190029091
:101FF0000394049005900690079006210F9110908D
:102000001190129713901590149016901790290123
:102010001891199089001A911B9008A81C9001A88A
:102020001D900FA8FFF7C4FA01210620FFF7AEFAB2
:10203000322006F04FFC002003F086FAD54CA08039
:1020400049F2413946F6040A45F2103B45F2105672
:102050004FF6FF77FF2804D3B84202D0B0F5134FF4
:1020600078D1D32003F06AFD03F064FAA08003F076
:1020700061FAA08003F05EFA07EA0020A08003F076
:1020800059FAA1880843A080484563D0BF2003F0D7
:1020900055FD03F04FFAA08003F04CFAA08003F046
:1020A00049FAA08003F046FA07EA0020A08003F076
:1020B00041FAA1880843A08050454BD0D42003F0BA
:1020C0003DFD03F037FAA08003F034FAA08003F05E
:1020D00031FA07EA0020A08003F02CFAA188084317
:1020E000A080584536D04FF45A4003F027FD03F046
:1020F00021FAA0804FF45B4003F020FD03F01AFAB0
:1021000007EA0020A0804FF45C4003F017FD03F0C5
:1021100011FAA1880843A080B0F5004F00D1A68035
:10212000A088B04216D0A12003F008FD03F002FA07
:10213000A08003F0FFF907EA0020A08003F0FAF97D
:10214000A1880843A080A0F5AE41613902D141F6D3
:102150006310A080A18890A0FEF7A2F8A08848454F
:102160007ED1CF2003F0EAFC002003F0E1FCC12087
:1021700003F0DEFC302003F0DBFCED2003F0DEFC9E
:10218000642003F0D5FC032003F0D2FC122003F0FE
:10219000CFFC812003F0CCFCE82003F0CFFC8520AD
:1021A00003F0C6FC102003F0C3FC7A2003F0C0FC4F
:1021B000CB2003F0C3FC392003F0BAFC2C2003F041
:1021C000B7FC002003F0B4FC342003F0B1FC022083
:1021D00003F0AEFCF72003F0B1FC202003F0A8FCD4
:1021E000EA2003F0ABFC002003F0A2FC002003F087
:1021F0009FFCC02003F0A2FC1B2003F099FCC1202F
:1022000003F09CFC012003F093FCC52003F096FC36
:10221000302003F08DFC302003F08AFCC72003F04F
:102220008DFCB72003F084FC362003F087FC4820A7
:1022300003F07EFC3A2003F081FC552003F078FC8B
:10224000B12003F07BFC002003F072FC1A2003F0A5
:102250006FFCB62003F072FC0A2003F069FC00E07A
:10226000AAE0A22003F064FCF22003F067FC002047
:1022700003F05EFC262003F061FC012003F058FC13
:10228000E02003F05BFC0F2003F052FC2A2003F057
:102290004FFC282003F04CFC082003F049FC0E20E2
:1022A00003F046FC082003F043FC542003F040FCFC
:1022B000A92003F03DFC432003F03AFC0A2003F080
:1022C00037FC0F2003F034FC002003F031FC002029
:1022D00003F02EFC002003F02BFC002003F028FC70
:1022E000E12003F02BFC002003F022FC152003F07A
:1022F0001FFC172003F01CFC072003F019FC112021
:1023000003F016FC062003F013FC2B2003F010FC56
:10231000562003F00DFC3C2003F00AFC052003F0DE
:1023200007FC102003F004FC0F2003F001FC3F2009
:1023300003F0FEFB3F2003F0FBFB0F2003F0F8FB54
:102340002B2003F0FBFB002003F0F2FB002003F046
:10235000EFFB012003F0ECFB3F2003F0E9FB2A2018
:1023600003F0ECFB002003F0E3FB002003F0E0FBB4
:10237000002003F0DDFBEF2003F0DAFB112003F077
:10238000DDFB11E0000C0140001401400018014089
:1023900000200140F0360020204C43442049443ABC
:1023A00025780D0A00000000782006F093FA292015
:1023B00003F0C4FB03F0B0B850457CD1112003F00A
:1023C000BDFB142006F086FAD02003F0B7FB0720EF
:1023D00003F0AEFB422003F0ABFB1D2003F0A8FB93
:1023E000D12003F0ABFB002003F0A2FB1A2003F086
:1023F0009FFB092003F09CFBD22003F09FFB0120F0
:1024000003F096FB222003F093FBC02003F096FB21
:10241000102003F08DFB3B2003F08AFB002003F02B
:1024200087FB022003F084FB112003F081FBC52011
:1024300003F084FB032003F07BFBC82003F07EFB4A
:10244000002003F075FB252003F072FB212003F030
:102450006FFB052003F06CFB002003F069FB0A20F2
:1024600003F066FB652003F063FB252003F060FBAF
:10247000772003F05DFB502003F05AFB0F2003F0A0
:1024800057FB002003F054FBF82003F057FB01201A
:1024900003F04EFBFE2003F051FB002003F048FB4D
:1024A000022003F045FB202003F048FB362003F018
:1024B00045FB082000E02CE003F03AFB3A2003F053
:1024C0003DFB552003F034FB2B2003F037FB0020AD
:1024D00003F02EFB002003F02BFB012003F028FB70
:1024E0003F2003F025FB2A2003F028FB002003F007
:1024F0001FFB002003F01CFB012003F019FBDF2071
:1025000003F016FB782006F0E5F9292003F016FB0E
:1025100050E758457ED1ED2003F010FB012003F079
:1025200007FBFE2003F004FBEE2003F007FBDE2098
:1025300003F0FEFA212003F0FBFAF12003F0FEFA8B
:10254000012003F0F5FADF2003F0F8FA102003F081
:10255000EFFAC42003F0F2FA8F2003F0E9FAC62064
:1025600003F0ECFA002003F0E3FAE22003F0E0FAD3
:10257000E22003F0DDFAE22003F0DAFABF2003F0F4
:10258000DDFAAA2003F0D4FAB02003F0D7FA0D2028
:1025900003F0CEFA002003F0CBFA0D2003F0C8FAC6
:1025A000002003F0C5FA112003F0C2FA002003F066
:1025B000BFFA192003F0BCFA002003F0B9FA212079
:1025C00003F0B6FA002003F0B3FA2D2003F0B0FABE
:1025D000002003F0ADFA3D2003F0AAFA002003F03A
:1025E000A7FA5D2003F0A4FA002003F0A1FA5D2011
:1025F00003F09EFA002003F09BFAB12003F09EFA4C
:10260000802003F095FA002003F092FA8B2003F06B
:102610008FFA00E0FDE3002003F08AFA962003F031
:1026200087FA002003F084FAB22003F087FA002032
:1026300003F07EFA002003F07BFA022003F078FA20
:10264000002003F075FA032003F072FA002003F073
:102650006FFAB32003F072FA002003F069FA002049
:1026600003F066FA002003F063FA002003F060FA3A
:10267000002003F05DFA002003F05AFA002003F076
:1026800057FA002003F054FA002003F051FA00201A
:1026900003F04EFA002003F04BFA002003F048FA52
:1026A000002003F045FA002003F042FA002003F076
:1026B0003FFA002003F03CFA002003F039FA002032
:1026C00003F036FA002003F033FA002003F030FA6A
:1026D000002003F02DFA002003F02AFA002003F076
:1026E00027FA002003F024FAB42003F027FA8B2005
:1026F00003F01EFA002003F01BFA962003F018FAEC
:10270000002003F015FAA12003F012FA002003F0D4
:102710000FFAB52003F012FA022003F009FA0020A4
:1027200003F006FA032003F003FA002003F000FA96
:10273000042003F0FDF9002003F0FAF9B62003F0BD
:10274000FDF9002003F0F4F9002003F0F1F9B720BF
:1027500003F0F4F9002003F0EBF9002003F0E8F9AE
:102760003F2003F0E5F9002003F0E2F95E2003F0DA
:10277000DFF9002003F0DCF9642003F0D9F9002030
:1027800003F0D6F98C2003F0D3F9002003F0D0F940
:10279000AC2003F0CDF9002003F0CAF9DC2003F0EF
:1027A000C7F9002003F0C4F9702003F0C1F900203C
:1027B00003F0BEF9902003F0BBF9002003F0B8F954
:1027C000EB2003F0B5F9002003F0B2F9DC2003F0B0
:1027D000AFF9002003F0ACF9B82003F0AFF9002006
:1027E00003F0A6F9002003F0A3F9002003F0A0F9FC
:1027F000002003F09DF9002003F09AF9002003F077
:1028000097F9002003F094F9002003F091F9BA2021
:1028100003F094F9242003F08BF9002003F088F9E9
:10282000002003F085F9002003F082F9C12003F0B5
:1028300085F9202003F07CF9002003F079F9542079
:1028400003F076F9002003F073F9FF2003F070F92C
:10285000002003F06DF9C22003F070F90A2003F0A4
:1028600067F9002003F064F9042003F061F9002007
:1028700003F05EF9C32003F061F93C2003F058F93E
:10288000002003F055F93A2003F052F9002003F03C
:102890004FF9392003F04CF9002003F049F93720B3
:1028A00003F046F9002003F043F93C2003F040F91F
:1028B000002003F03DF9362003F03AF9002003F040
:1028C00037F9322003F034F9002003F031F92F20DA
:1028D00003F02EF9002003F02BF92C2003F028F947
:1028E000002003F025F9292003F022F9002003F04D
:1028F0001FF9262003F01CF9002003F019F9242009
:1029000003F016F9002003F013F9242003F010F966
:10291000002003F00DF9232003F00AF9002003F052
:1029200007F93C2003F004F9002003F001F93620F8
:1029300003F0FEF8002003F0FBF8322003F0F8F873
:10294000002003F0F5F82F2003F0F2F8002003F048
:10295000EFF82C2003F0ECF8002003F0E9F8292030
:1029600003F0E6F8002003F0E3F8262003F0E0F897
:10297000002003F0DDF8242003F0DAF8002003F053
:10298000D7F8242003F0D4F8002003F0D1F8232056
:1029900003F0CEF8002003F0CBF8C42003F0CEF80B
:1029A000622003F0C5F8002003F0C2F8052003F010
:1029B000BFF8002003F0BCF8842003F0B9F8002031
:1029C00003F0B6F8F02003F0B3F8002003F0B0F8FD
:1029D000182003F0ADF8002003F0AAF8A42003F0BB
:1029E000A7F8002003F0A4F8182003F0A1F80020B5
:1029F00003F09EF8502003F09BF8002003F098F8B5
:102A00000C2003F095F8002003F092F8172003F053
:102A10008FF8002003F08CF8952003F089F800204F
:102A200003F086F8F32003F083F8002003F080F829
:102A3000E62003F07DF8002003F07AF8C52003F0CB
:102A40007DF8322003F074F8002003F071F8442080
:102A500003F06EF8002003F06BF8652003F068F8CF
:102A6000002003F065F8762003F062F8002003F000
:102A70005FF8882003F05CF8002003F059F8C620C6
:102A800003F05CF8202003F053F8002003F050F826
:102A9000172003F04DF8002003F04AF8012003F05E
:102AA00047F8002003F044F8C72003F047F800205F
:102AB00003F03EF8002003F03BF8002003F038F864
:102AC000002003F035F8C82003F038F8002003F0A8
:102AD0002FF8002003F02CF8002003F029F8002044
:102AE00003F026F8C92003F029F8002003F020F8AD
:102AF000002003F01DF8002003F01AF8002003F076
:102B000017F8002003F014F8002003F011F800205B
:102B100003F00EF8002003F00BF8002003F008F893
:102B2000002003F005F8002003F002F8002002F076
:102B3000FFFF002002F0FCFF002002F0F9FF002060
:102B400002F0F6FF002002F0F3FFE02002F0F6FFB3
:102B5000162002F0EDFF002002F0EAFF1C2002F038
:102B6000E7FF002002F0E4FF212002F0E1FF002057
:102B700002F0DEFF362002F0DBFF002002F0D8FF7B
:102B8000462002F0D5FF002002F0D2FF522002F0D2
:102B9000CFFF002002F0CCFF642002F0C9FF00202C
:102BA00002F0C6FF7A2002F0C3FF002002F0C0FF4F
:102BB0008B2002F0BDFF002002F0BAFF992002F046
:102BC000B7FF002002F0B4FFA82002F0B1FF002000
:102BD00002F0AEFFB92002F0ABFF002002F0A8FF28
:102BE000C42002F0A5FF002002F0A2FFCA2002F0DC
:102BF0009FFF002002F09CFFD22002F099FF0020EE
:102C000002F096FFD92002F093FF002002F090FF1F
:102C1000E02002F08DFF002002F08AFFF32002F096
:102C200087FF002002F084FFE12002F087FF1620DA
:102C300002F07EFF002002F07BFF1C2002F078FFF4
:102C4000002002F075FF222002F072FF002002F047
:102C50006FFF362002F06CFF002002F069FF452074
:102C600002F066FF002002F063FF522002F060FFD6
:102C7000002002F05DFF642002F05AFF002002F005
:102C800057FF7A2002F054FF002002F051FF8B2002
:102C900002F04EFF002002F04BFF992002F048FFA7
:102CA000002002F045FFA82002F042FF002002F0C1
:102CB0003FFFB92002F03CFF002002F039FFC420A2
:102CC00002F036FF002002F033FFCA2002F030FF8E
:102CD000002002F02DFFD22002F02AFF002002F097
:102CE00027FFD82002F024FF002002F021FFE0207F
:102CF00002F01EFF002002F01BFFF32002F018FF7D
:102D0000002002F015FFE22002F018FF052002F07B
:102D10000FFF002002F00CFF0B2002F009FF002043
:102D200002F006FF1B2002F003FF002002F000FF6C
:102D3000342002F0FDFE002002F0FAFE442002F0F2
:102D4000F7FE002002F0F4FE4F2002F0F1FE00201A
:102D500002F0EEFE612002F0EBFE002002F0E8FE41
:102D6000792002F0E5FE002002F0E2FE882002F069
:102D7000DFFE002002F0DCFE972002F0D9FE0020EA
:102D800002F0D6FEA62002F0D3FE002002F0D0FE14
:102D9000B72002F0CDFE002002F0CAFEC22002F0F1
:102DA000C7FE002002F0C4FEC72002F0C1FE0020D2
:102DB00002F0BEFED12002F0BBFE002002F0B8FE01
:102DC000D62002F0B5FE002002F0B2FEDD2002F0B7
:102DD000AFFE002002F0ACFEF32002F0A9FE0020BE
:102DE00002F0A6FEE32002F0A9FE052002F0A0FEFC
:102DF000002002F09DFE0A2002F09AFE002002F060
:102E000097FE1C2002F094FE002002F091FE332079
:102E100000E0FDE202F08CFE002002F089FE44207A
:102E200002F086FE002002F083FE502002F080FEB9
:102E3000002002F07DFE622002F07AFE002002F007
:102E400077FE782002F074FE002002F071FE8820E8
:102E500002F06EFE002002F06BFE972002F068FE8A
:102E6000002002F065FEA62002F062FE002002F0C3
:102E70005FFEB72002F05CFE002002F059FEC22087
:102E800002F056FE002002F053FEC72002F050FE72
:102E9000002002F04DFED12002F04AFE002002F098
:102EA00047FED52002F044FE002002F041FEDD2066
:102EB00002F03EFE002002F03BFEF32002F038FE5E
:102EC000002002F035FEE42002F038FE012002F07E
:102ED0002FFE002002F02CFE012002F029FE00202F
:102EE00002F026FE022002F023FE002002F020FE67
:102EF0002A2002F01DFE002002F01AFE3C2002F003
:102F000017FE002002F014FE4B2002F011FE0020FC
:102F100002F00EFE5D2002F00BFE002002F008FE23
:102F2000742002F005FE002002F002FE842002F070
:102F3000FFFD002002F0FCFD932002F0F9FD0020CF
:102F400002F0F6FDA22002F0F3FD002002F0F0FDF9
:102F5000B32002F0EDFD002002F0EAFDBE2002F0F9
:102F6000E7FD002002F0E4FDC42002F0E1FD0020B6
:102F700002F0DEFDCD2002F0DBFD002002F0D8FDE6
:102F8000D32002F0D5FD002002F0D2FDDD2002F0BA
:102F9000CFFD002002F0CCFDF32002F0C9FD00209F
:102FA00002F0C6FDE52002F0C9FD002002F0C0FDE0
:102FB000002002F0BDFD002002F0BAFD002002F06A
:102FC000B7FD022002F0B4FD002002F0B1FD29207F
:102FD00002F0AEFD002002F0ABFD3C2002F0A8FDA7
:102FE000002002F0A5FD4B2002F0A2FD002002F01F
:102FF0009FFD5D2002F09CFD002002F099FD7420F1
:1030000002F096FD002002F093FD842002F090FD76
:10301000002002F08DFD932002F08AFD002002F0D6
:1030200087FDA22002F084FD002002F081FDB32084
:1030300002F07EFD002002F07BFDBE2002F078FD54
:10304000002002F075FDC42002F072FD002002F0A5
:103050006FFDCD2002F06CFD002002F069FDD32051
:1030600002F066FD002002F063FDDC2002F060FD4E
:10307000002002F05DFDF32002F05AFD002002F076
:1030800057FDE62002F05AFD112002F051FD00200C
:1030900002F04EFD342002F04BFD002002F048FD0E
:1030A000562002F045FD002002F042FD762002F09D
:1030B0003FFD002002F03CFD772002F039FD0020AA
:1030C00002F036FD662002F033FD002002F030FDF4
:1030D000882002F02DFD002002F02AFD992002F048
:1030E00027FD002002F024FDBB2002F021FD00207E
:1030F00002F01EFD992002F01BFD002002F018FDD9
:10310000662002F015FD002002F012FD552002F0AD
:103110000FFD002002F00CFD552002F009FD0020FB
:1031200002F006FD452002F003FD002002F000FD44
:10313000432002F0FDFC002002F0FAFC442002F0E3
:10314000F7FC002002F0F4FCE72002F0F7FC32204C
:1031500002F0EEFC002002F0EBFC552002F0E8FC4F
:10316000002002F0E5FC762002F0E2FC002002F0F4
:10317000DFFC662002F0DCFC002002F0D9FC6720B6
:1031800002F0D6FC002002F0D3FC672002F0D0FC55
:10319000002002F0CDFC872002F0CAFC002002F0E3
:1031A000C7FC992002F0C4FC002002F0C1FCBB2047
:1031B00002F0BEFC002002F0BBFC992002F0B8FC3B
:1031C000002002F0B5FC772002F0B2FC002002F0F3
:1031D000AFFC442002F0ACFC002002F0A9FC562019
:1031E00002F0A6FC002002F0A3FC232002F0A0FCC9
:1031F000002002F09DFC332002F09AFC002002F037
:1032000097FC452002F094FC002002F091FCE8209D
:1032100002F094FC002002F08BFC002002F088FCFD
:10322000992002F085FC002002F082FC872002F049
:103230007FFC002002F07CFC882002F079FC00205A
:1032400002F076FC772002F073FC002002F070FCA4
:10325000662002F06DFC002002F06AFC882002F07B
:1032600067FC002002F064FCAA2002F061FC002050
:1032700002F05EFCBB2002F05BFC002002F058FC78
:10328000992002F055FC002002F052FC662002F06A
:103290004FFC002002F04CFC552002F049FC0020BD
:1032A00002F046FC552002F043FC002002F040FCF6
:1032B000442002F03DFC002002F03AFC442002F0E1
:1032C00037FC002002F034FC552002F031FC0020D5
:1032D00002F02EFCE92002F031FCAA2002F028FCCA
:1032E000002002F025FC002002F022FC002002F069
:1032F0001FFC002002F022FCAA2002F019FCCF20C3
:1033000002F01CFC002002F013FC002002F010FC74
:10331000002002F00DFC002002F00AFC002002F068
:1033200007FC002002F004FC002002F001FC002059
:1033300002F0FEFB002002F0FBFB002002F0F8FB95
:10334000002002F0F5FB002002F0F2FB002002F06A
:10335000EFFB002002F0ECFB002002F0E9FB002074
:1033600002F0E6FB002002F0E3FBF02002F0E6FBB7
:10337000002002F0DDFB502002F0DAFB002002F01A
:10338000D7FB002002F0D4FB002002F0D1FBF32099
:1033900002F0D4FB002002F0CBFBF92002F0CEFBC0
:1033A000062002F0C5FB102002F0C2FB292002F02B
:1033B000BFFB002002F0BCFB3A2002F0BFFB55200F
:1033C00002F0B6FB112002F0B9FB642005F082FA8E
:1033D000292002F0B3FB352002F0B0FB002002F000
:1033E000A7FB512002F0AAFBFF2002F0A1FB532013
:1033F00002F0A4FB2C2002F09BFB552002F09EFB68
:10340000822002F095FB2C2002F098FB02F084B899
:10341000B0427DD14FF470435521184602F0DEFBD7
:103420004FF20104AA21204602F0D8FB651C52216C
:10343000284602F0D3FBA61C0821304602F0CEFB42
:103440004FF204090121484602F0C8FB0D214FF458
:10345000304002F0C3FB0D214BF2010002F0BEFB35
:103460000D214BF2020002F0B9FB4FF4364A342131
:10347000504602F0B3FB34214BF2016002F0AEFB88
:1034800034214BF2026002F0A9FB4FF4314B0D21C5
:10349000584602F0A3FB0D214BF2011002F09EFBF7
:1034A0000D214BF2021002F099FB34214FF437400A
:1034B00002F094FB34214BF2017002F08FFB3421B7
:1034C0004BF2027002F08AFB00214FF4324002F00E
:1034D00085FB00214BF2012002F080FB00214BF222
:1034E000022002F07BFB24214FF4384002F076FBEF
:1034F00024214BF6010002F071FB24214BF602005F
:1035000002F06CFB01214FF43F4002F067FB00E04A
:10351000FDE30F214FF4334002F060FB0F214BF22B
:10352000013002F05BFB0F214BF2023002F056FB40
:1035300034214FF4394002F051FB34214BF6011095
:1035400002F04CFB34214BF6021002F047FB08213D
:103550004FF4354002F042FB08214BF2015002F0DB
:103560003DFB08214BF2025002F038FB03214FF4DF
:10357000424002F033FB24214FF43A4002F02EFB8C
:1035800024214BF6012002F029FB24214BF60220D6
:1035900002F024FB00214FF43C4002F01FFB782195
:1035A0004BF6014002F01AFB00214BF6024002F0FC
:1035B00015FB00214FF43D4002F010FB78214BF643
:1035C000015002F00BFB00214BF6025002F006FB0B
:1035D00000214FF43E4002F001FB64214BF60160F4
:1035E00002F0FCFA00214FF4514002F0F7FA3321C7
:1035F0004DF2011002F0F2FA00214DF2021002F039
:10360000EDFA34214DF2031002F0E8FA00214DF2F8
:10361000041002F0E3FA3A214DF2051002F0DEFA4E
:1036200000214DF2061002F0D9FA4A214DF207109E
:1036300002F0D4FA00214DF2081002F0CFFA5C211A
:103640004DF2091002F0CAFA00214DF20A1002F000
:10365000C5FA81214DF20B1002F0C0FA00214DF2A3
:103660000C1002F0BBFAA6214DF20D1002F0B6FAD2
:1036700000214DF20E1002F0B1FAE5214DF20F10CB
:1036800002F0ACFA01214DF2101002F0A7FA13215A
:103690004DF2111002F0A2FA01214DF2121002F0C7
:1036A0009DFA54214DF2131002F098FA01214DF2C7
:1036B000141002F093FA82214DF2151002F08EFAE6
:1036C00001214DF2161002F089FACA214DF21710AD
:1036D00002F084FA02214DF2181002F07FFA002164
:1036E0004DF2191002F07AFA02214DF21A1002F08E
:1036F00075FA01214DF21B1002F070FA02214DF211
:103700001C1002F06BFA34214DF21D1002F066FA23
:1037100002214DF21E1002F061FA67214DF21F10D6
:1037200002F05CFA02214DF2201002F057FA8421D7
:103730004DF2211002F052FA02214DF2221002F055
:103740004DFAA4214DF2231002F048FA02214DF265
:10375000241002F043FAB7214DF2251002F03EFA90
:1037600002214DF2261002F039FACF214DF2271036
:1037700002F034FA02214DF2281002F02FFADE2175
:103780004DF2291002F02AFA02214DF22A1002F01D
:1037900025FAF2214DF22B1002F020FA02214DF20F
:1037A0002C1002F01BFAFE214DF22D1002F016FA39
:1037B00003214DF22E1002F011FA10214DF22F10BC
:1037C00002F00CFA03214DF2301002F007FA332117
:1037D0004DF2311002F002FA03214DF2321002F0E4
:1037E000FDF96D214DF2331002F0F8F900214FF48C
:1037F000524002F0F3F933214DF2012002F0EEF9CC
:1038000000214DF2022002F0E9F934214DF20320AB
:1038100002F0E4F900214DF2042002F0DFF93A2130
:103820004DF2052002F0DAF900214DF2062002F0F7
:10383000D5F94A214DF2072002F0D0F900214DF2CE
:10384000082002F0CBF95C214DF2092002F0C6F904
:1038500000214DF20A2002F0C1F981214DF20B2026
:1038600002F0BCF900214DF20C2002F0B7F9A621BC
:103870004DF20D2002F0B2F900214DF20E2002F0BF
:10388000ADF9E5214DF20F2002F0A8F901214DF22A
:10389000102002F0A3F913214DF2112002F09EF93D
:1038A00001214DF2122002F099F954214DF213201A
:1038B00002F094F901214DF2142002F08FF98221D7
:1038C0004DF2152002F08AF901214DF2162002F086
:1038D00085F9CA214DF2172002F080F902214DF23C
:1038E000182002F07BF900214DF2192002F076F940
:1038F00002214DF21A2002F071F901214DF21B2034
:1039000002F06CF902214DF21C2002F067F934211B
:103910004DF21D2002F062F902214DF21E2002F04C
:103920005DF967214DF21F2002F058F902214DF296
:10393000202002F053F984214DF2212002F04EF9AB
:1039400002214DF2222002F049F9A4214DF2232058
:1039500002F044F902214DF2242002F03FF9B72190
:103960004DF2252002F03AF902214DF2262002F014
:1039700035F9CF214DF2272002F030F902214DF226
:10398000282002F02BF9DE214DF2292002F026F941
:1039900002214DF22A2002F021F9F2214DF22B20D2
:1039A00002F01CF902214DF22C2002F017F9FE2141
:1039B0004DF22D2002F012F903214DF22E2002F0DB
:1039C0000DF910214DF22F2002F008F903214DF2DC
:1039D000302002F003F933214DF2312002F0FEF8DD
:1039E00003214DF2322002F0F9F86D214DF233201F
:1039F00002F0F4F800214FF4534002F0EFF83321C5
:103A00004DF2013002F0EAF800214DF2023002F0EE
:103A1000E5F834214DF2033002F0E0F800214DF2D8
:103A2000043002F0DBF83A214DF2053002F0D6F80E
:103A300000214DF2063002F0D1F84A214DF2073054
:103A400002F0CCF800214DF2083002F0C7F85C21FA
:103A50004DF2093002F0C2F800214DF20A3002F0B6
:103A6000BDF881214DF20B3002F0B8F800214DF283
:103A70000C3002F0B3F8A6214DF20D3002F0AEF892
:103A800000214DF20E3002F0A9F8E5214DF20F3081
:103A900002F0A4F801214DF2103002F09FF813213A
:103AA0004DF2113002F09AF801214DF2123002F07D
:103AB00095F854214DF2133002F090F801214DF2A7
:103AC000143002F08BF882214DF2153002F086F8A6
:103AD00001214DF2163002F081F8CA214DF2173063
:103AE00002F07CF802214DF2183002F077F8002144
:103AF0004DF2193002F072F802214DF21A3002F044
:103B00006DF801214DF21B3002F068F802214DF2F0
:103B10001C3002F063F834214DF21D3002F05EF8E3
:103B200002214DF21E3002F059F867214DF21F308C
:103B300002F054F802214DF2203002F04FF88421B7
:103B40004DF2213002F04AF802214DF2223002F00B
:103B500045F8A4214DF2233002F040F802214DF245
:103B6000243002F03BF8B7214DF2253002F036F850
:103B700002214DF2263002F031F8CF214DF22730EC
:103B800002F02CF802214DF2283002F027F8DE2155
:103B90004DF2293002F022F802214DF22A3002F0D3
:103BA0001DF8F2214DF22B3002F018F802214DF2EF
:103BB0002C3002F013F8FE214DF22D3002F00EF8F9
:103BC00003214DF22E3002F009F810214DF22F3072
:103BD00002F004F803214DF2303001F0FFFF3321F1
:103BE0004DF2313001F0FAFF03214DF2323001F095
:103BF000F5FF6D214DF2333001F0F0FF00214FF45D
:103C0000544001F0EBFF33214DF2014001F0E6FF9B
:103C100000214DF2024001F0E1FF34214DF203405A
:103C200001F0DCFF00214DF2044001F0D7FF3A2102
:103C30004DF2054001F0D2FF00214DF2064001F0A7
:103C4000CDFF4A214DF2074001F0C8FF00214DF29F
:103C5000084001F0C3FF5C214DF2094001F0BEFFB6
:103C600000214DF20A4001F0B9FF81214DF20B40D5
:103C700001F0B4FF00214DF20C4001F0AFFFA6218E
:103C80004DF20D4001F0AAFF00214DF20E4001F06F
:103C9000A5FFE5214DF20F4001F0A0FF01214DF2FB
:103CA000104001F09BFF13214DF2114001F096FFEF
:103CB00001214DF2124001F091FF54214DF21340C9
:103CC00001F08CFF01214DF2144001F087FF8221A9
:103CD0004DF2154001F082FF01214DF2164001F036
:103CE0007DFFCA214DF2174001F078FF02214DF20D
:103CF000184001F073FF00214DF2194001F06EFFF2
:103D000002214DF21A4001F069FF012100E001E3B8
:103D10004DF21B4001F062FF02214DF21C4001F008
:103D20005DFF34214DF21D4001F058FF02214DF29C
:103D30001E4001F053FF67214DF21F4001F04EFF7E
:103D400002214DF2204001F049FF84214DF2214033
:103D500001F044FF02214DF2224001F03FFFA42177
:103D60004DF2234001F03AFF02214DF2244001F0D0
:103D700035FFB7214DF2254001F030FF02214DF211
:103D8000264001F02BFFCF214DF2274001F026FF06
:103D900002214DF2284001F021FFDE214DF22940A1
:103DA00001F01CFF02214DF22A4001F017FFF22121
:103DB0004DF22B4001F012FF02214DF22C4001F098
:103DC0000DFFFE214DF22D4001F008FF03214DF2C1
:103DD0002E4001F003FF10214DF22F4001F0FEFEB6
:103DE00003214DF2304001F0F9FE33214DF2314014
:103DF00001F0F4FE03214DF2324001F0EFFE6D219F
:103E00004DF2334001F0EAFE00214FF4554001F03D
:103E1000E5FE33214DF2015001F0E0FE00214DF2AC
:103E2000025001F0DBFE34214DF2035001F0D6FECA
:103E300000214DF2045001F0D1FE3A214DF205501F
:103E400001F0CCFE00214DF2065001F0C7FE4A21E0
:103E50004DF2075001F0C2FE00214DF2085001F072
:103E6000BDFE5C214DF2095001F0B8FE00214DF27B
:103E70000A5001F0B3FE81214DF20B5001F0AEFE6D
:103E800000214DF20C5001F0A9FEA6214DF20D507B
:103E900001F0A4FE00214DF20E5001F09FFEE5213D
:103EA0004DF20F5001F09AFE01214DF2105001F039
:103EB00095FE13214DF2115001F090FE01214DF2BB
:103EC000125001F08BFE54214DF2135001F086FE8A
:103ED00001214DF2145001F081FE82214DF2155066
:103EE00001F07CFE01214DF2165001F077FECA214F
:103EF0004DF2175001F072FE02214DF2185001F000
:103F00006DFE00214DF2195001F068FE02214DF2C4
:103F10001A5001F063FE01214DF21B5001F05EFECC
:103F200002214DF21C5001F059FE34214DF21D507A
:103F300001F054FE02214DF21E5001F04FFE6721A8
:103F40004DF21F5001F04AFE02214DF2205001F0C7
:103F500045FE84214DF2215001F040FE02214DF238
:103F6000225001F03BFEA4214DF2235001F036FE19
:103F700002214DF2245001F031FEB7214DF22550BF
:103F800001F02CFE02214DF2265001F027FECF2138
:103F90004DF2275001F022FE02214DF2285001F08F
:103FA0001DFEDE214DF2295001F018FE02214DF2D6
:103FB0002A5001F013FEF2214DF22B5001F00EFEBB
:103FC00002214DF22C5001F009FEFE214DF22D5040
:103FD00001F004FE03214DF22E5001F0FFFD1021EF
:103FE0004DF22F5001F0FAFD03214DF2305001F057
:103FF000F5FD33214DF2315001F0F0FD03214DF27A
:10400000325001F0EBFD6D214DF2335001F0E6FD31
:1040100000214FF4564001F0E1FD33214DF20160E3
:1040200001F0DCFD00214DF2026001F0D7FD3421EA
:104030004DF2036001F0D2FD00214DF2046001F069
:10404000CDFD3A214DF2056001F0C8FD00214DF291
:10405000066001F0C3FD4A214DF2076001F0BEFD8C
:1040600000214DF2086001F0B9FD5C214DF20960BC
:1040700001F0B4FD00214DF20A6001F0AFFD812195
:104080004DF20B6001F0AAFD00214DF20C6001F031
:10409000A5FDA6214DF20D6001F0A0FD00214DF21D
:1040A0000E6001F09BFDE5214DF20F6001F096FDE1
:1040B00001214DF2106001F091FD13214DF21160CC
:1040C00001F08CFD01214DF2126001F087FD5421B9
:1040D0004DF2136001F082FD01214DF2146001F0F8
:1040E0007DFD82214DF2156001F078FD01214DF238
:1040F000166001F073FDCA214DF2176001F06EFDEC
:1041000002214DF2186001F069FD00214DF21960A5
:1041100001F064FD02214DF21A6001F05FFD012102
:104120004DF21B6001F05AFD02214DF21C6001F0BE
:1041300055FD34214DF21D6001F050FD02214DF27C
:104140001E6001F04BFD67214DF21F6001F046FD3E
:1041500002214DF2206001F041FD84214DF22160E9
:1041600001F03CFD02214DF2226001F037FDA42157
:104170004DF2236001F032FD02214DF2246001F086
:104180002DFDB7214DF2256001F028FD02214DF2F1
:10419000266001F023FDCF214DF2276001F01EFDC6
:1041A00002214DF2286001F019FDDE214DF2296057
:1041B00001F014FD02214DF22A6001F00FFDF22101
:1041C0004DF22B6001F00AFD02214DF22C6001F04E
:1041D00005FDFE214DF22D6001F000FD03214DF2A1
:1041E0002E6001F0FBFC10214DF22F6001F0F6FC77
:1041F00003214DF2306001F0F1FC33214DF23160CA
:1042000001F0ECFC03214DF2326001F0E7FC6D217E
:104210004DF2336001F0E2FC5521184601F0DEFC5E
:10422000AA21204601F0DAFC5221284601F0D6FCF2
:104230000821304601F0D2FC0021484601F0CEFCB6
:10424000CC21584601F0CAFC00214BF2011001F0CC
:10425000C5FC0521504601F0C1FC70214FF43740E8
:1042600001F0BCFC70214BF2017001F0B7FC0121A0
:104270004FF4384001F0B2FC03214BF6010001F08D
:10428000ADFC03214BF6020001F0A8FC03214BF624
:10429000030001F0A3FC02214FF43C4001F09EFC1E
:1042A00000214BF6014001F099FC00214BF6024041
:1042B00001F094FCD0214FF4494001F08FFC022121
:1042C0004CF6011001F08AFC50214CF6021001F06E
:1042D00085FC50214CF6031001F080FC50214CF677
:1042E000041001F07BFC00214FF4545001F076FCE7
:1042F00055214FF4685001F071FC4FF4885001F0E3
:104300001DFC782004F000FB4FF4245001F016FC53
:1043100001F002B9A0F513414FF4E06640F2022922
:1043200040F23F1A4FF4274B253921D0F41DC91E06
:104330007ED04FF41C5B08317BD011397AD0A0F5C8
:10434000A841083977D0A0F5A851053974D0B1F546
:10435000204172D0B1F5805170D0A0F58A41313939
:104360006DD0091F6CD0A0F5C851633969D0CFE773
:1043700047F6F001E52001F031FC2946012001F06B
:104380002DFC3146022001F029FC41F230010320CE
:1043900001F024FC0021042001F020FC4946082003
:1043A00001F01CFC0021092001F018FC00210A206A
:1043B00001F014FC00210C2001F010FC00210D2064
:1043C00001F00CFC00210F2001F008FC002110205E
:1043D00001F004FC0721112001F000FC0021122053
:1043E00001F0FCFB0021132001F0F8FB0021072065
:1043F00001F0F4FB41F29061102001F0EFFB40F27C
:104400002721112001F0EAFB9D21122001F0E6FB9B
:104410004FF4C851132001F0E1FB2521292001F0C0
:10442000DDFB0D212B2001F0D9FB0721302009E015
:104430007AE066E10CE2E6E283E3FDE3FDE3FDE31F
:10444000FDE3FDE301F0CAFB40F20331312001F04E
:10445000C5FB0321322001F0C1FB40F206213520CB
:1044600001F0BCFB0821362001F0B8FB40F2064108
:10447000372001F0B3FB4FF44171382001F0AEFB5F
:104480000721392001F0AAFB40F202613C2001F033
:10449000A5FB08213D2001F0A1FB0021502001F0E7
:1044A0009DFBEF21512001F099FB0021522001F0EA
:1044B00095FB5146532001F091FB5946602001F0D5
:1044C0008DFB0121612001F089FB00216A2001F0B0
:1044D00085FB0021802001F081FB0021812001F07B
:1044E0007DFB0021822001F079FB0021832001F077
:1044F00075FB0021842001F071FB0021852001F073
:104500006DFB1021902001F069FB4FF4C0619220F7
:1045100001F064FB40F23311072001F05FFB222120
:10452000002001F05BFBF3E641F28F01EC2001F08B
:1045300055FB41F23421EF2001F050FB29460120C8
:1045400001F04CFB3146022001F048FB41F2300102
:10455000032001F043FB0021042001F03FFB49460A
:10456000082001F03BFB0021092001F037FB00216E
:104570000A2001F033FB01210C2001F02FFB002168
:104580000D2001F02BFB00210F2001F027FB002163
:10459000102001F023FB0721112001F01FFB002157
:1045A000122001F01BFB0021132001F017FB012159
:1045B000072001F013FB322004F08CF941F2904106
:1045C000102001F00BFB40F22721112001F006FB27
:1045D000322004F07FF98A21122001F0FFFA322004
:1045E00004F078F94FF4D051132001F0F7FA0621C6
:1045F000292001F0F3FA0D212B2001F0EFFA3220EF
:1046000004F068F90021202001F0E8FA00212120BF
:1046100001F0E4FA322004F05DF90021302001F0CD
:10462000DDFA40F20461312001F0D8FA40F20531A0
:10463000322001F0D3FA0021352001F0CFFA40F604
:104640000941362001F0CAFA4FF40171372001F018
:10465000C5FA40F20131382001F0C0FA2146392074
:1046600001F0BCFA00213C2001F0B8FA40F60A2122
:104670003D2001F0B3FA322004F02CF90021502043
:1046800001F0ACFAEF21512001F0A8FA00215220EC
:1046900001F0A4FA5146532001F0A0FA59466020D7
:1046A00001F09CFA0121612001F098FA00216A20B2
:1046B00001F094FA0021802001F090FA002181207D
:1046C00001F08CFA0021822001F088FA0021832079
:1046D00001F084FA0021842001F080FA0021852075
:1046E00001F07CFA1021902001F078FA4FF4C061BB
:1046F000922001F073FA40F23311072001F06EFAB4
:1047000006E60021084601F069FA2946012001F079
:1047100065FA3146022001F061FA41F230010320CE
:1047200001F05CFA0021042001F058FA4946082003
:1047300001F054FA0021092001F050FA00210A206A
:1047400001F04CFA01210C2001F048FA00210D2063
:1047500001F044FA00210F2001F040FA322004F069
:10476000B9F840F20111072001F038FA322004F0C4
:10477000B1F84FF48651102001F030FA07211120D2
:1047800001F02CFA4FF488731946122001F026FA32
:104790004FF43061132001F021FA0021292001F0AB
:1047A0001DFA44F210012B2001F018FA00215020CC
:1047B00001F014FAEF21512001F010FA00215220EB
:1047C00001F00CFA5146532001F008FA59466020D6
:1047D00001F004FA0121612001F000FA00216A20B1
:1047E00001F0FCF90021802001F0F8F9002181207E
:1047F00001F0F4F90021822001F0F0F9002183207A
:1048000001F0ECF90021842001F0E8F90021852075
:1048100001F0E4F91021902001F0E0F9002192204C
:1048200001F0DCF90121932001F0D8F91946952017
:1048300001F0D4F90021972001F0D0F9002198204F
:1048400001F0CCF940F27311072001F0C7F95FE5E0
:1048500041F21401E72001F0C1F92946012001F0DD
:10486000BDF94FF40071022001F0B8F941F23801AE
:10487000032001F0B3F94946082001F0AFF9002107
:10488000092001F0ABF900210A2001F0A7F900216D
:104890000C2001F0A3F900210D2001F09FF9002167
:1048A0000F2001F09BF90021102001F097F907215A
:1048B000112001F093F90021122001F08FF900215D
:1048C000132001F08BF9C82004F004F841F2906144
:1048D000102001F083F940F22721112001F07EF928
:1048E000322003F0F7FF0C21122001F077F932207B
:1048F00003F0F0FF4FF40061132001F06FF9112174
:10490000292001F06BF90B212B2001F067F93220EF
:1049100003F0E0FF0021202001F060F95146212042
:1049200001F05CF90021302001F058F94FF4837355
:104930001946312001F052F90021322001F04EF9E0
:104940004FF40171352001F049F941F20A61362036
:1049500001F044F92146372001F040F9194638208A
:1049600001F03CF92146392001F038F940F20241CA
:104970003C2001F033F940F60F413D2001F02EF9C3
:104980000021502001F02AF9EF21512001F026F9F1
:104990000021522001F022F95146532001F01EF966
:1049A0005946602001F01AF90121612001F016F941
:1049B00000216A2001F012F90021802001F00EF997
:1049C0000021812001F00AF90021822001F006F97E
:1049D0000021832001F002F90021842001F0FEF87B
:1049E0000021852001F0FAF81021902001F0F6F85E
:1049F0004FF4C061922001F0F1F840F2331107202A
:104A000001F0ECF884E42946012001F0E7F8314692
:104A1000022001F0E3F841F23001032001F0DEF85A
:104A20000021042001F0DAF840F20721082001F00B
:104A3000D5F80021092001F0D1F800210A2001F069
:104A4000CDF800210C2001F0C9F800210D2001F063
:104A5000C5F800210F2001F0C1F8142003F03AFF3F
:104A600041F2B061102001F0B9F80121112001F0EC
:104A7000B5F80121172001F0B1F84FF49C71122014
:104A800001F0ACF84FF40061132001F0A7F8092100
:104A9000292001F0A3F809212A2001F09FF8002124
:104AA000A42001F09BF80021502001F097F8EF219D
:104AB000512001F093F80021522001F08FF8514667
:104AC000532001F08BF85946602001F087F801214E
:104AD000612001F083F800216A2001F07FF80021B5
:104AE000802001F07BF80021812001F077F800217F
:104AF000822001F073F80021832001F06FF800217B
:104B0000842001F06BF80021852001F067F8132163
:104B1000902001F063F80021922001F05FF803215A
:104B2000932001F05BF84FF48871952001F056F85E
:104B300040F27311072001F051F8322003F0CAFE51
:104B400015E40021072001F049F8322003F0C2FEED
:104B50004FF48E71122001F041F80121A42001F0E0
:104B60003DF80F21082001F039F808210A2001F052
:104B700035F808210D2001F031F82146302001F0F0
:104B80002DF80721312001F029F840F2036132208D
:104B900001F024F83146332001F020F84946342052
:104BA00001F01CF80221352001F018F841F60F71D0
:104BB000362001F013F82146372001F00FF80021CC
:104BC000382001F00BF80021392001F007F82146C8
:104BD0003A2001F003F800213B2000F0FFFF0721FD
:104BE0003C2000F0FBFF00213D2000F0F7FF3220C9
:104BF00003F070FE0121072000F0F0FF01211720D3
:104C000000F0ECFF322003F065FE4FF4BD511020A0
:104C100000F0E4FF40F21721112000F0DFFF4FF415
:104C20008F71122000F0DAFF4FF47061132000F052
:104C3000D5FF00212A2004E093E08DE157E20BE349
:104C4000B5E300F0CBFF0A21292000F0C7FF4FF4A5
:104C50009F71122000F0C2FF0021502000F0BEFF23
:104C6000EF21512000F0BAFF0021522000F0B6FFE2
:104C70005146532000F0B2FF5946602000F0AEFFCD
:104C80000121612000F0AAFF00216A2000F0A6FFA8
:104C90000021802000F0A2FF0021812000F09EFF73
:104CA0000021822000F09AFF0021832000F096FF6F
:104CB0000021842000F092FF0021852000F08EFF6B
:104CC0001321902000F08AFF4FF44071922000F0F1
:104CD00085FF0521932000F081FF0021952000F041
:104CE0007DFF0021972000F079FF0021982000F03F
:104CF00075FF2946012000F071FF3146022000F0C7
:104D00006DFF41F23801032000F068FF002104200C
:104D100000F064FF00210C2000F060FF00210F2054
:104D200000F05CFF0021202000F058FF002121202E
:104D300000F054FF2121072000F050FF142003F061
:104D4000C9FD6121072000F049FF142003F0C2FDD6
:104D500040F27311072000F041FF142003F0BAFD68
:104D6000DAE30021084600F039FF0021084600F090
:104D700035FF0021084600F031FF0021084600F011
:104D80002DFF0121A42000F029FF142003F0A2FD33
:104D90005946602000F022FF4946082000F01EFF1F
:104DA0004FF40571302000F019FF43F215713120E6
:104DB00000F014FF40F20461322000F00FFF40F6D3
:104DC0001661332000F00AFF42F21121342000F076
:104DD00005FF4FF4A851352000F000FF48F20751BD
:104DE000362000F0FBFE41F20741372000F0F6FECE
:104DF00041F20341382000F0F1FE2021392000F07B
:104E0000EDFE1A21902000F0E9FE0021102000F0B4
:104E1000E5FE0721112000F0E1FE0021122000F044
:104E2000DDFE0021132000F0D9FE142003F052FD16
:104E30004FF4E661102000F0D1FE40F2371111204E
:104E400000F0CCFE142003F045FD4FF4DC7112207D
:104E500000F0C4FE142003F03DFD4FF470611320F8
:104E600000F0BCFE80212A2000F0B8FE4821292055
:104E700000F0B4FE142003F02DFD2946012000F0BF
:104E8000ADFE3146022000F0A9FE41F238010320B8
:104E900000F0A4FE4946082000F0A0FE00210A20F0
:104EA00000F09CFE00210C2000F098FE00210D2057
:104EB00000F094FE30210E2000F090FE00215020E2
:104EC00000F08CFEEF21512000F088FE00215220DE
:104ED00000F084FE5146532000F080FE59466020C9
:104EE00000F07CFE0121612000F078FE00216A20A4
:104EF00000F074FE1121902000F070FE4FF4C061AC
:104F0000922000F06BFE40F20241932000F066FE1A
:104F10000221942000F062FE142003F0DBFC01214A
:104F2000072000F05BFE142003F0D4FC6121072071
:104F300000F054FE40F27311072000F04FFE0021F4
:104F4000202000F04BFE0021212000F047FE22210E
:104F5000002000F043FEDFE20021084600F03EFEA4
:104F60000021084600F03AFE142003F0B3FC0021B3
:104F7000084600F033FE0021084600F02FFE002115
:104F8000084600F02BFE0021084600F027FE012114
:104F9000A42000F023FE142003F09CFC594660205E
:104FA00000F01CFE40F60601082000F017FE40F25B
:104FB00003731946302000F011FE0121312000F06A
:104FC0000DFE0421322000F009FE4FF481713320E0
:104FD00000F004FE4FF440742146342000F0FEFD42
:104FE00040F20311352000F0F9FD1F21362000F0BA
:104FF000F5FD1946372000F0F1FD0121382000F0C1
:10500000EDFD0421392000F0E9FD1521902000F08C
:10501000E5FD4FF48261102000F0E0FD40F24721F1
:10502000112000F0DBFD4FF4DE71122000F0D6FD00
:105030004FF46061132000F0D1FD782003F04AFCAA
:105040002946012000F0CAFD4FF40071022000F053
:10505000C5FD41F23001032000F0C0FD08210A2007
:1050600000F0BCFD00210C2000F0B8FD20210E2036
:1050700000F0B4FD00210F2000F0B0FD0021202041
:1050800000F0ACFD0021212000F0A8FD3D212A20E8
:1050900000F0A4FD142003F01DFC2D21292000F0B8
:1050A0009DFD0021502000F099FD4DF2EF015120AF
:1050B00000F094FD0021522000F090FD5146532055
:1050C00000F08CFD0021612000F088FD00216A20A5
:1050D00000F084FD2146922000F080FD0521932000
:1050E00000F07CFD2946072000F078FD14E2012144
:1050F000002000F073FD0A2003F0ECFB41F2286170
:10510000102000F06BFD0E21122000F067FD40F62C
:105110003921132000F062FD0A2003F0DBFB40215F
:10512000112000F05BFD5021152000F057FD0A20F2
:1051300003F0D0FB1E21122000F050FD0A2003F0E6
:10514000C9FB4FF4B151102000F048FD42F639215F
:10515000132000F043FD0A2003F0BCFB2946012088
:1051600000F03CFD4FF44071022000F037FD41F2A9
:105170003801032000F032FD4946082000F02EFDE2
:1051800008210A2000F02AFD0021302000F026FD31
:1051900040F20241312000F021FD4FF483713220B2
:1051A00000F01CFD40F20351332000F017FD4FF4D6
:1051B0008271342000F012FD40F20131352000F000
:1051C0000DFD2146362000F009FD40F20531372063
:1051D00000F004FD4FF40271382000F0FFFC40F6AF
:1051E0000B71392000F0FAFC0221412000F0F6FC9E
:1051F0005946602000F0F2FC0121612000F0EEFC35
:105200004FF40471902000F0E9FC4FF48571922076
:1052100000F0E4FC0421932000F0E0FC2946A020EB
:1052200000F0DCFC0121072000F0D8FC2121072040
:1052300000F0D4FC2321072000F0D0FC332107200C
:1052400000F0CCFC40F23311072000F0C7FC002135
:10525000A02000F0C3FC5FE13021152000F0BEFC6F
:1052600010219A2000F0BAFC2021112000F0B6FC99
:1052700043F22841102000F0B1FC0221122000F07E
:10528000ADFC41F23801132000F0A8FC282003F007
:1052900021FB1221084600F0A1FC282003F01AFB94
:1052A00043F22041102000F099FC43F23801132012
:1052B00000F094FC462003F00DFB0021302000F0AC
:1052C0008DFC40F20241312000F088FC40F20731B1
:1052D000322000F083FC4FF44171332000F07EFC5B
:1052E0000421342000F07AFC40F20141352000F026
:1052F00075FC2146362000F071FC40F20531372064
:1053000000F06CFC4FF4C2631946382000F066FCD4
:105310001946392000F062FC2946012000F05EFCAD
:105320004FF44071022000F059FC41F2300103209B
:1053300000F054FC40F60801082000F04FFC082162
:105340000A2000F04BFC5946602000F047FC012188
:10535000612000F043FC4FF49F71902000F03EFC70
:105360002946922000F03AFC2946932000F036FCB2
:105370004FF44051A02000F031FC1021A32000F098
:105380002DFC0121072000F029FC2121072000F03D
:1053900025FC2321072000F021FC3321072000F009
:1053A0001DFC40F23311072000F018FCB4E0E220AD
:1053B00000F0C4FB232000F0BBFB022000F0B8FB90
:1053C000042000F0B5FB642003F09EFAE02000F01A
:1053D000B5FB012000F0ACFB0A2003F07BFAE020D3
:1053E00000F0ACFB032000F0A3FB0C2003F072FAEA
:1053F000012000F0A3FB0A2003F06CFAE62000F085
:105400009DFB032000F094FBFF2000F091FBFF20A8
:1054100000F08EFBB02000F091FB202000F088FB14
:10542000002000F085FB032000F082FB40F21F30DB
:1054300000F07EFB012000F07BFB40F2DF1000F06B
:1054400077FB002000F074FBB42000F077FB042011
:1054500000F06EFB40F21F4000F06AFB002000F0FD
:1054600067FBD22000F064FB002000F061FB00200D
:1054700000F05EFB002000F05BFB002000F058FB1A
:10548000B62000F05BFB022000F052FB4FF40370EB
:1054900000F04EFB002000F04BFB222000F048FB08
:1054A000092000F045FB002000F042FB002000F046
:1054B0003FFBF02000F042FB032000F039FB2920E5
:1054C00000F03CFBD02000F039FB002000F030FB66
:1054D000BE2000F033FB052000F02AFBFE2000F088
:1054E00027FB012000F024FBFF2000F021FB00201F
:1054F00000F01EFBB82000F021FB0F2000F018FB8D
:10550000012000F015FBBA2000F018FB012000F08C
:105510000FFB642000F022F80020FCF72DFB04486C
:10552000C0F880813846FCF7EFFA1FB0BDE8F08F75
:105530000080214208B5034800880090BDF80000B3
:1055400008BD00000008006C10B500F0F7FA052057
:1055500003F0DAF9BDE81040FFF7ECBF10B50246E2
:10556000BE2000F0EBFA052000F0E2FA104605F04C
:10557000AEFC4FF066320B4B05F0BCFC05F07AFC3C
:1055800080B200F0D5FA012000F0D2FAFF2000F03E
:10559000CFFA002000F0CCFABDE81040002000F067
:1055A000C7BA000066660440F0B50023834C46F697
:1055B00004072146A279898841F66315012A03D19F
:1055C000B94201D0A94202D1C2B9A94216D10828D4
:1055D00014D2DFE800F00406080A0C0E10120620B0
:1055E0000CE007200AE0042008E0052006E0012086
:1055F00004E0002002E0032000E00220A1F5134CAB
:1056000045F2103245F21056BCF1410C07D0B942B8
:1056100005D0914203D0B14201D0A9427DD10828E2
:1056200012D2DFE800F0110406080A0C0E108023E5
:105630000AE0402308E0C02306E0202304E06023C2
:1056400002E0A02300E0E023B14202D14FF4585021
:1056500000E03620914205D0B14203D0A94201D0EA
:1056600043F00803B94201D143F00203194600F0A8
:10567000B5FAA288AA420ED0980606D5208861887D
:10568000884208D22180608005E0208861888842B5
:1056900001D921806080B24249D1608900F04EFA80
:1056A000002000F045FA6089401C80B200F046FA04
:1056B000002000F03DFA6089801C80B200F03EFAC4
:1056C0002088401EC0F30F2000F032FA6089C01C11
:1056D00080B200F033FA2078401EC0B200F028FA01
:1056E000A08900F02BFA002000F022FAA089401CCB
:1056F00080B200F023FA002000F01AFAA089801C82
:1057000080B200F01BFA6088401EC0F30F2000F04A
:105710000FFAA089C01C80B200E032E000F00EFA5F
:10572000A078BDE8F040401EC0B200F001BA608928
:1057300000F004FA002000F0FBF9002000F0F8F976
:105740002088401EC0F30F2000F0F2F92078401EA0
:10575000C0B200F0EDF9A08900F0F0F9002000F0EF
:10576000E7F9002000F0E4F96088401EC0F30F2044
:1057700000F0DEF9A078BDE8F040401EC0B200F0B5
:10578000D7B9082812D2DFE800F0040608110A0C85
:105790000E1030230AE0102308E0202306E038230F
:1057A00004E0282302E0182300E00823032043F448
:1057B0008051BDE8F04000F011BA0000F036002042
:1057C0002DE9F04102460B46584E1F0A3046B1887B
:1057D0004089A1F513444FEA1228413C1AD0A1F5A3
:1057E000A644103C16D03446A1F5D04CA5792488A7
:1057F000A41A641EBCF1040C1FD0A1F5C85CBCF156
:10580000630C30D0A1F5A04CBCF5A26C65D0012D85
:105810007DD082E000F092F9404600F089F9D0B2E4
:1058200000F086F9B08900F089F9384600F080F977
:10583000BDE8F041D8B200F07BB9012D00D1A2B291
:1058400000F07CF9100A00F073F9D0B200F070F9A2
:10585000B08900F073F9384600F06AF9BDE8F0410C
:10586000D8B200F065B945B300F068F9404600F0E1
:105870005FF9D0B200F05CF93088401EC0F30F2011
:1058800000F056F93078401EC0B200F051F9B089EE
:1058900000F054F9384600F04BF9D8B200F048F95E
:1058A0007088401EC0F30F2000F042F9B078BDE8C8
:1058B000F041401EC0B200F03BB9A2B200F03EF988
:1058C000002000F035F9002000F032F9100A00F055
:1058D0002FF9D0B200F02CF9D9E700F02FF94046AB
:1058E00000F026F97089401C80B200F027F9D0B290
:1058F00000F01EF9B08900F021F9384600F018F9DF
:10590000B089401C80B200F019F9D8B200E003E081
:10591000BDE8F04100F00CB9A2B2114600F05EF90A
:10592000B089BDE8F041194600F058B9F0360020C2
:105930002DE9F74F834600254FF003084FF0060985
:105940004FF00A0A002405EB850000EB451605EB35
:105950008500029900EBC5004718B4FBF8F0B4FBD2
:10596000F9F1C0EBC0000BEB400000EB410000EB95
:105970004602B5FBFAF0C0EB001000EB8001019885
:1059800000EB4101B4FBF8F008FB104000EBC00352
:1059900003EB00100844395D31290ED081B290B27A
:1059A0000222FCF797F9641CE4B20C2CD5D36D1CD1
:1059B000EDB20A2DC6D3BDE8FE8F81B290B21F238F
:1059C000032204F0B0FAEEE72DE9F84F80460C46CA
:1059D0001F46A346780701D0012000E0002000EB1D
:1059E000D70079084843C0B20090203A02F0FF0A7D
:1059F000002662E00C2F1FD0102F24D0182F27D0A4
:105A0000202F5DD12F4800EB8A10855D4FF00009F3
:105A100028060ED52C48214602884046FCF7B4F9EA
:105A2000601C294A81B208F1010080B21288FCF79B
:105A3000ABF90A9898B121E024490AEB4A0001EB3E
:105A40008000855DE2E7224800EB0A10855DDDE716
:105A500020490AEBCA0001EB8000855DD6E71A48B1
:105A6000214642884046FCF78FF9601C164A81B2F5
:105A700008F1010080B25288FCF786F96806050E2D
:105A8000641CA4B214484088A04219D9A4EB0B00AE
:105A9000B84209D15C4608F101081FFA88F80E489F
:105AA000008840450CD906E009F1010909F0FF0919
:105AB000B9F1080FACD3761CF6B20098864299D3A0
:105AC000BDE8F88F84CA000862010020C4B2000853
:105AD00038B7000828BD0008F03600202DE9F84F3F
