:10025A00B8D0D0BBCAB9D3C3B7C9D2F4D4C6B5E7EC
:07026A00D7D3B2FAC6B700BA
:1002D600E4F5081203047BFF7A02795A1201B7800B
:0102E600FE19
:0D0304007580FF7590FF75A0FF75B0FF229A
:1002C400D2A300D2A200000000C2A300000000C21A
:0202D400A22264
:0D031100C2A30000D2A200000000D2A3226F
:10000300C2A21202E7D2A31202E7D2A21202E7208F
:0D001300A304D2008002C200C2A2A20022FB
:0201F9008F165F
:1001FB00751700751808AF167E00C2A2EF20E70432
:10020B00C2A38002D2A31202E71202E7D2A2E51622
:10021B0025E0FFE433FE8F16E5181518700215174D
:08022B00E518451770D0C2A2CE
:0102330022A8
:080162008B108A1189128D1324
:10016A001202C47F801201F91200032000037F00EB
:10017A0022E4F514F515C3E5159513E5149400501A
:10018A0026AB10AA11A9128515828514831201358E
:10019A00FF1201F91200032000037F00220515E572
:0C01AA001570D3051480CF1203117F01E3
:0101B6002226
:0E02E7007F0A7E0000EF1F70011EEF4E70F6C2
:0102F50022E6
:10027100759850438920438780758DF443A890D2A7
:060281008ED2ACD2AF22C8
:0300230002032AAB
:0A032A00309806C2ACC298D2AC3283
:0E02F600C2ACC2998F993099FDC299D2AC2248
:060234008B198A1A891BD8
:10023A00E4FEEEC39D5018AB19051BE51BAA1A7004
:0F024A0002051A14F912011CFF1202F60E80E3CE
:010259002282
:1002B000FD000102FD000103FD000104FD0001211C
:0402C000FD000188B4
:0601B7008B098A0A890B86
:1001BD00E4F50EF50F1202878E0C8F0D9000007472
:1001CD00FDF0E4A3F0EF2402A3F0A37401F0A3F07B
:1001DD0078057C00FDAB09AA0AA90B1200F67B017C
:0C01ED007A007900E50D2405FD02016296
:06029C008B1C8A1D891E67
:0E02A200120287AD07AB1CAA1DA91E02023472
:0300000002031EDA
:0C031E00787FE4F6D8FD7581200202D63D
:10002600E709F608DFFA8046E709F208DFFA803EBC
:1000360088828C83E709F0A3DFFA8032E309F608A9
:10004600DFFA8078E309F208DFFA807088828C8311
:10005600E309F0A3DFFA806489828A83E0A3F608C5
:10006600DFFA805889828A83E0A3F208DFFA804C9F
:1000760080D280FA80C680D4806980F28033801076
:1000860080A680EA809A80A880DA80E280CA8033DF
:1000960089828A83ECFAE493A3C8C582C8CCC58357
:1000A600CCF0A3C8C582C8CCC583CCDFE9DEE78027
:1000B6000D89828A83E493A3F608DFF9ECFAA9F0A6
:1000C600EDFB2289828A83ECFAE0A3C8C582C8CCFC
:1000D600C583CCF0A3C8C582C8CCC583CCDFEADE15
:1000E600E880DB89828A83E493A3F208DFF980CC77
:1000F60088F0EF60010E4E60C388F0ED2402B40470
:100106000050B9F582EB2402B4040050AF23234516
:06011600822390007673C5
:10011C00BB010689828A83E0225002E722BBFE02E1
:09012C00E32289828A83E4932214
:10013500BB010CE58229F582E5833AF583E022507F
:1001450006E92582F8E622BBFE06E92582F8E222C9
:0D015500E58229F582E5833AF583E49322E3
:10028700E4FFFE12011C600C0FEF70010E09E9700C
:05029700F20A80EF22D5
:00000001FF
