:020000040800F2
:1000000030DB0020ED010008A75600089D14000811
:10001000A55600082F0B0008157800080000000006
:100020000000000000000000000000005171000806
:10003000C1100008000000003B570008857300084D
:10004000070200080702000807020008070200086C
:10005000070200080702000807020008070200085C
:10006000070200080702000807020008070200084C
:10007000070200080702000807020008070200083C
:10008000070200080702000807020008070200082C
:10009000070200080702000807020008070200081C
:1000A000070200080702000807020008070200080C
:1000B00007020008D97300080702000807020008B9
:1000C00007020008070200080702000807020008EC
:1000D000070200086175000807020008C9750008DA
:1000E00007020008070200080702000807020008CC
:1000F00007020008070200080702000807020008BC
:1001000007020008095B0008070200080702000850
:10011000070200080702000807020008070200089B
:10012000070200080702000807020008070200088B
:1001300000F002F800F04BF80AA090E8000C8244AE
:100140008344AAF10107DA4501D100F040F8AFF28B
:10015000090EBAE80F0013F0010F18BFFB1A43F0A5
:100160000103184718F1000038F10000103A24BFCD
:1001700078C878C1FAD8520724BF30C830C144BF0C
:1001800004680C607047000000230024002500264E
:10019000103A28BF78C1FBD8520728BF30C148BFEA
:1001A0000B607047642900F0BB80782900F0F48070
:1001B000002070471FB500F09FFC040000200021C4
:1001C0000BF04EFC401C60601FBD10B510BD00F070
:1001D0006EFC1146FFF7EEFF0AF0D8FB00F09EFC24
:1001E00003B4FFF7F2FF03BC07F070FC0948804737
:1001F00009480047FEE7FEE7FEE7FEE7FEE7FEE709
:10020000FEE7FEE7FEE7FEE704480549054A064B20
:1002100070470000897300083101000830D50020C4
:1002200030DB002030D7002030D70020704710B5D9
:100230004C1084EA530404D54042C1F1000138BF98
:10024000491E1B4204D55242C3F1000338BF5B1E56
:1002500000F096FA14F0804F04D04042C1F1000142
:1002600038BF491E14F0004F04D05242C3F10003BE
:1002700038BF5B1E10BD00000FB4044910B503AABF
:10028000029800F06BFB10BC5DF814FB64000020CA
:100290000FB41CB5074B06AA7B446946009005982D
:1002A00000F043FB0020694600F052FB1CBC5DF8E7
:1002B00014FB0000B50600002DE9F0410E4604468F
:1002C000002020622046E168884730B3252805D009
:1002D000D4E901219047206A401CF2E7E1682046FA
:1002E00000278847050018D0A5F14100192802D839
:1002F00020354FF400673246294620462760FFF735
:1003000051FF40B1012804D0F61D26F0070608363B
:10031000D8E7361DD6E72846DAE7206ABDE8F0813F
:100320002DE9F0410646002410687529314616A5CE
:1003300010D0AFF30080002802DA404213A507E096
:1003400031688A0701D512A502E0490704D511A535
:10035000012401E0AFF3008000210A2206F1240706
:1003600009E0B0FBF2FCB0FBF2F302FB1C00303002
:1003700078541846491C0028F3D123462A463046B3
:10038000BDE8F04100F073BA000000002D0000004D
:100390002B0000002000000070B504460D462146E9
:1003A0001068AFF300802188090502D50F4A7A440E
:1003B00002E00E4A7A440E32002104F1240305E0E3
:1003C00000F00F060009965D5E54491C0028F7D125
:1003D00020780023000704D5702D02D009B1022334
:1003E00011322046BDE8704000F041BA3EEE0000F8
:1003F00070B5064600F0C0F90468054630460A228A
:10040000002100F0BDFA2C6070BD401ECAB210F889
:10041000011F8A4202D00029F9D10020704710B58F
:10042000431E13F8014F002CFBD105E011F8014BDE
:10043000002C03F8014B03D0521EF7D20021197093
:1004400010BD30B505460B462A4613F8014B12F88D
:10045000010B08B1A042F8D01CB1002802D06D1CDD
:10046000F1E7284630BD40EA0103024630B59B075C
:1004700010D14FF0013400E008C208C91D1B9D4394
:1004800015EAC41FF8D013F0FF0102F8011B0DD0CC
:100490001B0AF8E711F8013B002B02F8013B05D0DD
:1004A00011F8013B002B02F8013BF3D130BD0022D3
:1004B000CBB210F8011B994200D1421E0029F8D19D
:1004C0001046704710B5431C02E010F8011B71B1D3
:1004D0008107FAD14FF0013202C88C1A8C4314EA1A
:1004E000C211F9D0C01A0A0603D0C01E10BDC01A2E
:1004F00010BD0A0401D0801E10BD0902FCD0401EB0
:1005000010BD421E12F8013F002BFBD111F8013B38
:10051000002B02F8013BF9D17047032A40F23080EA
:1005200010F0030C00F0158011F8013BBCF1020F34
:10053000624498BF11F801CB00F8013B38BF11F8B5
:10054000013BA2F1040298BF00F801CB38BF00F8CC
:10055000013B11F0030300F02580083AC0F0088049
:1005600051F8043B083A51F804CBA0E80810F5E72D
:10057000121D5CBF51F8043B40F8043BAFF3008010
:10058000D20724BF11F8013B11F801CB48BF11F885
:10059000012B24BF00F8013B00F801CB48BF00F855
:1005A000012B704710B5203AC0F00B80B1E818500D
:1005B000203AA0E81850B1E81850A0E81850BFF44D
:1005C000F5AF5FEA027C24BFB1E81850A0E81850EC
:1005D00044BF18C918C0BDE810405FEA827C24BF40
:1005E00051F8043B40F8043B08BF7047D20728BFCE
:1005F00031F8023B48BF11F8012B28BF20F8023B1D
:1006000048BF00F8012B70474FF000020429C0F0EA
:10061000128010F0030C00F01B80CCF1040CBCF134
:10062000020F18BF00F8012BA8BF20F8022BA1EB86
:100630000C0100F00DB85FEAC17C24BF00F8012B6B
:1006400000F8012B48BF00F8012B70474FF0000263
:1006500000B5134694469646203922BFA0E80C50B8
:10066000A0E80C50B1F12001BFF4F7AF090728BF93
:10067000A0E80C5048BF0CC05DF804EB890028BF0F
:1006800040F8042B08BF704748BF20F8022B11F038
:10069000804F18BF00F8012B704710B5044610F0CA
:1006A000030F08BF11F0030F40F015804FF0013E1B
:1006B000121FC0F20E8051F8043BA3EB0E0C2CEA83
:1006C000030C1CEACE1C08BF40F8043BF0D0A1F19B
:1006D000040102F10402521E08DB11F8013B002B59
:1006E00000F8013BF7D11146FFF78EFF204610BD01
:1006F0004FF0013C50F8042B51F8043B9A4221D1B1
:10070000A2EB0C03934313EACC1317D150F8042B3C
:1007100051F8043B9A4215D1A2EB0C03934313EA20
:10072000CC130BD150F8042B51F8043B9A4209D159
:10073000A2EB0C03934313EACC13DBD04FF0000081
:10074000704700BFD01A01BAB1FA81F101F0180167
:1007500022FA01F0CB40C1F12001DBB2C0B2C01AD5
:100760002CFA01F3D11A914311EAC311E6D1704773
:10077000704770477047704700487047CCD40020DE
:1007800053EA020C00F069802DE9F04B4FF00006AF
:10079000002B1FBFB3FA83F503FA05F424FA05F61C
:1007A0005E4012BF1643B2FA82F502FA05F4C5F1B3
:1007B00020051EBF22FA05FC44EA0C04203556EA47
:1007C000044C4FEA144418BF641C4FF000084FF06B
:1007D0000009904271EB030C39D3002919BFB1FA1B
:1007E00081F701FA07F6B0FA80F700FA07F6C7F1C9
:1007F00020071EBF20FA07FC46EA0C062037B6FB8E
:10080000F4FCA7EB0507103F07F01F0BCBF1200608
:100810000CFA0BFB2CFA06F644BFB3460026202F39
:10082000A4BF5E464FF0000B5BEA060C08BF4FF01A
:10083000010B19EB0B09ABFB027C48EB0608C01B54
:1008400006FB02CC0BFB03CC71EB0C01C1E70B46A2
:10085000024641464846BDE8F08B13B54FF0000014
:100860004FF00001AFF30080BDE81C4070472DE958
:10087000F0470D4699469246044600F12408016867
:10088000880604D5E06921F01001216000E0012014
:10089000A84201DD471B00E00027A1697A1902EB9D
:1008A0000900081AA0612078C00602D42046AFF3E0
:1008B0000080002608E0D4E901211AF806009047DC
:1008C000206A401C761C20624E45F4DB2078C0066E
:1008D0000AD52046AFF3008006E0D4E9012130209C
:1008E0009047206A401C2062381EA7F10107F4DC03
:1008F00007E0D4E9012118F805009047206A401C60
:100900002062281EA5F10105F3DC2046AFF300802C
:100910002078000602D50220BDE8F0870120FBE721
:1009200001694A1C02610878704700B58FB0CDE9B3
:1009300001310021059105497944CDE903101146A3
:100940006846FFF7B9FC0FB000BD0000E5FFFFFFF0
:100950000A6802F8010B0A6070470000074B70B587
:100960000D467B44FFF7E1FF0446284600F09BF864
:1009700010B14FF0FF3070BD204670BDE391000014
:100980002DE9F04791460F4680460446002614F8AC
:10099000015B2DB100F030F80068405DC007F6D172
:1009A0002B2D02D02D2D18D0641E4A4639462046E4
:1009B00000F02AF827B13968A14201D1C7F80080B8
:1009C0004FF0020471050BD54042002803DDFFF70C
:1009D000D3FE0460A007BDE8F08746F48066E4E734
:1009E0000028F8DAFFF7C8FE04606FF00040F2E775
:1009F00000487047CCD4002010B500F07DF8001DF1
:100A000010BD00BF5DB000002DE9F05F82461546C5
:100A10008B4600270AF10104B9460078302801D03E
:100A20009DB113E014F8010B0127782803D0582852
:100A300001D045B10AE00DB1102D07D1002714F8FF
:100A4000010B102502E0082500E00A250026B0462B
:100A50000EE005FB080005FB06F101271FFA80F8F0
:100A600001EB1046B6F5803F00D3B94614F8010BF0
:100A7000294600F045F80028EBDABBF1000F05D05D
:100A80000FB1641E00E05446CBF80040B9F1000FEE
:100A900006D0FFF771FE02210160C81EBDE8F09F7D
:100AA00048EA0640FAE7007B00F080007047754690
:100AB000FFF79EFFAE4605006946534620F007004B
:100AC000854618B020B5FFF79FFBBDE820404FF0EA
:100AD00000064FF000074FF000084FF0000B21F028
:100AE0000701AC46ACE8C009ACE8C009ACE8C009F5
:100AF000ACE8C0098D46704700487047ECD4002030
:100B00003A2800D2303820F02002412A01D3A2F145
:100B10003700884201D34FF0FF30704710B50446CC
:100B2000AFF300802046BDE81040FFF759BBFEE759
:100B300070B500254FF4803403E0802004F0D2FF2C
:100B400010B9641E601CF8D12CB140F2FF5004F0C3
:100B500085FF284670BD032070BD000070B50546B6
:100B6000114C616B11F0450FFBD0042004F0BAFF6B
:100B700020B1042004F072FF032070BD012004F0B6
:100B8000B1FF20B1012004F069FF012070BD206990
:100B9000A84201D0102070BD40F2FF50A0636069F0
:100BA00000F0080070BD00000080014010B5002476
:100BB0004FF480310F4B03E05A6B12F0450F02D116
:100BC000491E481CF8D109B1500705D5032404205B
:100BD00004F044FF204610BD012004F083FF18B14B
:100BE0000124012004F03AFF40F2FF5004F036FFE8
:100BF000204610BD0080014010B50A49486B10F036
:100C0000450FFBD0042004F06DFF20B1042004F058
:100C100025FF032010BD40F2FF5004F01FFF00200D
:100C200010BD0000008001402DE9F04107460D464F
:100C300000261B4C626B12F0450FFBD0042004F021
:100C400051FF28B1042004F009FF0320BDE8F08122
:100C5000012004F047FF20B1012004F0FFFE012035
:100C6000F4E72069B84201D01020EFE740F2FF50CE
:100C700004F0F4FE626912F4604F03D0900405D5CD
:100C80001320E3E7100C28803046DFE7500401D53D
:100C90001020DBE7100401D50F20D7E73046D5E759
:100CA0000080014010B500244FF480320C4B03E06B
:100CB000596B11F0450F02D1521E501CF8D10AB1E8
:100CC000480705D50324042004F0C8FE204610BDC3
:100CD000480603D50024402004F0C0FE204610BD85
:100CE00000800140002904D0016841F00101016049
:100CF000704701684FF6FE721140016070470000B6
:100D000001684FF6FE7211400160002101604160F0
:100D10008160C1603649364A0839904204D148683A
:100D200040F00F0048607047314A1432904204D1BD
:100D3000486840F0F000486070472D4A28329042E1
:100D400004D1486840F4706048607047284A3C32DB
:100D5000904204D1486840F4704048607047244A8B
:100D60005032904204D1486840F470204860704787
:100D70001F4A6432904204D1486840F470004860D1
:100D800070471B4A7832904204D1486840F0706046
:100D900048607047174A111F904204D1086840F01C
:100DA0000F0008607047134A1432904204D108685B
:100DB00040F0F000086070470E4A2832904204D19B
:100DC000086840F47060086070470A4A3C329042FC
:100DD00004D1086840F4704008607047054A5032FA
:100DE0009042FAD1086840F4702008607047000013
:100DF000080002400804024030B5026847F6F0736C
:100E00009A430C6A8B682343D1E904452C4323435E
:100E10008C692343CC6923434C6A23438C6A234364
:100E200013430360CA6842600A6882604968C1600F
:100E300030BD2DE9F0478CB004460026002000218B
:100E4000C0F11302C2EBC202C0EBC0032244234430
:100E50005D5C575C5F545554491C0629F8DB401C07
:100E60000A28ECDB002529462F1D0DE0C1EBC1024D
:100E70001019837814F802C080F802C0A354427994
:100E8000C3784371C270491CB942EFDBC5EBC500A2
:100E90000119062201A8FFF700FC681CC0EBC00086
:100EA00001198A46022201A8FFF7B9FA4FF000089B
:100EB0008DF80C8001A80AF0F8F801A806F008FEE9
:100EC0000DF1100929F81600CDF80480CDF808803E
:100ED000CDF80C800AF10201042201A8FFF7DDFB26
:100EE000A81CC0EBC00001198A46042201A8FFF724
:100EF00096FA8DF80C8001A80AF0D7F801A806F040
:100F0000E7FD711C29F81100CDF80480CDF80880A8
:100F1000CDF80C800AF10401022201A8FFF7BDFB05
:100F2000ED1CC5EBC5000119062201A8FFF777FAF1
:100F30008DF80C8001A80AF0B8F801A806F0C8FDE9
:100F4000B11C29F81100CDF80480CDF80880CDF847
:100F50000C80F61CF6B2FDB2142D84D304A800F068
:100F600003F80CB0BDE8F0872DE9F0410446DFF846
:100F700044810021404600F039FA4F4D01262E6091
:100F80002188404600F032FA00272F6000214046B9
:100F900000F02CFA6E606188404600F027FA6F601E
:100FA0000021404600F022FAAE60A188404600F0E1
:100FB0001DFAAF600021404600F018FAEE60E188AB
:100FC000404600F013FAEF600021404600F00EFAB0
:100FD0002E612189404600F009FA2F610021404628
:100FE00000F004FA6E616189404600F0FFF96F611C
:100FF0000021404600F0FAF9AE61A189404600F0B8
:10100000F5F9AF610021404600F0F0F9EE61E189A9
:10101000404600F0EBF9EF610021404600F0E6F9B0
:101020002E63218A404600F0E1F92F6300214046FB
:1010300000F0DCF96E63618A404600F0D7F96F6317
:101040000021404600F0D2F9AE63A18A404600F08C
:10105000CDF9AF630021404600F0C8F9EE63E18AA4
:10106000404600F0C3F9EF630021404600F0BEF9AE
:10107000124D2E60218B404600F0B8F92F60002100
:10108000404600F0B3F96E60618B404600F0AEF967
:101090006F600021404600F0A9F9AE60A18B404688
:1010A00000F0A4F9AF604046BDE8F041002100F037
:1010B0009DB9000000100140808123428401244238
:1010C000704700008000A0F1C040002904D00168F2
:1010D00041F00101016070470168024A114001605E
:1010E00070470000FEFF0F0010B5D0E90112114358
:1010F000D0E903231A431143426911438269114322
:10110000C2691143026A1143426A1143826A114360
:10111000C26A1143026B114302689200A2F1C042FD
:1011200011608168082907D101688900A1F1C041D7
:101130000A6842F040020A60416BD1E9002342EAAA
:1011400003128B688C891B0243EA04431A430B8AFF
:1011500042EA03520B7D896942EA03620A4301684D
:10116000491C8900A1F1C0410A60C16AB1F5804FF4
:1011700008D000686FF070418000A0F1C040C0F856
:10118000041110BD816BD1E9002342EA03128B6880
:101190000C8A1B0243EA04531A430B7D896942EA15
:1011A000036200680A438000A0F1C040C0F8042137
:1011B00010BD00002DE9FC470E46002400270097D3
:1011C0000197584D4FF0080AC5F800A0102068603C
:1011D0004FF04009C5F80890EF604FF48068C5F8FB
:1011E0001080284604F0AEFC1020FFF7B7FC002862
:1011F00032D14D4800890004286037206860C5F866
:101200000890EF60C5F81080284604F09BFC37205A
:10121000FFF7A4FC00281FD1411E05F11400016056
:10122000C0F804A0302181600221C1600761012162
:10123000416104F02FFC2F6033206860C5F80890EE
:10124000EF60C5F81080284604F07CFC3320FFF7DF
:1012500085FC0546280001D0BDE8FC874FF4001A44
:101260006F46DFF8C88040F22A690AE0504604F071
:1012700039FC30B104F060FC47F82400641C022CF7
:1012800004D2D8F8340010EA090FEFD0082004F097
:1012900029FC20B1082004F0E1FB0420DCE7022057
:1012A00004F020FC20B1022004F0D8FB0220D3E798
:1012B000202004F017FC20B1202004F0CFFB0620F2
:1012C000CAE74FF40074204604F00CFC20B120461D
:1012D00004F0C4FB0720BFE740F2FF5004F0BEFB60
:1012E00000980099000601F47F4140EA012000992E
:1012F00001F47F0140EA1120009940EA116070601A
:1013000001980199000601F47F4140EA012001990A
:1013100001F47F0140EA1120019940EA1160306038
:10132000284699E73027002048000020008001402F
:101330002DE9F0410022CC7804F00F03E40601D53A
:101340008C7823430C784FF00F0714F0FF0F4FF009
:10135000010C1CD005680CFA02F40E882640A64247
:1013600011D1960007FA06F825EA080503FA06F8EF
:1013700048EA0505CE78282E02D0482E02D002E099
:10138000446100E00461521C082AE4D305600A8825
:10139000FF2A1ED94568002202F108060CFA06F45D
:1013A0000E882640A64210D1960007FA06F825EAD4
:1013B000080503FA06F848EA0505CE78282E00D17C
:1013C0004461CE78482E00D10461521C082AE3D330
:1013D0004560BDE8F0810246002092680A4200D0D4
:1013E000012070474161704701617047C1607047DB
:1013F00030B4054608461346590701D0012100E0E4
:10140000002101EBD3015943CAB22C786978812CB1
:101410000AD3402908D3FF2906D0FF2C04D07F2906
:101420000DD24039CDB20CE00021002303E000F8DA
:10143000013B491CC9B29142F9D330BC70474139D4
:10144000CDB2813CE1B2C1EB411404EB811105EB5B
:1014500041015143104C0C2B0BD0102B0FD0182BEB
:1014600013D0202BE9D1D4F8213030BC194406F038
:1014700027BAD4F8093030BC194406F021BAD4F8A0
:10148000113030BC194406F01BBAD4F8193030BC06
:10149000194406F015BA0000A0D40020FEE772B689
:1014A000704762B6704700007CB505460022019285
:1014B00000921E481E490089000408600D20486003
:1014C00040208860CA6000010861084604F03AFBC9
:1014D000184C606B009001E0616B0091009911F075
:1014E000450FF9D0012004F0FDFA20B1012004F0ED
:1014F000B5FA01207CBD042004F0F4FA20B10420E8
:1015000004F0ACFA03207CBD20690D2801D0102026
:101510007CBD40F2FF5004F0A1FA6069019001988F
:10152000C0F34320287000207CBD0000480000204C
:10153000302700200080014008B50121402004F040
:1015400045F97E20ADF8000048208DF8030069467B
:101550000648FFF7EDFE0120ADF8000028208DF8C9
:10156000030069460248FFF7E3FE08BD001801408A
:101570000008014070B501253E4C002800D02570C0
:1015800020783D4EE8B110213046FFF724FFF8B136
:1015900008213046FFF71FFFD0B104213046FFF786
:1015A0001AFFA8B120213046FFF715FF80B1402176
:1015B0003046FFF710FF58B102213046FFF70BFF0E
:1015C00030B110213046FFF706FF012830D04EE041
:1015D0000A2006F0D1FD0020207010213046FFF7D0
:1015E000FAFEC8B108213046FFF7F5FEB0B104217C
:1015F0003046FFF7F0FE98B120213046FFF7EBFEB2
:1016000080B140213046FFF7E6FE68B10221304646
:10161000FFF7E1FE50B12AE0012070BD032070BD4C
:10162000022070BD042070BD052070BD062070BD75
:1016300008213046FFF7CFFE012818D1042130469B
:10164000FFF7C9FE012812D120213046FFF7C3FE63
:1016500001280CD140213046FFF7BDFE012806D1FC
:1016600002213046FFF7B7FE012800D12570002087
:1016700070BD000040000020001801402DE9F0433B
:1016800006460024174F38887D884543B888A0F562
:10169000D041043902D1B879012807D00021084689
:1016A00003F056FE03F0ECFF0F4916E00020B8717E
:1016B0004FF02A09A7F80A904FF02B08A7F80C80E2
:1016C0000021084603F044FE0120B871A7F80A8003
:1016D000A7F80C90E6E70E80641CAC42FBD3BDE893
:1016E000F0830000041700200008006C2DE9F04F83
:1016F0004D492A232B24898845F2105C4FF4305839
:101700004FF428594FF448754FF0F00A49F2413B25
:101710004FF4A07745F210364FF4F072002810D045
:1017200041484FF0010E80F806E00780A0F802A0C3
:10173000594501D0B14240D12C2505814381848196
:101740005CE039484FF0000E80F806E0A0F800A0F9
:101750004780594506D0A1F5D04ABAF1040A01D014
:10176000B1420CD12C25058143818481A1F5D04360
:10177000043B01D0B14249D10780428046E0614537
:1017800009D1A0F80880A0F80A904FF42C5181816B
:10179000028045803AE0A1F5C856633E06D022217A
:1017A000018120214181212181812FE02C21018192
:1017B000448183810280458028E0A1F5D04ABAF1B6
:1017C000040A0BD061450ED1A0F80880A0F80A9059
:1017D0004FF42C538381058042800FE02C25058136
:1017E000448183810AE0A1F5C85CBCF1630C12D08E
:1017F000222303812123438120238381A1F5D04328
:10180000043B01D0B14201D102804780BDE8F04FD6
:10181000062003F091BC4FF02C0CA0F808C04381C7
:10182000848105804280E9E70417002000B503F0B9
:101830008FFD03F025FF024802490088088000BDA3
:10184000420000200008006C2DE9FC4F0746884646
:10185000002415460320A0EB42064BE0A8EB050050
:1018600081B207EB040A01901FFA8AF0FFF7DEFF4E
:10187000A8EB040081B207EB050900901FFA89F07C
:10188000FFF7D4FF08EB040B1FFA8BF11FFA89F066
:10189000FFF7CCFF08EB05091FFA89F11FFA8AF060
:1018A000FFF7C4FF1FFA89F1A7EB04091FFA89F0BB
:1018B000FFF7BCFFA7EB050A1FFA8BF11FFA8AF0AE
:1018C000FFF7B4FF019881B21FFA89F0FFF7AEFF6E
:1018D000009881B21FFA8AF0FFF7A8FF641C002E5F
:1018E00003DA06EB8406B61D04E0601B06EB8006F7
:1018F0000A366D1EAC42B1DDBDE8FC8F2DE9F0412A
:1019000003460C4690464C4F220A3846B9881D0AB9
:101910004089A1F51346413E19D0A1F5A646103ED7
:1019200015D0A1F5AA46103E23D03D46A1F5C85CCE
:10193000AE792D88ED1A6D1EBCF1630C35D0A1F582
:10194000D04CBCF1040C51D0012E64D064E003F003
:1019500047FE284603F03EFED8B203F03BFEB889AE
:1019600003F03EFE104603F035FEE0B203F032FE17
:1019700059E003F035FE284603F02CFE7889401C20
:1019800080B203F02DFED8B203F024FEB88903F034
:1019900027FE104603F01EFEB889401C80B203F0FB
:1019A0001FFEE0B203F016FE3DE006B9ABB203F055
:1019B00017FE1D0A284603F00DFED8B203F00AFEFA
:1019C000284603F007FED8B203F004FEB88903F0FE
:1019D00007FE104603F0FEFDE0B203F0FBFD1046EB
:1019E00003F0F8FDE0B203F0F5FD1CE0012E00D19C
:1019F000ABB203F0F5FD180A03F0ECFDD8B203F02A
:101A0000E9FDB88903F0ECFD104603F0E3FDE0B218
:101A100003F0E0FD07E0ABB2194603F03BFEB889E6
:101A2000214603F037FE054938890880881CA0F854
:101A30000080BDE8F081000004170020FE07006C64
:101A40002DE9F8438146089E98461F4DA888A0F5C9
:101A5000D043043B02D1A879012806D0A2EB0900AB
:101A6000401C87B20C46194D2BE00C462888811A81
:101A7000491E89B24246A0EB0900401E83B20020F5
:101A8000A8712A276F814FF02B08A5F80C802046FB
:101A90000096FFF7D5FF0120A871A5F80A80AF8155
:101AA000BDE8F8832146484603F052FC03F0E8FD08
:101AB000002002E02E80401C80B2B842FAD3641CA1
:101AC000A4B24445EED9EBE7041700200008006CEF
:101AD0002DE9F04F9FB001210D02284603F04CFE86
:101AE00001214FF4B47003F071FE4FF00108ADF81E
:101AF000788010278DF87B7003248DF87A401EA91A
:101B0000FE48FFF715FC4CF23370ADF8780018264C
:101B10008DF87B608DF87A401EA9F948FFF708FC24
:101B20004FF68070ADF878008DF87B608DF87A40C4
:101B30001EA9F448FFF7FCFB41F20100ADF8780064
:101B40008DF87B608DF87A401EA9EF48FFF7F0FB17
:101B5000CDF82080002009900F210A910B900C9065
:101B60000D900E90019002900394049005900690C1
:101B7000079006210F9110901190129713901590D5
:101B800014901690179029011891199089001A91B4
:101B90001B9008A81C9001A81D900FA8FFF7A4FA9D
:101BA00001210620FFF78EFA322006F0E5FA002028
:101BB00003F092FAD54CA08049F2413946F6040A66
:101BC00045F2103B45F210564FF6FF77FF2804D33D
:101BD000B84202D0B0F5134F78D1D32003F000FD06
:101BE00003F070FAA08003F06DFAA08003F06AFAA7
:101BF00007EA0020A08003F065FAA1880843A080CE
:101C0000484563D0BF2003F0EBFC03F05BFAA080F3
:101C100003F058FAA08003F055FAA08003F052FABE
:101C200007EA0020A08003F04DFAA1880843A080B5
:101C300050454BD0D42003F0D3FC03F043FAA080EE
:101C400003F040FAA08003F03DFA07EA0020A080EC
:101C500003F038FAA1880843A080584536D04FF4E5
:101C60005A4003F0BDFC03F02DFAA0804FF45B4016
:101C700003F0B6FC03F026FA07EA0020A0804FF438
:101C80005C4003F0ADFC03F01DFAA1880843A0807E
:101C9000B0F5004F00D1A680A088B04216D0A12098
:101CA00003F09EFC03F00EFAA08003F00BFA07EAA3
:101CB0000020A08003F006FAA1880843A080A0F5C8
:101CC000AE41613902D141F66310A080A18890A095
:101CD000FEF7D2FAA08848457ED1CF2003F080FCE1
:101CE000002003F077FCC12003F074FC302003F0E7
:101CF00071FCED2003F074FC642003F06BFC032006
:101D000003F068FC122003F065FC812003F062FC04
:101D1000E82003F065FC852003F05CFC102003F054
:101D200059FC7A2003F056FCCB2003F059FC3920F3
:101D300003F050FC2C2003F04DFC002003F04AFC83
:101D4000342003F047FC022003F044FCF72003F0AA
:101D500047FC202003F03EFCEA2003F041FC002079
:101D600003F038FC002003F035FCC02003F038FC01
:101D70001B2003F02FFCC12003F032FC012003F0F4
:101D800029FCC52003F02CFC302003F023FC30207C
:101D900003F020FCC72003F023FCB72003F01AFC5B
:101DA000362003F01DFC482003F014FC3A2003F019
:101DB00017FC552003F00EFCB12003F011FC0020AD
:101DC00003F008FC1A2003F005FCB62003F008FC21
:101DD0000A2003F0FFFB00E0AAE0A22003F0FAFBD8
:101DE000F22003F0FDFB002003F0F4FB262003F0BB
:101DF000F7FB012003F0EEFBE02003F0F1FB0F20E6
:101E000003F0E8FB2A2003F0E5FB282003F0E2FBC7
:101E1000082003F0DFFB0E2003F0DCFB082003F0BA
:101E2000D9FB542003F0D6FBA92003F0D3FB4320B9
:101E300003F0D0FB0A2003F0CDFB0F2003F0CAFB18
:101E4000002003F0C7FB002003F0C4FB002003F0D8
:101E5000C1FB002003F0BEFBE12003F0C1FB00202A
:101E600003F0B8FB152003F0B5FB172003F0B2FB1D
:101E7000072003F0AFFB112003F0ACFB062003F0BA
:101E8000A9FB2B2003F0A6FB562003F0A3FB3C206C
:101E900003F0A0FB052003F09DFB102003F09AFB4C
:101EA0000F2003F097FB3F2003F094FB3F2003F04B
:101EB00091FB0F2003F08EFB2B2003F091FB002001
:101EC00003F088FB002003F085FB012003F082FB78
:101ED0003F2003F07FFB2A2003F082FB002003F069
:101EE00079FB002003F076FB002003F073FBEF206A
:101EF00003F070FB112003F073FB11E0000C0140B4
:101F00000014014000180140002001400417002087
:101F1000204C43442049443A25780D0A0000000033
:101F2000782006F029F9292003F05AFB03F0BCB809
:101F300050457CD1112003F053FB142006F01CF90E
:101F4000D02003F04DFB072003F044FB422003F0B8
:101F500041FB1D2003F03EFBD12003F041FB00209C
:101F600003F038FB1A2003F035FB092003F032FBA5
:101F7000D22003F035FB012003F02CFB222003F0DC
:101F800029FBC02003F02CFB102003F023FB3B2097
:101F900003F020FB002003F01DFB022003F01AFBDE
:101FA000112003F017FBC52003F01AFB032003F0F8
:101FB00011FBC82003F014FB002003F00BFB2520CD
:101FC00003F008FB212003F005FB052003F002FBD2
:101FD000002003F0FFFA0A2003F0FCFA652003F06A
:101FE000F9FA252003F0F6FA772003F0F3FA5020EF
:101FF00003F0F0FA0F2003F0EDFA002003F0EAFA04
:10200000F82003F0EDFA012003F0E4FAFE2003F0DB
:10201000E7FA002003F0DEFA022003F0DBFA2020CA
:1020200003F0DEFA362003F0DBFA082000E02CE0B3
:1020300003F0D0FA3A2003F0D3FA552003F0CAFA9D
:102040002B2003F0CDFA002003F0C4FA002003F0A7
:10205000C1FA012003F0BEFA3F2003F0BBFA2A20A8
:1020600003F0BEFA002003F0B5FA002003F0B2FA44
:10207000012003F0AFFADF2003F0ACFA782006F07D
:102080007BF8292003F0ACFA50E758457ED1ED20CB
:1020900003F0A6FA012003F09DFAFE2003F09AFA5D
:1020A000EE2003F09DFADE2003F094FA212003F0E5
:1020B00091FAF12003F094FA012003F08BFADF206B
:1020C00003F08EFA102003F085FAC42003F088FA9A
:1020D0008F2003F07FFAC62003F082FA002003F07D
:1020E00079FAE22003F076FAE22003F073FAE220B4
:1020F00003F070FABF2003F073FAAA2003F06AFA23
:10210000B02003F06DFA0D2003F064FA002003F014
:1021100061FA0D2003F05EFA002003F05BFA112053
:1021200003F058FA002003F055FA192003F052FA90
:10213000002003F04FFA212003F04CFA002003F0B6
:1021400049FA2D2003F046FA002003F043FA3D201F
:1021500003F040FA002003F03DFA5D2003F03AFA64
:10216000002003F037FA5D2003F034FA002003F07A
:1021700031FAB12003F034FA802003F02BFA00206A
:1021800003F028FA8B2003F025FA00E0FDE300209D
:1021900003F020FA962003F01DFA002003F01AFA4B
:1021A000B22003F01DFA002003F014FA002003F01F
:1021B00011FA022003F00EFA002003F00BFA0320BC
:1021C00003F008FA002003F005FAB32003F008FA40
:1021D000002003F0FFF9002003F0FCF9002003F0D9
:1021E000F9F9002003F0F6F9002003F0F3F90020DC
:1021F00003F0F0F9002003F0EDF9002003F0EAF914
:10220000002003F0E7F9002003F0E4F9002003F0D8
:10221000E1F9002003F0DEF9002003F0DBF90020F3
:1022200003F0D8F9002003F0D5F9002003F0D2F92B
:10223000002003F0CFF9002003F0CCF9002003F0D8
:10224000C9F9002003F0C6F9002003F0C3F900200B
:1022500003F0C0F9002003F0BDF9002003F0BAF943
:10226000B42003F0BDF98B2003F0B4F9002003F093
:10227000B1F9962003F0AEF9002003F0ABF9A120EC
:1022800003F0A8F9002003F0A5F9B52003F0A8F9A0
:10229000022003F09FF9002003F09CF9032003F0D3
:1022A00099F9002003F096F9042003F093F9002037
:1022B00003F090F9B62003F093F9002003F08AF9B7
:1022C000002003F087F9B72003F08AF9002003F01B
:1022D00081F9002003F07EF93F2003F07BF9002014
:1022E00003F078F95E2003F075F9002003F072F92D
:1022F000642003F06FF9002003F06CF98C2003F0E8
:1023000069F9002003F066F9AC2003F063F90020BE
:1023100003F060F9DC2003F05DF9002003F05AF9C6
:10232000702003F057F9002003F054F9902003F0D7
:1023300051F9002003F04EF9EB2003F04BF9002097
:1023400003F048F9DC2003F045F9002003F042F9DE
:10235000B82003F045F9002003F03CF9002003F019
:1023600039F9002003F036F9002003F033F900209A
:1023700003F030F9002003F02DF9002003F02AF9D2
:10238000002003F027F9BA2003F02AF9242003F0F3
:1023900021F9002003F01EF9002003F01BF90020B2
:1023A00003F018F9C12003F01BF9202003F012F903
:1023B000002003F00FF9542003F00CF9002003F083
:1023C00009F9FF2003F006F9002003F003F9C22009
:1023D00003F006F90A2003F0FDF8002003F0FAF8F4
:1023E000042003F0F7F8002003F0F4F8C32003F012
:1023F000F7F83C2003F0EEF8002003F0EBF83A2069
:1024000003F0E8F8002003F0E5F8392003F0E2F8E3
:10241000002003F0DFF8372003F0DCF8002003F0A1
:10242000D9F83C2003F0D6F8002003F0D3F836208A
:1024300003F0D0F8002003F0CDF8322003F0CAF802
:10244000002003F0C7F82F2003F0C4F8002003F0A9
:10245000C1F82C2003F0BEF8002003F0BBF82920BF
:1024600003F0B8F8002003F0B5F8262003F0B2F826
:10247000002003F0AFF8242003F0ACF8002003F0B4
:10248000A9F8242003F0A6F8002003F0A3F82320E5
:1024900003F0A0F8002003F09DF83C2003F09AF828
:1024A000002003F097F8362003F094F8002003F0A2
:1024B00091F8322003F08EF8002003F08BF82F20E3
:1024C00003F088F8002003F085F82C2003F082F850
:1024D000002003F07FF8292003F07CF8002003F0AF
:1024E00079F8262003F076F8002003F073F8242012
:1024F00003F070F8002003F06DF8242003F06AF870
:10250000002003F067F8232003F064F8002003F0B4
:1025100061F8C42003F064F8622003F05BF8002047
:1025200003F058F8052003F055F8002003F052F8A6
:10253000842003F04FF8002003F04CF8F02003F063
:1025400049F8002003F046F8182003F043F8002073
:1025500003F040F8A42003F03DF8002003F03AF81F
:10256000182003F037F8002003F034F8502003F06F
:1025700031F8002003F02EF80C2003F02BF8002097
:1025800003F028F8172003F025F8002003F022F8C4
:10259000952003F01FF8002003F01CF8F32003F04F
:1025A00019F8002003F016F8E62003F013F80020D5
:1025B00003F010F8C52003F013F8322003F00AF8F6
:1025C000002003F007F8442003F004F8002003F093
:1025D00001F8652002F0FEFF002002F0FBFF7620EC
:1025E00002F0F8FF002002F0F5FF882002F0F2FF71
:1025F000002002F0EFFFC62002F0F2FF202002F0E0
:10260000E9FF002002F0E6FF172002F0E3FF0020C0
:1026100002F0E0FF012002F0DDFF002002F0DAFF0F
:10262000C72002F0DDFF002002F0D4FF002002F0FE
:10263000D1FF002002F0CEFF002002F0CBFFC82027
:1026400002F0CEFF002002F0C5FF002002F0C2FF22
:10265000002002F0BFFF002002F0BCFFC92002F002
:10266000BFFF002002F0B6FF002002F0B3FF002001
:1026700002F0B0FF002002F0ADFF002002F0AAFF40
:10268000002002F0A7FF002002F0A4FF002002F0CB
:10269000A1FF002002F09EFF002002F09BFF00201F
:1026A00002F098FF002002F095FF002002F092FF58
:1026B000002002F08FFF002002F08CFF002002F0CB
:1026C00089FFE02002F08CFF162002F083FF00203B
:1026D00002F080FF1C2002F07DFF002002F07AFF54
:1026E000212002F077FF002002F074FF362002F074
:1026F00071FF002002F06EFF462002F06BFF002009
:1027000002F068FF522002F065FF002002F062FF35
:10271000642002F05FFF002002F05CFF7A2002F0EC
:1027200059FF002002F056FF8B2002F053FF0020DB
:1027300002F050FF992002F04DFF002002F04AFF06
:10274000A82002F047FF002002F044FFB92002F069
:1027500041FF002002F03EFFC42002F03BFF0020BA
:1027600002F038FFCA2002F035FF002002F032FFED
:10277000D22002F02FFF002002F02CFFD92002F01F
:1027800029FF002002F026FFE02002F023FF0020B6
:1027900002F020FFF32002F01DFF002002F01AFFDC
:1027A000E12002F01DFF162002F014FF002002F0CD
:1027B00011FF1C2002F00EFF002002F00BFF222070
:1027C00002F008FF002002F005FF362002F002FFB1
:1027D000002002F0FFFE452002F0FCFE002002F087
:1027E000F9FE522002F0F6FE002002F0F3FE642013
:1027F00002F0F0FE002002F0EDFE7A2002F0EAFE88
:10280000002002F0E7FE8B2002F0E4FE002002F040
:10281000E1FE992002F0DEFE002002F0DBFEA8209F
:1028200002F0D8FE002002F0D5FEB92002F0D2FE60
:10283000002002F0CFFEC42002F0CCFE002002F007
:10284000C9FECA2002F0C6FE002002F0C3FED2205C
:1028500002F0C0FE002002F0BDFED82002F0BAFE59
:10286000002002F0B7FEE02002F0B4FE002002F0EB
:10287000B1FEF32002F0AEFE002002F0ABFEE2203B
:1028800002F0AEFE052002F0A5FE002002F0A2FE3E
:102890000B2002F09FFE002002F09CFE1B2002F0A5
:1028A00099FE002002F096FE342002F093FE0020F4
:1028B00002F090FE442002F08DFE002002F08AFE1D
:1028C0004F2002F087FE002002F084FE612002F01B
:1028D00081FE002002F07EFE792002F07BFE0020C7
:1028E00002F078FE882002F075FE002002F072FEF1
:1028F000972002F06FFE002002F06CFEA62002F08E
:1029000069FE002002F066FEB72002F063FE0020A0
:1029100002F060FEC22002F05DFE002002F05AFECE
:10292000C72002F057FE002002F054FED12002F032
:1029300051FE002002F04EFED62002F04BFE002099
:1029400002F048FEDD2002F045FE002002F042FECB
:10295000F32002F03FFE002002F03CFEE32002F0F4
:102960003FFE052002F036FE002002F033FE0A2072
:1029700002F030FE002002F02DFE1C2002F02AFEA4
:10298000002002F027FE332000E0FDE202F022FEEC
:10299000002002F01FFE442002F01CFE002002F086
:1029A00019FE502002F016FE002002F013FE6220F5
:1029B00002F010FE002002F00DFE782002F00AFE68
:1029C000002002F007FE882002F004FE002002F042
:1029D00001FE972002F0FEFD002002F0FBFDA62084
:1029E00002F0F8FD002002F0F5FDB72002F0F2FD44
:1029F000002002F0EFFDC22002F0ECFD002002F00A
:102A0000E9FDC72002F0E6FD002002F0E3FDD12041
:102A100002F0E0FD002002F0DDFDD52002F0DAFD3D
:102A2000002002F0D7FDDD2002F0D4FD002002F0EE
:102A3000D1FDF32002F0CEFD002002F0CBFDE4201A
:102A400002F0CEFD012002F0C5FD002002F0C2FD23
:102A5000012002F0BFFD002002F0BCFD022002F0C8
:102A6000B9FD002002F0B6FD2A2002F0B3FD0020DF
:102A700002F0B0FD3C2002F0ADFD002002F0AAFD06
:102A80004B2002F0A7FD002002F0A4FD5D2002F023
:102A9000A1FD002002F09EFD742002F09BFD0020AD
:102AA00002F098FD842002F095FD002002F092FDD6
:102AB000932002F08FFD002002F08CFDA22002F096
:102AC00089FD002002F086FDB32002F083FD002086
:102AD00002F080FDBE2002F07DFD002002F07AFDB4
:102AE000C42002F077FD002002F074FDCD2002F03A
:102AF00071FD002002F06EFDD32002F06BFD00207E
:102B000002F068FDDD2002F065FD002002F062FDAC
:102B1000F32002F05FFD002002F05CFDE52002F0F2
:102B20005FFD002002F056FD002002F053FD002062
:102B300002F050FD002002F04DFD022002F04AFD9F
:102B4000002002F047FD292002F044FD002002F0A1
:102B500041FD3C2002F03EFD002002F03BFD4B20F9
:102B600002F038FD002002F035FD5D2002F032FD5C
:102B7000002002F02FFD742002F02CFD002002F056
:102B800029FD842002F026FD002002F023FD932081
:102B900002F020FD002002F01DFDA22002F01AFD2F
:102BA000002002F017FDB32002F014FD002002F017
:102BB00011FDBE2002F00EFD002002F00BFDC4202E
:102BC00002F008FD002002F005FDCD2002F002FD1C
:102BD000002002F0FFFCD32002F0FCFC002002F0F9
:102BE000F9FCDC2002F0F6FC002002F0F3FCF320FC
:102BF00002F0F0FC002002F0EDFCE62002F0F0FC18
:102C0000112002F0E7FC002002F0E4FC342002F086
:102C1000E1FC002002F0DEFC562002F0DBFC00208C
:102C200002F0D8FC762002F0D5FC002002F0D2FCA5
:102C3000772002F0CFFC002002F0CCFC662002F0EE
:102C4000C9FC002002F0C6FC882002F0C3FC002072
:102C500002F0C0FC992002F0BDFC002002F0BAFC9A
:102C6000BB2002F0B7FC002002F0B4FC992002F077
:102C7000B1FC002002F0AEFC662002F0ABFC0020AC
:102C800002F0A8FC552002F0A5FC002002F0A2FCF6
:102C9000552002F09FFC002002F09CFC452002F031
:102CA00099FC002002F096FC432002F093FC0020E7
:102CB00002F090FC442002F08DFC002002F08AFC1F
:102CC000E72002F08DFC322002F084FC002002F0AC
:102CD00081FC552002F07EFC002002F07BFC762077
:102CE00002F078FC002002F075FC662002F072FC15
:102CF000002002F06FFC672002F06CFC002002F064
:102D000069FC672002F066FC002002F063FC87206B
:102D100002F060FC002002F05DFC992002F05AFCF9
:102D2000002002F057FCBB2002F054FC002002F00F
:102D300051FC992002F04EFC002002F04BFC772061
:102D400002F048FC002002F045FC442002F042FC66
:102D5000002002F03FFC562002F03CFC002002F074
:102D600039FC232002F036FC002002F033FC332033
:102D700002F030FC002002F02DFC452002F02AFC7D
:102D8000002002F027FCE82002F02AFC002002F0DC
:102D900021FC002002F01EFC992002F01BFC002008
:102DA00002F018FC872002F015FC002002F012FC53
:102DB000882002F00FFC002002F00CFC772002F0CB
:102DC00009FC002002F006FC662002F003FC002053
:102DD00002F000FC882002F0FDFB002002F0FAFB6C
:102DE000AA2002F0F7FB002002F0F4FBBB2002F067
:102DF000F1FB002002F0EEFB992002F0EBFB00203B
:102E000002F0E8FB662002F0E5FB002002F0E2FBA6
:102E1000552002F0DFFB002002F0DCFB552002F021
:102E2000D9FB002002F0D6FB442002F0D3FB0020A7
:102E300002F0D0FB442002F0CDFB002002F0CAFBE0
:102E4000552002F0C7FB002002F0C4FBE92002F08D
:102E5000C7FBAA2002F0BEFB002002F0BBFB002053
:102E600002F0B8FB002002F0B5FB002002F0B8FB36
:102E7000AA2002F0AFFBCF2002F0B2FB002002F04C
:102E8000A9FB002002F0A6FB002002F0A3FB00201B
:102E900002F0A0FB002002F09DFB002002F09AFB54
:102EA000002002F097FB002002F094FB002002F0CB
:102EB00091FB002002F08EFB002002F08BFB002033
:102EC00002F088FB002002F085FB002002F082FB6C
:102ED000002002F07FFB002002F07CFB002002F0CB
:102EE00079FBF02002F07CFB002002F073FB502005
:102EF00002F070FB002002F06DFB002002F06AFB84
:102F0000002002F067FBF32002F06AFB002002F0D1
:102F100061FBF92002F064FB062002F05BFB10204D
:102F200002F058FB292002F055FB002002F052FB72
:102F30003A2002F055FB552002F04CFB112002F024
:102F40004FFB642005F018F9292002F049FB3520D9
:102F500002F046FB002002F03DFB512002F040FB56
:102F6000FF2002F037FB532002F03AFB2C2002F046
:102F700031FB552002F034FB822002F02BFB2C2089
:102F800002F02EFB02F090B8B0427DD14FF47043B6
:102F90005521184602F07EFB4FF20104AA2120467B
:102FA00002F078FB651C5221284602F073FBA61C38
:102FB0000821304602F06EFB4FF204090121484619
:102FC00002F068FB0D214FF4304002F063FB0D214D
:102FD0004BF2010002F05EFB0D214BF2020002F009
:102FE00059FB4FF4364A3421504602F053FB34214A
:102FF0004BF2016002F04EFB34214BF2026002F012
:1030000049FB4FF4314B0D21584602F043FB0D2193
:103010004BF2011002F03EFB0D214BF2021002F0C8
:1030200039FB34214FF4374002F034FB34214BF2AA
:10303000017002F02FFB34214BF2027002F02AFBE8
:1030400000214FF4324002F025FB00214BF2012019
:1030500002F020FB00214BF2022002F01BFB242196
:103060004FF4384002F016FB24214BF6010002F029
:1030700011FB24214BF6020002F00CFB01214FF45E
:103080003F4002F007FB00E0FDE30F214FF4334027
:1030900002F000FB0F214BF2013002F0FBFA0F218E
:1030A0004BF2023002F0F6FA34214FF4394002F0CC
:1030B000F1FA34214BF6011002F0ECFA34214BF610
:1030C000021002F0E7FA08214FF4354002F0E2FA6C
:1030D00008214BF2015002F0DDFA08214BF20250B8
:1030E00002F0D8FA03214FF4424002F0D3FA24212F
:1030F0004FF43A4002F0CEFA24214BF6012002F0C0
:10310000C9FA24214BF6022002F0C4FA00214FF440
:103110003C4002F0BFFA78214BF6014002F0BAFAC7
:1031200000214BF6024002F0B5FA00214FF43D4079
:1031300002F0B0FA78214BF6015002F0ABFA002110
:103140004BF6025002F0A6FA00214FF43E4002F086
:10315000A1FA64214BF6016002F09CFA00214FF4C1
:10316000514002F097FA33214DF2011002F092FA29
:1031700000214DF2021002F08DFA34214DF20310BD
:1031800002F088FA00214DF2041002F083FA3A218D
:103190004DF2051002F07EFA00214DF2061002F009
:1031A00079FA4A214DF2071002F074FA00214DF22B
:1031B000081002F06FFA5C214DF2091002F06AFA71
:1031C00000214DF20A1002F065FA81214DF20B1038
:1031D00002F060FA00214DF20C1002F05BFAA62119
:1031E0004DF20D1002F056FA00214DF20E1002F0D1
:1031F00051FAE5214DF20F1002F04CFA01214DF287
:10320000101002F047FA13214DF2111002F042FAA9
:1032100001214DF2121002F03DFA54214DF213102B
:1032200002F038FA01214DF2141002F033FA822133
:103230004DF2151002F02EFA01214DF2161002F097
:1032400029FACA214DF2171002F024FA02214DF298
:10325000181002F01FFA00214DF2191002F01AFAAC
:1032600002214DF21A1002F015FA01214DF21B1045
:1032700002F010FA02214DF21C1002F00BFA342178
:103280004DF21D1002F006FA02214DF21E1002F05E
:1032900001FA67214DF21F1002F0FCF902214DF2F4
:1032A000201002F0F7F984214DF2211002F0F2F91A
:1032B00002214DF2221002F0EDF9A4214DF223106B
:1032C00002F0E8F902214DF2241002F0E3F9B721EF
:1032D0004DF2251002F0DEF902214DF2261002F027
:1032E000D9F9CF214DF2271002F0D4F902214DF285
:1032F000281002F0CFF9DE214DF2291002F0CAF9B0
:1033000002214DF22A1002F0C5F9F2214DF22B10E4
:1033100002F0C0F902214DF22C1002F0BBF9FE219F
:103320004DF22D1002F0B6F903214DF22E1002F0ED
:10333000B1F910214DF22F1002F0ACF903214DF23A
:10334000301002F0A7F933214DF2311002F0A2F94A
:1033500003214DF2321002F09DF96D214DF2331030
:1033600002F098F900214FF4524002F093F9332112
:103370004DF2012002F08EF900214DF2022002F000
:1033800089F934214DF2032002F084F900214DF235
:10339000042002F07FF93A214DF2052002F07AF97B
:1033A00000214DF2062002F075F94A214DF2072066
:1033B00002F070F900214DF2082002F06BF95C2157
:1033C0004DF2092002F066F900214DF20A2002F0C8
:1033D00061F981214DF20B2002F05CF900214DF2E0
:1033E0000C2002F057F9A6214DF20D2002F052F9FF
:1033F00000214DF20E2002F04DF9E5214DF20F2093
:1034000002F048F901214DF2102002F043F9132196
:103410004DF2112002F03EF901214DF2122002F08E
:1034200039F954214DF2132002F034F901214DF203
:10343000142002F02FF982214DF2152002F02AF912
:1034400001214DF2162002F025F9CA214DF2172074
:1034500002F020F902214DF2182002F01BF90021A0
:103460004DF2192002F016F902214DF21A2002F055
:1034700011F901214DF21B2002F00CF902214DF24D
:103480001C2002F007F934214DF21D2002F002F950
:1034900002214DF21E2002F0FDF867214DF21F209F
:1034A00002F0F8F802214DF2202002F0F3F8842116
:1034B0004DF2212002F0EEF802214DF2222002F01E
:1034C000E9F8A4214DF2232002F0E4F802214DF2A4
:1034D000242002F0DFF8B7214DF2252002F0DAF8BF
:1034E00002214DF2262002F0D5F8CF214DF22720FF
:1034F00002F0D0F802214DF2282002F0CBF8DE21B4
:103500004DF2292002F0C6F802214DF22A2002F0E5
:10351000C1F8F2214DF22B2002F0BCF802214DF24D
:103520002C2002F0B7F8FE214DF22D2002F0B2F867
:1035300003214DF22E2002F0ADF810214DF22F2084
:1035400002F0A8F803214DF2302002F0A3F8332155
:103550004DF2312002F09EF803214DF2322002F0AC
:1035600099F86D214DF2332002F094F800214FF4C8
:10357000534002F08FF833214DF2013002F08AF807
:1035800000214DF2023002F085F834214DF2033073
:1035900002F080F800214DF2043002F07BF83A216D
:1035A0004DF2053002F076F800214DF2063002F0BF
:1035B00071F84A214DF2073002F06CF800214DF20B
:1035C000083002F067F85C214DF2093002F062F831
:1035D00000214DF20A3002F05DF881214DF20B30EE
:1035E00002F058F800214DF20C3002F053F8A621F9
:1035F0004DF20D3002F04EF800214DF20E3002F087
:1036000049F8E5214DF20F3002F044F801214DF266
:10361000103002F03FF813214DF2113002F03AF869
:1036200001214DF2123002F035F854214DF21330E1
:1036300002F030F801214DF2143002F02BF8822113
:103640004DF2153002F026F801214DF2163002F04D
:1036500021F8CA214DF2173002F01CF802214DF278
:10366000183002F017F800214DF2193002F012F86C
:1036700002214DF21A3002F00DF801214DF21B30FB
:1036800002F008F802214DF21C3002F003F8342158
:103690004DF21D3001F0FEFF02214DF21E3001F00F
:1036A000F9FF67214DF21F3001F0F4FF02214DF2C6
:1036B000203001F0EFFF84214DF2213001F0EAFFCC
:1036C00002214DF2223001F0E5FFA4214DF223301A
:1036D00001F0E0FF02214DF2243001F0DBFFB721C1
:1036E0004DF2253001F0D6FF02214DF2263001F0D7
:1036F000D1FFCF214DF2273001F0CCFF02214DF256
:10370000283001F0C7FFDE214DF2293001F0C2FF61
:1037100002214DF22A3001F0BDFFF2214DF22B3093
:1037200001F0B8FF02214DF22C3001F0B3FFFE2171
:103730004DF22D3001F0AEFF03214DF22E3001F09D
:10374000A9FF10214DF22F3001F0A4FF03214DF20B
:10375000303001F09FFF33214DF2313001F09AFFFC
:1037600003214DF2323001F095FF6D214DF23330DF
:1037700001F090FF00214FF4544001F08BFF332102
:103780004DF2014001F086FF00214DF2024001F0B0
:1037900081FF34214DF2034001F07CFF00214DF206
:1037A000044001F077FF3A214DF2054001F072FF2D
:1037B00000214DF2064001F06DFF4A214DF2074015
:1037C00001F068FF00214DF2084001F063FF5C2129
:1037D0004DF2094001F05EFF00214DF20A4001F078
:1037E00059FF81214DF20B4001F054FF00214DF2B1
:1037F0000C4001F04FFFA6214DF20D4001F04AFFB1
:1038000000214DF20E4001F045FFE5214DF20F4041
:1038100001F040FF01214DF2104001F03BFF132168
:103820004DF2114001F036FF01214DF2124001F03E
:1038300031FF54214DF2134001F02CFF01214DF2D4
:10384000144001F027FF82214DF2154001F022FFC4
:1038500001214DF2164001F01DFFCA214DF2174023
:1038600001F018FF02214DF2184001F013FF002172
:103870004DF2194001F00EFF02214DF21A4001F005
:1038800009FF012100E001E34DF21B4001F002FFBE
:1038900002214DF21C4001F0FDFE34214DF21D408D
:1038A00001F0F8FE02214DF21E4001F0F3FE672107
:1038B0004DF21F4001F0EEFE02214DF2204001F0DA
:1038C000E9FE84214DF2214001F0E4FE02214DF297
:1038D000224001F0DFFEA4214DF2234001F0DAFE88
:1038E00002214DF2244001F0D5FEB7214DF22540D2
:1038F00001F0D0FE02214DF2264001F0CBFECF2197
:103900004DF2274001F0C6FE02214DF2284001F0A1
:10391000C1FEDE214DF2294001F0BCFE02214DF234
:103920002A4001F0B7FEF2214DF22B4001F0B2FE29
:1039300002214DF22C4001F0ADFEFE214DF22D4052
:1039400001F0A8FE03214DF22E4001F0A3FE10214C
:103950004DF22F4001F09EFE03214DF2304001F068
:1039600099FE33214DF2314001F094FE03214DF2D6
:10397000324001F08FFE6D214DF2334001F08AFE9E
:1039800000214FF4554001F085FE33214DF20150E6
:1039900001F080FE00214DF2025001F07BFE342147
:1039A0004DF2035001F076FE00214DF2045001F07B
:1039B00071FE3A214DF2055001F06CFE00214DF2EE
:1039C000065001F067FE4A214DF2075001F062FEF9
:1039D00000214DF2085001F05DFE5C214DF20950CE
:1039E00001F058FE00214DF20A5001F053FE8121F2
:1039F0004DF20B5001F04EFE00214DF20C5001F043
:103A000049FEA6214DF20D5001F044FE00214DF279
:103A10000E5001F03FFEE5214DF20F5001F03AFE4D
:103A200001214DF2105001F035FE13214DF21150DD
:103A300001F030FE01214DF2125001F02BFE542115
:103A40004DF2135001F026FE01214DF2145001F009
:103A500021FE82214DF2155001F01CFE01214DF294
:103A6000165001F017FECA214DF2175001F012FE58
:103A700002214DF2185001F00DFE00214DF21950B7
:103A800001F008FE02214DF21A5001F003FE01215F
:103A90004DF21B5001F0FEFD02214DF21C5001F0D1
:103AA000F9FD34214DF21D5001F0F4FD02214DF2DB
:103AB0001E5001F0EFFD67214DF21F5001F0EAFDAD
:103AC00002214DF2205001F0E5FD84214DF22150FC
:103AD00001F0E0FD02214DF2225001F0DBFDA421B6
:103AE0004DF2235001F0D6FD02214DF2245001F099
:103AF000D1FDB7214DF2255001F0CCFD02214DF250
:103B0000265001F0C7FDCF214DF2275001F0C2FD34
:103B100002214DF2285001F0BDFDDE214DF2295069
:103B200001F0B8FD02214DF22A5001F0B3FDF2215F
:103B30004DF22B5001F0AEFD02214DF22C5001F060
:103B4000A9FDFE214DF22D5001F0A4FD03214DF2FF
:103B50002E5001F09FFD10214DF22F5001F09AFDE3
:103B600003214DF2305001F095FD33214DF23150DB
:103B700001F090FD03214DF2325001F08BFD6D21DB
:103B80004DF2335001F086FD00214FF4564001F014
:103B900081FD33214DF2016001F07CFD00214DF2E9
:103BA000026001F077FD34214DF2036001F072FDF7
:103BB00000214DF2046001F06DFD3A214DF20560E7
:103BC00001F068FD00214DF2066001F063FD4A211D
:103BD0004DF2076001F05EFD00214DF2086001F03A
:103BE00059FD5C214DF2096001F054FD00214DF2B8
:103BF0000A6001F04FFD81214DF20B6001F04AFD9A
:103C000000214DF20C6001F045FDA6214DF20D6042
:103C100001F040FD00214DF20E6001F03BFDE52179
:103C20004DF20F6001F036FD01214DF2106001F000
:103C300031FD13214DF2116001F02CFD01214DF2F7
:103C4000126001F027FD54214DF2136001F022FDB6
:103C500001214DF2146001F01DFD82214DF215602D
:103C600001F018FD01214DF2166001F013FDCA218B
:103C70004DF2176001F00EFD02214DF2186001F0C7
:103C800009FD00214DF2196001F004FD02214DF201
:103C90001A6001F0FFFC01214DF21B6001F0FAFCFB
:103CA00002214DF21C6001F0F5FC34214DF21D6043
:103CB00001F0F0FC02214DF21E6001F0EBFC6721E7
:103CC0004DF21F6001F0E6FC02214DF2206001F090
:103CD000E1FC84214DF2216001F0DCFC02214DF277
:103CE000226001F0D7FCA4214DF2236001F0D2FC48
:103CF00002214DF2246001F0CDFCB7214DF2256088
:103D000001F0C8FC02214DF2266001F0C3FCCF2176
:103D10004DF2276001F0BEFC02214DF2286001F057
:103D2000B9FCDE214DF2296001F0B4FC02214DF214
:103D30002A6001F0AFFCF2214DF22B6001F0AAFCE9
:103D400002214DF22C6001F0A5FCFE214DF22D6008
:103D500001F0A0FC03214DF22E6001F09BFC10212C
:103D60004DF22F6001F096FC03214DF2306001F01E
:103D700091FC33214DF2316001F08CFC03214DF2B6
:103D8000326001F087FC6D214DF2336001F082FC5E
:103D90005521184601F07EFCAA21204601F07AFC4C
:103DA0005221284601F076FC0821304601F072FCD1
:103DB0000021484601F06EFCCC21584601F06AFC17
:103DC00000214BF2011001F065FC0521504601F085
:103DD00061FC70214FF4374001F05CFC70214BF224
:103DE000017001F057FC01214FF4384001F052FC02
:103DF00003214BF6010001F04DFC03214BF60200BC
:103E000001F048FC03214BF6030001F043FC0221C2
:103E10004FF43C4001F03EFC00214BF6014001F024
:103E200039FC00214BF6024001F034FCD0214FF464
:103E3000494001F02FFC02214CF6011001F02AFC50
:103E400050214CF6021001F025FC50214CF60310D5
:103E500001F020FC50214CF6041001F01BFC002165
:103E60004FF4545001F016FC55214FF4685001F006
:103E700011FC4FF4885001F0B3FB782004F096F960
:103E80004FF4245001F0ACFB01F00EB9A0F5134142
:103E90004FF4E06640F2022940F23F1A4FF4274BFC
:103EA00025392BD0F41DA0F5134128397ED0A0F57B
:103EB00013414FF41C5B203979D0A0F513413139FF
:103EC00076D0A0F5A841083973D0A0F5A8510539DE
:103ED00070D0A0F5354105396DD0A0F545410539C3
:103EE0006AD0A0F58A41313967D0A0F58A413539C9
:103EF0007ED0A0F5C85163397BD0C5E747F6F00105
:103F0000E52001F0C7FB2946012001F0C3FB314643
:103F1000022001F0BFFB41F23001032001F0BAFBA7
:103F20000021042001F0B6FB4946082001F0B2FB55
:103F30000021092001F0AEFB00210A2001F0AAFBBC
:103F400000210C2001F0A6FB00210D2001F0A2FBB6
:103F500000210F2001F09EFB0021102001F09AFBB0
:103F60000721112001F096FB0021122001F092FBA5
:103F70000021132001F08EFB0021072001F08AFBB5
:103F800041F29061102001F085FB40F227211120C1
:103F900001F080FB9D21122001F07CFB4FF4C85101
:103FA000132001F077FB2521292007E083E06FE152
:103FB00015E2EFE28CE3FDE3FDE3FDE301F06AFBD4
:103FC0000D212B2001F066FB0721302001F062FB60
:103FD00040F20331312001F05DFB0321322001F07A
:103FE00059FB40F20621352001F054FB082101E085
:103FF000FEE3FEE3362001F04DFB40F206413720A0
:1040000001F048FB4FF44171382001F043FB0721D8
:10401000392001F03FFB40F202613C2001F03AFB05
:1040200008213D2001F036FB0021502001F032FB39
:10403000EF21512001F02EFB0021522001F02AFB3C
:104040005146532001F026FB5946602001F022FB27
:104050000121612001F01EFB00216A2001F01AFB02
:104060000021802001F016FB0021812001F012FBCD
:104070000021822001F00EFB0021832001F00AFBC9
:104080000021842001F006FB0021852001F002FBC5
:104090001021902001F0FEFA4FF4C061922001F04F
:1040A000F9FA40F23311072001F0F4FA222100203E
:1040B00001F0F0FAE8E641F28F01EC2001F0EAFAB3
:1040C00041F23421EF2001F0E5FA2946012001F008
:1040D000E1FA3146022001F0DDFA41F2300103201D
:1040E00001F0D8FA0021042001F0D4FA4946082052
:1040F00001F0D0FA0021092001F0CCFA00210A20B9
:1041000001F0C8FA01210C2001F0C4FA00210D20B1
:1041100001F0C0FA00210F2001F0BCFA00211020AC
:1041200001F0B8FA0721112001F0B4FA00211220A1
:1041300001F0B0FA0021132001F0ACFA01210720B0
:1041400001F0A8FA322004F017F841F29041102053
:1041500001F0A0FA40F22721112001F09BFA322051
:1041600004F00AF88A21122001F094FA322004F0B7
:1041700003F84FF4D051132001F08CFA06212920C6
:1041800001F088FA0D212B2001F084FA322003F08F
:10419000F3FF0021202001F07DFA0021212001F011
:1041A00079FA322003F0E8FF0021302001F072FAA2
:1041B00040F20461312001F06DFA40F20531322005
:1041C00001F068FA0021352001F064FA40F6094157
:1041D000362001F05FFA4FF40171372001F05AFAEE
:1041E00040F20131382001F055FA2146392001F022
:1041F00051FA00213C2001F04DFA40F60A213D2001
:1042000001F048FA322003F0B7FF0021502001F0FE
:1042100041FAEF21512001F03DFA0021522001F036
:1042200039FA5146532001F035FA5946602001F021
:1042300031FA0121612001F02DFA00216A2001F0FC
:1042400029FA0021802001F025FA0021812001F0C7
:1042500021FA0021822001F01DFA0021832001F0C3
:1042600019FA0021842001F015FA0021852001F0BF
:1042700011FA1021902001F00DFA4FF4C061922044
:1042800001F008FA40F23311072001F003FAFBE5D0
:104290000021084601F0FEF92946012001F0FAF953
:1042A0003146022001F0F6F941F23001032001F01D
:1042B000F1F90021042001F0EDF94946082001F050
:1042C000E9F90021092001F0E5F900210A2001F0B7
:1042D000E1F901210C2001F0DDF900210D2001F0B0
:1042E000D9F900210F2001F0D5F9322003F044FF65
:1042F00040F20111072001F0CDF9322003F03CFF1C
:104300004FF48651102001F0C5F90721112001F06A
:10431000C1F94FF488731946122001F0BBF94FF42C
:104320003061132001F0B6F90021292001F0B2F923
:1043300044F210012B2001F0ADF90021502001F0D2
:10434000A9F9EF21512001F0A5F90021522001F037
:10435000A1F95146532001F09DF95946602001F022
:1043600099F90121612001F095F900216A2001F0FD
:1043700091F90021802001F08DF90021812001F0C8
:1043800089F90021822001F085F90021832001F0C4
:1043900081F90021842001F07DF90021852001F0C0
:1043A00079F91021902001F075F90021922001F097
:1043B00071F90121932001F06DF91946952001F062
:1043C00069F90021972001F065F90021982001F09A
:1043D00061F940F27311072001F05CF954E541F2F4
:1043E0001401E72001F056F92946012001F052F9A5
:1043F0004FF40071022001F04DF941F23801032021
:1044000001F048F94946082001F044F9002109204B
:1044100001F040F900210A2001F03CF900210C20B4
:1044200001F038F900210D2001F034F900210F20AE
:1044300001F030F90021102001F02CF907211120A2
:1044400001F028F90021122001F024F900211320A5
:1044500001F020F9C82003F08FFE41F29061102096
:1044600001F018F940F22721112001F013F9322050
:1044700003F082FE0C21122001F00CF9322003F02F
:104480007BFE4FF40061132001F004F91121292073
:1044900001F000F90B212B2001F0FCF8322003F091
:1044A0006BFE0021202001F0F5F85146212001F09B
:1044B000F1F80021302001F0EDF84FF48373194634
:1044C000312001F0E7F80021322001F0E3F84FF449
:1044D0000171352001F0DEF841F20A61362001F069
:1044E000D9F82146372001F0D5F81946382001F0D7
:1044F000D1F82146392001F0CDF840F202413C20AC
:1045000001F0C8F840F60F413D2001F0C3F800214A
:10451000502001F0BFF8EF21512001F0BBF800213D
:10452000522001F0B7F85146532001F0B3F8594634
:10453000602001F0AFF80121612001F0ABF800210B
:104540006A2001F0A7F80021802001F0A3F80021E3
:10455000812001F09FF80021822001F09BF80021CA
:10456000832001F097F80021842001F093F80021C6
:10457000852001F08FF81021902001F08BF84FF486
:10458000C061922001F086F840F23311072001F05B
:1045900081F879E42946012001F07CF831460220B7
:1045A00001F078F841F23001032001F073F80021A6
:1045B000042001F06FF840F20721082001F06AF8AA
:1045C0000021092001F066F800210A2001F062F8BC
:1045D00000210C2001F05EF800210D2001F05AF8B6
:1045E00000210F2001F056F8142003F0C5FD41F220
:1045F000B061102001F04EF80121112001F04AF8BD
:104600000121172001F046F84FF49C71122001F0AF
:1046100041F84FF40061132001F03CF809212920F2
:1046200001F038F809212A2001F034F80021A420F3
:1046300001F030F80021502001F02CF8EF2151203A
:1046400001F028F80021522001F024F851465320AF
:1046500001F020F85946602001F01CF8012161208A
:1046600001F018F800216A2001F014F800218020E0
:1046700001F010F80021812001F00CF800218220C7
:1046800001F008F80021832001F004F800218420C3
:1046900001F000F80021852000F0FCFF132190209C
:1046A00000F0F8FF0021922000F0F4FF0321932096
:1046B00000F0F0FF4FF48871952000F0EBFF40F21E
:1046C0007311072000F0E6FF322003F055FD14E4DB
:1046D0000021072000F0DEFF322003F04DFD4FF4F3
:1046E0008E71122000F0D6FF0121A42000F0D2FF2D
:1046F0000F21082000F0CEFF08210A2000F0CAFF99
:1047000008210D2000F0C6FF2146302000F0C2FF36
:104710000721312000F0BEFF40F20361322000F09B
:10472000B9FF3146332000F0B5FF4946342000F090
:10473000B1FF0221352000F0ADFF41F60F713620A8
:1047400000F0A8FF2146372000F0A4FF0021382008
:1047500000F0A0FF0021392000F09CFF21463A2004
:1047600000F098FF00213B2000F094FF07213C203F
:1047700000F090FF00213D2000F08CFF322003F07C
:10478000FBFC0121072000F085FF0121172000F02C
:1047900081FF322003F0F0FC4FF4BD51102000F0F7
:1047A00079FF40F21721112000F074FF4FF48F7150
:1047B000122002E09DE097E161E200F06BFF4FF410
:1047C0007061132000F066FF00212A2000F062FFD4
:1047D0000A21292000F05EFF4FF49F71122000F0A3
:1047E00059FF0021502000F055FFEF21512001E03A
:1047F000FAE2A4E300F04EFF0021522000F04AFF4D
:104800005146532000F046FF5946602000F042FF19
:104810000121612000F03EFF00216A2000F03AFFF4
:104820000021802000F036FF0021812000F032FFBF
:104830000021822000F02EFF0021832000F02AFFBB
:104840000021842000F026FF0021852000F022FFB7
:104850001321902000F01EFF4FF44071922000F0D1
:1048600019FF0521932000F015FF0021952000F08D
:1048700011FF0021972000F00DFF0021982000F08B
:1048800009FF2946012000F005FF3146022000F013
:1048900001FF41F23801032000F0FCFE002104205A
:1048A00000F0F8FE00210C2000F0F4FE00210F20A3
:1048B00000F0F0FE0021202000F0ECFE002121207D
:1048C00000F0E8FE2121072000F0E4FE142003F0B0
:1048D00053FC6121072000F0DDFE142003F04CFCA6
:1048E00040F27311072000F0D5FE142003F044FCC1
:1048F000DAE30021084600F0CDFE0021084600F072
:10490000C9FE0021084600F0C5FE0021084600F05F
:10491000C1FE0121A42000F0BDFE142003F02CFCF8
:104920005946602000F0B6FE4946082000F0B2FE6D
:104930004FF40571302000F0ADFE43F215713120C7
:1049400000F0A8FE40F20461322000F0A3FE40F621
:104950001661332000F09EFE42F21121342000F057
:1049600099FE4FF4A851352000F094FE48F207510B
:10497000362000F08FFE41F20741372000F08AFE1A
:1049800041F20341382000F085FE2021392000F05B
:1049900081FE1A21902000F07DFE0021102000F001
:1049A00079FE0721112000F075FE0021122000F091
:1049B00071FE0021132000F06DFE142003F0DCFBDB
:1049C0004FF4E661102000F065FE40F2371111202F
:1049D00000F060FE142003F0CFFB4FF4DC711220D6
:1049E00000F058FE142003F0C7FB4FF47061132051
:1049F00000F050FE80212A2000F04CFE48212920A2
:104A000000F048FE142003F0B7FB2946012000F017
:104A100041FE3146022000F03DFE41F23801032004
:104A200000F038FE4946082000F034FE00210A203C
:104A300000F030FE00210C2000F02CFE00210D20A3
:104A400000F028FE30210E2000F024FE002150202E
:104A500000F020FEEF21512000F01CFE002152202A
:104A600000F018FE5146532000F014FE5946602015
:104A700000F010FE0121612000F00CFE00216A20F0
:104A800000F008FE1121902000F004FE4FF4C061F8
:104A9000922000F0FFFD40F20241932000F0FAFD69
:104AA0000221942000F0F6FD142003F065FB0121A3
:104AB000072000F0EFFD142003F05EFB61210720CA
:104AC00000F0E8FD40F27311072000F0E3FD002143
:104AD000202000F0DFFD0021212000F0DBFD22215D
:104AE000002000F0D7FDDFE20021084600F0D2FDF3
:104AF0000021084600F0CEFD142003F03DFB00210C
:104B0000084600F0C7FD0021084600F0C3FD002163
:104B1000084600F0BFFD0021084600F0BBFD012162
:104B2000A42000F0B7FD142003F026FB59466020B6
:104B300000F0B0FD40F60601082000F0ABFD40F2A9
:104B400003731946302000F0A5FD0121312000F04B
:104B5000A1FD0421322000F09DFD4FF4817133202E
:104B600000F098FD4FF440742146342000F092FD8F
:104B700040F20311352000F08DFD1F21362000F09A
:104B800089FD1946372000F085FD0121382000F00D
:104B900081FD0421392000F07DFD1521902000F0D9
:104BA00079FD4FF48261102000F074FD40F247213E
:104BB000112000F06FFD4FF4DE71122000F06AFD4D
:104BC0004FF46061132000F065FD782003F0D4FA03
:104BD0002946012000F05EFD4FF40071022000F034
:104BE00059FD41F23001032000F054FD08210A2054
:104BF00000F050FD00210C2000F04CFD20210E2083
:104C000000F048FD00210F2000F044FD002120208D
:104C100000F040FD0021212000F03CFD3D212A2034
:104C200000F038FD142003F0A7FA2D21292000F010
:104C300031FD0021502000F02DFD4DF2EF015120FB
:104C400000F028FD0021522000F024FD51465320A1
:104C500000F020FD0021612000F01CFD00216A20F1
:104C600000F018FD2146922000F014FD052193204C
:104C700000F010FD2946072000F00CFD14E2012190
:104C8000002000F007FD0A2003F076FA41F22861C7
:104C9000102000F0FFFC0E21122000F0FBFC40F67B
:104CA0003921132000F0F6FC0A2003F065FA4021B8
:104CB000112000F0EFFC5021152000F0EBFC0A2041
:104CC00003F05AFA1E21122000F0E4FC0A2003F03F
:104CD00053FA4FF4B151102000F0DCFC42F63921B8
:104CE000132000F0D7FC0A2003F046FA29460120E1
:104CF00000F0D0FC4FF44071022000F0CBFC41F2F8
:104D00003801032000F0C6FC4946082000F0C2FC30
:104D100008210A2000F0BEFC0021302000F0BAFC7F
:104D200040F20241312000F0B5FC4FF48371322093
:104D300000F0B0FC40F20351332000F0ABFC4FF424
:104D40008271342000F0A6FC40F20131352000F0E1
:104D5000A1FC2146362000F09DFC40F205313720B1
:104D600000F098FC4FF40271382000F093FC40F6FC
:104D70000B71392000F08EFC0221412000F08AFCEA
:104D80005946602000F086FC0121612000F082FC81
:104D90004FF40471902000F07DFC4FF48571922057
:104DA00000F078FC0421932000F074FC2946A02038
:104DB00000F070FC0121072000F06CFC212107208D
:104DC00000F068FC2321072000F064FC3321072059
:104DD00000F060FC40F23311072000F05BFC002182
:104DE000A02000F057FC5FE13021152000F052FCBC
:104DF00010219A2000F04EFC2021112000F04AFCE6
:104E000043F22841102000F045FC0221122000F05E
:104E100041FC41F23801132000F03CFC282003F053
:104E2000ABF91221084600F035FC282003F0A4F964
:104E300043F22041102000F02DFC43F238011320F2
:104E400000F028FC462003F097F90021302000F004
:104E500021FC40F20241312000F01CFC40F20731FD
:104E6000322000F017FC4FF44171332000F012FCA7
:104E70000421342000F00EFC40F20141352000F006
:104E800009FC2146362000F005FC40F205313720B0
:104E900000F000FC4FF4C2631946382000F0FAFB22
:104EA0001946392000F0F6FB2946012000F0F2FBFC
:104EB0004FF44071022000F0EDFB41F2300103207D
:104EC00000F0E8FB40F60801082000F0E3FB0821B1
:104ED0000A2000F0DFFB5946602000F0DBFB0121D7
:104EE000612000F0D7FB4FF49F71902000F0D2FBBF
:104EF0002946922000F0CEFB2946932000F0CAFB01
:104F00004FF44051A02000F0C5FB1021A32000F079
:104F1000C1FB0121072000F0BDFB2121072000F08B
:104F2000B9FB2321072000F0B5FB3321072000F057
:104F3000B1FB40F23311072000F0ACFBB4E0E220FB
:104F400000F04EFB232000F045FB022000F042FB66
:104F5000042000F03FFB642003F028F9E02000F07B
:104F60003FFB012000F036FB0A2003F005F9E020AA
:104F700000F036FB032000F02DFB0C2003F0FCF8C2
:104F8000012000F02DFB0A2003F0F6F8E62000F0E7
:104F900027FB032000F01EFBFF2000F01BFBFF207F
:104FA00000F018FBB02000F01BFB202000F012FBEB
:104FB000002000F00FFB032000F00CFB40F21F303C
:104FC00000F008FB012000F005FB40F2DF1000F0CC
:104FD00001FB002000F0FEFAB42000F001FB0420E9
:104FE00000F0F8FA40F21F4000F0F4FA002000F060
:104FF000F1FAD22000F0EEFA002000F0EBFA0020E7
:1050000000F0E8FA002000F0E5FA002000F0E2FAF3
:10501000B62000F0E5FA022000F0DCFA4FF403704D
:1050200000F0D8FA002000F0D5FA222000F0D2FAE1
:10503000092000F0CFFA002000F0CCFA002000F0A8
:10504000C9FAF02000F0CCFA032000F0C3FA2920BE
:1050500000F0C6FAD02000F0C3FA002000F0BAFA3F
:10506000BE2000F0BDFA052000F0B4FAFE2000F0EA
:10507000B1FA012000F0AEFAFF2000F0ABFA0020F8
:1050800000F0A8FAB82000F0ABFA0F2000F0A2FA66
:10509000012000F09FFABA2000F0A2FA012000F0EF
:1050A00099FA642000F022F80020FCF71FFB044866
:1050B000C0F880813846FCF7E1FA1FB0BDE8F08FF8
:1050C0000080214208B5034800880090BDF8000028
:1050D00008BD00000008006C10B500F081FA052042
:1050E00003F064F8BDE81040FFF7ECBF10B50246CE
:1050F000BE2000F075FA052000F06CFA104606F0AC
:10510000F2FC4FF066320B4B06F000FD06F0BEFCE1
:1051100080B200F05FFA012000F05CFAFF2000F09E
:1051200059FA002000F056FABDE81040002000F0C7
:1051300051BA000066660440F0B50023834C46F681
:1051400004072146A279898841F66315012A03D113
:10515000B94201D0A94202D1C2B9A94216D1082848
:1051600014D2DFE800F00406080A0C0E1012062024
:105170000CE007200AE0042008E0052006E00120FA
:1051800004E0002002E0032000E00220A1F5134C1F
:1051900045F2103245F21056BCF1410C07D0B9422D
:1051A00005D0914203D0B14201D0A9427DD1082857
:1051B00012D2DFE800F0110406080A0C0E1080235A
:1051C0000AE0402308E0C02306E0202304E0602337
:1051D00002E0A02300E0E023B14202D14FF4585096
:1051E00000E03620914205D0B14203D0A94201D05F
:1051F00043F00803B94201D143F00203194600F01D
:1052000049FAA288AA420ED0980606D5208861885D
:10521000884208D22180608005E020886188884229
:1052200001D921806080B24249D1608900F0D8F96B
:10523000002000F0CFF96089401C80B200F0D0F966
:10524000002000F0C7F96089801C80B200F0C8F926
:105250002088401EC0F30F2000F0BCF96089C01CFC
:1052600080B200F0BDF92078401EC0B200F0B2F963
:10527000A08900F0B5F9002000F0ACF9A089401C2D
:1052800080B200F0ADF9002000F0A4F9A089801CE4
:1052900080B200F0A5F96088401EC0F30F2000F036
:1052A00099F9A089C01C80B200E032E000F098F9C2
:1052B000A078BDE8F040401EC0B200F08BB9608914
:1052C00000F08EF9002000F085F9002000F082F94E
:1052D0002088401EC0F30F2000F07CF92078401E8B
:1052E000C0B200F077F9A08900F07AF9002000F050
:1052F00071F9002000F06EF96088401EC0F30F20A5
:1053000000F068F9A078BDE8F040401EC0B200F09F
:1053100061B9082812D2DFE800F0040608110A0C6F
:105320000E1030230AE0102308E0202306E0382383
:1053300004E0282302E0182300E00823032043F4BC
:105340008051BDE8F04000F0A5B90000041700202E
:105350002DE9F04102460B46584E1F0A3046B188EF
:105360004089A1F513444FEA1228413C1AD0A1F517
:10537000A644103C16D03446A1F5D04CA57924881B
:10538000A41A641EBCF1040C1FD0A1F5C85CBCF1CA
:10539000630C30D0A1F5A04CBCF5A26C65D0012DFA
:1053A0007DD082E000F01CF9404600F013F9D0B245
:1053B00000F010F9B08900F013F9384600F00AF94E
:1053C000BDE8F041D8B200F005B9012D00D1A2B27C
:1053D00000F006F9100A00F0FDF8D0B200F0FAF87B
:1053E000B08900F0FDF8384600F0F4F8BDE8F0416F
:1053F000D8B200F0EFB845B300F0F2F8404600F044
:10540000E9F8D0B200F0E6F83088401EC0F30F2073
:1054100000F0E0F83078401EC0B200F0DBF8B08950
:1054200000F0DEF8384600F0D5F8D8B200F0D2F837
:105430007088401EC0F30F2000F0CCF8B078BDE8B3
:10544000F041401EC0B200F0C5B8A2B200F0C8F8EA
:10545000002000F0BFF8002000F0BCF8100A00F0B7
:10546000B9F8D0B200F0B6F8D9E700F0B9F8404684
:1054700000F0B0F87089401C80B200F0B1F8D0B2F2
:1054800000F0A8F8B08900F0ABF8384600F0A2F8B8
:10549000B089401C80B200F0A3F8D8B200E003E06D
:1054A000BDE8F04100F096B8A2B2114600F0F2F863
:1054B000B089BDE8F041194600F0ECB804170020AF
:1054C0002DE9F84F80460C461F46A346780701D0C9
:1054D000012000E0002000EBD70079084843C0B26B
:1054E0000090203A02F0FF0A002662E00C2F1DD047
:1054F000102F22D0182F25D0202F5DD12F4800EB60
:105500008A10855D4FF00009280622D52C482146D7
:1055100002884046FCF7F2F9601C294A81B208F182
:10552000010080B21288FCF7E9F923E025490AEB73
:105530004A0001EB8000855DE4E7234800EB0A1098
:10554000855DDFE721490AEBCA0001EB8000855D3C
:10555000D8E70A9870B91A48214642884046FCF7B5
:10556000CDF9601C164A81B208F1010080B2528860
:10557000FCF7C4F96806050E641CA4B21448408800
:10558000A04219D9A4EB0B00B84209D15C4608F13E
:1055900001081FFA88F80E48008840450CD906E03B
:1055A00009F1010909F0FF09B9F1080FACD3761C24
:1055B000F6B20098864299D3BDE8F88FE2D400088D
:1055C0004200002022BD000896C1000886C70008DE
:1055D0000417002001490880704700000008006C93
:1055E0000149088070470000FE07006C2DE9FF5F4D
:1055F00006468A469346002533E000240399C5EB0E
:10560000C5004FF0030905EB850700EB0108B4FB6B
:10561000F9F00AEB001000EB4510C119B4FBF9F0EA
:1056200009FB104000EBC00202EB001000EB0B0284
:1056300095FBF6F0C0EB001000EB800002EB4000A1
:1056400018F80420312A10D080B28BB20146022211
:105650001846FCF7F9F8641CE4B2062CD7D36D1C8D
:10566000EDB2B542C9DBBDE8FF9F80B21FFA81FCF5
:1056700001461F230322604604F0C7FBEBE700004E
:105680000248034900890880704700000417002081
:10569000FE07006C024A1080901C018070470000D9
:1056A000FE07006CFEE7704770B50F23C278012635
:1056B0000178002A1ED0144A126802F4E062C2F592
:1056C000E062120AC2F10404D3404578A540827812
:1056D0001A402A43120101F1E02181F800240078E8
:1056E00000F01F018E404009800000F1E020C0F86A
:1056F000006170BD01F01F0086404809800000F184
:10570000E020C0F8806170BD0CED00E00249084364
:1057100002490860704700000000FA050CED00E047
:10572000014604E0202A01D001F8012B401C027838
:10573000002AF7D100200870704770472DE9F0412A
:1057400005460E4600240B4F0FE015F8011B3846A6
:1057500002F05CF8022002F00FFD4021384601F013
:10576000B1FF0028F9D0641CE4B2B442EDD3BDE827
:10577000F081000000480040054A002903D051692B
:105780000143516170475169814351617047000085
:1057900000100240054A002903D0D1690143D161BC
:1057A0007047D1698143D161704700000010024009
:1057B000054A002903D0116901431161704711693D
:1057C000814311617047000000100240054A002922
:1057D00003D091690143916170479169814391615F
:1057E0007047000000100240054A002903D0D1682C
:1057F0000143D1607047D1688143D1607047000098
:105800000010024010B5264A516801F00C01254BEA
:10581000002927D0042927D0082927D00360516800
:1058200001F0F0010909204B5C5C0168E140416036
:10583000546804F4E064240A1C5D21FA04F48460D2
:10584000546804F46054E40A1B5DD940C160526896
:1058500002F44042920B144B1B1F9A5CB1FBF2F115
:10586000016110BD0360DAE70360D8E7516801F415
:105870007011536803F48033022404EB914133B177
:1058800053689B0307D5094B59430160C7E7074B92
:1058900059430160C3E7034B59430160BFE7000070
:1058A0000010024000127A006C00002000093D0048
:1058B0002DE9F05F05460026B2464FF4617421469B
:1058C000002005F08BFA07462146002005F086FAF5
:1058D00080462421002005F081FA81462021002005
:1058E00005F07CFA044640F2FF11E161002005F06A
:1058F00075FAA0612946484603F00EFB78B9A06905
:1059000098BB0CE004F10900054639B9607A28B16A
:10591000284603F00DFD312827D10AE0B2460921BF
:10592000384605F070FD0921404605F06CFD002564
:1059300030E006EBC60000EB061A07EB8A00834650
:1059400022A1FAF790FD58462946FAF78CFD284621
:1059500002F0DAF808EB8A0082461CA1FAF783FD10
:1059600050462946FAF77FFD761C2146484603F04B
:10597000CFFB0146A0690278002AC5D1C2E705EB3A
:10598000C50000EB051008EB800107EB800003F079
:10599000FCFB6D1C5545F2DB484603F08EF80020F9
:1059A000A16905F00FFA4946002005F00BFA2146DF
:1059B000002005F007FA3946002005F003FA4146B9
:1059C000BDE8F05F002005F0FDB90000303A2F007F
:1059D0002DE9FC410026009601960025002800D004
:1059E00002251B484069800102D50E20BDE8FC81DC
:1059F000184C6946208980B2FBF7DCFB0028F5D102
:105A00000198400322D52089134C000420603720E0
:105A100060604027A760E6604FF48068C4F810809B
:105A2000204600F08FF83720FBF798F80028DDD1EA
:105A3000256006206060A760E660C4F810802046FC
:105A400000F080F80620FBF789F8CFE72520CDE7A6
:105A50000080014048000020302700200149886371
:105A60007047000000800140014908607047000055
:105A7000A0003042034A516821F0FF010143516008
:105A80007047000000800140014908607047000035
:105A90008C05304210B5094902684A6242688A6240
:105AA000CA6A22F0F702D0E902342343D0E9044065
:105AB000044323431343CB6210BD00000080014028
:105AC00006480021016041608160C16041628162DD
:105AD000C162034A8263C1637047000000800140D5
