:020000040800F2
:1000000070D80020E10100086B4E0008B50E000812
:10001000694E0008DD0700082D6E00080000000092
:100020000000000000000000000000005D67000804
:10003000DF0A000800000000E54E0008B169000872
:10004000FB010008FB010008FB010008FB010008A0
:10005000FB010008FB010008FB010008FB01000890
:10006000FB010008FB010008FB010008FB01000880
:10007000FB010008FB010008FB010008FB01000870
:10008000FB010008FB010008FB010008FB01000860
:10009000FB010008FB010008FB010008FB01000850
:1000A000FB010008FB010008FB010008FB01000840
:1000B000FB010008056A0008FB010008FB010008BD
:1000C000FB010008FB010008FB010008FB01000820
:1000D000FB0100088D6B0008FB010008F56B0008B0
:1000E000FB010008FB010008FB010008FB01000800
:1000F000FB010008FB010008FB010008FB010008F0
:10010000FB01000859510008FB010008FB01000831
:10011000FB010008FB010008FB010008FB010008CF
:10012000FB010008FB010008FB010008FB010008BF
:1001300000F002F800F045F80AA090E8000C8244B4
:100140008344AAF10107DA4501D100F03AF8AFF291
:10015000090EBAE80F0013F0010F18BFFB1A43F0A5
:100160000103184740C3000060C30000103A24BFD9
:1001700078C878C1FAD8520724BF30C830C144BF0C
:1001800004680C607047000000230024002500264E
:10019000103A28BF78C1FBD8520728BF30C148BFEA
:1001A0000B607047642900F0CB80782900F004814F
:1001B000632900F0BF82002070471FB51FBD10B536
:1001C00010BD00F0D9FA1146FFF7F7FF08F082FAE8
:1001D00000F0F7FA03B4FFF7F2FF03BC06F082FF6A
:1001E0000948804709480047FEE7FEE7FEE7FEE7CB
:1001F000FEE7FEE7FEE7FEE7FEE7FEE70448054907
:10020000054A064B70470000B56900083101000837
:1002100070D2002070D8002070D4002070D400204C
:10022000704710B54C1084EA530404D54042C1F124
:10023000000138BF491E1B4204D55242C3F10003DE
:1002400038BF5B1E00F083F914F0804F04D04042A9
:10025000C1F1000138BF491E14F0004F04D05242D2
:10026000C3F1000338BF5B1E10BD00000FB404498A
:1002700010B503AA029800F069FA10BC5DF814FBEF
:100280003C0000202DE9F0410E460446002020628B
:100290002046E168884730B3252805D0D4E90121FC
:1002A0009047206A401CF2E7E16820460027884713
:1002B000050018D0A5F14100192802D820354FF4C7
:1002C00000673246294620462760FFF76BFF40B1A2
:1002D000012804D0F61D26F007060836D8E7361D9B
:1002E000D6E72846DAE7206ABDE8F08170B50C460B
:1002F0000546012A05D02878800600D5EA69002342
:1003000002E0012305E05B1C934202D2E05C00287E
:10031000F9D1A869E618C01AA861286A18442862A9
:100320002846AFF3008004E0D5E9012114F8010B61
:100330009047B442F8D32846AFF3008070BD000068
:100340002DE9F0410646002410687529314616A5AE
:1003500010D0AFF30080002802DA404213A507E076
:1003600031688A0701D512A502E0490704D511A515
:10037000012401E0AFF3008000210A2206F12407E6
:1003800009E0B0FBF2FCB0FBF2F302FB1C003030E2
:1003900078541846491C0028F3D123462A46304693
:1003A000BDE8F04100F04AB9000000002D00000057
:1003B0002B0000002000000070B504460D462146C9
:1003C0001068AFF300802188090502D50F4A7A44EE
:1003D00002E00E4A7A440E32002104F1240305E0C3
:1003E00000F00F060009965D5E54491C0028F7D105
:1003F00020780023000704D5702D02D009B1022314
:1004000011322046BDE8704000F018B9A8C00000C5
:1004100040EA0103024630B59B0710D14FF001348A
:1004200000E008C208C91D1B9D4315EAC41FF8D08F
:1004300013F0FF0102F8011B0DD01B0AF8E711F8B9
:10044000013B002B02F8013B05D011F8013B002BCA
:1004500002F8013BF3D130BD032A40F2308010F0A6
:10046000030C00F0158011F8013BBCF1020F62444F
:1004700098BF11F801CB00F8013B38BF11F8013BE0
:10048000A2F1040298BF00F801CB38BF00F8013B8D
:1004900011F0030300F02580083AC0F0088051F8FD
:1004A000043B083A51F804CBA0E80810F5E7121D08
:1004B0005CBF51F8043B40F8043BAFF30080D20727
:1004C00024BF11F8013B11F801CB48BF11F8012BF3
:1004D00024BF00F8013B00F801CB48BF00F8012B16
:1004E000704710B5203AC0F00B80B1E81850203AA0
:1004F000A0E81850B1E81850A0E81850BFF4F5AFC4
:100500005FEA027C24BFB1E81850A0E8185044BF4D
:1005100018C918C0BDE810405FEA827C24BF51F8BA
:10052000043B40F8043B08BF7047D20728BF31F8AE
:10053000023B48BF11F8012B28BF20F8023B48BFFF
:1005400000F8012B7047704770477047704753EAB7
:10055000020C00F069802DE9F04B4FF00006002BF3
:100560001FBFB3FA83F503FA05F424FA05F65E40DB
:1005700012BF1643B2FA82F502FA05F4C5F120055E
:100580001EBF22FA05FC44EA0C04203556EA044C4E
:100590004FEA144418BF641C4FF000084FF00009E4
:1005A000904271EB030C39D3002919BFB1FA81F7DE
:1005B00001FA07F6B0FA80F700FA07F6C7F120074C
:1005C0001EBF20FA07FC46EA0C062037B6FBF4FCF7
:1005D000A7EB0507103F07F01F0BCBF120060CFA25
:1005E0000BFB2CFA06F644BFB3460026202FA4BF0F
:1005F0005E464FF0000B5BEA060C08BF4FF0010BA4
:1006000019EB0B09ABFB027C48EB0608C01B06FB91
:1006100002CC0BFB03CC71EB0C01C1E70B4602468D
:1006200041464846BDE8F08B13B54FF000004FF04F
:100630000001AFF30080BDE81C4070472DE9F04792
:100640000D4699469246044600F124080168880642
:1006500004D5E06921F01001216000E00120A842EA
:1006600001DD471B00E00027A1697A1902EB0900B0
:10067000081AA0612078C00602D42046AFF300809B
:10068000002608E0D4E901211AF806009047206A04
:10069000401C761C20624E45F4DB2078C0060AD54B
:1006A0002046AFF3008006E0D4E9012130209047D6
:1006B000206A401C2062381EA7F10107F4DC07E025
:1006C000D4E9012118F805009047206A401C2062F7
:1006D000281EA5F10105F3DC2046AFF30080207849
:1006E000000602D50220BDE8F0870120FBE70000EC
:1006F00001694A1C02610878704700B58FB0CDE9E6
:1007000001310021059105497944CDE903101146D5
:100710006846FFF7B7FD0FB000BD0000E5FFFFFF23
:1007200010B5436913B1AFF3008001E0FFF7DEFDC0
:10073000012010BD127800F124010A7000224A70D5
:100740000122EDE711684FF0FF32E9E7074B70B582
:100750000D467B44FFF7D1FF0446284600F008F819
:1007600010B14FF0FF3070BD204670BD937D00008A
:10077000007B00F080007047754600F02BF8AE4615
:1007800005006946534620F00700854618B020B59D
:10079000FFF734FDBDE820404FF000064FF00007A2
:1007A0004FF000084FF0000B21F00701AC46ACE819
:1007B000C009ACE8C009ACE8C009ACE8C0098D4686
:1007C000704710B50446AFF300802046BDE81040E6
:1007D000FFF700BD004870470CD20020FEE770B55F
:1007E00000254FF4803403E0802004F0A3FC10B90E
:1007F000641E601CF8D12CB140F2FF5004F056FC8E
:10080000284670BD032070BD70B50546114C616B64
:1008100011F0450FFBD0042004F08CFC20B1042023
:1008200004F044FC032070BD012004F083FC20B1DF
:10083000012004F03BFC012070BD2069A84201D0DA
:10084000102070BD40F2FF50A063606900F0080006
:1008500070BD00000080014010B500244FF48031CD
:100860000F4B03E05A6B12F0450F02D1491E481C92
:10087000F8D109B1500705D50324042004F016FC73
:10088000204610BD012004F055FC18B101240120C0
:1008900004F00CFC40F2FF5004F008FC204610BDB0
:1008A0000080014010B50A49486B10F0450FFBD09D
:1008B000042004F03FFC20B1042004F0F7FB0320E7
:1008C00010BD40F2FF5004F0F1FB002010BD00000D
:1008D000008001402DE9F04107460D4600261B4CE3
:1008E000626B12F0450FFBD0042004F023FC28B10A
:1008F000042004F0DBFB0320BDE8F081012004F0BC
:1009000019FC20B1012004F0D1FB0120F4E720699B
:10091000B84201D01020EFE740F2FF5004F0C6FBD0
:10092000626912F4604F03D0900405D51320E3E709
:10093000100C28803046DFE7500401D51020DBE79B
:10094000100401D50F20D7E73046D5E700800140DD
:1009500010B500244FF480320C4B03E0596B11F0BA
:10096000450F02D1521E501CF8D10AB1480705D5D7
:100970000324042004F09AFB204610BD480603D54A
:100980000024402004F092FB204610BD008001406E
:10099000002904D0016841F001010160704701683D
:1009A0004FF6FE72114001607047000001684FF67B
:1009B000FE72114001600021016041608160C160F0
:1009C0003649364A0839904204D1486840F00F0051
:1009D00048607047314A1432904204D1486840F070
:1009E000F000486070472D4A2832904204D1486890
:1009F00040F4706048607047284A3C32904204D10D
:100A0000486840F4704048607047244A5032904231
:100A100004D1486840F47020486070471F4A64322F
:100A2000904204D1486840F47000486070471B4A07
:100A30007832904204D1486840F070604860704756
:100A4000174A111F904204D1086840F00F00086057
:100A50007047134A1432904204D1086840F0F00005
:100A6000086070470E4A2832904204D1086840F46A
:100A70007060086070470A4A3C32904204D10868AE
:100A800040F4704008607047054A50329042FAD1F5
:100A9000086840F4702008607047000008000240B9
:100AA0000804024030B5026847F6F0739A430C6AB6
:100AB0008B682343D1E904452C4323438C692343AA
:100AC000CC6923434C6A23438C6A2343134303605A
:100AD000CA6842600A6882604968C16030BD704778
:100AE0008000A0F1C040002904D0016841F001015C
:100AF000016070470168024A1140016070470000C0
:100B0000FEFF0F0010B5D0E901121143D0E9032315
:100B10001A4311434269114382691143C269114367
:100B2000026A1143426A1143826A1143C26A114345
:100B3000026B114302689200A2F1C0421160816809
:100B4000082907D101688900A1F1C0410A6842F073
:100B500040020A60416BD1E9002342EA03128B682C
:100B60008C891B0243EA04431A430B8A42EA03526C
:100B70000B7D896942EA03620A430168491C8900C6
:100B8000A1F1C0410A60C16AB1F5804F08D0006888
:100B90006FF070418000A0F1C040C0F8041110BD9A
:100BA000816BD1E9002342EA03128B680C8A1B0295
:100BB00043EA04531A430B7D896942EA03620068E1
:100BC0000A438000A0F1C040C0F8042110BD00001D
:100BD0002DE9FC470E460024002700970197584D49
:100BE0004FF0080AC5F800A0102068604FF04009D7
:100BF000C5F80890EF604FF48068C5F8108028466B
:100C000004F0C8FA1020FFF7FFFD002832D14D484C
:100C100000890004286037206860C5F80890EF60FC
:100C2000C5F81080284604F0B5FA3720FFF7ECFD30
:100C300000281FD1411E05F114000160C0F804A076
:100C4000302181600221C16007610121416104F00E
:100C500049FA2F6033206860C5F80890EF60C5F846
:100C60001080284604F096FA3320FFF7CDFD0546A4
:100C7000280001D0BDE8FC874FF4001A6F46DFF86A
:100C8000C88040F22A690AE0504604F053FA30B1B5
:100C900004F07AFA47F82400641C022C04D2D8F835
:100CA000340010EA090FEFD0082004F043FA20B115
:100CB000082004F0FBF90420DCE7022004F03AFAF3
:100CC00020B1022004F0F2F90220D3E7202004F042
:100CD00031FA20B1202004F0E9F90620CAE74FF4E8
:100CE0000074204604F026FA20B1204604F0DEF914
:100CF0000720BFE740F2FF5004F0D8F900980099B0
:100D0000000601F47F4140EA0120009901F47F01CF
:100D100040EA1120009940EA116070600198019941
:100D2000000601F47F4140EA0120019901F47F01AE
:100D300040EA1120019940EA11603060284699E7A5
:100D40006024002020000020008001402DE9F041B7
:100D50000022CC7804F00F03E40601D58C782343FD
:100D60000C784FF00F0714F0FF0F4FF0010C1CD060
:100D700005680CFA02F40E882640A64211D19600AE
:100D800007FA06F825EA080503FA06F848EA050511
:100D9000CE78282E02D0482E02D002E0446100E036
:100DA0000461521C082AE4D305600A88FF2A1ED970
:100DB0004568002202F108060CFA06F40E88264067
:100DC000A64210D1960007FA06F825EA080503FAAC
:100DD00006F848EA0505CE78282E00D14461CE7881
:100DE000482E00D10461521C082AE3D34560BDE8B7
:100DF000F0810246002092680A4200D0012070472C
:100E0000416170470161704730B40546084613469A
:100E1000590701D0012100E0002101EBD301594322
:100E2000CAB22C786978812C0AD3402908D3FF29CB
:100E300006D0FF2C04D07F290DD24039CDB20CE072
:100E40000021002303E000F8013B491CC9B2914294
:100E5000F9D330BC70474139CDB2813CE1B2C1EB2E
:100E6000411404EB811105EB41015143104C0C2B53
:100E70000BD0102B0FD0182B13D0202BE9D1D4F886
:100E8000213030BC194406F027B8D4F8093030BC02
:100E9000194406F021B8D4F8113030BC194406F0DA
:100EA0001BB8D4F8193030BC194406F015B800004E
:100EB000E0D10020FEE772B6704762B670470000CE
:100EC0007CB505460022019200921E481E49008909
:100ED000000408600D20486040208860CA6000015E
:100EE0000861084604F056F9184C606B009001E068
:100EF000616B0091009911F0450FF9D0012004F0C9
:100F000019F920B1012004F0D1F801207CBD0420A2
:100F100004F010F920B1042004F0C8F803207CBDCF
:100F200020690D2801D010207CBD40F2FF5004F054
:100F3000BDF8606901900198C0F34320287000203B
:100F40007CBD0000200000206024002000800140C3
:100F500008B50121442003F0F1FF1820ADF800008E
:100F600048208DF8030069460648FFF7EFFE012090
:100F7000ADF8000028208DF8030069460248FFF70D
:100F8000E5FE08BD00180140000801402DE9F041D0
:100F90000125254C002800D025702078234E244FB1
:100FA00078B110213846FFF724FF88B10821384670
:100FB000FFF71FFF60B101213046FFF71AFF01283C
:100FC00006D010213846FFF714FF01281DD028E075
:100FD0000A2006F0C3FA0020207010213846FFF7DF
:100FE00008FF58B108213846FFF703FF48B1012137
:100FF0003046FFF7FEFE012805D012E00120BDE8D3
:10100000F0810220FBE70320F9E708213846FFF7CB
:10101000F0FE012805D101213046FFF7EAFE00B9B4
:1010200025700020EBE700001800002000080140B8
:10103000001801402DE9F04306460024174F388878
:101040007D884543B888A0F5D041043902D1B879EC
:10105000012807D00021084603F0A6FD03F0F2FEA8
:101060000F4916E00020B8714FF02A09A7F80A903E
:101070004FF02B08A7F80C800021084603F094FDE0
:101080000120B871A7F80A80A7F80C90E6E70E8057
:10109000641CAC42FBD3BDE8F08300003814002090
:1010A0000008006C2DE9F04F4D492A232B24898834
:1010B00045F2105C4FF430584FF428594FF44875FE
:1010C0004FF0F00A49F2413B4FF4A07745F2103659
:1010D0004FF4F072002810D041484FF0010E80F814
:1010E00006E00780A0F802A0594501D0B14240D1E6
:1010F0002C250581438184815CE039484FF0000E46
:1011000080F806E0A0F800A04780594506D0A1F578
:10111000D04ABAF1040A01D0B1420CD12C25058184
:1011200043818481A1F5D043043B01D0B14249D130
:101130000780428046E0614509D1A0F80880A0F808
:101140000A904FF42C518181028045803AE0A1F54C
:10115000C856633E06D022210181202141812121F0
:1011600081812FE02C21018144818381028045808F
:1011700028E0A1F5D04ABAF1040A0BD061450ED19E
:10118000A0F80880A0F80A904FF42C5383810580C2
:1011900042800FE02C250581448183810AE0A1F57E
:1011A000C85CBCF1630C12D022230381212343814C
:1011B00020238381A1F5D043043B01D0B14201D16A
:1011C00002804780BDE8F04F062003F0E1BB4FF0FE
:1011D0002C0CA0F808C04381848105804280E9E797
:1011E000381400202DE9F04103460C4690464C4F40
:1011F000220A3846B9881D0A4089A1F51346413EA6
:1012000019D0A1F5A646103E15D0A1F5AA46103E6C
:1012100023D03D46A1F5C85CAE792D88ED1A6D1E30
:10122000BCF1630C35D0A1F5D04CBCF1040C51D00D
:10123000012E64D064E003F0FFFD284603F0F6FDC4
:10124000D8B203F0F3FDB88903F0F6FD104603F0C1
:10125000EDFDE0B203F0EAFD59E003F0EDFD2846B4
:1012600003F0E4FD7889401C80B203F0E5FDD8B2BC
:1012700003F0DCFDB88903F0DFFD104603F0D6FD76
:10128000B889401C80B203F0D7FDE0B203F0CEFD78
:101290003DE006B9ABB203F0CFFD1D0A284603F0CE
:1012A000C5FDD8B203F0C2FD284603F0BFFDD8B299
:1012B00003F0BCFDB88903F0BFFD104603F0B6FD96
:1012C000E0B203F0B3FD104603F0B0FDE0B203F06E
:1012D000ADFD1CE0012E00D1ABB203F0ADFD180A4C
:1012E00003F0A4FDD8B203F0A1FDB88903F0A4FD7A
:1012F000104603F09BFDE0B203F098FD07E0ABB2AF
:10130000194603F0A9FDB889214603F0A5FD05495A
:1013100038890880881CA0F80080BDE8F0810000B2
:1013200038140020FE07006C2DE9F04F9FB001211A
:101330000D02284603F0D8FD01214FF4B47003F0EC
:10134000FDFD4FF00108ADF8788010278DF87B7017
:1013500003248DF87A401EA9FE48FFF7F7FC4CF2F3
:101360003370ADF8780018268DF87B608DF87A40E0
:101370001EA9F948FFF7EAFC4FF68070ADF8780037
:101380008DF87B608DF87A401EA9F448FFF7DEFCEB
:1013900041F20100ADF878008DF87B608DF87A405D
:1013A0001EA9EF48FFF7D2FCCDF82080002009905D
:1013B0000F210A910B900C900D900E9001900290CD
:1013C0000394049005900690079006210F911090C9
:1013D0001190129713901590149016901790290160
:1013E0001891199089001A911B9008A81C9001A8C7
:1013F0001D900FA8FFF786FB01210620FFF770FB69
:10140000322006F0ABF8002003F092FAD54CA08011
:1014100049F2413946F6040A45F2103B45F21056AE
:101420004FF6FF77FF2804D3B84202D0B0F5134F30
:1014300078D1D32003F000FD03F070FAA08003F010
:101440006DFAA08003F06AFA07EA0020A08003F09A
:1014500065FAA1880843A080484563D0BF2003F007
:10146000EBFC03F05BFAA08003F058FAA08003F0D5
:1014700055FAA08003F052FA07EA0020A08003F09A
:101480004DFAA1880843A08050454BD0D42003F0EA
:10149000D3FC03F043FAA08003F040FAA08003F0ED
:1014A0003DFA07EA0020A08003F038FAA18808433B
:1014B000A080584536D04FF45A4003F0BDFC03F0ED
:1014C0002DFAA0804FF45B4003F0B6FC03F026FA3F
:1014D00007EA0020A0804FF45C4003F0ADFC03F06D
:1014E0001DFAA1880843A080B0F5004F00D1A68066
:1014F000A088B04216D0A12003F09EFC03F00EFAA3
:10150000A08003F00BFA07EA0020A08003F006FA9F
:10151000A1880843A080A0F5AE41613902D141F60F
:101520006310A080A18890A0FEF7A0FEA088484587
:101530007ED1CF2003F080FC002003F077FCC12097
:1015400003F074FC302003F071FCED2003F074FC18
:10155000642003F06BFC032003F068FC122003F00E
:1015600065FC812003F062FCE82003F065FC852027
:1015700003F05CFC102003F059FC7A2003F056FCC9
:10158000CB2003F059FC392003F050FC2C2003F051
:101590004DFC002003F04AFC342003F047FC0220FD
:1015A00003F044FCF72003F047FC202003F03EFC4E
:1015B000EA2003F041FC002003F038FC002003F097
:1015C00035FCC02003F038FC1B2003F02FFCC120A9
:1015D00003F032FC012003F029FCC52003F02CFCB1
:1015E000302003F023FC302003F020FCC72003F060
:1015F00023FCB72003F01AFC362003F01DFC482022
:1016000003F014FC3A2003F017FC552003F00EFC05
:10161000B12003F011FC002003F008FC1A2003F0B5
:1016200005FCB62003F008FC0A2003F0FFFB00E0F5
:10163000AAE0A22003F0FAFBF22003F0FDFB002059
:1016400003F0F4FB262003F0F7FB012003F0EEFB90
:10165000E02003F0F1FB0F2003F0E8FB2A2003F069
:10166000E5FB282003F0E2FB082003F0DFFB0E205F
:1016700003F0DCFB082003F0D9FB542003F0D6FB79
:10168000A92003F0D3FB432003F0D0FB0A2003F092
:10169000CDFB0F2003F0CAFB002003F0C7FB0020A6
:1016A00003F0C4FB002003F0C1FB002003F0BEFBED
:1016B000E12003F0C1FB002003F0B8FB152003F08C
:1016C000B5FB172003F0B2FB072003F0AFFB11209E
:1016D00003F0ACFB062003F0A9FB2B2003F0A6FBD4
:1016E000562003F0A3FB3C2003F0A0FB052003F0F1
:1016F0009DFB102003F09AFB0F2003F097FB3F2087
:1017000003F094FB3F2003F091FB0F2003F08EFBCE
:101710002B2003F091FB002003F088FB002003F056
:1017200085FB012003F082FB3F2003F07FFB2A2092
:1017300003F082FB002003F079FB002003F076FB2E
:10174000002003F073FBEF2003F070FB112003F087
:1017500073FB11E0000C014000140140001801402F
:101760000020014038140020204C43442049443AD2
:1017700025780D0A00000000782005F0EFFE2920F2
:1017800003F05AFB03F0BCB850457CD1112003F0A4
:1017900053FB142005F0E2FED02003F04DFB0720A0
:1017A00003F044FB422003F041FB1D2003F03EFB0D
:1017B000D12003F041FB002003F038FB1A2003F096
:1017C00035FB092003F032FBD22003F035FB01206A
:1017D00003F02CFB222003F029FBC02003F02CFB9C
:1017E000102003F023FB3B2003F020FB002003F03C
:1017F0001DFB022003F01AFB112003F017FBC5208C
:1018000003F01AFB032003F011FBC82003F014FBC4
:10181000002003F00BFB252003F008FB212003F040
:1018200005FB052003F002FB002003F0FFFA0A206D
:1018300003F0FCFA652003F0F9FA252003F0F6FA2C
:10184000772003F0F3FA502003F0F0FA0F2003F0B2
:10185000EDFA002003F0EAFAF82003F0EDFA012097
:1018600003F0E4FAFE2003F0E7FA002003F0DEFACA
:10187000022003F0DBFA202003F0DEFA362003F02A
:10188000DBFA082000E02CE003F0D0FA3A2003F065
:10189000D3FA552003F0CAFA2B2003F0CDFA00202A
:1018A00003F0C4FA002003F0C1FA012003F0BEFAED
:1018B0003F2003F0BBFA2A2003F0BEFA002003F019
:1018C000B5FA002003F0B2FA012003F0AFFADF20EE
:1018D00003F0ACFA782005F041FE292003F0ACFAC1
:1018E00050E758457ED1ED2003F0A6FA012003F021
:1018F0009DFAFE2003F09AFAEE2003F09DFADE2016
:1019000003F094FA212003F091FAF12003F094FA05
:10191000012003F08BFADF2003F08EFA102003F091
:1019200085FAC42003F088FA8F2003F07FFAC620DE
:1019300003F082FA002003F079FAE22003F076FA4D
:10194000E22003F073FAE22003F070FABF2003F004
:1019500073FAAA2003F06AFAB02003F06DFA0D20A2
:1019600003F064FA002003F061FA0D2003F05EFA40
:10197000002003F05BFA112003F058FA002003F076
:1019800055FA192003F052FA002003F04FFA2120F3
:1019900003F04CFA002003F049FA2D2003F046FA38
:1019A000002003F043FA3D2003F040FA002003F04A
:1019B0003DFA5D2003F03AFA002003F037FA5D208B
:1019C00003F034FA002003F031FAB12003F034FAC6
:1019D000802003F02BFA002003F028FA8B2003F07C
:1019E00025FA00E0FDE3002003F020FA962003F042
:1019F0001DFA002003F01AFAB22003F01DFA0020AD
:101A000003F014FA002003F011FA022003F00EFA9A
:101A1000002003F00BFA032003F008FA002003F083
:101A200005FAB32003F008FA002003F0FFF90020C4
:101A300003F0FCF9002003F0F9F9002003F0F6F9B7
:101A4000002003F0F3F9002003F0F0F9002003F088
:101A5000EDF9002003F0EAF9002003F0E7F9002097
:101A600003F0E4F9002003F0E1F9002003F0DEF9CF
:101A7000002003F0DBF9002003F0D8F9002003F088
:101A8000D5F9002003F0D2F9002003F0CFF90020AF
:101A900003F0CCF9002003F0C9F9002003F0C6F9E7
:101AA000002003F0C3F9002003F0C0F9002003F088
:101AB000BDF9002003F0BAF9B42003F0BDF98B2082
:101AC00003F0B4F9002003F0B1F9962003F0AEF969
:101AD000002003F0ABF9A12003F0A8F9002003F0E7
:101AE000A5F9B52003F0A8F9022003F09FF9002022
:101AF00003F09CF9032003F099F9002003F096F914
:101B0000042003F093F9002003F090F9B62003F0CD
:101B100093F9002003F08AF9002003F087F9B72039
:101B200003F08AF9002003F081F9002003F07EF928
:101B30003F2003F07BF9002003F078F95E2003F0EA
:101B400075F9002003F072F9642003F06FF90020AA
:101B500003F06CF98C2003F069F9002003F066F9BA
:101B6000AC2003F063F9002003F060F9DC2003F0FF
:101B70005DF9002003F05AF9702003F057F90020B6
:101B800003F054F9902003F051F9002003F04EF9CE
:101B9000EB2003F04BF9002003F048F9DC2003F0C0
:101BA00045F9002003F042F9B82003F045F9002080
:101BB00003F03CF9002003F039F9002003F036F976
:101BC000002003F033F9002003F030F9002003F087
:101BD0002DF9002003F02AF9002003F027F9BA209C
:101BE00003F02AF9242003F021F9002003F01EF964
:101BF000002003F01BF9002003F018F9C12003F0C6
:101C00001BF9202003F012F9002003F00FF95420F3
:101C100003F00CF9002003F009F9FF2003F006F9A6
:101C2000002003F003F9C22003F006F90A2003F0B4
:101C3000FDF8002003F0FAF8042003F0F7F8002084
:101C400003F0F4F8C32003F0F7F83C2003F0EEF8BB
:101C5000002003F0EBF83A2003F0E8F8002003F04E
:101C6000E5F8392003F0E2F8002003F0DFF8372030
:101C700003F0DCF8002003F0D9F83C2003F0D6F89C
:101C8000002003F0D3F8362003F0D0F8002003F052
:101C9000CDF8322003F0CAF8002003F0C7F82F2057
:101CA00003F0C4F8002003F0C1F82C2003F0BEF8C4
:101CB000002003F0BBF8292003F0B8F8002003F05F
:101CC000B5F8262003F0B2F8002003F0AFF8242086
:101CD00003F0ACF8002003F0A9F8242003F0A6F8E4
:101CE000002003F0A3F8232003F0A0F8002003F065
:101CF0009DF83C2003F09AF8002003F097F8362076
:101D000003F094F8002003F091F8322003F08EF8ED
:101D1000002003F08BF82F2003F088F8002003F058
:101D200085F82C2003F082F8002003F07FF82920AA
:101D300003F07CF8002003F079F8262003F076F811
:101D4000002003F073F8242003F070F8002003F063
:101D50006DF8242003F06AF8002003F067F82320D0
:101D600003F064F8002003F061F8C42003F064F885
:101D7000622003F05BF8002003F058F8052003F020
:101D800055F8002003F052F8842003F04FF80020AB
:101D900003F04CF8F02003F049F8002003F046F877
:101DA000182003F043F8002003F040F8A42003F0CB
:101DB0003DF8002003F03AF8182003F037F800202F
:101DC00003F034F8502003F031F8002003F02EF82F
:101DD0000C2003F02BF8002003F028F8172003F064
:101DE00025F8002003F022F8952003F01FF80020CA
:101DF00003F01CF8F32003F019F8002003F016F8A4
:101E0000E62003F013F8002003F010F8C52003F0DB
:101E100013F8322003F00AF8002003F007F84420FA
:101E200003F004F8002003F001F8652002F0FEFF43
:101E3000002002F0FBFF762002F0F8FF002002F005
:101E4000F5FF882002F0F2FF002002F0EFFFC6202D
:101E500002F0F2FF202002F0E9FF002002F0E6FF8E
:101E6000172002F0E3FF002002F0E0FF012002F063
:101E7000DDFF002002F0DAFFC72002F0DDFF0020C6
:101E800002F0D4FF002002F0D1FF002002F0CEFFCC
:101E9000002002F0CBFFC82002F0CEFF002002F0AD
:101EA000C5FF002002F0C2FF002002F0BFFF0020AB
:101EB00002F0BCFFC92002F0BFFF002002F0B6FF15
:101EC000002002F0B3FF002002F0B0FF002002F07B
:101ED000ADFF002002F0AAFF002002F0A7FF0020C3
:101EE00002F0A4FF002002F0A1FF002002F09EFFFC
:101EF000002002F09BFF002002F098FF002002F07B
:101F000095FF002002F092FF002002F08FFF0020DA
:101F100002F08CFF002002F089FFE02002F08CFF2D
:101F2000162002F083FF002002F080FF1C2002F048
:101F30007DFF002002F07AFF212002F077FF0020D1
:101F400002F074FF362002F071FF002002F06EFFF5
:101F5000462002F06BFF002002F068FF522002F0E2
:101F600065FF002002F062FF642002F05FFF0020A6
:101F700002F05CFF7A2002F059FF002002F056FFC9
:101F80008B2002F053FF002002F050FF992002F056
:101F90004DFF002002F04AFFA82002F047FF00207A
:101FA00002F044FFB92002F041FF002002F03EFFA2
:101FB000C42002F03BFF002002F038FFCA2002F0EC
:101FC00035FF002002F032FFD22002F02FFF002068
:101FD00002F02CFFD92002F029FF002002F026FF9A
:101FE000E02002F023FF002002F020FFF32002F0A7
:101FF0001DFF002002F01AFFE12002F01DFF162055
:1020000002F014FF002002F011FF1C2002F00EFF6E
:10201000002002F00BFF222002F008FF002002F057
:1020200005FF362002F002FF002002F0FFFE4520EF
:1020300002F0FCFE002002F0F9FE522002F0F6FE53
:10204000002002F0F3FE642002F0F0FE002002F017
:10205000EDFE7A2002F0EAFE002002F0E7FE8B207F
:1020600002F0E4FE002002F0E1FE992002F0DEFE24
:10207000002002F0DBFEA82002F0D8FE002002F0D3
:10208000D5FEB92002F0D2FE002002F0CFFEC4201F
:1020900002F0CCFE002002F0C9FECA2002F0C6FE0B
:1020A000002002F0C3FED22002F0C0FE002002F0A9
:1020B000BDFED82002F0BAFE002002F0B7FEE020FC
:1020C00002F0B4FE002002F0B1FEF32002F0AEFEFA
:1020D000002002F0ABFEE22002F0AEFE052002F08E
:1020E000A5FE002002F0A2FE0B2002F09FFE0020C1
:1020F00002F09CFE1B2002F099FE002002F096FEEA
:10210000342002F093FE002002F090FE442002F002
:102110008DFE002002F08AFE4F2002F087FE002094
:1021200002F084FE612002F081FE002002F07EFEBB
:10213000792002F07BFE002002F078FE882002F079
:1021400075FE002002F072FE972002F06FFE002064
:1021500002F06CFEA62002F069FE002002F066FE8E
:10216000B72002F063FE002002F060FEC22002F001
:102170005DFE002002F05AFEC72002F057FE00204C
:1021800002F054FED12002F051FE002002F04EFE7B
:10219000D62002F04BFE002002F048FEDD2002F0C7
:1021A00045FE002002F042FEF32002F03FFE002038
:1021B00002F03CFEE32002F03FFE052002F036FE76
:1021C000002002F033FE0A2002F030FE002002F070
:1021D0002DFE1C2002F02AFE002002F027FE3320F4
:1021E00000E0FDE202F022FE002002F01FFE44208B
:1021F00002F01CFE002002F019FE502002F016FE34
:10220000002002F013FE622002F010FE002002F017
:102210000DFE782002F00AFE002002F007FE882062
:1022200002F004FE002002F001FE972002F0FEFD05
:10223000002002F0FBFDA62002F0F8FD002002F0D5
:10224000F5FDB72002F0F2FD002002F0EFFDC22004
:1022500002F0ECFD002002F0E9FDC72002F0E6FDEF
:10226000002002F0E3FDD12002F0E0FD002002F0AA
:10227000DDFDD52002F0DAFD002002F0D7FDDD20E3
:1022800002F0D4FD002002F0D1FDF32002F0CEFDDB
:10229000002002F0CBFDE42002F0CEFD012002F090
:1022A000C5FD002002F0C2FD012002F0BFFD0020AC
:1022B00002F0BCFD022002F0B9FD002002F0B6FDE4
:1022C0002A2002F0B3FD002002F0B0FD3C2002F015
:1022D000ADFD002002F0AAFD4B2002F0A7FD00207A
:1022E00002F0A4FD5D2002F0A1FD002002F09EFDA1
:1022F000742002F09BFD002002F098FD842002F083
:1023000095FD002002F092FD932002F08FFD002049
:1023100002F08CFDA22002F089FD002002F086FD73
:10232000B32002F083FD002002F080FDBE2002F009
:102330007DFD002002F07AFDC42002F077FD002030
:1023400002F074FDCD2002F071FD002002F06EFD60
:10235000D32002F06BFD002002F068FDDD2002F0CA
:1023600065FD002002F062FDF32002F05FFD002019
:1023700002F05CFDE52002F05FFD002002F056FD5A
:10238000002002F053FD002002F050FD002002F07A
:102390004DFD022002F04AFD002002F047FD2920F9
:1023A00002F044FD002002F041FD3C2002F03EFD21
:1023B000002002F03BFD4B2002F038FD002002F02F
:1023C00035FD5D2002F032FD002002F02FFD74206B
:1023D00002F02CFD002002F029FD842002F026FDF1
:1023E000002002F023FD932002F020FD002002F0E7
:1023F0001DFDA22002F01AFD002002F017FDB320FF
:1024000002F014FD002002F011FDBE2002F00EFDCE
:10241000002002F00BFDC42002F008FD002002F0B5
:1024200005FDCD2002F002FD002002F0FFFCD320CC
:1024300002F0FCFC002002F0F9FCDC2002F0F6FCCB
:10244000002002F0F3FCF32002F0F0FC002002F088
:10245000EDFCE62002F0F0FC112002F0E7FC002089
:1024600002F0E4FC342002F0E1FC002002F0DEFC8B
:10247000562002F0DBFC002002F0D8FC762002F0AF
:10248000D5FC002002F0D2FC772002F0CFFC002027
:1024900002F0CCFC662002F0C9FC002002F0C6FC71
:1024A000882002F0C3FC002002F0C0FC992002F05A
:1024B000BDFC002002F0BAFCBB2002F0B7FC0020FB
:1024C00002F0B4FC992002F0B1FC002002F0AEFC56
:1024D000662002F0ABFC002002F0A8FC552002F0C0
:1024E000A5FC002002F0A2FC552002F09FFC002079
:1024F00002F09CFC452002F099FC002002F096FCC2
:10250000432002F093FC002002F090FC442002F0F3
:102510008DFC002002F08AFCE72002F08DFC3220C6
:1025200002F084FC002002F081FC552002F07EFCC9
:10253000002002F07BFC762002F078FC002002F004
:1025400075FC662002F072FC002002F06FFC672030
:1025500002F06CFC002002F069FC672002F066FCCF
:10256000002002F063FC872002F060FC002002F0F3
:102570005DFC992002F05AFC002002F057FCBB20C1
:1025800002F054FC002002F051FC992002F04EFCB5
:10259000002002F04BFC772002F048FC002002F003
:1025A00045FC442002F042FC002002F03FFC562093
:1025B00002F03CFC002002F039FC232002F036FC43
:1025C000002002F033FC332002F030FC002002F047
:1025D0002DFC452002F02AFC002002F027FCE82018
:1025E00002F02AFC002002F021FC002002F01EFC78
:1025F000992002F01BFC002002F018FC872002F05A
:1026000015FC002002F012FC882002F00FFC0020D4
:1026100002F00CFC772002F009FC002002F006FC1E
:10262000662002F003FC002002F000FC882002F08B
:10263000FDFB002002F0FAFBAA2002F0F7FB0020CD
:1026400002F0F4FBBB2002F0F1FB002002F0EEFBF5
:10265000992002F0EBFB002002F0E8FB662002F07C
:10266000E5FB002002F0E2FB552002F0DFFB00203A
:1026700002F0DCFB552002F0D9FB002002F0D6FB73
:10268000442002F0D3FB002002F0D0FB442002F0F3
:10269000CDFB002002F0CAFB552002F0C7FB002052
:1026A00002F0C4FBE92002F0C7FBAA2002F0BEFB47
:1026B000002002F0BBFB002002F0B8FB002002F07B
:1026C000B5FB002002F0B8FBAA2002F0AFFBCF2040
:1026D00002F0B2FB002002F0A9FB002002F0A6FBF2
:1026E000002002F0A3FB002002F0A0FB002002F07B
:1026F0009DFB002002F09AFB002002F097FB0020D7
:1027000002F094FB002002F091FB002002F08EFB0F
:10271000002002F08BFB002002F088FB002002F07A
:1027200085FB002002F082FB002002F07FFB0020EE
:1027300002F07CFB002002F079FBF02002F07CFB31
:10274000002002F073FB502002F070FB002002F02A
:102750006DFB002002F06AFB002002F067FBF32013
:1027600002F06AFB002002F061FBF92002F064FB3A
:10277000062002F05BFB102002F058FB292002F03B
:1027800055FB002002F052FB3A2002F055FB552089
:1027900002F04CFB112002F04FFB642004F0DEFE3F
:1027A000292002F049FB352002F046FB002002F010
:1027B0003DFB512002F040FBFF2002F037FB53208D
:1027C00002F03AFB2C2002F031FB552002F034FBE2
:1027D000822002F02BFB2C2002F02EFB02F090B89E
:1027E000B0427DD14FF470435521184602F034FBBE
:1027F0004FF20104AA21204602F02EFB651C522153
:10280000284602F029FBA61C0821304602F024FBD2
:102810004FF204090121484602F01EFB0D214FF43E
:10282000304002F019FB0D214BF2010002F014FBC5
:102830000D214BF2020002F00FFB4FF4364A342117
:10284000504602F009FB34214BF2016002F004FB18
:1028500034214BF2026002F0FFFA4FF4314B0D21AC
:10286000584602F0F9FA0D214BF2011002F0F4FA89
:102870000D214BF2021002F0EFFA34214FF43740F1
:1028800002F0EAFA34214BF2017002F0E5FA342149
:102890004BF2027002F0E0FA00214FF4324002F0F5
:1028A000DBFA00214BF2012002F0D6FA00214BF2B4
:1028B000022002F0D1FA24214FF4384002F0CCFA81
:1028C00024214BF6010002F0C7FA24214BF6020046
:1028D00002F0C2FA01214FF43F4002F0BDFA00E0DD
:1028E000FDE30F214FF4334002F0B6FA0F214BF213
:1028F000013002F0B1FA0F214BF2023002F0ACFAD3
:1029000034214FF4394002F0A7FA34214BF601107C
:1029100002F0A2FA34214BF6021002F09DFA0821CF
:102920004FF4354002F098FA08214BF2015002F0C2
:1029300093FA08214BF2025002F08EFA03214FF471
:10294000424002F089FA24214FF43A4002F084FA1E
:1029500024214BF6012002F07FFA24214BF60220BD
:1029600002F07AFA00214FF43C4002F075FA782127
:102970004BF6014002F070FA00214BF6024002F0E3
:102980006BFA00214FF43D4002F066FA78214BF6D5
:10299000015002F061FA00214BF6025002F05CFA9D
:1029A00000214FF43E4002F057FA64214BF60160DB
:1029B00002F052FA00214FF4514002F04DFA332157
:1029C0004DF2011002F048FA00214DF2021002F01F
:1029D00043FA34214DF2031002F03EFA00214DF289
:1029E000041002F039FA3A214DF2051002F034FADF
:1029F00000214DF2061002F02FFA4A214DF2071085
:102A000002F02AFA00214DF2081002F025FA5C21AA
:102A10004DF2091002F020FA00214DF20A1002F0E6
:102A20001BFA81214DF20B1002F016FA00214DF233
:102A30000C1002F011FAA6214DF20D1002F00CFA62
:102A400000214DF20E1002F007FAE5214DF20F10B1
:102A500002F002FA01214DF2101002F0FDF91321EB
:102A60004DF2111002F0F8F901214DF2121002F0AE
:102A7000F3F954214DF2131002F0EEF901214DF259
:102A8000141002F0E9F982214DF2151002F0E4F978
:102A900001214DF2161002F0DFF9CA214DF2171094
:102AA00002F0DAF902214DF2181002F0D5F90021F6
:102AB0004DF2191002F0D0F902214DF21A1002F075
:102AC000CBF901214DF21B1002F0C6F902214DF2A3
:102AD0001C1002F0C1F934214DF21D1002F0BCF9B6
:102AE00002214DF21E1002F0B7F967214DF21F10BE
:102AF00002F0B2F902214DF2201002F0ADF984216A
:102B00004DF2211002F0A8F902214DF2221002F03C
:102B1000A3F9A4214DF2231002F09EF902214DF2F7
:102B2000241002F099F9B7214DF2251002F094F922
:102B300002214DF2261002F08FF9CF214DF227101D
:102B400002F08AF902214DF2281002F085F9DE2107
:102B50004DF2291002F080F902214DF22A1002F004
:102B60007BF9F2214DF22B1002F076F902214DF2A1
:102B70002C1002F071F9FE214DF22D1002F06CF9CB
:102B800003214DF22E1002F067F910214DF22F10A3
:102B900002F062F903214DF2301002F05DF93321A9
:102BA0004DF2311002F058F903214DF2321002F0CB
:102BB00053F96D214DF2331002F04EF900214FF41C
:102BC000524002F049F933214DF2012002F044F95C
:102BD00000214DF2022002F03FF934214DF2032092
:102BE00002F03AF900214DF2042002F035F93A21C1
:102BF0004DF2052002F030F900214DF2062002F0DE
:102C00002BF94A214DF2072002F026F900214DF25E
:102C1000082002F021F95C214DF2092002F01CF994
:102C200000214DF20A2002F017F981214DF20B200C
:102C300002F012F900214DF20C2002F00DF9A6214C
:102C40004DF20D2002F008F900214DF20E2002F0A5
:102C500003F9E5214DF20F2002F0FEF801214DF2BB
:102C6000102002F0F9F813214DF2112002F0F4F8CF
:102C700001214DF2122002F0EFF854214DF2132001
:102C800002F0EAF801214DF2142002F0E5F8822169
:102C90004DF2152002F0E0F801214DF2162002F06D
:102CA000DBF8CA214DF2172002F0D6F802214DF2CE
:102CB000182002F0D1F800214DF2192002F0CCF8D2
:102CC00002214DF21A2002F0C7F801214DF21B201B
:102CD00002F0C2F802214DF21C2002F0BDF83421AE
:102CE0004DF21D2002F0B8F802214DF21E2002F034
:102CF000B3F867214DF21F2002F0AEF802214DF229
:102D0000202002F0A9F884214DF2212002F0A4F83D
:102D100002214DF2222002F09FF8A4214DF223203F
:102D200002F09AF802214DF2242002F095F8B72122
:102D30004DF2252002F090F802214DF2262002F0FB
:102D40008BF8CF214DF2272002F086F802214DF2B8
:102D5000282002F081F8DE214DF2292002F07CF8D3
:102D600002214DF22A2002F077F8F2214DF22B20B9
:102D700002F072F802214DF22C2002F06DF8FE21D3
:102D80004DF22D2002F068F803214DF22E2002F0C2
:102D900063F810214DF22F2002F05EF803214DF26E
:102DA000302002F059F833214DF2312002F054F86E
:102DB00003214DF2322002F04FF86D214DF2332005
:102DC00002F04AF800214FF4534002F045F8332155
:102DD0004DF2013002F040F800214DF2023002F0D5
:102DE0003BF834214DF2033002F036F800214DF269
:102DF000043002F031F83A214DF2053002F02CF89F
:102E000000214DF2063002F027F84A214DF207303A
:102E100002F022F800214DF2083002F01DF85C218A
:102E20004DF2093002F018F800214DF20A3002F09C
:102E300013F881214DF20B3002F00EF800214DF213
:102E40000C3002F009F8A6214DF20D3002F004F822
:102E500000214DF20E3001F0FFFFE5214DF20F3061
:102E600001F0FAFF01214DF2103001F0F5FF1321BE
:102E70004DF2113001F0F0FF01214DF2123001F05E
:102E8000EBFF54214DF2133001F0E6FF01214DF22A
:102E9000143001F0E1FF82214DF2153001F0DCFF2A
:102EA00001214DF2163001F0D7FFCA214DF2173043
:102EB00001F0D2FF02214DF2183001F0CDFF0021C8
:102EC0004DF2193001F0C8FF02214DF21A3001F025
:102ED000C3FF01214DF21B3001F0BEFF02214DF274
:102EE0001C3001F0B9FF34214DF21D3001F0B4FF68
:102EF00002214DF21E3001F0AFFF67214DF21F306D
:102F000001F0AAFF02214DF2203001F0A5FF84213B
:102F10004DF2213001F0A0FF02214DF2223001F0EC
:102F20009BFFA4214DF2233001F096FF02214DF2C8
:102F3000243001F091FFB7214DF2253001F08CFFD4
:102F400002214DF2263001F087FFCF214DF22730CC
:102F500001F082FF02214DF2283001F07DFFDE21D9
:102F60004DF2293001F078FF02214DF22A3001F0B4
:102F700073FFF2214DF22B3001F06EFF02214DF272
:102F80002C3001F069FFFE214DF22D3001F064FF7D
:102F900003214DF22E3001F05FFF10214DF22F3052
:102FA00001F05AFF03214DF2303001F055FF33217B
:102FB0004DF2313001F050FF03214DF2323001F07B
:102FC0004BFF6D214DF2333001F046FF00214FF4ED
:102FD000544001F041FF33214DF2014001F03CFF2C
:102FE00000214DF2024001F037FF34214DF2034041
:102FF00001F032FF00214DF2044001F02DFF3A2193
:103000004DF2054001F028FF00214DF2064001F08D
:1030100023FF4A214DF2074001F01EFF00214DF22F
:10302000084001F019FF5C214DF2094001F014FF46
:1030300000214DF20A4001F00FFF81214DF20B40BB
:1030400001F00AFF00214DF20C4001F005FFA6211E
:103050004DF20D4001F000FF00214DF20E4001F055
:10306000FBFEE5214DF20F4001F0F6FE01214DF28D
:10307000104001F0F1FE13214DF2114001F0ECFE81
:1030800001214DF2124001F0E7FE54214DF21340B0
:1030900001F0E2FE01214DF2144001F0DDFE82213B
:1030A0004DF2154001F0D8FE01214DF2164001F01D
:1030B000D3FECA214DF2174001F0CEFE02214DF29F
:1030C000184001F0C9FE00214DF2194001F0C4FE84
:1030D00002214DF21A4001F0BFFE012100E001E3A0
:1030E0004DF21B4001F0B8FE02214DF21C4001F0F0
:1030F000B3FE34214DF21D4001F0AEFE02214DF22F
:103100001E4001F0A9FE67214DF21F4001F0A4FE10
:1031100002214DF2204001F09FFE84214DF221401A
:1031200001F09AFE02214DF2224001F095FEA42109
:103130004DF2234001F090FE02214DF2244001F0B7
:103140008BFEB7214DF2254001F086FE02214DF2A3
:10315000264001F081FECF214DF2274001F07CFE98
:1031600002214DF2284001F077FEDE214DF2294088
:1031700001F072FE02214DF22A4001F06DFEF221B3
:103180004DF22B4001F068FE02214DF22C4001F07F
:1031900063FEFE214DF22D4001F05EFE03214DF253
:1031A0002E4001F059FE10214DF22F4001F054FE47
:1031B00003214DF2304001F04FFE33214DF23140FA
:1031C00001F04AFE03214DF2324001F045FE6D212F
:1031D0004DF2334001F040FE00214FF4554001F024
:1031E0003BFE33214DF2015001F036FE00214DF23D
:1031F000025001F031FE34214DF2035001F02CFE5B
:1032000000214DF2045001F027FE3A214DF2055005
:1032100001F022FE00214DF2065001F01DFE4A2170
:103220004DF2075001F018FE00214DF2085001F058
:1032300013FE5C214DF2095001F00EFE00214DF20B
:103240000A5001F009FE81214DF20B5001F004FEFD
:1032500000214DF20C5001F0FFFDA6214DF20D5062
:1032600001F0FAFD00214DF20E5001F0F5FDE521CF
:103270004DF20F5001F0F0FD01214DF2105001F020
:10328000EBFD13214DF2115001F0E6FD01214DF24D
:10329000125001F0E1FD54214DF2135001F0DCFD1C
:1032A00001214DF2145001F0D7FD82214DF215504D
:1032B00001F0D2FD01214DF2165001F0CDFDCA21E1
:1032C0004DF2175001F0C8FD02214DF2185001F0E7
:1032D000C3FD00214DF2195001F0BEFD02214DF257
:1032E0001A5001F0B9FD01214DF21B5001F0B4FD5F
:1032F00002214DF21C5001F0AFFD34214DF21D5062
:1033000001F0AAFD02214DF21E5001F0A5FD67213A
:103310004DF21F5001F0A0FD02214DF2205001F0AE
:103320009BFD84214DF2215001F096FD02214DF2CA
:10333000225001F091FDA4214DF2235001F08CFDAB
:1033400002214DF2245001F087FDB7214DF22550A6
:1033500001F082FD02214DF2265001F07DFDCF21CA
:103360004DF2275001F078FD02214DF2285001F076
:1033700073FDDE214DF2295001F06EFD02214DF268
:103380002A5001F069FDF2214DF22B5001F064FD4D
:1033900002214DF22C5001F05FFDFE214DF22D5027
:1033A00001F05AFD03214DF22E5001F055FD102180
:1033B0004DF22F5001F050FD03214DF2305001F03D
:1033C0004BFD33214DF2315001F046FD03214DF20A
:1033D000325001F041FD6D214DF2335001F03CFDC2
:1033E00000214FF4564001F037FD33214DF20160CA
:1033F00001F032FD00214DF2026001F02DFD34217B
:103400004DF2036001F028FD00214DF2046001F04F
:1034100023FD3A214DF2056001F01EFD00214DF221
:10342000066001F019FD4A214DF2076001F014FD1C
:1034300000214DF2086001F00FFD5C214DF20960A2
:1034400001F00AFD00214DF20A6001F005FD812125
:103450004DF20B6001F000FD00214DF20C6001F017
:10346000FBFCA6214DF20D6001F0F6FC00214DF2AF
:103470000E6001F0F1FCE5214DF20F6001F0ECFC73
:1034800001214DF2106001F0E7FC13214DF21160B3
:1034900001F0E2FC01214DF2126001F0DDFC54214B
:1034A0004DF2136001F0D8FC01214DF2146001F0DF
:1034B000D3FC82214DF2156001F0CEFC01214DF2CA
:1034C000166001F0C9FCCA214DF2176001F0C4FC7E
:1034D00002214DF2186001F0BFFC00214DF219608D
:1034E00001F0BAFC02214DF21A6001F0B5FC012195
:1034F0004DF21B6001F0B0FC02214DF21C6001F0A6
:10350000ABFC34214DF21D6001F0A6FC02214DF20E
:103510001E6001F0A1FC67214DF21F6001F09CFCD0
:1035200002214DF2206001F097FC84214DF22160D0
:1035300001F092FC02214DF2226001F08DFCA421E9
:103540004DF2236001F088FC02214DF2246001F06D
:1035500083FCB7214DF2256001F07EFC02214DF283
:10356000266001F079FCCF214DF2276001F074FC58
:1035700002214DF2286001F06FFCDE214DF229603E
:1035800001F06AFC02214DF22A6001F065FCF22193
:103590004DF22B6001F060FC02214DF22C6001F035
:1035A0005BFCFE214DF22D6001F056FC03214DF233
:1035B0002E6001F051FC10214DF22F6001F04CFC07
:1035C00003214DF2306001F047FC33214DF23160B0
:1035D00001F042FC03214DF2326001F03DFC6D210F
:1035E0004DF2336001F038FC5521184601F034FCEF
:1035F000AA21204601F030FC5221284601F02CFC83
:103600000821304601F028FC0021484601F024FC46
:10361000CC21584601F020FC00214BF2011001F0B2
:103620001BFC0521504601F017FC70214FF4374078
:1036300001F012FC70214BF2017001F00DFC012130
:103640004FF4384001F008FC03214BF6010001F073
:1036500003FC03214BF6020001F0FEFB03214BF6B5
:10366000030001F0F9FB02214FF43C4001F0F4FBB0
:1036700000214BF6014001F0EFFB00214BF6024028
:1036800001F0EAFBD0214FF4494001F0E5FB0221B3
:103690004CF6011001F0E0FB50214CF6021001F055
:1036A000DBFB50214CF6031001F0D6FB50214CF609
:1036B000041001F0D1FB00214FF4545001F0CCFB79
:1036C00055214FF4685001F0C7FB4FF4885001F0CA
:1036D000B3FB782003F05CFF4FF4245001F0ACFB07
:1036E00001F00EB9A0F513414FF4E06640F2022953
:1036F00040F23F1A4FF4274B25392BD0F41DA0F58B
:10370000134128397ED0A0F513414FF41C5B2039BA
:1037100079D0A0F51341313976D0A0F5A841083908
:1037200073D0A0F5A851053970D0A0F53541053901
:103730006DD0A0F5454105396AD0A0F58A413139EF
:1037400067D0A0F58A4135397ED0A0F5C8516339DC
:103750007BD0C5E747F6F001E52001F07DFB294667
:10376000012001F079FB3146022001F075FB41F2A6
:103770003001032001F070FB0021042001F06CFBFC
:103780004946082001F068FB0021092001F064FB94
:1037900000210A2001F060FB00210C2001F05CFBFD
:1037A00000210D2001F058FB00210F2001F054FBF7
:1037B0000021102001F050FB0721112001F04CFBEB
:1037C0000021122001F048FB0021132001F044FBEE
:1037D0000021072001F040FB41F29061102001F030
:1037E0003BFB40F22721112001F036FB9D211220E6
:1037F00001F032FB4FF4C851132001F02DFB2521BD
:10380000292007E083E06FE115E2EFE28CE3FDE3BE
:10381000FDE3FDE301F020FB0D212B2001F01CFB5B
:103820000721302001F018FB40F20331312001F074
:1038300013FB0321322001F00FFB40F2062135205B
:1038400001F00AFB082101E0FEE3FEE3362001F06F
:1038500003FB40F20641372001F0FEFA4FF44171BC
:10386000382001F0F9FA0721392001F0F5FA40F289
:1038700002613C2001F0F0FA08213D2001F0ECFA51
:103880000021502001F0E8FAEF21512001F0E4FA84
:103890000021522001F0E0FA5146532001F0DCFAF9
:1038A0005946602001F0D8FA0121612001F0D4FAD4
:1038B00000216A2001F0D0FA0021802001F0CCFA2A
:1038C0000021812001F0C8FA0021822001F0C4FA11
:1038D0000021832001F0C0FA0021842001F0BCFA0D
:1038E0000021852001F0B8FA1021902001F0B4FAEF
:1038F0004FF4C061922001F0AFFA40F2331107207B
:1039000001F0AAFA2221002001F0A6FAE8E641F22D
:103910008F01EC2001F0A0FA41F23421EF2001F0F8
:103920009BFA2946012001F097FA3146022001F066
:1039300093FA41F23001032001F08EFA00210420B5
:1039400001F08AFA4946082001F086FA0021092090
:1039500001F082FA00210A2001F07EFA01210C20F8
:1039600001F07AFA00210D2001F076FA00210F20F3
:1039700001F072FA0021102001F06EFA07211120E7
:1039800001F06AFA0021122001F066FA00211320EA
:1039900001F062FA0121072001F05EFA322003F003
:1039A000DDFD41F29041102001F056FA40F227214E
:1039B000112001F051FA322003F0D0FD8A211220AB
:1039C00001F04AFA322003F0C9FD4FF4D051132020
:1039D00001F042FA0621292001F03EFA0D212B20A8
:1039E00001F03AFA322003F0B9FD0021202001F065
:1039F00033FA0021212001F02FFA322003F0AEFD2E
:103A00000021302001F028FA40F20461312001F059
:103A100023FA40F20531322001F01EFA0021352050
:103A200001F01AFA40F60941362001F015FA4FF478
:103A30000171372001F010FA40F20131382001F015
:103A40000BFA2146392001F007FA00213C2001F051
:103A500003FA40F60A213D2001F0FEF9322003F07E
:103A60007DFD0021502001F0F7F9EF21512001F0F8
:103A7000F3F90021522001F0EFF95146532001F0F3
:103A8000EBF95946602001F0E7F90121612001F0CE
:103A9000E3F900216A2001F0DFF90021802001F024
:103AA000DBF90021812001F0D7F90021822001F00B
:103AB000D3F90021832001F0CFF90021842001F007
:103AC000CBF90021852001F0C7F91021902001F0E9
:103AD000C3F94FF4C061922001F0BEF940F23311F6
:103AE000072001F0B9F9FBE50021084601F0B4F91F
:103AF0002946012001F0B0F93146022001F0ACF96D
:103B000041F23001032001F0A7F90021042001F067
:103B1000A3F94946082001F09FF90021092001F08E
:103B20009BF900210A2001F097F901210C2001F0F6
:103B300093F900210D2001F08FF900210F2001F0F1
:103B40008BF9322003F00AFD40F20111072001F049
:103B500083F9322003F002FD4FF48651102001F06A
:103B60007BF90721112001F077F94FF4887319468A
:103B7000122001F071F94FF43061132001F06CF95B
:103B80000021292001F068F944F210012B2001F0F6
:103B900063F90021502001F05FF9EF21512001F07D
:103BA0005BF90021522001F057F95146532001F0F2
:103BB00053F95946602001F04FF90121612001F0CD
:103BC0004BF900216A2001F047F90021802001F023
:103BD00043F90021812001F03FF90021822001F00A
:103BE0003BF90021832001F037F90021842001F006
:103BF00033F90021852001F02FF91021902001F0E8
:103C00002BF90021922001F027F90121932001F0E6
:103C100023F91946952001F01FF90021972001F0A2
:103C20001BF90021982001F017F940F273110720C9
:103C300001F012F954E541F21401E72001F00CF90A
:103C40002946012001F008F94FF40071022001F02B
:103C500003F941F23801032001F0FEF8494608203B
:103C600001F0FAF80021092001F0F6F800210A20FD
:103C700001F0F2F800210C2001F0EEF800210D20F7
:103C800001F0EAF800210F2001F0E6F800211020F1
:103C900001F0E2F80721112001F0DEF800211220E6
:103CA00001F0DAF80021132001F0D6F8C82003F063
:103CB00055FC41F29061102001F0CEF840F227212E
:103CC000112001F0C9F8322003F048FC0C21122029
:103CD00001F0C2F8322003F041FC4FF400611320E0
:103CE00001F0BAF81121292001F0B6F80B212B20A0
:103CF00001F0B2F8322003F031FC0021202001F065
:103D0000ABF85146212001F0A7F80021302001F046
:103D1000A3F84FF483731946312001F09DF8002178
:103D2000322001F099F84FF40171352001F094F838
:103D300041F20A61362001F08FF82146372001F068
:103D40008BF81946382001F087F82146392001F018
:103D500083F840F202413C2001F07EF840F60F412A
:103D60003D2001F079F80021502001F075F8EF2195
:103D7000512001F071F80021522001F06DF85146F8
:103D8000532001F069F85946602001F065F80121DF
:103D9000612001F061F800216A2001F05DF8002146
:103DA000802001F059F80021812001F055F8002110
:103DB000822001F051F80021832001F04DF800210C
:103DC000842001F049F80021852001F045F81021F8
:103DD000902001F041F84FF4C061922001F03CF8CE
:103DE00040F23311072001F037F879E42946012029
:103DF00001F032F83146022001F02EF841F2300194
:103E0000032001F029F80021042001F025F840F2F8
:103E10000721082001F020F80021092001F01CF8FA
:103E200000210A2001F018F800210C2001F014F8FC
:103E300000210D2001F010F800210F2001F00CF8F6
:103E4000142003F08BFB41F2B061102001F004F864
:103E50000121112001F000F80121172000F0FCFFE2
:103E60004FF49C71122000F0F7FF4FF40061132013
:103E700000F0F2FF0921292000F0EEFF09212A209D
:103E800000F0EAFF0021A42000F0E6FF002150200E
:103E900000F0E2FFEF21512000F0DEFF0021522070
:103EA00000F0DAFF5146532000F0D6FF594660205B
:103EB00000F0D2FF0121612000F0CEFF00216A2036
:103EC00000F0CAFF0021802000F0C6FF0021812001
:103ED00000F0C2FF0021822000F0BEFF00218320FD
:103EE00000F0BAFF0021842000F0B6FF00218520F9
:103EF00000F0B2FF1321902000F0AEFF00219220CD
:103F000000F0AAFF0321932000F0A6FF4FF4887170
:103F1000952000F0A1FF40F27311072000F09CFFF4
:103F2000322003F01BFB14E40021072000F094FF73
:103F3000322003F013FB4FF48E71122000F08CFF3F
:103F40000121A42000F088FF0F21082000F084FF49
:103F500008210A2000F080FF08210D2000F07CFFDE
:103F60002146302000F078FF0721312000F074FF57
:103F700040F20361322000F06FFF3146332000F041
:103F80006BFF4946342000F067FF0221352000F026
:103F900063FF41F60F71362000F05EFF21463720A7
:103FA00000F05AFF0021382000F056FF0021392090
:103FB00000F052FF21463A2000F04EFF00213B2046
:103FC00000F04AFF07213C2000F046FF00213D2081
:103FD00000F042FF322003F0C1FA0121072000F077
:103FE0003BFF0121172000F037FF322003F0B6FA23
:103FF0004FF4BD51102000F02FFF40F21721112087
:1040000000F02AFF4FF48F71122002E09DE097E14B
:1040100061E200F021FF4FF47061132000F01CFFFB
:1040200000212A2000F018FF0A21292000F014FFA7
:104030004FF49F71122000F00FFF0021502000F07C
:104040000BFFEF21512001E0FAE2A4E300F004FFAE
:104050000021522000F000FF5146532000F0FCFEEA
:104060005946602000F0F8FE0121612000F0F4FEC6
:1040700000216A2000F0F0FE0021802000F0ECFE1C
:104080000021812000F0E8FE0021822000F0E4FE03
:104090000021832000F0E0FE0021842000F0DCFEFF
:1040A0000021852000F0D8FE1321902000F0D4FEDE
:1040B0004FF44071922000F0CFFE0521932000F0D4
:1040C000CBFE0021952000F0C7FE0021972000F0D4
:1040D000C3FE0021982000F0BFFE2946012000F019
:1040E000BBFE3146022000F0B7FE41F2380103204A
:1040F00000F0B2FE0021042000F0AEFE00210C20F2
:1041000000F0AAFE00210F2000F0A6FE00212020D2
:1041100000F0A2FE0021212000F09EFE21210720B8
:1041200000F09AFE142003F019FA6121072000F034
:1041300093FE142003F012FA40F27311072000F0EE
:104140008BFE142003F00AFADAE30021084600F09F
:1041500083FE0021084600F07FFE0021084600F0A3
:104160007BFE0021084600F077FE0121A42000F02C
:1041700073FE142003F0F2F95946602000F06CFE43
:104180004946082000F068FE4FF40571302000F029
:1041900063FE43F21571312000F05EFE40F20461CF
:1041A000322000F059FE40F61661332000F054FE34
:1041B00042F21121342000F04FFE4FF4A851352077
:1041C00000F04AFE48F20751362000F045FE41F269
:1041D0000741372000F040FE41F20341382000F053
:1041E0003BFE2021392000F037FE1A21902000F0FC
:1041F00033FE0021102000F02FFE0721112000F0D7
:104200002BFE0021122000F027FE0021132000F0D9
:1042100023FE142003F0A2F94FF4E661102000F011
:104220001BFE40F23711112000F016FE142003F09F
:1042300095F94FF4DC71122000F00EFE142003F00B
:104240008DF94FF47061132000F006FE80212A20C2
:1042500000F002FE4821292000F0FEFD142003F0AA
:104260007DF92946012000F0F7FD3146022000F0DB
:10427000F3FD41F23801032000F0EEFD494608202D
:1042800000F0EAFD00210A2000F0E6FD00210C20EC
:1042900000F0E2FD00210D2000F0DEFD30210E20B7
:1042A00000F0DAFD0021502000F0D6FDEF21512072
:1042B00000F0D2FD0021522000F0CEFD51465320E7
:1042C00000F0CAFD5946602000F0C6FD01216120C2
:1042D00000F0C2FD00216A2000F0BEFD11219020F7
:1042E00000F0BAFD4FF4C061922000F0B5FD40F23D
:1042F0000241932000F0B0FD0221942000F0ACFDBB
:10430000142003F02BF90121072000F0A5FD142053
:1043100003F024F96121072000F09EFD40F27311A3
:10432000072000F099FD0021202000F095FD0021DC
:10433000212000F091FD2221002000F08DFDDFE220
:104340000021084600F088FD0021084600F084FDA9
:10435000142003F003F90021084600F07DFD002140
:10436000084600F079FD0021084600F075FD0021A7
:10437000084600F071FD0121A42000F06DFD14201D
:1043800003F0ECF85946602000F066FD40F60601A7
:10439000082000F061FD40F203731946302000F060
:1043A0005BFD0121312000F057FD0421322000F097
:1043B00053FD4FF48171332000F04EFD4FF44074F3
:1043C0002146342000F048FD40F20311352000F072
:1043D00043FD1F21362000F03FFD1946372000F035
:1043E0003BFD0121382000F037FD0421392000F089
:1043F00033FD1521902000F02FFD4FF48261102035
:1044000000F02AFD40F24721112000F025FD4FF475
:10441000DE71122000F020FD4FF46061132000F0E7
:104420001BFD782003F09AF82946012000F014FDC6
:104430004FF40071022000F00FFD41F23001032023
:1044400000F00AFD08210A2000F006FD00210C20E2
:1044500000F002FD20210E2000F0FEFC00210F20C4
:1044600000F0FAFC0021202000F0F6FC00212120C1
:1044700000F0F2FC3D212A2000F0EEFC142003F0B5
:104480006DF82D21292000F0E7FC0021502000F0DC
:10449000E3FC4DF2EF01512000F0DEFC0021522040
:1044A00000F0DAFC5146532000F0D6FC00216120D8
:1044B00000F0D2FC00216A2000F0CEFC21469220C0
:1044C00000F0CAFC0521932000F0C6FC2946072015
:1044D00000F0C2FC14E20121002000F0BDFC0A2023
:1044E00003F03CF841F22861102000F0B5FC0E21E9
:1044F000122000F0B1FC40F63921132000F0ACFC92
:104500000A2003F02BF84021112000F0A5FC5021D7
:10451000152000F0A1FC0A2003F020F81E21122033
:1045200000F09AFC0A2003F019F84FF4B151102062
:1045300000F092FC42F63921132000F08DFC0A2095
:1045400003F00CF82946012000F086FC4FF440717E
:10455000022000F081FC41F23801032000F07CFCD5
:104560004946082000F078FC08210A2000F074FC7D
:104570000021302000F070FC40F20241312000F0B8
:104580006BFC4FF48371322000F066FC40F2035163
:10459000332000F061FC4FF48271342000F05CFCA9
:1045A00040F20131352000F057FC2146362000F062
:1045B00053FC40F20531372000F04EFC4FF40271FD
:1045C000382000F049FC40F60B71392000F044FC23
:1045D0000221412000F040FC5946602000F03CFCE4
:1045E0000121612000F038FC4FF40471902000F0AC
:1045F00033FC4FF48571922000F02EFC04219320AF
:1046000000F02AFC2946A02000F026FC012107200A
:1046100000F022FC2121072000F01EFC23210720AE
:1046200000F01AFC3321072000F016FC40F2331191
:10463000072000F011FC0021A02000F00DFC5FE13C
:104640003021152000F008FC10219A2000F004FC15
:104650002021112000F000FC43F22841102000F03E
:10466000FBFB0221122000F0F7FB41F2380113207E
:1046700000F0F2FB282002F071FF1221084600F042
:10468000EBFB282002F06AFF43F22041102000F0EB
:10469000E3FB43F23801132000F0DEFB462002F07A
:1046A0005DFF0021302000F0D7FB40F202413120B5
:1046B00000F0D2FB40F20731322000F0CDFB4FF486
:1046C0004171332000F0C8FB0421342000F0C4FB0A
:1046D00040F20141352000F0BFFB2146362000F0BA
:1046E000BBFB40F20531372000F0B6FB4FF4C2634C
:1046F0001946382000F0B0FB1946392000F0ACFB19
:104700002946012000F0A8FB4FF44071022000F080
:10471000A3FB41F23001032000F09EFB40F60801AC
:10472000082000F099FB08210A2000F095FB59466B
:10473000602000F091FB0121612000F08DFB4FF41F
:104740009F71902000F088FB2946922000F084FBA6
:104750002946932000F080FB4FF44051A02000F048
:104760007BFB1021A32000F077FB0121072000F044
:1047700073FB2121072000F06FFB2321072000F0AD
:104780006BFB3321072000F067FB40F23311072059
:1047900000F062FBB4E0E22000F04EFB232000F0CA
:1047A00045FB022000F042FB042000F03FFB6420A8
:1047B00002F0EEFEE02000F03FFB012000F036FBAF
:1047C0000A2002F0CBFEE02000F036FB032000F0D0
:1047D0002DFB0C2002F0C2FE012000F02DFB0A2070
:1047E00002F0BCFEE62000F027FB032000F01EFBD9
:1047F000FF2000F01BFBFF2000F018FBB02000F0B2
:104800001BFB202000F012FB002000F00FFB032018
:1048100000F00CFB40F21F3000F008FB012000F01C
:1048200005FB40F2DF1000F001FB002000F0FEFA73
:10483000B42000F001FB042000F0F8FA40F21F4021
:1048400000F0F4FA002000F0F1FAD22000F0EEFAC5
:10485000002000F0EBFA002000F0E8FA002000F061
:10486000E5FA002000F0E2FAB62000F0E5FA0220B6
:1048700000F0DCFA4FF4037000F0D8FA002000F0EA
:10488000D5FA222000F0D2FA092000F0CFFA002059
:1048900000F0CCFA002000F0C9FAF02000F0CCFAC9
:1048A000032000F0C3FA292000F0C6FAD02000F05F
:1048B000C3FA002000F0BAFABE2000F0BDFA0520CD
:1048C00000F0B4FAFE2000F0B1FA012000F0AEFAD8
:1048D000FF2000F0ABFA002000F0A8FAB82000F0AA
:1048E000ABFA0F2000F0A2FA012000F09FFABA20E4
:1048F00000F0A2FA012000F099FA642000F022F8FA
:104900000020FCF7CFFB0448C0F880813846FCF754
:1049100091FB1FB0BDE8F08F0080214208B503482D
:1049200000880090BDF8000008BD00000008006C81
:1049300010B500F081FA052002F02AFEBDE8104013
:10494000FFF7ECBF10B50246BE2000F075FA052057
:1049500000F06CFA104604F0B6FA4FF066320B4BDA
:1049600004F0C4FA04F082FA80B200F05FFA012089
:1049700000F05CFAFF2000F059FA002000F056FA2F
:10498000BDE81040002000F051BA00006666044007
:10499000F0B50023834C46F604072146A2798988A6
:1049A00041F66315012A03D1B94201D0A94202D1CF
:1049B000C2B9A94216D1082814D2DFE800F00406D3
:1049C000080A0C0E101206200CE007200AE0042052
:1049D00008E0052006E0012004E0002002E00320BA
:1049E00000E00220A1F5134C45F2103245F21056BA
:1049F000BCF1410C07D0B94205D0914203D0B1427D
:104A000001D0A9427DD1082812D2DFE800F01104BC
:104A100006080A0C0E1080230AE0402308E0C02399
:104A200006E0202304E0602302E0A02300E0E0236E
:104A3000B14202D14FF4585000E03620914205D0E7
:104A4000B14203D0A94201D043F00803B94201D1D9
:104A500043F00203194600F0FFF9A288AA420ED0E3
:104A6000980606D520886188884208D22180608017
:104A700005E020886188884201D921806080B242A7
:104A800049D1608900F0D8F9002000F0CFF96089A1
:104A9000401C80B200F0D0F9002000F0C7F9608916
:104AA000801C80B200F0C8F92088401EC0F30F209F
:104AB00000F0BCF96089C01C80B200F0BDF920781C
:104AC000401EC0B200F0B2F9A08900F0B5F9002094
:104AD00000F0ACF9A089401C80B200F0ADF90020D4
:104AE00000F0A4F9A089801C80B200F0A5F96088CC
:104AF000401EC0F30F2000F099F9A089C01C80B2BD
:104B000000E032E000F098F9A078BDE8F040401EE7
:104B1000C0B200F08BB9608900F08EF9002000F07F
:104B200085F9002000F082F92088401EC0F30F2094
:104B300000F07CF92078401EC0B200F077F9A0891F
:104B400000F07AF9002000F071F9002000F06EF911
:104B50006088401EC0F30F2000F068F9A078BDE81F
:104B6000F040401EC0B200F061B9082812D2DFE860
:104B700000F0040608110A0C0E1030230AE010237E
:104B800008E0202306E0382304E0282302E018236D
:104B900000E00823032043F48051BDE8F04000F01A
:104BA0005BB90000381400202DE9F04102460B46A5
:104BB000584E1F0A3046B1884089A1F513444FEA88
:104BC0001228413C1AD0A1F5A644103C16D0344618
:104BD000A1F5D04CA5792488A41A641EBCF1040C5C
:104BE0001FD0A1F5C85CBCF1630C30D0A1F5A04C7E
:104BF000BCF5A26C65D0012D7DD082E000F01CF9DF
:104C0000404600F013F9D0B200F010F9B08900F07E
:104C100013F9384600F00AF9BDE8F041D8B200F0C7
:104C200005B9012D00D1A2B200F006F9100A00F07A
:104C3000FDF8D0B200F0FAF8B08900F0FDF838467F
:104C400000F0F4F8BDE8F041D8B200F0EFB845B399
:104C500000F0F2F8404600F0E9F8D0B200F0E6F8D3
:104C60003088401EC0F30F2000F0E0F83078401E7E
:104C7000C0B200F0DBF8B08900F0DEF8384600F092
:104C8000D5F8D8B200F0D2F87088401EC0F30F20DB
:104C900000F0CCF8B078BDE8F041401EC0B200F0A2
:104CA000C5B8A2B200F0C8F8002000F0BFF800209C
:104CB00000F0BCF8100A00F0B9F8D0B200F0B6F875
:104CC000D9E700F0B9F8404600F0B0F87089401C10
:104CD00080B200F0B1F8D0B200F0A8F8B08900F0CE
:104CE000ABF8384600F0A2F8B089401C80B200F062
:104CF000A3F8D8B200E003E0BDE8F04100F096B8B8
:104D0000A2B2114600F0A8F8B089BDE8F0411946FA
:104D100000F0A2B8381400202DE9F84F80460C4668
:104D20001F46A346780701D0012000E0002000EBD9
:104D3000D70079084843C0B20090203A02F0FF0A39
:104D4000002662E00C2F1DD0102F22D0182F25D066
:104D5000202F5DD12F4800EB8A10855D4FF00009B0
:104D6000280622D52C48214602884046FCF73AFA0C
:104D7000601C294A81B208F1010080B21288FCF758
:104D800031FA23E025490AEB4A0001EB8000855DFA
:104D9000E4E7234800EB0A10855DDFE721490AEBD1
:104DA000CA0001EB8000855DD8E70A9870B91A48FF
:104DB000214642884046FCF715FA601C164A81B22B
:104DC00008F1010080B25288FCF70CFA6806050E63
:104DD000641CA4B214484088A04219D9A4EB0B006B
:104DE000B84209D15C4608F101081FFA88F80E485C
:104DF000008840450CD906E009F1010909F0FF09D6
:104E0000B9F1080FACD3761CF6B20098864299D35C
:104E1000BDE8F88FA8A800081A000020E890000854
:104E20005C9500084C9B000838140020014908805C
:104E3000704700000008006C0149088070470000BE
:104E4000FE07006C02480349008908807047000093
:104E500038140020FE07006C024A1080901C01806C
:104E600070470000FE07006CFEE7704770B50F2327
:104E7000C27801260178002A1ED0144A126802F472
:104E8000E062C2F5E062120AC2F10404D340457840
:104E9000A54082781A402A43120101F1E02181F8ED
:104EA0000024007800F01F018E404009800000F1CE
:104EB000E020C0F8006170BD01F01F008640480985
:104EC000800000F1E020C0F8806170BD0CED00E0D2
:104ED0000249084302490860704700000000FA05D3
:104EE0000CED00E070470000054A002903D051692D
:104EF000014351617047516981435161704700001E
:104F000000100240054A002903D0D1690143D16154
:104F10007047D1698143D1617047000000100240A1
:104F2000054A002903D011690143116170471169D5
:104F3000814311617047000000100240054A0029BA
:104F400003D09169014391617047916981439161F7
:104F50007047000000100240054A002903D0D168C4
:104F60000143D1607047D1688143D1607047000030
:104F70000010024010B5264A516801F00C01254B83
:104F8000002927D0042927D0082927D00360516899
:104F900001F0F0010909204B5C5C0168E1404160CF
:104FA000546804F4E064240A1C5D21FA04F484606B
:104FB000546804F46054E40A1B5DD940C16052682F
:104FC00002F44042920B144B1B1F9A5CB1FBF2F1AE
:104FD000016110BD0360DAE70360D8E7516801F4AE
:104FE0007011536803F48033022404EB914133B110
:104FF00053689B0307D5094B59430160C7E7074B2B
:1050000059430160C3E7034B59430160BFE7000008
:105010000010024000127A004400002000093D0008
:105020002DE9FC410026009601960025002800D0BD
:1050300002251B484069800102D50E20BDE8FC8195
:10504000184C6946208980B2FBF7C2FD0028F5D1D3
:105050000198400322D52089134C0004206037209A
:1050600060604027A760E6604FF48068C4F8108055
:10507000204600F08FF83720FBF7C6FB0028DDD173
:10508000256006206060A760E660C4F810802046B6
:1050900000F080F80620FBF7B7FBCFE72520CDE72F
:1050A0000080014020000020602400200149886326
:1050B000704700000080014001490860704700000F
:1050C000A0003042034A516821F0FF0101435160C2
:1050D00070470000008001400149086070470000EF
:1050E0008C05304210B5094902684A6242688A62FA
:1050F000CA6A22F0F702D0E902342343D0E904401F
:10510000044323431343CB6210BD000000800140E1
:1051100006480021016041608160C1604162816296
:10512000C162034A8263C16370470000008001408E
:10513000FF07C00001460020024A526B0A4200D01D
:1051400001207047008001400248006800F0030021
:10515000704700000080014000F07ABB30B5094B79
:10516000596847F6FF629143027D8468C56822430F
:1051700044682C43224304680069224302430A43E3
:105180005A6030BD0080014001480068704700004F
:105190008080014010B5084902688A60CA686FF3D0
:1051A0000A02D0E901342343D0E9034004432343F6
:1051B0001343CB6010BD00000080014004490A6821
:1051C00022F003020A600A6802430A607047000086
:1051D0000080014001490860704700008080014064
:1051E000F0B58BB004460E46154601210220FFF7AC
:1051F0007BFE124F3846FBF7D9FB00213846FBF700
:10520000C7FB0F48009001940295B008039000205E
:1052100004908021059189000691890007910890EA
:10522000890009910A9069463846FBF73BFC00214A
:105230003846FBF7ADFB0BB0F0BD00004404024064
:105240008080014010B504460020104909780329E8
:1052500008D019B1012901D0022902D1022C03D3AF
:10526000272010BD272010BDE0B2FFF7D9FE00288F
:10527000F9D107494A6822F4C0524A604A68A3B289
:1052800042EAC3224A604A684A6010BD20000020FA
:10529000008001402DE9F04784490C7880F85640A1
:1052A0000989A0F85410DFF80882D8F800100A0E17
:1052B00093090370C2F38303437002F00302827008
:1052C0000A0CC2700A0A02714171D8F80420110E4A
:1052D0000B01C2F3074143EA1113C38001F00F072A
:1052E0000772C2F30721CB094372C1F380138372A3
:1052F000C1F34013C372C1F300130373002343735C
:1053000045464FF0010CAE68350EC6F30749C6F3AB
:10531000072A002C06D0012C04D0032C02D0022C2A
:1053200033D042E08907090DD2B241EA820141EA55
:1053300095120261C5F3C201017505F007014175BF
:105340004FEA59118175C9F38201C1754FEA89711C
:105350004C0F514644EAD1140476521CA41C0CFA9A
:1053600004F5A2FB054A4FEAE57903FB05A502FB1C
:1053700009550CFA07F20265A4FB027905FB0292BB
:1053800004FB0322C0E912720FE09106890A41EA88
:10539000052242EA090202615146521C540BD20412
:1053A000C0E912244FF4007202651A30C1F3801272
:1053B00000F8012C89064A0EF1B242EAD1120270BD
:1053C00001F07F014170D8F80C20110ECC098470D7
:1053D000C1F34114C470C1F38204047189070C0F36
:1053E000C2F3074144EA91144471C1F3401484713B
:1053F000C37101F001010172C2F30721CC094472AB
:10540000C1F380148472C1F34014C472C1F3001458
:105410000473C1F38104447301F003018173D1B2B9
:105420004908C17380F810C0214A103211680C0E6F
:1054300084740C0C2402C1F307252C4384820C06CF
:1054400051680D0E44EA0544C1F3074544EA0524BA
:10545000C1F307252C43C0F81640817691680C0EE5
:10546000C4760C0C2406C1F3072544EA0544C9B2EE
:1054700044EA0124D1680A0E1443C0F81E40C1F367
:10548000074290F8224044EA121480F822401207A2
:10549000120DC1F3072422438284C9B2490880F85F
:1054A000261080F827C01846BDE8F08720000020AD
:1054B0008C2400207CB501213020FFF73FFD012125
:1054C00040F20240FFF710FD4FF4F850ADF8000035
:1054D00018258DF8035003248DF8024069462948A9
:1054E000FBF734FC0420ADF800008DF803508DF874
:1054F0000240254D69462846FBF728FC8021ADF87F
:10550000001048218DF803108DF8024069462846A6
:10551000FBF71CFCFFF7FCFD31208DF80400002098
:105520008DF805008DF8060001208DF8070001A810
:10553000FFF79CFC00F0BAF808B900F02BF810B99E
:105540001248FFF7A7FE114C20B9B4F8540000042C
:1055500000F09CFC10B90120FFF774FE18B10C4953
:10556000097803290AD194F8560040B1012806D0E1
:105570000420FFF7A7FD002000F09EFC7CBD0A2060
:10558000F7E700000010014000140140B0240020A3
:10559000200000202DE9F84F01200090FFF7D4FDF6
:1055A00088B3DFF8FC803F4F002598F800003E4CA0
:1055B0003E154FF0C009042817D025600220606016
:1055C000C4F80890E56026612046FFF7E3FDFBF78D
:1055D00043F9002819D1796904F13C000160B969E7
:1055E0004160F9698160396AC16098F800004FF044
:1055F000030A4FF0400B50B1012808D0062806D00E
:10560000022804D013E0FFE72520BDE8F88F2560CD
:10561000C4F804A0C4F808B0E56026612248FFF78A
:10562000B9FD69460320FBF755F90028EDD198F83C
:105630000000032810D1BDF8000000042060C4F869
:1056400004A0C4F808B0E56026611748FFF7A2FD82
:10565000FBF702F90028D8D198F8000004281CD0E4
:10566000BDF80000C8F80800000420600920606050
:10567000C4F80890E56026610B48FFF78BFDFBF747
:10568000EBF80028C1D1796907482C300160B9696D
:105690004160F9698160396AC1600020B5E70000A6
:1056A0002000002000800140602400202DE9F05FF0
:1056B0004FF00008C3460024A24600255F48B221EF
:1056C00001750027076047608760C7600761FFF7C3
:1056D00045FD0320FFF772FD0120FFF7EDFC574E5B
:1056E0004FF48069183637607760B760F760C6F8A6
:1056F000109052481830FFF74DFDFBF770F830B1AD
:1057000008F1010808F0FF08B8F14A0FEBD30028B0
:1057100052D14FF4D5703060082070604FF04008CF
:10572000C6F80880F760C6F8109044481830FFF7B4
:1057300031FDFBF70DF918B94149012008708507C3
:10574000376037207060C6F80880F760C6F81090A0
:105750003A481830FFF71EFD3720FBF755F8014691
:105760004FF6FF7081B34FF0010B364D074657E0FF
:10577000376037207060C6F80880F760C6F8109070
:105780002E481830FFF706FD3720FBF73DF80028BC
:1057900012D12D482843306029207060C6F8088057
:1057A000F760C6F8109025481830FFF7F3FCFBF7B8
:1057B00079F80146080001D0BDE8F09F2148D0F8F3
:1057C00014B04FEADB7A641CBAF1000F03D14FF634
:1057D000FF708442CCD34FF6FF70844201D31B206C
:1057E000EAE71BF0804F27D015480222027023E021
:1057F00016483060C6F804B0C6F808800020F06093
:10580000C6F810900D481830FFF7C4FCFBF74AF8B3
:105810000146080000D0CFE768694FEAD07A641CDF
:10582000BAF1000F01D1BC42E2D3BC4201D31B202C
:10583000C2E70348032202700846BDE7482400205F
:105840002000002000800140000010800080FF80C8
:105850002DE9F041364C606B364DC0054CF23A36BE
:1058600020D5A878002101280CD0E970A06B40F465
:105870008070A063E06BB043E06301202871E8789A
:10588000BDE8F0812C4801600C2242604022826019
:10589000C16011010161FFF77DFC0C20FAF7B4FF34
:1058A000E870E3E70220FFF745FC40B10220FFF774
:1058B000FDFBE06BB043E0630220E870E0E7082006
:1058C000FFF738FC40B10820FFF7F0FBE06BB04376
:1058D000E0630420E870D3E72020FFF72BFC40B101
:1058E0002020FFF7E3FBE06BB043E0630620E870A5
:1058F000C6E71020FFF71EFC40B11020FFF7D6FBD3
:10590000E06BB043E0630520E870B9E74FF400773F
:105910003846FFF70FFC40B13846FFF7C7FBE06B96
:10592000B043E0630720E870AAE70020A8E7000082
:105930000080014020000020602400202DE9F84F65
:105940000546DDF8288016461F464FF0FF34002D2F
:105950000CD0DFF800A24FF00009CAF82C90DFF855
:10596000F8B19BF80000022803D007E02620BDE82C
:10597000F88F4FF40078760A46EAC7567748C0F8A1
:105980000890C0F804904FF0FF310160012141619F
:10599000C0F80C90C0F81090FFF7A4FBDAF81400E0
:1059A0005746800101D50E20E1E7A8F10100B0F5CE
:1059B000006F42D218EA000F3FD1404601F03AFC96
:1059C000009066481438C0F80080102141604FF004
:1059D000400AC0F808A00021C1604FF48069C0F8F7
:1059E0001090FFF7D7FB1020FAF70EFF0028BED16A
:1059F0000098010159488160C0F804804FF0FF31E0
:105A00000160012141610221C16000210161FFF7B4
:105A100069FB52481438066011214160C0F808A0A3
:105A20000021C160C0F81090FFF7B4FB1120FAF715
:105A3000EBFE0646300002D099E7262097E79BF858
:105A4000010010B1012858D07FE0FBF734FA4FF481
:105A5000004ADFF80C8140F22A6910E05046FFF757
:105A600069FB50B10020D7F8801045F82010401C89
:105A70000828F8D32035444601E06CB1641E786BE9
:105A800010EA090FEAD00820FFF754FB30B10820D4
:105A9000FFF70CFB04206AE7042068E70220FFF709
:105AA00049FB20B10220FFF701FB02205FE7202025
:105AB000FFF740FB20B12020FFF7F8FA062056E759
:105AC0004FF400742046FFF735FB20B12046FFF766
:105AD000EDFA07204BE74FF4001402E0FFF754FB08
