:020000040800F2
:1000000070D70220CD020008518E0008E346000898
:10001000F3810008790B0008A1DC00080000000053
:1000200000000000000000000000000051A00008D7
:100030007D0B000800000000798F00089DA20008D9
:10004000E7020008E7020008E7020008E7020008EC
:10005000E7020008E7020008E7020008E7020008DC
:100060008B0B0008950B0008E7020008E702000868
:10007000E7020008E7020008E7020008E7020008BC
:10008000E7020008E7020008E7020008E7020008AC
:10009000E7020008E7020008E7020008E70200089C
:1000A000E7020008E7020008E7020008E70200088C
:1000B000E702000809A3000819A30008E7020008E6
:1000C000E7020008E7020008E7020008E70200086C
:1000D000E70200081DA90008E7020008E70200087F
:1000E0007F0B0008E7020008E7020008E7020008AB
:1000F000E7020008E7020008E7020008E70200083C
:10010000E7020008E7020008E7020008E70200082B
:10011000E7020008E7020008E7020008E70200081B
:10012000E7020008E7020008E7020008E70200080B
:10013000E7020008E7020008E7020008E7020008FB
:10014000E7020008E7020008E70200088D8E0008B9
:10015000E7020008E7020008E7020008E7020008DB
:10016000E7020008E7020008E7020008E7020008CB
:10017000E7020008E7020008E702000800000000AC
:10018000E7020008E7020008E7020008E7020008AB
:10019000E7020008E7020008E7020008E70200089B
:1001A000E7020008E7020008E702000800F002F892
:1001B00000F075F80AA090E8000C82448344AAF18C
:1001C0000107DA4501D100F06AF8AFF2090EBAE88A
:1001D0000F0013F0010F18BFFB1A43F0010318477B
:1001E000C43B0400E43B04000A444FF0000C10F848
:1001F000013B13F0070408BF10F8014B1D1108BFA5
:1002000010F8015B641E05D010F8016B641E01F844
:10021000016BF9D113F0080F1EBF10F8014BAD1C94
:100220000C1B09D16D1E58BF01F801CBFAD505E0B2
:1002300014F8016B01F8016B6D1EF9D59142D6D30C
:10024000704700000023002400250026103A28BF34
:1002500078C1FBD8520728BF30C148BF0B60704738
:1002600003681B0A28BF41F08001642900F0228145
:10027000752900F01F81782900F09681E42900F0AB
:100280005581632900F00B84732900F0108400204D
:1002900070471FB514F088F91FBD10B510BD00F0F0
:1002A00039FC1146FFF7F5FF11F0B4FE00F057FCE2
:1002B00003B4FFF7F2FF03BC0DF0D7FE30BF72B6F8
:1002C000704762B6704780F30888704709488047D6
:1002D00009480047FEE7FEE7FEE7FEE7FEE7FEE728
:1002E000FEE7FEE7FEE7FEE704480549054A064B40
:1002F00070470000A5A20008AD01000870D10220DF
:1003000070D7022070D3022070D30220704753EAC6
:10031000020C00F069802DE9F04B4FF00006002B35
:100320001FBFB3FA83F503FA05F424FA05F65E401D
:1003300012BF1643B2FA82F502FA05F4C5F12005A0
:100340001EBF22FA05FC44EA0C04203556EA044C90
:100350004FEA144418BF641C4FF000084FF0000926
:10036000904271EB030C39D3002919BFB1FA81F720
:1003700001FA07F6B0FA80F700FA07F6C7F120078E
:100380001EBF20FA07FC46EA0C062037B6FBF4FC39
:10039000A7EB0507103F07F01F0BCBF120060CFA67
:1003A0000BFB2CFA06F644BFB3460026202FA4BF51
:1003B0005E464FF0000B5BEA060C08BF4FF0010BE6
:1003C00019EB0B09ABFB027C48EB0608C01B06FBD4
:1003D00002CC0BFB03CC71EB0C01C1E70B460246D0
:1003E00041464846BDE8F08B13B54FF000004FF092
:1003F0000001AFF30080BDE81C4070470FB4044912
:1004000010B503AA029800F057FB10BC5DF814FB6E
:100410001C00002070B5044685690068C10601D53E
:10042000302600E02026C00707D070BDD4E90121A6
:1004300030469047206A401C20626D1EF6D570BD84
:1004400070B5044685690078C00707D170BDD4E94E
:10045000012120209047206A401C20626D1EF6D5A5
:1004600070BD70B50C460546012A05D02878800677
:1004700000D5EA69002302E0012305E05B1C9342FA
:1004800002D2E05C0028F9D1A869E618C01AA86178
:10049000286A184428622846FFF7BCFF04E0D5E923
:1004A000012114F8010B9047B442F8D32846FFF716
:1004B000C7FF70BD2DE9F04106460024106875297C
:1004C000314616A510D0AFF30080002802DA404272
:1004D00013A507E031688A0701D512A502E0490794
:1004E00004D511A5012401E0AFF3008000210A2208
:1004F00006F1240709E0B0FBF2FCB0FBF2F302FBCB
:100500001C00303078541846491C0028F3D123468B
:100510002A463046BDE8F04100F05EBA0000000017
:100520002D0000002B000000200000002DE9F0410C
:100530008046D21D22F007020025D2E90002F529EB
:1005400015A614D0011E72F1000106DA0023D0EBCB
:10055000030063EB020211A608E0D8F800108B0735
:1005600001D50FA602E0490701D50EA601251146C7
:10057000002408F1240704E000F0E9F930323A558C
:10058000641C50EA0102F7D12B4632462146404610
:10059000BDE8F04100F020BA000000002D0000008E
:1005A0002B0000002000000070B504460D462146D7
:1005B0001068AFF300802188090502D50F4A7A44FC
:1005C00002E00E4A7A440E32002104F1240305E0D1
:1005D00000F00F060009965D5E54491C0028F7D113
:1005E00020780023000704D5702D02D009B1022322
:1005F00011322046BDE8704000F0EEB966330400C9
:100600002DE9F05F894604464FF0000ADFF874B127
:10061000FB44C0F820A02046E1688847002874D039
:10062000252806D0D4E901219047206A401C206289
:10063000F1E700265F462046E16888472028054606
:1006400007DB312D05D2781910F8200C08B10643CC
:10065000F1E7B00701D526F00406C4F81CA0002776
:10066000C4F818A02A2D09D028460DF0F7FC38B39D
:1006700004EB8708303DC8F8185019E059F8041BFE
:10068000204604EB87029161E1688847012F054607
:1006900018D1E069002820DA26F020061DE0D8F8FD
:1006A000180000EB800005EB40003038C8F8180057
:1006B0002046E168884705460DF0D0FC0028EED1C1
:1006C000012F0AD02E2D08D12046E16888477F1CD3
:1006D0000546022F46F02006C4DBA069002803DA95
:1006E000404246F00106A061F00701D026F0100656
:1006F0006C2D0BD0682D09D04C2D39D06A2D35D0FA
:10070000742D35D07A2D33D016E038E0E1682F46CD
:1007100020468847B842054609D16C2F26D04FF4B1
:100720008060E168064320468847054604E06C2F58
:100730001AD04FF4807006430DB3A5F1410019287B
:1007400002D8203546F400664A46294620462660EF
:100750004E46FFF785FD80B101280BD0F61D26F02F
:10076000070000F1080956E74020E4E78020D8E7B9
:100770000020D6E706F104094DE7284652E7206A33
:10078000BDE8F09F3C33040010B5431C02E010F8B4
:10079000011B71B18107FAD14FF0013202C88C1AE6
:1007A0008C4314EAC211F9D0C01A0A0603D0C01E45
:1007B00010BDC01A10BD0A0401D0801E10BD090270
:1007C000FCD0401E10BD032A40F2308010F0030C14
:1007D00000F0158011F8013BBCF1020F624498BF94
:1007E00011F801CB00F8013B38BF11F8013BA2F131
:1007F000040298BF00F801CB38BF00F8013B11F0AC
:10080000030300F02580083AC0F0088051F8043B4B
:10081000083A51F804CBA0E80810F5E7121D5CBFB8
:1008200051F8043B40F8043BAFF30080D20724BFEB
:1008300011F8013B11F801CB48BF11F8012B24BF7F
:1008400000F8013B00F801CB48BF00F8012B7047CE
:1008500010B5203AC0F00B80B1E81850203AA0E85B
:100860001850B1E81850A0E81850BFF4F5AF5FEA8F
:10087000027C24BFB1E81850A0E8185044BF18C942
:1008800018C0BDE810405FEA827C24BF51F8043BE9
:1008900040F8043B08BF7047D20728BF31F8023B3D
:1008A00048BF11F8012B28BF20F8023B48BF00F8D1
:1008B000012B70474FF000020429C0F0128010F0A5
:1008C000030C00F01B80CCF1040CBCF1020F18BF2C
:1008D00000F8012BA8BF20F8022BA1EB0C0100F0BF
:1008E0000DB85FEAC17C24BF00F8012B00F8012B92
:1008F00048BF00F8012B70474FF0000200B51346C7
:1009000094469646203922BFA0E80C50A0E80C502F
:10091000B1F12001BFF4F7AF090728BFA0E80C50E0
:1009200048BF0CC05DF804EB890028BF40F8042BD9
:1009300008BF704748BF20F8022B11F0804F18BF46
:1009400000F8012B7047704770477047704730B50B
:10095000B0F10A024FEA900E71F100034EEA817E77
:10096000B0EB0E0061EB91014FEA101E4EEA017EE2
:1009700010EB0E0041EB11114FEA102E4EEA016E02
:1009800010EB0E0041EB11214FEA104E4EEA014EE2
:1009900010EB0E0041EB1141401841F100014FEA0C
:1009A000D00040EA41704FEAD10110EB80054FEAD8
:1009B000810444EA907444EB01046D1944EB04048F
:1009C000521BA3414FF0000348BF0A3200D530BD8F
:1009D000401C41F1000130BD2DE9F0470D4699461C
:1009E0009246044600F124080168880604D5E069AF
:1009F00021F01001216000E00120A84201DD471B29
:100A000000E00027A1697A1902EB0900081AA06129
:100A10002078C00602D42046FFF7FCFC002608E040
:100A2000D4E901211AF806009047206A401C761C80
:100A300020624E45F4DB2078C0060AD52046FFF739
:100A4000E9FC06E0D4E9012130209047206A401CEF
:100A50002062381EA7F10107F4DC07E0D4E9012188
:100A600018F805009047206A401C2062281EA5F156
:100A70000105F3DC2046FFF7E3FC2078000602D5F1
:100A80000220BDE8F0870120FBE710B5436913B1F0
:100A9000AFF3008001E0FFF7E4FC012010BD127805
:100AA00000F124010A7000224A700122EDE711686A
:100AB0004FF0FF32E9E70000074B70B50D467B446D
:100AC00000F011F80446284600F020F810B14FF06D
:100AD000FF3070BD204670BD4F0E010001694A1CF9
:100AE00002610878704700B58FB0CDE9013100216F
:100AF000059105497944CDE9031011466846FFF791
:100B00007FFD0FB000BD0000E5FFFFFF007B00F0A0
:100B100080007047754600F02BF8AE460500694628
:100B2000534620F00700854618B020B5FFF7DCFBE0
:100B3000BDE820404FF000064FF000074FF00008DE
:100B40004FF0000B21F00701AC46ACE8C009ACE85F
:100B5000C009ACE8C009ACE8C0098D46704710B5C3
:100B60000446AFF300802046BDE81040FFF7A0BB6D
:100B7000004870470CD1022000BFFEE7704710B557
:100B80004FF4005000F0E6FF10BD10B5042000F057
:100B9000E1FF10BD10B5082000F0DCFF10BD000023
:100BA00000B587B000BF002001902348006840F0E6
:100BB0008000214908600846006800F0800001902C
:100BC00000BF00BF00BF002001900846006840F051
:100BD000040008600846006800F00400019000BFAF
:100BE00000BF0C200290154803900120049002A938
:100BF000134800F0BDFF4FF40050029002A91148C5
:100C000000F0B6FF00220221082001F088FB082036
:100C100001F078FB01220221092001F080FB09206C
:100C200001F070FB02221146282001F078FB2820F9
:100C300001F068FB07B000BD303802400000211011
:100C4000001C02400008024030B503460024102A70
:100C500001D1DC6800E0DC6A0024D1E9000540EA4B
:100C600005200D8940EA05400D7B40EA05600443FC
:100C7000102A01D1DC6000E0DC62002030BD30B51C
:100C800003460024102A01D19C6800E09C6A0024DD
:100C9000D1E9000540EA05200D8940EA05400D7BB9
:100CA00040EA05600443102A01D19C6000E09C6288
:100CB000002030BD10B5024600230868102801D17D
:100CC000136800E0136A0D480340486840F00800CC
:100CD0008C682043CC6820430C6920434C6940EA6F
:100CE00044208C6940EA443003430868102801D14D
:100CF000136000E01362002010BD00008101F0FFCE
:100D000070B504461D460023B5F5804F13D154F845
:100D100022300C480340D1E9000640EA06108E68F4
:100D200040EA06208E8940EA06408E69304303433C
:100D300044F8223003E06FF0704044F822000020B5
:100D400070BD00000000F0CF10B502460023086817
:100D500052F820301B480340D1E901042043CC68FD
:100D600020430C6920434C6920438C692043CC69A3
:100D700020430C6A20434C6A20438C6A2043CC6A8F
:100D80002043CC6B20430C6B20434C6B204303432C
:100D90008868082801D143F04003086842F82030F1
:100DA000486BB0F5801F0AD1086840B14FF48070DD
:100DB00008614C6B086920431468204310600020D0
:100DC00010BD00008000E0FF30B50346144600224D
:100DD000601C53F8202002F04042D1E9000540EAAF
:100DE00005108D6840EA05208D8940EA0545088A8E
:100DF000401E45EA0055087D801E45EA00608D6969
:100E000028430243601C43F82020186800F4801037
:100E100038B1586820F47002088A401E42EA005235
:100E20005A60002030BD30B5024600230024086817
:100E3000012816D013686FF30E03D1E9010528438A
:100E4000CD6828430D6928434D6928438D6928439F
:100E5000CD6928430D6A28434D6A28430343136034
:100E600019E013686FF30E03D1E9070528434D6AB3
:100E70002843034354686FF30E04D1E90105284366
:100E8000CD6828430D6928434D6928438D6928435F
:100E9000044313605460002030BD0246506940EAAC
:100EA0004100506100207047F8B506460C461546D3
:100EB000002000900027D4E900010843A168491EE2
:100EC00040EA4110E16840EA41200090009830611A
:100ED00000F06AFF074609E0681C38B125B100F050
:100EE00063FFC01BA84201D90320F8BDB06900F020
:100EF00020000028F0D100BFF7E770B50346154683
:100F000000220024012D1FD09A6802F07042086868
:100F1000401E4E68761E40EA06168868401E46EA65
:100F20000026C868401E46EA0036088A401E46EA87
:100F30000046888A401E46EA0056087E401E46EA61
:100F4000006002439A6022E0DA6802F070420868AA
:100F5000401E4E68761E40EA06168868401E46EA25
:100F60000026088A401E46EA0046087E401E46EAE1
:100F7000006002439C6804F07044C868401E060389
:100F8000888A401E46EA00500443DA609C600020D4
:100F900070BD000038B504464FF0AA3000900949F2
:100FA000897901FB04F004236A46002107F030FF31
:100FB000044989796143481C04236A46002107F0EB
:100FC00027FF38BD702100202DE9FC4704460D465F
:100FD00000275DE04FF0000820E001A830490090B4
:100FE000B1F802904FEAE97109EB91718B102C492D
:100FF000897901FB04F02A46002107F053FD2849B6
:101000004888C11700EB9171BDF80420B2EBA10F25
:1010100000D007E008F101001FFA80F8204880792D
:101020004045DADC00BF1E488079404502D10020EF
:10103000BDE8FC87204607F0D3FA064626B13946BC
:1010400018A0FFF7DBF921E0681CF8B1002001903F
:1010500016E01349B1F802904FEAE97109EB91717A
:101060008B100F498979BDF8042004FB0120002270
:10107000114607F097FEBDF80400401C80B20190B5
:1010800007488079BDF804108842E2DC781C87B2FA
:10109000032F9FDB214609A0FFF7B0F90120C7E726
:1010A000702100206572726F722065726173652015
:1010B000626C6F636B3A25640D0A00006261642004
:1010C000626C6F636B20636865636B65643A25646B
:1010D0000D0A000038B50446002000900F498979B8
:1010E00001FB04F001236A46002107F023FD9DF86F
:1010F0000000FF2810D1094989796143481C012368
:101100006A46002107F016FD9DF80000FF2801D176
:10111000002038BD0120FCE70220FAE77021002002
:101120002DE9FE4F81460F4692461D4600240020C1
:1011300002908046019000263B488079B9FBF0F888
:1011400039488079B9FBF0F100FB1190019000BFA4
:10115000404600F0E1F8064633484089B04202D2EA
:101160000120BDE8FE8F00243AE00198844221D39B
:1011700005B32D484088C01BA84205D22A484088A4
:10118000C01B1FFA80FB01E01FFA85FB264ACDF841
:1011900000B0927906FB0241234A927908FB024093
:1011A00053463A4607F028F802900027DA44A5EBA8
:1011B0000B050AE01C4A927906FB02411A4A927911
:1011C00008FB024007F01EF90290029830B1304649
:1011D000FFF7E0FE012000F029F8B9E7601C84B2B7
:1011E00011488079A042C0DC0F488079A04219D113
:1011F000304600F099FA404607F0F2F900240CE07E
:101200000948406930F81400404504D1064949694D
:1012100021F8146005E0601C84B203484089A042B4
:10122000EEDC00BF00209CE770210020F8B50546E9
:101230000026002406E04FF6FF703049496921F886
:101240001400641C2D484089A042F4D800202B498A
:101250008881002433E02949897901FB04F00423C3
:101260006A46002107F066FC9DF80000FF2809D1BE
:1012700045B1224989796143481C01236A4600210E
:1012800007F058FC9DF80000FF2813D19DF80200DC
:101290009DF8031000EB012618484089B04203D99D
:1012A0001649496921F8164014488089401C1349A1
:1012B000888103E0214612A0FFF7A0F8641C0F48C4
:1012C0004089A042C7D800240BE00C48406930F8A0
:1012D00014000A494989884202DB0849CC8104E0AC
:1012E000641C06484089A042EFD800BF0348C0896B
:1012F000642801DA0220F8BD0020FCE770210020FC
:1013000062616420626C6F636B20696E6465783A19
:1013100025640D0A0000000070B505460024184839
:101320004089401E17490968884204D21448408900
:10133000401E1449086005F001011248006800F0E1
:1013400023F80446601C90B90D484089401E0D49A1
:10135000096888420BD90A484089401E094908603B
:1013600005F001010748006800F00EF80446601C13
:1013700010B94FF0FF3070BD024804602046FAE714
:10138000702100203C000020F8B505460E460020E4
:10139000009000246C1C14E0601E00F00100B042BC
:1013A0000ED1611E094A927901FB02F004236A46BC
:1013B000002107F0BFFB0098401C08B9601EF8BD73
:1013C000641E002CE8D1601EF9E7000070210020A7
:1013D000F8B5002600202D498881002417E020461A
:1013E000FFF778FE05468DB9204607F0F9F8054667
:1013F0003DB1214626A0FFF701F82046FFF7CAFDC0
:1014000004E022488089401C20498881641C1F48D0
:101410004089A042E3D81D48818921A0FEF7EEFF54
:101420001A488089642801DA0120F8BD17488089AC
:10143000C0EB401000EB4000642190FBF1F600206F
:101440000090002415E02046FFF744FE05467DB9D4
:101450000E49897901FB04F002236A46194607F018
:10146000D7FC0098401C00900098B04200D104E0E6
:10147000641C06484089A042E5D800BF0120FFF760
:10148000D5FE08B10220D0E70020CEE77021002071
:1014900042616420626C6F636B3A25640D0A000040
:1014A000676F6F645F626C6F636B6E756D3A256416
:1014B0000D0A000010B507F0EDF808B1012010BDCD
:1014C0001F48406920B11E484169002011F0C8FA48
:1014D0001B4840894100002011F0D4FA18494861A6
:1014E0000A4652895100164A5069FFF7E3F9144839
:1014F000406908B90120E2E70120FFF797FE0446A2
:1015000064B110A0FEF77AFFFFF762FF0446002CDB
:1015100013D012A0FEF772FF0220D0E708484189DD
:1015200013A0FEF76BFF0648818917A0FEF766FF40
:101530000348C18919A0FEF761FF0020BFE7000042
:1015400070210020666F726D6174206E616E642080
:10155000666C6173682E2E2E0D0A0000666F726D28
:101560006174206661696C6564210D0A00000000E9
:10157000746F74616C20626C6F636B206E756D3A72
:1015800025640D0A00000000676F6F6420626C6FB5
:10159000636B206E756D3A25640D0A0076616C6987
:1015A0006420626C6F636B206E756D3A25640D0A62
:1015B00000000000014600220648C089884202D28D
:1015C0004FF6FF7070470348406930F8112010460D
:1015D000F8E70000702100202DE9FF4F83B014468A
:1015E0009A460026002500BF97E04E48408890FBB1
:1015F000F4F04C498979484304992944B1FBF0F04F
:1016000002900298FFF7D6FF834646484189594524
:1016100003D8012007B0BDE8F08F4248408890FB16
:10162000F4F040498979484304992944B1FBF0F228
:1016300000FB1210604301903A4841880198B0FBCA
:10164000F1F0384989790BFB010836484188019847
:10165000B0FBF1F201FB120932484088A0EB09000F
:10166000B0FBF4F087B2AAEB0500B84202D2AAEBB5
:10167000050087B207FB04F083B21FFA89F14046E8
:10168000039A07F0C1F80646032E39D107FB04F090
:1016900083B21FFA89F14046039A07F0B5F806466F
:1016A000032E2DD107FB04F31FFA89F14046039A5C
:1016B000FFF736FD1B488079B8FBF0F0311F009032
:1016C000FFF782FC06467EB916488079B8FBF0F039
:1016D00000210090FFF778FC064612488079B8FB9D
:1016E000F0F0009006F07CFF4EB10E488079B8FB18
:1016F000F0F00090FFF74EFC0120FFF797FD002669
:10170000042E00D100260EB1022083E7039804FBCB
:1017100007000390781E05446D1C5545FFF465AF26
:10172000002077E77021002038B50446CC200090D7
:1017300000250649897901FB04F001236A46194610
:1017400007F066FB0546284638BD000070210020E2
:101750002DE9FF4F87B014469A464FF0000B002545
:10176000681E029000BFA7E05648408890FBF4F046
:1017700054498979484308992944B1FBF0F0059010
:101780000598FFF717FF06464E484189B14203D836
:1017900001200BB0BDE8F08F4A48408890FBF4F080
:1017A00048498979484308992944B1FBF0F200FB84
:1017B000121060430390434841880398B0FBF1F056
:1017C0004049897906FB010004903E48418803980E
:1017D000B0FBF1F201FB12093A484088A0EB090086
:1017E00080B20690BDF8180090FBF4F080B206902D
:1017F000AAEB050087B2BDF81800874201DBBDF8EF
:10180000187007FB04F806A81FFA89F1C8F38F03C4
:101810004FF0FF320090049807F044F98346BBF183
:10182000000F01D00220B4E7BDF81800B0EB980F0C
:1018300009D11FFA88F31FFA89F1079A049807F073
:10184000EDF9834601E04FF0010BBBF1000F07D12A
:101850000298B04204D03046FFF766FF83460296F6
:10186000BBF1000F22D017488079164949884843B8
:101870000399401AB0FBF4F080B20690AAEB050081
:1018800087B2BDF81800874201DBBDF8187007FB6E
:1018900004F81FFA89F14346079A0498FFF740FCC1
:1018A0008346BBF1000F01D0032072E7781E054488
:1018B0000798404407906D1C5545FFF455AF002034
:1018C00067E70000702100202DE9F05F824688461E
:1018D00014462046E21704EB5272D2102146E31759
:1018E00004EB5373DB10A4EBC3030BB1012300E043
:1018F00000231A44624302F0FF099AF800600AF1DB
:10190000010082460578812E05DB402D03DBFF2D8B
:1019100001D0FF2E0DD14FF0000B06E0002008F89B
:10192000010B0BF1010000F0FF0BCB45F6DBBDE82E
:10193000F09F7F2D03DAA5F14000C5B202E0A5F1CA
:101940004100C5B2A6F18100C6B2BE2010FB065010
:1019500000FB09F70C2C06D0102C0DD0182C14D03D
:10196000202C24D11AE01348D0F80900C1194A46A6
:1019700040460CF025FA1AE00E48D0F81100C119C3
:101980004A4640460CF01CFA11E00A48D0F819000B
:10199000C1194A4640460CF013FA08E00548D0F851
:1019A0002100C1194A4640460CF00AFA00BF00BFA8
:1019B00000BFBCE708CC022031B5002400F0F4F9E8
:1019C000044600BF00F0F0F9001B00998842F9D3EB
:1019D00038BD000070B5054664200CF09DFE002463
:1019E000042D05D0082D22D0B5F5005F5ED13DE075
:1019F00004212F4800F0CAF9C0B92EA011F03CFB19
:101A00002F4908700846007880B92E4801682EA03A
:101A1000FEF7F4FC002405E02F48015D2FA0FEF73F
:101A2000EDFC641C274800688442F5D33EE00821A1
:101A30001F4800F0ABF9C0B92DA011F01DFB2049E3
:101A400008700846007880B91E4801682BA0FEF790
:101A5000D5FC002405E02048015D2CA0FEF7CEFC5B
:101A6000641C184800688442F5D31FE04FF400510D
:101A70002B4800F08BF9C0B92AA011F0FDFA1049EB
:101A800008700846007880B90E48016828A0FEF763
:101A9000B5FC002405E01048015D29A0FEF7AEFC6E
:101AA000641C084800688442F5D300BF00BF70BDC5
:101AB000001C0240303A2FB2E2CAD42E646F630099
:101AC0004000002044000020446F63204C656E6796
:101AD00074683A25640D0A00CC210020446F63200D
:101AE000436F6E74656E743A2532780D0A000000FB
:101AF000303A2FB2E2CAD42E7064660050444620B9
:101B00004C656E6774683A25640D0A00504446209F
:101B1000436F6E74656E743A2532780D0A000000CA
:101B200000080240303A2FB2E2CAD42E7478740012
:101B3000545854204C656E6774683A25640D0A0049
:101B400054585420436F6E74656E743A2532780D84
:101B50000A00000010B5044604480068204020B187
:101B6000024804602046FFF735FF10BD143C0140D9
:101B7000F8B502460B460025002400200021E6E0CF
:101B8000012606FA01F51E6806EA0504AC4273D187
:101B90005E68022E02D05E68122E13D1CF0802F1C9
:101BA000200656F827004E07F70E0F26BE40B0431A
:101BB0004F07FF0E1E69BE403043CF0802F12006DA
:101BC00046F8270010684F000326BE40B0431E7938
:101BD00006F003064F00BE40304310605E68012EE1
:101BE00008D05E68022E05D05E68112E02D05E68B5
:101BF000122E13D190684F000326BE40B0434F0011
:101C0000DE68BE4030439060506801268E40B0438D
:101C10001E79C6F300168E4030435060D0684F00E6
:101C20000326BE40B0434F009E68BE403043D060A4
:101C30005E6806F08056B6F1805FA8D100BF00262E
:101C40000096454E366846F48046434F3E603E4619
:101C5000366806F48046009600BF00BF3F4E8F08EE
:101C600056F827008E07370F0F26BE40B0433C4E74
:101C7000B24202D100262EE068E03A4EB24201D1D3
:101C8000012628E0384EB24201D1022623E0374E29
:101C9000B24201D103261EE0354EB24201D10426E4
:101CA00019E0344EB24201D1052614E0324EB24260
:101CB00001D106260FE0314EB24201D107260AE0DB
:101CC0002F4EB24201D1082605E02E4EB24201D17C
:101CD000092600E00A268F073F0FBE4030431F4E03
:101CE0008F0846F82700284E3068A0435E6806F447
:101CF0008036B6F5803F00D12043234E3060361D3C
:101D00003068A0435E6806F40036B6F5003F00D1A7
:101D100020431D4E361D3060361D3068A0435E687E
:101D200006F48016B6F5801F00D12043164E083603
:101D30003060361D3068A0435E6806F40016B6F5C4
:101D4000001F00D12043104E0C363060491C102972
:101D5000FFF416AFF8BD00004438024008380140D7
:101D6000000002400004024000080240000C024053
:101D7000001002400014024000180240001C024003
:101D80000020024000240240003C0140024613694A
:101D90000B400BB1012000E0002070470AB18161C7
:101DA00001E00B0483617047014800687047000040
:101DB0001400002002480068401C01490860704778
:101DC0001400002070B5044600F046FE4FF47A710E
:101DD000B0FBF1F5284602F043F900222146501EDF
:101DE00000F09DFA002070BD70B504460E46154601
:101DF00000BF94F8A000012801D1022070BD01208D
:101E000084F8A00000BF022084F8A10005EB850142
:101E100001EBC50204F1380101EB820034223146A6
:101E2000FEF716FD2A463146204606F0D9F8012075
:101E30002168486284F8A10000BF002084F8A00057
:101E400000BF00BFDAE7000070B504460025002699
:101E50000CB9012070BD94F8A10028B9002084F8C5
:101E6000A000204600F084F8022084F8A100206839
:101E7000806920F0704021688861D4E9010108433D
:101E8000E16808432169084321688969084321689A
:101E90008861206880683549084021688860A08A88
:101EA000050420688068A169294308432168886087
:101EB0002068C0682D4908402168C860A08B0504CF
:101EC0002068C068216A294308432168C8602068E7
:101ED00000692649084021680861A08C0504206833
:101EE0000069A16A294308432168086120684069A4
:101EF0001E49084021684861A08D0504206840699A
:101F0000216B294308432168486194F83500050294
:101F100094F8360006042068C06A00F07F4021680B
:101F2000C86246EA050094F8341008432168C96A7B
:101F300008432168C8622068406B40F004002168B3
:101F400048632068406B40F00200216848632068C5
:101F5000806940F00100216888610020C4F8A40075
:101F6000012084F8A100002074E7000000F800F0D0
:101F700010B586B0044600BF002000904D480068B0
:101F800040F080604B4908600846006800F08060BF
:101F9000009000BF00BF00BF0020009045481438EB
:101FA000006840F40000434914390860084600689E
:101FB00000F40000009000BF00BF00BF00200090B0
:101FC0000846006840F0020008600846006800F01B
:101FD0000200009000BF00BF00BF00200090084634
:101FE000006840F0200008600846006800F020000B
:101FF000009000BF00BF00BF0020009008460068AE
:1020000040F0400008600846006800F04000009082
:1020100000BF00BF00BF002000900846006840F0ED
:10202000800008600846006800F08000009000BF53
:1020300000BF00BF002000900846006840F4807098
:1020400008600846006800F48070009000BF00BF80
:10205000202001900120029003900320049001A908
:102060001548FFF785FD4FF4806001900220029033
:1020700000200390032004900E20059001A90F4832
:10208000FFF776FD4FF40C60019001A90C48FFF7B3
:102090006FFD4FF47E40019001A90A48FFF768FDEB
:1020A00040F2F760019001A90748FFF761FD06B013
:1020B00010BD0000443802400004024000140240F9
:1020C00000180240001C0240002002402DE9F041AF
:1020D00004460E461746984600BF94F8A000012813
:1020E00002D10220BDE8F081012084F8A00000BFE9
:1020F000022084F8A10008EB880000EBC80104F17D
:10210000380000EB81052E60A86A30446860AF603B
:10211000E86A3844E86042462946204605F060FFF8
:1021200001202168486284F8A10000BF002084F8E3
:10213000A00000BF00BFD5E72DE9F04105460E46DF
:102140001746984600BF95F8A000012802D102204A
:10215000BDE8F081012085F8A00000BF022085F8CD
:10216000A10008EB880000EBC80105F1380000EB86
:102170008104002020602068304460600020A0605E
:10218000A0683844E060A662E762424621462846DD
:1021900005F026FF01202968486285F8A10000BFEC
:1021A000002085F8A00000BF00BFD1E770B504464D
:1021B0000E4615460CB9012070BD94F8210028B9CF
:1021C000002084F82000204600F024F8211D20681B
:1021D000FEF770FD3146D4E90002FEF750FD2946B6
:1021E000D4E90002FEF730FD6068102806D12068AF
:1021F000006840F004002168086005E02068006A7B
:1022000040F0040021680862012084F821000020C9
:10221000D2E7000010B586B0044600BF0020009051
:102220003448006840F00100324908600846006800
:1022300000F00100009000BF00BF00BF0020009030
:102240002C480838006840F008002A49083908601E
:102250000846006800F00800009000BF00BF00BF03
:10226000002000900846006840F010000860084612
:10227000006800F01000009000BF00BF00BF002009
:1022800000900846006840F040000860084600687A
:1022900000F04000009000BF00BF402001900020EF
:1022A0000290012003900320049001A91248FFF737
:1022B0005FFC4FF400700190022002900020039018
:1022C000032004900C20059001A90C48FFF750FC56
:1022D0004DF6330001900020039001A90648FFF756
:1022E00047FC4FF4F060019001A90548FFF740FC5E
:1022F00006B010BD38380240000C02400018024001
:102300000010024000BF00F01F020121914042096D
:10231000920002F1E022C2F8001100BF70472DE9DF
:10232000F05F80460D461646002706F093FD0746EF
:1023300039462A46334601F00700C0F1070ABAF1D0
:10234000040F02D94FF0040A01E0C0F1070AD14698
:1023500000F1040ABAF1070F02D24FF0000A01E0BF
:10236000A0F1030AD4464FF0010A0AFA09FAAAF1C9
:10237000010A0AEA020A0AFA0CFA4FF0010B0BFAF8
:102380000CFBABF1010B0BEA030B4AEA0B042146F1
:10239000404606F067FDBDE8F09F000038B5002418
:1023A00000BF002000902348006840F08050214981
:1023B00008600846006800F08050009000BF00BF31
:1023C0000120010491FAA1F1B1FA81F11A4A42F80F
:1023D0002100FFF7E9FC044607E0FFF7E5FC001BDE
:1023E000B0F57A7F01D9032038BD1448406800F465
:1023F0008030B0F5803FF0D10120410491FAA1F185
:10240000B1FA81F10C4A42F82100FFF7CDFC0446F5
:1024100007E0FFF7C9FC001BB0F57A7F01D9032064
:10242000E2E70648406800F40030B0F5003FF0D124
:102430000020D9E74038024000000E420070004002
:10244000F8B5044600250026207800F0010020B9E8
:10245000207800F00200022866D10020CC4988666E
:10246000FFF7A2FC054606E0FFF79EFC401B642830
:1024700001D90320F8BDC7480068C0F3C060002838
:10248000F2D1207800F0010098B147F6C07191FABE
:10249000A1F1B1FA81F1606888404FF0E04292FA10
:1024A000A2F2B2FA82F2A16891400843B94984319C
:1024B0000860207800F00200022821D1B54884305D
:1024C000006800F0E0404FF0E04191FAA1F1B1FA6C
:1024D00081F120FA01F660688101207B41EA006009
:1024E00040EA0670AB4984310860AA488C30006825
:1024F00020F01F00E169491E0843A6498C3108609D
:102500000120A3498866FFF74FFC054606E0FFF768
:102510004BFC401B642801D90320ABE79D480068B1
:10252000C0F3C0600028F2D0207800F00400042836
:1025300004D0207800F0080008287DD100209449BC
:102540000867FFF731FC054606E0FFF72DFC401B4E
:10255000642801D903208DE78E480068C0F34070DD
:102560000028F2D1207800F00400042834D18948F2
:102570008830006800F0E0404FF0E04191FAA1F1AE
:10258000B1FA81F120FA01F647F6C07191FAA1F192
:10259000B1FA81F1206988404FF0706292FAA2F29C
:1025A000B2FA82F26169914008434FF0E04191FA3A
:1025B000A1F1B1FA81F106FA01F1084375498831B8
:1025C0000860081D006820F4F851206A401E41EAA6
:1025D000002070498C310860207800F0080008283D
:1025E00034D16C488830006800F070604FF0706142
:1025F00091FAA1F1B1FA81F120FA01F647F6C07122
:1026000091FAA1F1B1FA81F1206988404FF070612F
:1026100091FAA1F1B1FA81F106FA01F108434FF004
:10262000E04292FAA2F2B2FA82F2A1699140084322
:1026300058498831086000E01CE0081D006820F45B
:102640004030616A084353498C3108600120504989
:102650000867FFF7A9FB054606E0FFF7A5FB401B4F
:10266000642801D9032005E74A480068C0F3407098
:102670000028F2D0207800F0200020287DD100BF73
:102680000020009043484030006840F080504149AD
:10269000403108600846006800F08050009000BF9C
:1026A00000BF3D48006840F480703B490860FFF778
:1026B0007BFB054606E0FFF777FB401B642801D94A
:1026C0000320D7E63448006800F480700028F2D078
:1026D00030487030006800F44070218D01F4407182
:1026E00088424AD02B487030006820F440760120A0
:1026F0002A4908600020086026487030066006F00D
:10270000020098B1FFF750FB054608E0FFF74CFBCD
:10271000401B41F28831884201D90320AAE61D48B6
:1027200070300068C0F340000028EFD000BF208D5B
:1027300000F44070B0F5407F0CD1164808300068B6
:1027400020F4F810164AA16A1140084311490831D3
:10275000086007E00F480830006820F4F8100D49C1
:10276000083108600B4870300068218DC1F30B01FF
:10277000084308497031086000BF207800F010005D
:10278000102803D194F82C0006490860002071E657
:10279000000047420038024000700040400E4742AF
:1027A000FFFCFF0FE011474270B504460E460025BE
:1027B000A748006800F00F00B0426FD2A4490E7025
:1027C0000846006800F00F00B04201D0012070BD43
:1027D000207800F00200022807D19E48006820F00F
:1027E000F000A16808439B490860207800F00100D0
:1027F00000283ED06068012807D196480838006854
:10280000C0F34040B8B90120E1E76068022802D077
:102810006068032807D18F4808380068C0F340601B
:1028200048B90120D3E78B4808380068C0F340005E
:1028300008B90120CBE78748006820F003006168F1
:10284000084384490860FFF7AFFA0546606801282D
:1028500010D108E0FFF7A8FA401B41F28831884206
:1028600001D90320B3E77B48006800F00C0004287E
:10287000F0D1CDE06068022811D108E0FFF794FAAA
:10288000401B41F28831884201D903209FE77148FB
:10289000006800F00C000828F0D1B9E024E060687E
:1028A000032810D108E0FFF77FFA401B41F288317E
:1028B000884201D903208AE76648006800F00C00CE
:1028C0000328F0D1A4E008E0FFF76EFA401B41F2C4
:1028D0008831884201D9032079E75E48006800F01A
:1028E0000C000028F0D193E0207800F002000228CC
:1028F00007D15848006820F0F000A1680843554906
:102900000860207800F00100002877D06068012876
:1029100007D1504808380068C0F34040B8B90120DA
:1029200055E76068022802D06068032807D149484B
:1029300008380068C0F3406048B9012047E74548BF
:1029400008380068C0F3400008B901203FE741485B
:10295000006820F00300616808433E490860FFF703
:1029600023FA05466068012810D108E0FFF71CFA39
:10297000401B41F28831884201D9032027E73548BE
:10298000006800F00C000428F0D137E060680228ED
:1029900010D108E0FFF708FA401B41F28831884265
:1029A00001D9032013E72B48006800F00C00082829
:1029B000F0D123E06068032810D108E0FFF7F4F9B4
:1029C000401B41F28831884201D90320FFE62148AB
:1029D000006800F00C000328F0D10FE008E0FFF7DA
:1029E000E3F9401B41F28831884201D90320EEE629
:1029F0001848006800F00C000028F0D114490E704F
:102A00000846006800F00F00B04201D00120DEE669
:102A1000207800F00400042807D10E48006820F454
:102A2000E050E16808430B490860207800F0080096
:102A3000082808D10748006820F46040216940EA6E
:102A4000C100044908600F20FFF7BCF90020BEE672
:102A5000003C02400838024010B500F045F8094932
:102A6000096801F0F001F02292FAA2F2B2FA82F2C1
:102A7000D140054A515CC8400449086008460068D6
:102A800010BD000008380240B245010800000020D7
:102A900010B5FFF7E1FF0749096801F4E0514FF471
:102AA000E05292FAA2F2B2FA82F2D140024A515CAA
:102AB000C84010BD08380240B245010810B5FFF704
:102AC000CBFF0749096801F460414FF4604292FA74
:102AD000A2F2B2FA82F2D140024A515CC84010BD63
:102AE00008380240B245010870B5002100220023D9
:102AF0000020274C246804F00C0424B1042C04D0DA
:102B0000082C41D103E0234840E023483EE0204C1C
:102B1000241F246804F03F011D4C241F246804F482
:102B2000800484B11C4CB4FBF1F5194C241F2468BB
:102B300047F6C076344096FAA6F6B6FA86F6F44022
:102B400005FB04F20FE0134CB4FBF1F5104C241F0D
:102B5000246847F6C076344096FAA6F6B6FA86F6AA
:102B6000F44005FB04F20A4C241F246804F44034AA
:102B70004FF4403595FAA5F5B5FA85F5EC40641C9F
:102B80006300B2FBF3F001E0024800BF00BF70BD7C
:102B9000083802400024F40040787D0138B504462E
:102BA0000025207800F00100002866D0F748006872
:102BB00000F00C0004280DD0F448006800F00C0070
:102BC000082813D1F148001F006800F48000B0F518
:102BD000800F0BD1ED4808380068C0F34040002852
:102BE0004BD06068002848D1012038BD0020E7495B
:102BF000891F0870FFF7D8F8054608E0FFF7D4F8FA
:102C0000401B41F28831884201D90320EDE7DF48BB
:102C100008380068C0F340400028EFD12079DB4934
:102C2000891F08706068A0B1FFF7BEF8054608E08C
:102C3000FFF7BAF8401B41F28831884201D90320DE
:102C4000D3E7D24808380068C0F340400028EFD0EE
:102C500013E0FFF7A9F8054608E0FFF7A5F8401BC9
:102C600041F28831884201D90320BEE7C7480838BD
:102C70000068C0F340400028EFD1207800F0020047
:102C8000022869D1C148006800F00C0058B1BF4863
:102C9000006800F00C00082821D1BC48001F006823
:102CA00000F48000D8B9B94808380068C0F3400083
:102CB00020B1E068012801D0012096E7B348083828
:102CC000006820F0F800F82292FAA2F2B2FA82F23A
:102CD000216991400843AD49083908603CE0E0684B
:102CE00028B30120AA490860FFF75EF8054606E010
:102CF000FFF75AF8401B642801D9032075E7A34861
:102D000008380068C0F340000028F1D09F48083818
:102D1000006820F0F800F82292FAA2F2B2FA82F2E9
:102D200021699140084399490839086014E000205E
:102D300097490860FFF738F8054606E0FFF734F8D2
:102D4000401B642801D903204FE7904808380068E9
:102D5000C0F340000028F1D1207800F008000828D6
:102D60002CD16069A8B101208A490860FFF71CF8DE
:102D7000054606E0FFF718F8401B642801D9032038
:102D800033E782486C300068C0F340000028F1D07F
:102D900014E000207F490860FFF706F8054606E0CA
:102DA000FFF702F8401B642801D903201DE777488C
:102DB0006C300068C0F340000028F1D1207800F0AA
:102DC000040004286FD100BF002000906F48383005
:102DD000006840F080506D4938310860084600684E
:102DE00000F08050009000BF00BF6B48006840F4C6
:102DF000807069490860FEF7D7FF054606E0FEF7D8
:102E0000D3FF401B642801D90320EEE66248006826
:102E100000F480700028F2D000205C49683108700E
:102E2000FEF7C2FF054608E0FEF7BEFF401B41F279
:102E30008831884201D90320D7E6544868300068B9
:102E4000C0F340000028EFD1207A50496831087063
:102E5000A068A0B1FEF7A8FF054608E0FEF7A4FFB2
:102E6000401B41F28831884201D90320BDE6474822
:102E700068300068C0F340000028EFD013E0FEF790
:102E800093FF054608E0FEF78FFF401B41F28831B3
:102E9000884201D90320A8E63C4868300068C0F3A6
:102EA00040000028EFD1A069F0B33848006800F076
:102EB0000C00082872D0A069022850D100203449A3
:102EC0000866FEF771FF054606E0FEF76DFF401B42
:102ED000642801D9032088E62C4808380068C0F32C
:102EE00040600028F1D1D4E90701084347F6C072D9
:102EF00092FAA2F2B2FA82F2616A91400843012288
:102F0000A16AC2EB51014FF4403292FAA2F2B2FA36
:102F100082F2914008434FF0706292FAA2F2B2FA44
:102F200082F2E16A914000E03AE008431749091F44
:102F30000860012016490866FEF736FF054606E0E0
:102F4000FEF732FF401B642801D903204DE60F48ED
:102F500008380068C0F340600028F1D020E000206D
:102F60000B490866FEF720FF054606E0FEF71CFF4A
:102F7000401B642801D9032037E60448083800685C
:102F8000C0F340600028F1D10AE007E008380240B1
:102F900000004742800E474200700040012024E6B6
:102FA000002022E670B504460D460CB9012070BD24
:102FB00094F82C0028B9002084F82D00204600F059
:102FC00011F8022084F82C00211D2068FDF72BFF4A
:102FD0002946D4E90002FDF790FF012084F82C0077
:102FE0000020E4E710B586B0044600BF0020009042
:102FF0004348006840F00100414908600846006805
:1030000000F00100009000BF00BF00BF0020009052
:103010003B480838006840F0040039490839086026
:103020000846006800F00400009000BF00BF00BF29
:10303000002000900846006840F00800086008463C
:10304000006800F00800009000BF00BF00BF002033
:1030500000900846006840F01000086008460068CC
:1030600000F01000009000BF00BF00BF00200090E3
:103070000846006840F0200008600846006800F03C
:103080002000009000BF00BF00BF00200090084655
:10309000006840F0400008600846006800F040000A
:1030A000009000BF00BF0D2001900220029001207F
:1030B0000390032004900C20059001A91148FEF70D
:1030C00057FD4CF20370019001A90F48FEF750FD27
:1030D0004FF68370019001A90C48FEF749FD4FF6A9
:1030E0003F00019001A90A48FEF742FD48F237105F
:1030F000019001A90748FEF73BFD06B010BD000096
:103100003838024000080240000C02400010024023
:10311000001402400018024070B504460D4694F8B1
:103120002C00022800D170BD022084F82C00294612
:103130002068FDF7B2FE012084F82C000020F2E7A1
:1031400070B504460D46164694F82C00022800D1AE
:1031500070BD022084F82C00324629462068FDF715
:10316000A3FE2868022803D1052084F82C0002E081
:10317000012084F82C000020EAE72DE9F041034605
:103180000020002293F8204081F856409C8CA1F842
:1031900054409C6A220E94090C70C2F383044C7054
:1031A00002F003048C709C6AC4F30742CA701C8D41
:1031B000C4F307220A7193F828204A71DC6A220EB0
:1031C0004FF6FF7404EA0214CC80DC6AC4F30742B1
:1031D000CC8844EA1214CC8002F00F040C729C8D4F
:1031E000C4F30722D4094C72C2F380148C72C2F368
:1031F0004014CC72C2F300140C7300244C731C6A8C
:1032000014B11C6A012C4DD19407240D0C612C249F
:10321000E25C0C6944EA82040C611C6B220E0C69AE
:1032200044EA92140C61C2F3C2040C7502F0070464
:103230004C751C6BC4F3074254098C75C2F38204AD
:10324000CC759407640F0C761C8EC4F307220C7E99
:1032500044EAD2140C760C69641C0025C1E91245BD
:103260000C7ED1E91275A41C012606FA04F4E617B7
:10327000A7FB04C805FB048407FB0644C1E912C48C
:103280000D7A0124AC400C654FF0000CD1E91276A8
:103290000C6DA7FB045806FB048407FB0C44C1E932
:1032A000125431E01C6A022C2DD12C24E25C9406CD
:1032B000A40A0C611C6B220E0C6944EA02240C6106
:1032C0001C6BC4F307420C6914430C611C8EC4F3DD
:1032D00007220C690025661C6D414FF400774FF002
:1032E000000CA6FB074805FB078506FB0C557E0076
:1032F000A4FB067805FB068504FB0C54C1E9127497
:1033000074100C6500E02920C2F3801401F8194FF5
:103310009406640E4C703024E25C4C7844EAD2147B
:103320004C7002F07F048C705C6B220ED409CC7060
:10333000C2F341140C71C2F382044C719407240F40
:103340008C715C6BC4F307428C7944EA92148C71E3
:10335000C2F34014CC7100240C7202F001044C72D0
:103360009C8EC4F30722D4098C72C2F38014CC72F1
:10337000C2F340140C73C2F300144C73C2F3810403
:103380008C7302F00304CC733424E25C54080C7494
:1033900001244C749C6B220ECA7419399C6BC4F3C3
:1033A00007424FF6FF7404EA0225CD851C8FC4F353
:1033B0000722CC8D1443CC8593F8382015060D6375
:1033C000DC6B220E0C6B44EA02450D63DC6BC4F32C
:1033D00007420C6B44EA02250D639C8FC4F307225D
:1033E0000C6B14430C633C24E25C342462541C6C6C
:1033F000220E352462541C6CC4F3074215068D63FB
:103400004024E45AC4F307228C6B44EA02458D63DE
:103410004024E25C8C6B44EA02258D635C6C220ED6
:103420008C6B14438C635C6CC4F307423C24645C77
:1034300044EA12143C256C541407250DCD8744240E
:10344000E45AC4F30722CC8F1443CC874424E25CB3
:10345000550840246554012541246554BDE8F08198
:1034600030B58BB004460D4600200A9020772046E8
:1034700000F044F800200490059006900790089012
:103480007620099007A807C88DE80700206804A9DE
:103490000EC905F057FE204606F0FCFA0A909DF88A
:1034A000280018B19DF828000BB030BD204606F06A
:1034B00089F90A909DF8280010B19DF82800F3E7DB
:1034C00029462046FFF759FE0A909DF8280040B98A
:1034D000B5F8540001040A460023204606F0D4FB48
:1034E0000A90D4E90412A069CDE90012029094E890
:1034F0000F0005F027FE9DF82800D5E710B586B02F
:10350000044600BF002000902948006840F4006095
:10351000274908600846006800F40060009000BF7A
:1035200000BF00BF0020009021481438006840F41C
:1035300080001F49143908600846006800F48000C4
:10354000009000BF00BF00BF002000900846006848
:1035500040F0040008600846006800F00400009095
:1035600000BF00BF00BF002000900846006840F088
:10357000080008600846006800F00800009000BFDE
:1035800000BF4FF4F85001900220029001200390F8
:10359000032004900C20059001A90648FEF7E8FAE4
:1035A0000420019001A90448FEF7E2FA06B010BD1C
:1035B0004438024000080240000C02402DE9FF5F41
:1035C0008CB0044617469846DDE91AB94FF0000A58
:1035D00000250D9E00202168C862206A022809D1BA
:1035E0004FF4007B0202002338464146FCF78FFE71
:1035F00007468846CDF81CB010200890402009905E
:1036000000200A904FF480600B9007A9206805F015
:10361000BCFD1021204605F071FE8246BAF1000F74
:1036200003D0504610B0BDE8F09F4FF0FF3001903E
:1036300009FB0BF0029090200390022004900020E0
:1036400005900120069001A9206805F04FFDB9F111
:10365000010F02D91220089001E01120089007976D
:1036600007A9206805F091FDB9F1010F22D91221B7
:10367000204605F043FE8246BAF1000F01D05046C5
:10368000D0E70FE02068406B00F4004050B1002507
:1036900005E0206805F075FD46F825006D1C082D35
:1036A000F7D320362068406B40F22A3108400028CA
:1036B000E8D021E01121204605F020FE8246BAF133
:1036C000000F01D05046ADE70FE02068406B00F4DA
:1036D000004050B1002505E0206805F052FD46F895
:1036E00025006D1C082DF7D320362068406B40F272
:1036F0002A6108400028E8D02068406B00F4807000
:1037000070B1B9F1010F0BD9206A28B1206A0128E4
:1037100002D0206A022803D1204600F047F88246F2
:103720002068406B00F0080030B1082021688863F1
:103730004FF0040A504675E72068406B00F0020025
:1037400028B1022021688863824650466AE72068D3
:10375000406B00F0200030B12020216888634FF0DA
:10376000060A50465EE72068406B00F4007038B1EE
:103770004FF40070216888634FF0070A504651E704
:103780004FF0FF3505E0206805F0FBFC3060361D8A
:103790006D1E2068406B00F4001008B1002DF2D1BE
:1037A00040F2FF502168886350463BE730B585B052
:1037B00004460025002000900C200190402002903B
:1037C000002003904FF4806004906946206805F063
:1037D000DCFC0C21204605F091FD0546284605B08D
:1037E00030BD70B58AB004460D460026206A032815
:1037F00003D1272630460AB070BD206A28B1206A5E
:10380000012802D0206A022828D1B5F5805F01D1B5
:1038100027260EE0B5F5006F04D1204606F09BFA8E
:10382000064606E025B9204606F04AFA064600E0BC
:1038300026269EB960680490A0680590E06806900E
:10384000079560690890A069099007A807C88DE8E6
:103850000700206804A90EC905F074FC3046CAE7C9
:103860002DE9FF5F8EB0044617469846DDF874B028
:10387000002002908146002500260190DDF83CA042
:1038800000902168C862206A022809D100021C90B9
:103890000246002338464146FCF739FD0746884674
:1038A0001C98099010200A9040200B9000200C904A
:1038B0004FF480600D9009A9206805F066FC102186
:1038C000204605F01BFD0290029818B1029812B034
:1038D000BDE8F09FBBF1010F02D919200A9001E069
:1038E00018200A90099709A9206805F04EFCBBF141
:1038F000010F05D91921204605F000FD029004E0D2
:103900001821204605F0FAFC0290029808B10298AE
:10391000DDE71C980BFB00F94FF0FF3003901C987B
:103920000BFB00F00490902005900020069007907B
:103930000120089003A9206805F0D8FBBBF1010F16
:103940003AD931E02068406B00F4804060B3A9EBC5
:10395000050020281BD2A9EB050000F0030018B9D0
:10396000A9EB0500800803E0A9EB05008008401CD6
:103970000190002607E05146206805F01AFC0AF184
:10398000040A2D1D761C019886420DD2F3E700260D
:1039900005E00AEB8601206805F00BFC761C082E7A
:1039A000F7D30AF1200A20352068406B40F21A3123
:1039B00008400028C6D039E031E02068406B00F4B0
:1039C000804060B3A9EB050020281BD2A9EB0500BD
:1039D00000F0030018B9A9EB0500800803E0A9EB8B
:1039E00005008008401C0190002607E05146206831
:1039F00005F0DFFB0AF1040A2D1D761C01988642B2
:103A00000DD2F3E7002605E00AEB8601206805F0F9
:103A1000D0FB761C082EF7D30AF1200A2035206847
:103A2000406B40F21A6108400028C6D02068406B05
:103A300000F4807070B1BBF1010F0BD9206A28B17E
:103A4000206A012802D0206A022803D12046FFF70D
:103A5000ADFE02902068406B00F0080030B10820F5
:103A60002168886304200290029830E72068406B48
:103A700000F0020028B102202168886302900298B9
:103A800025E72068406B00F0100030B1102021685D
:103A9000886305200290029819E72068406B00F4C3
:103AA000007038B14FF400702168886307200290DD
:103AB00002980CE740F2FF5021688863694620466F
:103AC00005F0FEFE029004E06946204605F0F8FE8F
:103AD0000290029838B99DF800000728F4D09DF8AC
:103AE00000000628F0D00298F1E610B504460CB9A3
:103AF000012010BD94F8510028B9002084F850002E
:103B0000204600F037F8022084F851002068006851
:103B100020F0400021680860D4E901010843E16811
:103B200008432169084361690843218B01F400714E
:103B30000843E1690843216A0843A16A08432168F0
:103B400008600421A06901EA1040616A0843216805
:103B500048602168E06A08612068C06920F400605C
:103B60002168C86100206065012084F851000020B0
:103B7000BFE7000010B586B0044600BF00200090EB
:103B80001748006840F020001549086008460068A2
:103B900000F02000009000BF00BF00BF0020009098
:103BA0000F481430006840F480100D49143108604B
:103BB0000846006800F48010009000BF00BF4FF47A
:103BC0006070019002200290012003900220049076
:103BD0000520059001A90348FDF7CAFF06B010BDF6
:103BE00030380240001402402DE9F84F04460E46DA
:103BF00017461D46DDF828904FF00008C24694F89D
:103C00005180B8F1010F02D0B8F1220F76D10EB178
:103C100007B115B90120BDE8F88F00BF94F8500036
:103C2000012801D10220F6E7012084F8500000BFEE
:103C300094F85100012802D1322084F8510000206C
:103C40006065A763A587E5872663A586E586A064EA
:103C5000E064A06AB0F5005F0DD100BF2068006885
:103C600020F40050216808602068006840F400508B
:103C70002168086000BF2068006800F0400040280C
:103C800005D02068006840F0400021680860E068C6
:103C9000B0F5006F75D1606830B16068B0F5827FB3
:103CA0000CD1E08E012809D1206B00882168C86002
:103CB000206B801C2063E08E401EE086E08EF0B911
:103CC000A06AB0F5005F05D12068006840F480501C
:103CD000216808604B4600220121204606F02EF99B
:103CE00008B1032097E72068C068A16B0880A06B2B
:103CF000801CA063E08F401EE087C7E01BE131E03D
:103D00004B4600220221204606F018F908B1032094
:103D100081E7206B00882168C860206B801C2063CD
:103D2000E08E401EE086E08E48B9A06AB0F5005FE4
:103D300005D12068006840F48050216808604B4637
:103D400000220121204606F0F9F808B1032062E7BD
:103D50002068C068A16B0880A06B801CA063E08F06
:103D6000401EE087E08E0028CADC60680028C4D1CD
:103D70004B4600220121204606F0E0F810B1032056
:103D800049E70AE02068C068A16B0880A06B801C2E
:103D9000A063E08F401EE08778E0606830B1606823
:103DA000B0F5827F0BD1E08E012808D1216B481C31
:103DB000206308782168C860E08E401EE086E08EAF
:103DC000D0B9A06AB0F5005F05D12068006840F462
:103DD0008050216808604B4600220121204606F0F1
:103DE000ADF808B1032016E72068C068A16B087021
:103DF000E08F401EE08749E030E04B460022022180
:103E0000204606F09BF808B1032004E7216B481C0C
:103E1000206308782168C860E08E401EE086E08E4E
:103E200048B9A06AB0F5005F05D12068006840F489
:103E30008050216808604B4600220121204606F090
:103E40007DF808B10320E6E62068C068C1B2A26B25
:103E5000501CA0631170E08F401EE087E08E0028A8
:103E6000CBDC606890B94B4600220121204606F069
:103E700065F808B10320CEE62068C068C1B2A26B25
:103E8000501CA0631170E08F401EE087A06AB0F55F
:103E9000005F12D14B4600220121204606F04EF869
:103EA00028B1606D40F0020060650320B3E6206831
:103EB000C06880B20090BDF800004B46012280210E
:103EC000204606F03BF828B1606D40F020006065A8
:103ED0000320A0E6012084F8510020688068C0F328
:103EE000001AA06AB0F5005F1FD1BAF1000F1CD014
:103EF000606D40F002006065A06AB0F5005F0DD112
:103F000000BF2068006820F4005021680860206825
:103F1000006840F400502168086000BF00BF002026
:103F200084F8500000BF012075E600BF002084F82F
:103F3000500000BF6FE602206DE670B504460E46E5
:103F400015460CB9012070BD94F8490028B900202D
:103F500084F84800204600F01DF804F108012068AC
:103F6000FCF7F2FE3146A2682068FCF72DFF2946D7
:103F7000236BD4E90102FCF7C3FEA168206850F866
:103F8000210040F00100A268216841F822000020D1
:103F9000D9E7000010B586B0044600BF00200090AD
:103FA0002248006840F00100204908600846006887
:103FB00000F00100009000BF00BF00BF0020009093
:103FC0001A480838006840F00800184908390860A5
:103FD0000846006800F00800009000BF00BF00BF66
:103FE000002000900846006840F010000860084675
:103FF000006800F01000009000BF00BF4EF2B370E8
:1040000001900220029001200390032004900C20D4
:10401000059001A90648FDF7ABFD4FF680700190B1
:1040200001A90448FDF7A4FD06B010BD38380240D0
:10403000000C024000100240042808D14FF0E0219B
:10404000096941F004014FF0E022116107E04FF0EF
:10405000E021096921F004014FF0E022116170476D
:1040600070B504462546681EB0F1807F01D301205B
:104070000FE0681E4FF0E02148610F214FF0FF3044
:1040800004F0F0FE00204FF0E02188610720086175
:10409000002070BD7047704710B504460CB9012070
:1040A00010BD94F8390028B9002084F83800204663
:1040B00000F00CF8022084F83900211D206806F079
:1040C0004DF9012084F839000020E9E738B50446AD
:1040D0000E492068884217D100BF002000900C488C
:1040E000006840F002000A4908600846006800F0D5
:1040F0000200009000BF00BF032201211D20FEF737
:104100000EF91D20FEF7FEF838BD00000004004047
:104110004038024001460868C06840F001000A6863
:10412000D0600868006840F001000A681060002054
:104130007047704710B5044620680069C0F340001E
:10414000D8B12068C068C0F34000B0B16FF0020081
:1041500021680861012020762068806900F0030052
:1041600018B12046FFF7E5FF05E0204600F0ADF866
:10417000204600F0ABF80020207620680069C0F3EC
:104180008000D8B12068C068C0F38000B0B16FF083
:10419000040021680861022020762068806900F40C
:1041A000407018B12046FFF7C4FF05E0204600F03C
:1041B0008CF8204600F08AF80020207620680069FC
:1041C000C0F3C000D8B12068C068C0F3C000B0B16F
:1041D0006FF0080021680861042020762068C0691B
:1041E00000F0030018B12046FFF7A3FF05E02046CA
:1041F00000F06BF8204600F069F800202076206877
:104200000069C0F30010D8B12068C068C0F3001086
:10421000B0B16FF010002168086108202076206896
:10422000C06900F4407018B12046FFF782FF05E036
:10423000204600F04AF8204600F048F8002020769A
:104240002068006900F0010058B12068C06800F0E3
:10425000010030B16FF0010021680861204600F0D4
:1042600037F820680069C0F3C01058B12068C068F2
:10427000C0F3C01030B16FF08000216808612046A3
:10428000FFF708FF20680069C0F3801058B120686C
:10429000C068C0F3801030B16FF040002168086141
:1042A000204600F025F820680069C0F3401058B19E
:1042B0002068C068C0F3401030B16FF02000216862
:1042C00008612046FFF7E7FE10BD70477047000009
:1042D0000549884207D10549096809B9012100E06B
:1042E0000021024A11607047302200208082404243
:1042F00070477047F8B5044600250026206800681E
:1043000000F001052068C06800F480767DB176B1C8
:1043100000BF00200090206800680090206840687E
:10432000009000BF00BFE06B40F00100E063206838
:104330000068C0F340052068406900F001067DB1C7
:1043400076B100BF002000902068006800902068CF
:104350004068009000BF00BFE06B40F00400E063E5
:1043600020680068C0F380052068406900F00106FD
:104370007DB176B100BF00200090206800680090F9
:1043800020684068009000BF00BFE06B40F0020072
:10439000E06320680068C0F3C0052068406900F051
:1043A00001067DB176B100BF002000902068006852
:1043B000009020684068009000BF00BFE06B40F0B4
:1043C0000800E06320680068C0F340152068C068FA
:1043D00000F020061DB116B1204606F079F82068DD
:1043E0000068C0F3C0152068C06800F080061DB1E9
:1043F00016B1204606F0DCF920680068C0F380158D
:104400002068C06800F040061DB116B1204606F0D5
:1044100047F8E06B28B1012084F839002046FFF707
:1044200068FFF8BD10B504460CB9012010BDA069A5
:1044300000B100E000BF94F8390028B9002084F8EA
:104440003800204600F026F8022084F83900206861
:10445000C06820F400502168C860204606F096F835
:104460002068006920F49040216808612068406954
:1044700020F02A00216848612068C06840F400509C
:104480002168C8600020E063012084F83900002022
:10449000CCE7000010B586B0044628492068884261
:1044A0004AD100BF002000902548006840F001007C
:1044B000234908600846006800F00100009000BF32
:1044C00000BF00BF002000901D481430006840F07D
:1044D00010001B49143108600846006800F0100005
:1044E000009000BF00BF48150190022002900120FB
:1044F0000390022004900720059001A91148FDF7C0
:1045000037FB4FF48060019001A90E48FDF730FBA6
:104510002068C06820F040002168C8602068C0683A
:1045200040F020002168C8602520FDF7EBFE032243
:1045300011462520FDF7F3FE06B010BD0010014026
:1045400030380240000002402DE9F04704460D4695
:10455000164699464FF0000894F83980B8F1010FDB
:1045600002D0B8F1120F69D105B116B90120BDE82A
:10457000F08700BF94F83800012801D10220F6E747
:10458000012084F8380000BF0020E06394F839006F
:10459000122803D1322084F8390002E0222084F866
:1045A0003900A685E68535E0E08D401EE085A068EF
:1045B000B0F5805F18D14B4600222021204606F03E
:1045C0002FF908B10320D2E72F46206930B92068BF
:1045D0004068C0F308003880AD1C1BE020684068CC
:1045E000C0B238806D1C15E04B46002220212046C9
:1045F00006F016F908B10320B9E7206920B9206850
:10460000406805F8010B05E02068406800F07F0075
:1046100005F8010BE08D0028C6DC94F8390032283B
:1046200003D1122084F8390002E0012084F8390017
:1046300000BF002084F8380000BF98E7022096E70A
:1046400070477047024602F29F30405C7047024656
:1046500002F5557050F82100704770B504460E46BB
:1046600000250021C4F8101300BF0BE0002104F561
:10467000467040F825103C3040F825103C3041553C
:10468000681CC5B20F2DF1DB0821A4F8B613314622
:10469000204608F0E1FA204607F0D4FE204607F055
:1046A0009BFD0121204608F03FFB204607F027FE36
:1046B000204607F020FF002070BD0146D1F810030E
:1046C000704770B504460D46002104F29F304155F5
:1046D000113000EB451041612946204608F04AF9A7
:1046E00070BD00BFFEE7000010B500200F49086054
:1046F0000F48006820F440600D49086008460068D3
:1047000040F48060086000200A49C1F89402022049
:104710000AF00EF801200549086002200AF008F8A6
:1047200000200449C1F8900210BD0000908243426D
:10473000001C02400080434200B587B000BF00204B
:1047400001901048006840F080000E49086008465B
:10475000006800F08000019000BF00BF3020029090
:104760000120039004900220059002A90648FDF75D
:10477000FFF90120054908600549C1F8900207B01A
:1047800000BD000030380240001C024094824342C9
:104790000080434210B500200F4908600F480068B0
:1047A00020F440600D4908600846006840F48060CD
:1047B000086001200A49C1F89402022009F0B8FFFC
:1047C000012005490860022009F0B2FF00200449D9
:1047D000C1F8900210BD000090824342001C0240CC
:1047E0000080434270B5054600241648006820F456
:1047F000406014490860084600680860002616E01A
:10480000002011490860022009F092FF01200F49A1
:10481000C1F890026006040E0B487C38006808B1AD
:10482000601CC4B2012009F083FF701CC6B2082EC0
:10483000E6DB15B9FFF7AEFF01E0FFF755FF2046B5
:1048400070BD0000001C0240908243420080434241
:1048500070B504461548006820F4406013490860AC
:104860000846006840F48060086000201049086035
:10487000002517E0E0090E49091D08606006040ED6
:10488000022009F055FF01200A49C1F890020220D8
:1048900009F04EFF002006490860022009F048FF99
:1048A000681CC5B2082DE5DB70BD0000001C02408D
:1048B000908243420080434210B50F48006820F4C4
:1048C00040600D4908600846006840F48060086058
:1048D00001200A4908600A49C1F89002042009F041
:1048E00027FF002005490860042009F021FF00206F
:1048F0000349C1F8900210BD001C0240948243425B
:104900000080434210B50F48006820F440600D4914
:1049100008600846006840F48060086000200A498A
:1049200008600A49C1F89402042009F001FF01203F
:1049300005490860042009F0FBFE01200349C1F885
:10494000940210BD001C024090824342008043420A
:1049500010B500241348006820F440601149086035
:1049600008460068086001200F49086009F0E0FE71
:1049700001200E49C1F8900209F0DAFE07E0601C40
:10498000C4B2FA2C03DDFFF7BDFF012010BD0648BD
:10499000803800680028F2D10349091F086000BF71
:1049A000F4E70000001C024094824342008043422E
:1049B00010B502460B4600210AB9012010BD0021A6
:1049C0001DE00020134C04EB01142080114C04EB7B
:1049D000011460800F4C04EB0114A0720D4C04EB29
:1049E0000114E0600B4C04EB01146072094C04EB01
:1049F00001146060074C04EB01142072491C062965
:104A0000DFD30020034C84F86000204642668366B2
:104A10000020D3E76C0B002000B587B000BF00205A
:104A200001902548006840F00100234908600846CD
:104A3000006800F00100019000BF00BF00BF00202F
:104A400001900846006840F00400086008460068CD
:104A500000F00400019000BF00BF00BF00200190E3
:104A60000846006840F0800008600846006800F0D2
:104A70008000019000BF00BF012002900020039041
:104A8000022004900320059002A90C48FDF770F85D
:104A9000082002900020039001200490032005903C
:104AA00002A90748FDF764F806490748FFF780FFA9
:104AB00000F00CF807B000BD3038024000000240A2
:104AC000001C02407D8F000875DC000808B51848FE
:104AD00001231A4603210090164804F059FA16489B
:104AE0000223012232210090124804F051FA1348A7
:104AF00003230122642100900E4804F049FA104873
:104B000001230222032100900E4804F041FA0E48CE
:104B100002231A46322100900A4804F039FA0B4861
:104B20000323022264210090064804F031FA08BDF4
:104B30000D1E010823000020E11D0108ED1D0108E4
:104B4000451E010824000020191E0108251E010829
:104B500070B5044600260D4805880D48006818B158
:104B6000204602F00FFF0FE008484088454300212F
:104B7000084602F041FD02F0C5FE002602E00549AC
:104B80000C80761CAE42FAD370BD0000280C0020C9
:104B9000540D00200000086010B504465C48847184
:104BA0005C48006850B1204602F012FF5948C08AA4
:104BB000574908805748008B488010BD002C51D1C0
:104BC000F020534908804FF4A07048800846808840
:104BD00049F24131884205D04D48808845F2103174
:104BE000884214D12C204A4908812A2048812B2050
:104BF00088810846808845F21031884206D14FF4FA
:104C0000A070434908804FF4F07048807BE0404832
:104C1000808845F21051884210D14FF430503C4901
:104C200008814FF4285048814FF42C5088814FF46C
:104C3000F07008804FF44870488064E03448808801
:104C400041F6631188425ED12C20314908812B2026
:104C500048812A2088814FF4F07008804FF4487012
:104C6000488050E04FF4A07029490880F020488027
:104C70000846808849F24131884205D0244880881E
:104C800045F21031884207D12C20214908812A2081
:104C900048812B20888129E01D48808845F21051E9
:104CA000884210D14FF43050194908814FF42850F0
:104CB00048814FF42C5088814FF4487008804FF49D
:104CC000F070488012E01248808841F663118842F3
:104CD0000CD12C200E4908812A2048812B20888164
:104CE0004FF4487008804FF4F0704880084880887E
:104CF00045F21031884206D14FF4F0700449088023
:104D00004FF4A0704880002002F03CFB00BF54E745
:104D1000280C0020540D002070B504460D461646A0
:104D20004348006828B132462946204602F066FE14
:104D300070BD4048808849F24131884205D03D48E5
:104D4000808845F21031884214D13A49488902F0EE
:104D5000CDFD201202F0BEFDE0B202F0BBFD3549F0
:104D6000888902F0C3FD281202F0B4FDE8B202F017
:104D7000B1FD54E02F48808845F21051884220D17F
:104D80002C49488902F0B2FD201202F0A3FD294906
:104D90004989491C88B202F0A9FDE0B202F09AFDEF
:104DA0002449888902F0A2FD281202F093FD2149CE
:104DB0008989491C88B202F099FDE8B202F08AFDA7
:104DC0002DE01C48808841F66311884227D119489C
:104DD000807920B917480088401E001B84B215490D
:104DE000488902F083FD201202F074FDE0B202F067
:104DF00071FD201202F06EFDE0B202F06BFD0D4974
:104E0000888902F073FD281202F064FDE8B202F016
:104E100061FD281202F05EFDE8B202F05BFD05487C
:104E2000008905490880891C0E8000BF80E70000CA
:104E3000540D0020280C0020FEFF07602DE9F84FDC
:104E400005460E4617469846DDF828904FF0000BB1
:104E50001448006840B143463A4631462846CDF8EA
:104E6000009002F0F3FD1BE0781B401C1FFA80FB52
:104E7000344613E02146284602F0BEFB02F042FD14
:104E80004FF0000A06E00849A1F800900AF101007D
:104E90001FFA80FADA45F6DB601C84B24445E9DD8E
:104EA000BDE8F88F540D00200000086000B595B0F3
:104EB00003F026F8FE4988800846808818B102F081
:104EC00077FE02F0F0B900BF00200190F9480068B9
:104ED00040F00200F74908600846006800F0020050
:104EE000019000BF00BF202010900120119012906F
:104EF0000320139010A9F048FCF73AFE4FF0204031
:104F0000EE490860EE484860002088600021EB48C8
:104F1000C16001611021416100218161C161416273
:104F20004FF4805181620021C1624FF480410163DE
:104F30000021416381634FF48011C1630F20099008
:104F400000200A9046200B9000200F900F20029026
:104F5000002003900F2004900020089002AA09A9C5
:104F6000D648FEF7EAFF322009F0D6FBD32002F044
:104F7000BDFC02F0CDF9CE49888002F0C9F9CC49D8
:104F8000888002F0C5F9CA498880084680884FF6B3
:104F9000FF7101EA0020C649888002F0B9F9C449CE
:104FA00089880843C24988800846808849F241318F
:104FB000884278D0D42002F099FC02F0A9F9BC49CB
:104FC000888002F0A5F9BA49888002F0A1F9B849B1
:104FD0008880084680884FF6FF7101EA0020B449B6
:104FE000888002F095F9B24989880843B0498880E1
:104FF0000846808845F21031884254D04FF45A4018
:1050000002F074FC02F084F9A94988804FF45B40F7
:1050100002F06CFC02F07CF9A54988800846808883
:105020004FF6FF7101EA0020A14988804FF45C40EF
:1050300002F05CFC02F06CF99D49898808439C49A8
:10504000888008468088B0F5004F02D145F21050A4
:1050500088809748808845F21051884223D0A1204B
:1050600002F044FC02F054F99149888002F050F9B2
:105070008F498880084680884FF6FF7101EA00203A
:105080008B49888002F044F9894989880843884916
:1050900088800846808845F26171884203D141F6D4
:1050A0006310834988808248818886A0FBF7A6F92F
:1050B0007F48808849F2413188427CD1CF2002F07C
:1050C00015FC002002F006FCC12002F003FC302099
:1050D00002F000FCED2002F009FC642002F0FAFB73
:1050E000032002F0F7FB122002F0F4FB812002F013
:1050F000F1FBE82002F0FAFB852002F0EBFB102028
:1051000002F0E8FB7A2002F0E5FBCB2002F0EEFB98
:10511000392002F0DFFB2C2002F0DCFB002002F043
:10512000D9FB342002F0D6FB022002F0D3FBF7209B
:1051300002F0DCFB202002F0CDFBEA2002F0D6FBDF
:10514000002002F0C7FB002002F0C4FBC02002F0E8
:10515000CDFB1B2002F0BEFBC12002F0C7FB0120EB
:1051600002F0B8FBC52002F0C1FB302002F0B2FB18
:10517000302002F0AFFBC72002F0B8FBB72002F0EE
:10518000A9FB362002F0B2FB482002F0A3FB3A2034
:1051900002F0ACFB552002F09DFBB12002F0A6FB13
:1051A000002002F097FB1A2002F094FBB62002F0D8
:1051B0009DFB0A2000E0ABE002F08CFBA22002F095
:1051C00089FBF22002F092FB002002F083FB2620F4
:1051D00002F08CFB012002F07DFBE02002F086FB58
:1051E0000F2002F077FB2A2002F074FB282002F047
:1051F00071FB082002F06EFB0E2002F06BFB082012
:1052000002F068FB542002F065FBA92002F062FB6B
:10521000432002F05FFB0A2002F05CFB0F2002F04B
:1052200059FB002002F056FB002002F053FB002047
:1052300002F050FB002002F04DFBE12002F056FB93
:10524000002002F047FB152002F044FB172002F07B
:1052500041FB072002F03EFB112002F03BFB062041
:1052600002F038FB2B2002F035FB562002F032FB17
:105270003C2002F02FFB052002F02CFB102002F056
:1052800029FB0F2002F026FB3F2002F023FB3F20EA
:1052900002F020FB0F2002F01DFB2B2002F026FB6A
:1052A000002002F017FB002002F014FB012011E0A7
:1052B000280C00203038024000040240D80B0020A7
:1052C000040100A0204C43442049443A25780D0AAB
:1052D0000000000002F0FEFA3F2002F0FBFA2A2054
:1052E00002F004FB002002F0F5FA002002F0F2FACE
:1052F000002002F0EFFAEF2002F0ECFA112002F0A9
:10530000F5FA782009F008FA292002F0EFFAD8E53A
:10531000FE48808845F21031884240F07C87ED20BD
:1053200002F0E4FA012002F0D5FAFE2002F0D2FAEF
:10533000EE2002F0DBFADE2002F0CCFA212002F0AF
:10534000C9FAF12002F0D2FA012002F0C3FADF20FC
:1053500002F0CCFA102002F0BDFAC42002F0C6FA26
:105360008F2002F0B7FAC62002F0C0FA002002F047
:10537000B1FAE22002F0AEFAE22002F0ABFAE2204B
:1053800002F0A8FABF2002F0B1FAAA2002F0A2FAB5
:10539000B02002F0ABFA0D2002F09CFA002002F0DF
:1053A00099FA0D2002F096FA002002F093FA1120EB
:1053B00002F090FA002002F08DFA192002F08AFA29
:1053C000002002F087FA212002F084FA002002F087
:1053D00081FA2D2002F07EFA002002F07BFA3D20B7
:1053E00002F078FA002002F075FA5D2002F072FAFD
:1053F000002002F06FFA5D2002F06CFA002002F04B
:1054000069FAB12002F072FA802002F063FA0020FB
:1054100002F060FA8B2002F05DFA002002F05AFAE6
:10542000962002F057FA002002F054FAB22002F05F
:105430005DFA002002F04EFA002002F04BFA022042
:1054400002F048FA002002F045FA032002F042FA86
:10545000002002F03FFAB32002F048FA002002F0E8
:1054600039FA002002F036FA002002F033FA002068
:1054700002F030FA002002F02DFA002002F02AFAA1
:10548000002002F027FA002002F024FA002002F0A7
:1054900021FA002002F01EFA002002F01BFA002080
:1054A00002F018FA002002F015FA002002F012FAB9
:1054B000002002F00FFA002002F00CFA002002F0A7
:1054C00009FA002002F006FA002002F003FA002098
:1054D00002F000FA002002F0FDF9002002F0FAF9D3
:1054E000002002F0F7F9002002F0F4F9B42002F0F5
:1054F000FDF98B2002F0EEF9002002F0EBF9962086
:1055000002F0E8F9002002F0E5F9A12002F0E2F94A
:10551000002002F0DFF9B52002F0E8F9022002F0E5
:10552000D9F9002002F0D6F9032002F0D3F90020C7
:1055300002F0D0F9042002F0CDF9002002F0CAF9FF
:10554000B62002F0D3F9002002F0C4F9002002F0E6
:10555000C1F9B72002F0CAF9002002F0BBF900201F
:1055600002F0B8F93F2002F0B5F9002002F0B2F9DC
:105570005E2002F0AFF9002002F0ACF9642002F0E6
:10558000A9F9002002F0A6F98C2002F0A3F900206E
:1055900002F0A0F9AC2002F09DF9002002F09AF987
:1055A000DC2002F097F9002002F094F9702002F05C
:1055B00091F9002002F08EF9902002F08BF9002082
:1055C00002F088F9EB2002F085F9002002F082F960
:1055D000DC2002F07FF9002002F07CF9B82002F014
:1055E00085F9002002F076F9002002F073F900201E
:1055F00002F070F9002002F06DF9002002F06AF963
:10560000002002F067F9002002F064F9002002F0A7
:1056100061F9BA2002F06AF9242002F05BF9002057
:1056200002F058F9002002F055F9002002F052F97A
:10563000C12002F05BF9202002F04CF9002002F0BA
:1056400049F9542002F046F9002002F043F9FF2006
:1056500002F040F9002002F03DF9C22002F046F9C4
:105660000A2002F037F9002002F034F9042002F099
:1056700031F9002002F02EF9C32002F037F93C2066
:1056800002F028F9002002F025F93A2002F022F970
:10569000002002F01FF9392002F01CF9002002F06E
:1056A00019F9372002F016F9002002F013F93C2016
:1056B00002F010F9002002F00DF9362002F00AF98C
:1056C000002002F007F9322002F004F9002002F075
:1056D00001F92F2002F0FEF8002002F0FBF82C2048
:1056E00002F0F8F8002002F0F5F8292002F0F2F8B4
:1056F000002002F0EFF8262002F0ECF8002002F083
:10570000E9F8242002F0E6F8002001E0280C00204F
:1057100002F0E0F8242002F0DDF8002002F0DAF8D0
:10572000232002F0D7F8002002F0D4F83C2002F049
:10573000D1F8002002F0CEF8362002F0CBF800209D
:1057400002F0C8F8322002F0C5F8002002F0C2F8DA
:105750002F2002F0BFF8002002F0BCF82C2002F04D
:10576000B9F8002002F0B6F8292002F0B3F80020C2
:1057700002F0B0F8262002F0ADF8002002F0AAF8FE
:10578000242002F0A7F8002002F0A4F8242002F060
:10579000A1F8002002F09EF8232002F09BF80020E0
:1057A00002F098F8C42002F0A1F8622002F092F80A
:1057B000002002F08FF8052002F08CF8002002F0A3
:1057C00089F8842002F086F8002002F083F8F020A7
:1057D00002F080F8002002F07DF8182002F07AF83C
:1057E000002002F077F8A42002F074F8002002F004
:1057F00071F8182002F06EF8002002F06BF85020CB
:1058000002F068F8002002F065F80C2002F062F85F
:10581000002002F05FF8172002F05CF8002002F090
:1058200059F8952002F056F8002002F053F8F320C2
:1058300002F050F8002002F04DF8E62002F04AF89D
:10584000002002F047F8C52002F050F8322002F0A4
:1058500041F8002002F03EF8442002F03BF800201E
:1058600002F038F8652002F035F8002002F032F836
:10587000762002F02FF8002002F02CF8882002F0A9
:1058800029F8002002F026F8C62002F02FF8202088
:1058900002F020F8002002F01DF8172002F01AF89C
:1058A000002002F017F8012002F014F8002002F0A6
:1058B00011F8C72002F01AF8002002F00BF80020BF
:1058C00002F008F8002002F005F8002002F002F8CB
:1058D000C82002F00BF8002001F0FCFF002001F0CE
:1058E000F9FF002001F0F6FF002001F0F3FFC920CE
:1058F00001F0FCFF002001F0EDFF002001F0EAFFC5
:10590000002001F0E7FF002001F0E4FF002001F09B
:10591000E1FF002001F0DEFF002001F0DBFF0020AE
:1059200001F0D8FF002001F0D5FF002001F0D2FFE8
:10593000002001F0CFFF002001F0CCFF002001F09B
:10594000C9FF002001F0C6FF002001F0C3FF0020C6
:1059500001F0C0FFE02001F0C9FF162001F0BAFFFE
:10596000002001F0B7FF1C2001F0B4FF002001F07F
:10597000B1FF212001F0AEFF002001F0ABFF362087
:1059800001F0A8FF002001F0A5FF462001F0A2FFD2
:10599000002001F09FFF522001F09CFF002001F049
:1059A00099FF642001F096FF002001F093FF7A2018
:1059B00001F090FF002001F08DFF8B2001F08AFFA5
:1059C000002001F087FF992001F084FF002001F002
:1059D00081FFA82001F07EFF002001F07BFFB920AD
:1059E00001F078FF002001F075FFC42001F072FF84
:1059F000002001F06FFFCA2001F06CFF002001F0D1
:105A000069FFD22001F066FF002001F063FFD9207A
:105A100001F060FF002001F05DFFE02001F05AFF7F
:105A2000002001F057FFF32001F054FF002001F0A7
:105A300051FFE12001F05AFF162001F04BFF00203A
:105A400001F048FF1C2001F045FF002001F042FF5B
:105A5000222001F03FFF002001F03CFF362001F042
:105A600039FF002001F036FF452001F033FF002010
:105A700001F030FF522001F02DFF002001F02AFF3D
:105A8000642001F027FF002001F024FF7A2001F0BC
:105A900021FF002001F01EFF8B2001F01BFF0020E2
:105AA00001F018FF992001F015FF002001F012FF0E
:105AB000A82001F00FFF002001F00CFFB92001F039
:105AC00009FF002001F006FFC42001F003FF0020C1
:105AD00001F000FFCA2001F0FDFE002001F0FAFEF7
