:020000040800F2
:10000000581C002035700008A1010008A301000859
:10001000A7010008AB010008AF01000800000000C4
:10002000000000000000000000000000B301000814
:10003000B501000800000000B70100084D7000087D
:100040004F7000084F7000084F7000084F70000894
:100050004F7000084F7000084F700008B901000889
:100060004F7000084F7000084F7000084F70000874
:100070004F7000084F7000084F7000084F70000864
:100080004F7000084F7000084F7000084F70000854
:100090004F7000084F7000084F7000084F70000844
:1000A0004F7000084F7000084F7000084F70000834
:1000B000D50100084F7000084F7000084F7000080D
:1000C0004F7000084F7000084F7000084F70000814
:1000D0004F7000084F7000084F7000084F70000804
:1000E0004F7000084F7000084F7000084F700008F4
:1000F0004F7000084F7000084F7000084F700008E4
:100100004F7000084F7000084F7000084F700008D3
:100110004F7000084F7000084F7000084F700008C3
:100120004F7000084F7000084F7000084F700008B3
:100130004F7000084F7000084F7000084F700008A3
:100140004F7000084F7000084F700008DD01000874
:100150004F7000084F7000084F7000084F70000883
:100160004F7000084F7000084F7000084F70000873
:100170004F7000084F7000084F7000084F70000863
:100180004F7000084F700008DFF810D00BF02EF908
:100190000048004799040008AFF30080581C002075
:1001A000704700BFFEE700BFFEE700BFFEE700BFED
:1001B000FEE770477047704710B5022007F03EFA1F
:1001C00038B10949D1F8801048698047022007F00A
:1001D00046FA10BD10B500F03EF910BD10B5034849
:1001E00003F07FFC10BD0000000700205401002038
:1001F00008B500214FF0006006F068FF4FF4A060E2
:1002000006F02AFF1C208DF8000001208DF8010067
:100210008DF802008DF80300684606F022FF0121E8
:10022000084607F00CFD08BD1CB504460121084630
:1002300007F0D2FC4FF4C850009003208DF8050061
:1002400002208DF8040000208DF806008DF80700CC
:1002500069468D4807F07AFA0A2208218A4807F091
:1002600000FB0A220B21884807F0FBFA0A220C2126
:10027000854807F0F6FA4FF40070009003208DF8DF
:10028000050000208DF8040001208DF806000020F4
:100290008DF8070069467C4807F058FA4FF48060F3
:1002A000009001208DF806008DF8070003208DF8DE
:1002B00005006946744807F049FA0A221146724857
:1002C00007F0CFFA0121880307F0CAFC0121802042
:1002D00007F093FCFFF78CFF1CBD10B504216B48A1
:1002E00007F096FA10BD10B54FF48071664807F01C
:1002F000A9FA10BD10B54FF48071634807F0A4FA55
:1003000010BD38B504464FF4C06006F0A5FE43208A
:100310008DF8000001208DF8010003208DF8020007
:1003200001208DF80300684606F09BFE38BD70B5CD
:1003300005460C4624B90121554807F083FA03E02D
:100340000121534807F080FA70BD3EB504460021F4
:100350004FF0804007F0E8FF00220121880708F0F5
:10036000FBFB022C02D10B20019004E0012C02D1F6
:1003700042F6DF6001900520ADF800000020ADF8E6
:100380000800ADF8020069464FF0804007F043FFD7
:100390000121880708F008FC0121880707F0A6FF63
:1003A00001221146900708F0D7FB0121880707F0CA
:1003B000BBFF3EBD70B505460C463648056020467D
:1003C000FFF7C3FF00BF334800680028FBD10021BE
:1003D0004FF0804007F0A8FF70BD10B50446012122
:1003E0002046FFF7E7FF10BD1CB50446012104209D
:1003F00007F0F2FB0120009003208DF8050001209A
:100400008DF8040000208DF806008DF8070069467D
:100410001F4807F09BF901211D4807F013FAC82077
:10042000FFF7DBFF1CBD10B5044602212046FFF795
:10043000C1FF10BD08B500220092C0EB0012D2002F
:100440000723B2FBF3F100BF009A521C00928A42CC
:1004500000D908BDF8E710B50121880708F093FB23
:1004600088B10121880708F09FFB0A48006828B17D
:1004700008480068401E0749086004E000214FF06A
:10048000804007F051FF10BD000002400010024004
:1004900000080240040000200EB5002002900190E8
:1004A0000C480D4B0D4A012100900D4800F0B2FDA3
:1004B0000EE00A490A4800F0E2FF0298411C02914E
:1004C000B0F5803F04D3002009F037FB00200290F4
:1004D000EFE700000C00002094000020000700203F
:1004E0005401002010B5F648007800281AD10120E8
:1004F000F3490870002009F0F1FA0021084609F0DC
:1005000029FB09F0AEFE09F01FF9EEA009F023F96E
:100510004FF6FF70F1490880F1A00AF0C3FFF8A080
:1005200009F061F910BD10B54FF6FF70EB49088076
:10053000FB480AF0B7FF10BD10B54FF47840E7490B
:100540000880F8A00AF0AEFFF8480AF0ABFF4FF6BB
:10055000FF70E249088010BD10B509F076F9F4A1EA
:10056000C6200AF05BF9F2A1D2200AF057F94FF445
:100570007840DA490880EBA00AF094FFF6480AF0C8
:1005800091FF4FF6FF70D549088010BD704710B538
:1005900004463CB94FF6FF70D0490880EF480AF096
:1005A00081FF1AE0012C07D14FF6FF70CB4908807C
:1005B000EB480AF077FF10E0022C07D14FF6FF70EE
:1005C000C6490880E7480AF06DFF06E04FF6FF7065
:1005D000C2490880E4480AF065FF10BD70B50446C2
:1005E00025464FF6FF70BD4908802989DFA00AF033
:1005F00059FF4FF6FF70B94908806989DFA00AF0FA
:1006000051FF70BD70472DE9F04106460C46174674
:1006100025466879082807D14FF6FF70AF49088052
:10062000DA480AF03FFF09E06879032806D14FF65F
:10063000FF70AA490880D6480AF034FFBDE8F0816F
:1006400010B504464FF6FF70A44908802146D1A09A
:100650000AF028FF10BD10B504464FF6FF709F4901
:1006600008802146D0A00AF01DFF10BD10B5044639
:100670004FF6FF70994908802146CFA00AF012FF7B
:1006800010BD10B54FF6FF7094490880CF480AF0AE
:1006900009FF4FF4FC600AF00FF8CDA1C6200AF064
:1006A000BDF8D5A1D2200AF0B9F84FF6FF700AF0D4
:1006B00003F810BD10B54FF478408849088099A020
:1006C0000AF0F0FED5A00AF0EDFE4FF6FF70834968
:1006D000088010BD10B50024002009F081FA01281F
:1006E00000D10124204610BD10B54FF478407B495D
:1006F00008808CA00AF0D6FECEA00AF0D3FE4FF6FA
:10070000FF707649088010BD10B5D04801680068B8
:10071000401CCE4A1060B1F5803F05D1002009F0A1
:100720000CFA0020C949086010BD38B5002400202B
:1007300000904FF4A073F022002108460AF019FD42
:100740003621C34805F0F3FA1CE06B464FF4007203
:10075000C049BF4805F08AF80546BDF8000000B161
:1007600005B114E000240AE0BA490A5D0B46611C99
:10077000595C42EA012009F0BAFFA01C84B2B4F52A
:10078000007FF1DBB44804F059F80028DDD100BF48
:1007900038BDF0B58DB0054601272946684605F0FD
:1007A000A6FB0646002E3ED100BF07A9684605F00D
:1007B000D2FB064616B99DF8250000B932E09DF837
:1007C00025002E2800D1F0E70DF125049DF8240026
:1007D00000F0100000B1E8E7A0A120460AF00EFDED
:1007E00020B99FA120460AF009FDD0B1012221467F
:1007F000974804F075FF0646FFF797FF6420FFF760
:10080000ECFD002701E0FFF77FFF934804F016F8A6
:1008100020B1002009F0E4F90028F4D08C4805F05C
:100820007BFAC2E700BF27A008F095FF34A008F0CC
:10083000DAFF4FF6FF70294908808A480068894A24
:10084000128900FB02F188A00AF02CFE01208D49DC
:10085000087038460DB0F0BDF0B591B007460C46B3
:10086000394604A805F043FB0546002D25D170E16B
:100870000BA904A805F06FFB054615B99DF83500D6
:1008800000B96CE19DF835002E2800D161E10DF131
:100890003506314668460AF0C3FC7B480078401CA8
:1008A0007949087008460078092807DD002008709B
:1008B0004FF4FC6009F000FFE8E051E1FEE00000C9
:1008C0005400002020555342204F544720465320C7
:1008D0004D534320486F737400000000D80000207F
:1008E0003E2055534220486F7374206C69627261D8
:1008F000727920737461727465642E0A00000000BE
:10090000202020202055534220486F7374204C69CA
:1009100062726172792076322E312E300000000032
:1009200056B900084552524F523A2000B9BA000851
:1009300020202020202020202020202020202020B7
:1009400020202020202020202020202020202020A7
:1009500020202020202000006AB900089BB9000850
:10096000B9B90008D7B90008F4B9000856494420BD
:100970003A2025303458680A0000000050494420CD
:100980003A2025303458680A0000000005BA0008F3
:1009900026BA00084D616E75666163747572657282
:1009A000203A2025730A000050726F64756374202A
:1009B0003A2025730A00000053657269616C204E6D
:1009C000756D626572203A2025730A0081B90008AE
:1009D000546F207365652074686520726F6F742092
:1009E000636F6E74656E74206F6620746865206432
:1009F00069736B203A2000005072657373204B6559
:100A0000792E2E2E20202020202020202020202063
:100A10002020202020202020202020003E2044656F
:100A200076696365206E6F7420737570706F727471
:100A300065642E004F76657263757272656E742000
:100A400064657465637465642E00000058000020BE
:100A5000C4090020E80B002054010020626D7000E2
:100A6000424D5000741000203E204469736B206397
:100A700061706163697479203A2025642042797439
:100A800065730A000800002009000020C4A1C620E8
:100A900009F0C4FECEA1D22009F0C0FE4FF6FF70CF
:100AA00009F00AFE01E0FFF72FFED04803F0C6FE72
:100AB00020B1002009F094F80028F4D0012C0BD1CB
:100AC00047F6FF70CA490880CAA00AF0EBFC4FF64F
:100AD000FF70C74908800CE0022C0AD147F6FF706E
:100AE000C3490880C5A00AF0DDFC4FF6FF70C0497D
:100AF00008809DF8340000F03F0010280CD1AFF2C0
:100B00004C1168460AF06EFB4FF6FF70B84908803A
:100B100068460AF0C7FC0FE0AFF2681168460AF0B9
:100B200061FB47F6FF70B249088068460AF0BAFCDC
:100B30004FF6FF70AE4908809DF8340000F03F008A
:100B4000102805D1012C03D102213046FFF784FE85
:100B500000BFA64803F072FE00287FF489AE00BFF4
:100B6000284611B0F0BD30B591B04022A6A101A831
:100B70000AF026FBB448007830B1012846D002289C
:100B800056D003287ED1E3E0B049002004F095FD63
:100B900090B14FF4784096490880AFF278200AF07F
:100BA00081FCABA00AF07EFC4FF6FF7090490880F4
:100BB0004FF0FF3011B030BD4FF6FF708C49088008
:100BC000AC480068C10AACA00AF06CFC4FF6FF709C
:100BD00087490880A7480189AEA00AF063FCA548B0
:100BE000007B01280ED14FF4784081490880AFF294
:100BF000CC200AF057FCAF480AF054FC4FF6FF70C7
:100C00007B490880012090490870C1E04FF6FF70D1
:100C100077490880A8480AF045FC0121A7A0FFF702
:100C20001BFE0020A6490870022087490870AFE02B
:100C30004FF4FC6009F040FD59A1C62009F0EEFD1B
:100C4000A0A1D22009F0EAFD4FF6FF7009F034FDB3
:100C50006420FFF7C2FB01E0FFF756FD634803F095
:100C6000EDFD20B1002008F0BBFF0028F4D04FF6C6
:100C7000FF705F49088099A00AF014FC7D48007B52
:100C8000012800E083E012D14FF4784058490880F1
:100C9000AFF270300AF006FC99A00AF003FC4FF6A0
:100CA000FF705349088003206749087070E0674966
:100CB000002004F002FD0A229AA19D4804F010FDD4
:100CC00000282AD13E256B462A4601A9984804F0FF
:100CD000BFFE0446BDF8000000B17CB14FF478407F
:100CE00043490880AFF2C4300AF0DCFB91A00AF05F
:100CF000D9FB4FF6FF703E49088006E04FF6FF70C3
:100D00003B49088093A00AF0CDFB894805F004F820
:100D10000021084604F0D1FC06E04FF6FF7034498C
:100D2000088093A00AF0BEFB0320474908704FF4E7
:100D3000FC6009F0C1FC1AA1C62009F06FFD95A165
:100D4000D22009F06BFD4FF6FF7009F0B5FC1FE0F3
:100D500001E0FFF7D9FC254803F070FD20B1002029
:100D600008F03EFF0028F4D00BE03849002004F0E2
:100D7000A4FC10B14FF0FF301CE750A0FFF709FDB5
:100D800018E71A4803F05AFD0028EED100E000BF32
:100D900000BF00200EE700202B49087070470000BC
:100DA0002020202020202020202020202020202043
:100DB0002020202020202020202020202020202033
:100DC0002020202020202020202020202020000063
:100DD0005072657373204B657920746F20636F6E5A
:100DE00074696E75652E2E2E0000000054010020DF
:100DF000D80000202020207C5F5F00002020207C85
:100E00002020207C5F5F000053544D333220436F1D
:100E10006E6E6563746976697479206C696E65209D
:100E2000486F73742044656D6F206170706C6963E6
:100E30006174696F6E207573696E67204641545FF7
:100E400046532020200000000800002094070020C6
:100E50003E2043616E6E6F7420696E697469616CC7
:100E6000697A652046696C652053797374656D2EC7
:100E70000A000000741000203E204469736B206358
:100E800061706163697479203A202564204D420ABB
:100E9000000000003E204469736B20506167654C80
:100EA000656E677468203A20256420427974657302
:100EB0000A0000009ABA00087EBA0008303A2F00F3
:100EC000090000205072657373204B657920746FA0
:100ED0002077726974652066696C65003E205772E0
:100EE0006974696E672046696C6520746F20646957
:100EF000736B20666C617368202E2E2E0A00000032
:100F00003E204469736B20666C61736820697320AE
:100F100077726974652070726F746563746564209C
:100F20000A000000303A53544D33322E54585400C6
:100F3000C40900203E2053544D33322E54585420BF
:100F400043414E4E4F542062652077726974656E3E
:100F50002E0A00003E202753544D33322E5458544D
:100F6000272066696C6520637265617465640A0098
:100F70003E2053544D33322E5458542063726561D1
:100F800074656420696E20746865206469736B0AF7
:100F900000000000546F20737461727420496D6109
:100FA000676520736C6964652073686F7720507281
:100FB000657373204B65792E000000000146012205
:100FC000C1F810230020704701460022C1F8102309
:100FD0000020704701460020704770B505460C465A
:100FE000002020706070A0700120E0700121217746
:100FF0004021A171002084F8200001212120015509
:101000002179284600F0B3FB6179284600F0AFFB58
:10101000002070BD2DE9F04106460F4614461D46DE
:10102000DDF818803046FFF7FFF80020FFF7DCF905
:1010300021463046FFF7D1FFE567C4F88080394686
:10104000304603F0BAFBD4F8801008688047304679
:10105000FFF757F9BDE8F0812DE9F04106460C464F
:101060004FF0000800250021A174207F0C2876D2C3
:10107000DFE800F0FD060F3D466576919AC0D7ED9A
:10108000627904F11401304600F0CCFB0221217793
:10109000EEE06179304603F0DAFB0546012D1FD101
:1010A000207D00F08007608B58B141F28830FE4906
:1010B0000880802F02D1032121770CE005212177C0
:1010C00009E03220F8490880802F02D109212177D8
:1010D00001E007212177304603F0B4FB208205E0D0
:1010E000032D03D10B2121770521A174C0E02379C1
:1010F000A2893046A16800F0EDFB04212177B7E01A
:101100002179304603F0A3FB0546012D01D10921C9
:101110002177042D02D1607820700FE0032D02D1D9
:101120000B2121770AE0304603F08CFB218A401A1C
:10113000DD490988884201D90B21217798E00121F6
:10114000627906F56B7000EB421041766379A289F3
:101150003046A16800F087FB0621217788E086E011
:101160006179304603F073FB0546012D02D107215A
:1011700021770FE0042D04D1607820700C212177B5
:1011800008E0022D02D10521217703E0032D01D1D2
:101190000B2121776CE0237900221146304600F0C4
:1011A00099FB0821217763E02179304603F04FFB5A
:1011B0000546012D04D1607820700D21217718E0BB
:1011C000032D02D10B21217713E0304603F03AFBC7
:1011D000218A401AB4490988884202D90B21217713
:1011E00007E0042D05D1607820700421A1744FF030
:1011F00003083DE0617906F56B7000EB4110407E1D
:1012000080F00101627906F56B7000EB42104176C7
:10121000637900221146304600F025FB0A21217730
:1012200026E06179304603F012FB0546012D04D11A
:10123000607820700D21217708E0022D02D109216C
:10124000217703E0032D01D10B21217710E0A07B52
:10125000401CC1B2A173022902DC0121217705E003
:101260000821A174607820704FF0020800E000BFF0
:1012700000BF4046BDE8F08170B504460D46052D1F
:1012800001D0042D06D1D4F88010486C80470A2084
:10129000207007E0062D05D10A202070D4F88010B8
:1012A0000868804770BD70B592B005460C460126AF
:1012B000A0780A287AD2DFE800F00528375D667A40
:1012C00097B4D1DB08222146284600F08FFCD8B91C
:1012D00094F82910A171284603F0A9FA0120A07002
:1012E000A0790021CDE90010617900231A46284633
:1012F00000F0E4F9A0790021CDE900102179002364
:101300001A46284600F0DAF9B5E0122221462846AE
:1013100000F06CFC38B9D4F88000C16904F12200F7
:1013200088470220A070A6E001222146284600F04E
:1013300093FDF0B90220FFF750F80120A41CA0771C
:10134000D4F87E10086A80470320207000200090A7
:101350000190A27FA1780346284600F0AFF9002053
:1013600000900190A27FA41E61790346284600F0F8
:10137000A5F980E009222146284600F008FD08B9B9
:101380000420A07077E0E28E2146284600F0FFFCA2
:1013900058B9D4F8800004F1500204F13E01436AC8
:1013A00004F1340098470520A07064E062E094F8EE
:1013B000300088B1FF20009094F8302002AB214625
:1013C000284600F02BFD70B9D4F88000816A02A88D
:1013D00088470620A07006E0D4F88000816A33A018
:1013E00088470620A07046E094F8310088B1FF20BD
:1013F000009094F8312002AB2146284600F00EFD03
:1014000070B9D4F88000C16A02A888470720A0708C
:1014100006E0D4F88000C16A24A088470720A070A5
:1014200029E094F8320088B1FF20009094F832202F
:1014300002AB2146284600F0F1FC70B9D4F88000D8
:10144000016B02A888470820A07006E0D4F880004D
:10145000016B16A088470820A0700CE094F8392092
:101460002146284600F00BFD08B90920A07002E0D3
:10147000002600E000BF00BF304612B070BD3EB590
:1014800005460C4602200290284603F0D7F930B9F1
:10149000207820B12078022801D002202070207806
:1014A0000B286FD204E000006C0000204E2F41009A
:1014B000DFE800F006109CB44D697B87598C8D00E5
:1014C000284603F0BBF920B1012020706420FEF70C
:1014D00084FFA4E0D4F88010886880470021284663
:1014E00000F032F960718021284600F02DF920715A
:1014F000284603F09CF948BBD4F88010C8688047A0
:10150000284603F08AF9C1B2212001550420207039
:101510002122105DD4F8802091698847A0790021AC
:10152000CDE900102120035D94F820202179284680
:1015300000F077F8A0790021CDE900102120035DAB
:1015400094F820206179284600F06BF867E0214686
:101550002846FFF7A8FE28B9D4F88010486B8047CA
:10156000082020705BE0D4F88010886B8047012849
:1015700007D1E06F214602682846904708B9052048
:1015800020704CE04AE0E06F214682682846904790
:1015900002909DF8080010B90620207004E09DF824
:1015A00008102046FFF768FE39E0E06F2146C26868
:1015B0002846904702909DF808102046FFF75CFEF1
:1015C0002DE021462846FFF747FD28E027E0214689
:1015D0002846FFF702FDD4F8801048688047E06F86
:1015E00004F1200142682846904718E0D4F88010A2
:1015F0000869804721462846FFF7EFFCD4F88010A1
:1016000048688047E06F04F120014268284690470F
:10161000284600F0BBF80020207000E000BF00BFAB
:101620003EBD2DE9F04704460D4617461E46DDE94E
:10163000088904F28C5010F8150000F07F0104F5C1
:101640006B7000EB4510417004F28C5010F81500DF
:10165000C0F3C01104F56B7000EB4510817004F508
:101660006B7000EB4510077004F56B7000EB4510D4
:1016700080F8058004F56B7000EB4510A0F806902B
:1016800004F56B7000EB4510C670002104F56B701B
:1016900000EB4510017604F56B7000EB45104176C8
:1016A0002EB9012104F56B7000EB4510017129463C
:1016B000204602F0CDFD0020BDE8F0872DE9F0477F
:1016C00004460D4617461E46DDE9089827B104F585
:1016D0006B7000EB4510077004F56B7000EB451064
:1016E000C088404508D0B8F1000F05D004F56B70F4
:1016F00000EB4510A0F8068004F56B7000EB451078
:10170000C078B04205D026B104F56B7000EB4510EF
:10171000C6702946204602F09BFD0020BDE8F087F8
:101720000246002100BF0AE002F28C5030F811009E
:1017300000F4004008B908467047481CC1B20829A7
:10174000F2DB4FF6FF70F7E770B505460E46284608
:10175000FFF7E6FF04464FF6FF70844205D046F4DB
:10176000004105F28C5020F81410E0B270BD024622
:10177000082909DA02F28C5030F81100C0F30E0388
:1017800002F28C5020F811300020704702460221EE
:1017900006E0002302F28C5020F81130481CC1B240
:1017A0000829F6DB0020704710B5034618785870FA
:1017B0000720187099609A8101241C77002010BDC1
:1017C0002DE9F04180460C4615461E460127E0787B
:1017D000012802D0022820D108E0324629462046BE
:1017E000FFF7E2FF0220E070012717E0207F0D28BD
:1017F00005D10120E0700021217700270CE0207F37
:101800000B2803D10120E070022705E0207F0C287F
:1018100002D10120E070032700E000BF00BF38467E
:10182000BDE8F08170B505460E461446002105F569
:101830006B7000EB44108170032105F56B7000EBB9
:101840004410017205F56B7000EB4410C66008216E
:1018500005F56B7000EB441001612146284603F04A
:101860000EF8C0B270BD2DE9F04105460F46164690
:101870001C46002105F56B7000EB4410817005F5E6
:101880006B7000EB4410C76005F56B7000EB441003
:1018900006612EB9012105F56B7000EB441041760D
:1018A00005F56B7000EB4410407E30B9002105F562
:1018B0006B7000EB4410017205E0022105F56B70BE
:1018C00000EB441001722146284602F0D8FF0020A8
:1018D000BDE8F0812DE9F04105460E4617461C464D
:1018E000012105F56B7000EB44108170022105F5B4
:1018F0006B7000EB4410017205F56B7000EB441047
:10190000C66005F56B7000EB441007612146284660
:1019100002F0B5FF0020BDE8F0812DE9F041054659
:101920000E4617461C46002105F56B7000EB44106F
:10193000817005F56B7000EB4410C66005F56B70A7
:1019400000EB4410076105F56B7000EB4410407E1E
:1019500028B905F56B7000EB4410017205E0022117
:1019600005F56B7000EB441001722146284602F029
:1019700086FF0020BDE8F0812DE9F04105460E46C6
:1019800017461C46012105F56B7000EB4410817071
:1019900005F56B7000EB4410C66005F56B7000EB4D
:1019A0004410076105F56B7000EB4410007E30B900
:1019B000002105F56B7000EB4410017205E0022177
:1019C00005F56B7000EB441001722146284602F0C9
:1019D00056FF0020BDE8F0812DE9F04105460E4696
:1019E00017461C46012105F56B7000EB4410817011
:1019F00005F56B7000EB4410C66005F56B7000EBED
:101A00004410076105F56B7000EB4410007E30B99F
:101A1000002105F56B7000EB4410017205E0022116
:101A200005F56B7000EB4410017205F56B7000EB6F
:101A30004410007E80F0010105F56B7000EB44104E
:101A400001762146284602F01AFF0020BDE8F08109
:101A50002DE9F04105460E4617461C46002105F5C6
:101A60006B7000EB4410817005F56B7000EB441057
:101A7000C66005F56B7000EB4410076105F56B70EF
:101A800000EB4410007E28B905F56B7000EB4410A4
:101A9000017205E0022105F56B7000EB4410017244
:101AA00005F56B7000EB4410007E80F0010105F538
:101AB0006B7000EB441001762146284602F0DFFEF1
:101AC0000020BDE8F0812DE9F04105460E4617469D
:101AD0001C46012105F56B7000EB4410817005F583
:101AE0006B7000EB4410C66005F56B7000EB4410A2
:101AF0000761002105F56B7000EB4410017221466F
:101B0000284602F0BCFE0020BDE8F0812DE9F0413E
:101B100005460E4617461C46002105F56B7000EB86
:101B20004410817005F56B7000EB4410C66005F53C
:101B30006B7000EB4410076105F56B7000EB44100F
:101B400001722146284602F09AFE0020BDE8F0818D
:101B500010B50B7803704B7843708C78CB7804EB1E
:101B6000032343800B7903714B7943718B79837124
:101B7000CB79C371082A16DD0C7A4B7A04EB032368
:101B800003818C7ACB7A04EB032343810C7B4B7B60
:101B900004EB032383818B7B8373CB7BC3730B7C2D
:101BA00003744B7C437410BD2DE9F04780460C460E
:101BB00016461D46DDE9089746F08001217506218D
:101BC0006175E58205F47F40B0F5407F03D140F2B6
:101BD0000941218301E00021218367833B464A4676
:101BE00021464046FFF7ECFDBDE8F0872DE9FC41BA
:101BF00004460D46164604F588704FF480730022A3
:101C00002946CDE900062046FFF7CEFF071E06D184
:101C1000324604F5887105F12200FFF799FF384636
:101C2000BDE8FC810A7802704A7842708A78827036
:101C3000CA78C2700B794A7903EB022282808A79D2
:101C4000827170470A7802704A7842708A7882708E
:101C5000CA78C2700A7902714A7942718A798271AE
:101C6000CA79C2710A7A0272704710B502460B88AF
:101C7000147823440B801378981810BD2DE9F04F89
:101C800085B00646894692461D462C460027B84632
:101C900000BF2878307068787070A978E87801EB18
:101CA000002070802879307168797071A879B071DE
:101CB000E879F071287A30720E98092864DD0920DD
:101CC0000090307902285ADCBB4653E06946204632
:101CD000FFF7CBFF0446607804284BD1A07847B2C9
:101CE00007EBC70000EB090BE078032842DA214636
:101CF00002A8FFF7A7FF4FF000089DF80C0002288C
:101D000038DC32E069462046FFF7AFFF04466078D2
:101D100005282AD10AEB071000EBC80001907F4884
:101D20000078B84206D07D490F7002A95846FFF7E7
:101D300089FF0CE02179607901EB0020784909885E
:101D4000884200DA15E002A95846FFF77BFF2146DA
:101D50000198FFF767FF2179607901EB0020704956
:101D6000088008F101004FFA80F89DF80C0040450A
:101D7000C8DC00BF7088BDF800108842A6DC0020D7
:101D8000674908806549087005B0BDE8F08F2DE906
:101D9000FC4104460D461646002704F588704FF4B2
:101DA000007300222946CDE900062046FFF7FCFE1D
:101DB000B0F1000814D106E004F58870C05D5949FF
:101DC000C855781C87B2B742F6DB04F5887305F175
:101DD000500205F13E0105F134000096FFF74EFF79
:101DE0004046BDE8FC8130B513464578032D14D13B
:101DF0000578AD1E9D4202DC0578AD1E00E01D4653
:101E0000ACB2801C002204E0855C0D70491C951C5E
:101E1000AAB2A242F8DB00250D7030BD2DE9FC47C7
:101E20000446884615461E460A9F04F5887045F408
:101E3000407300224146CDE900072046FFF7B4FE7B
:101E4000B0F1000905D13A46314604F58870FFF734
:101E5000CAFF4846BDE8FC8770B506460C461546E5
:101E60000021217505216175E582002121836183AF
:101E700000231A4621463046FFF7A2FC70BD70B51C
:101E800006460C4615460021217509216175E5823B
:101E900000212183618300231A4621463046FFF743
:101EA0008FFC70BD2DE9F04107460C4615461E46D5
:101EB000012121750B216175E68225830021618353
:101EC00000231A4621463846FFF77AFCBDE8F08128
:101ED0002DE9F04105460C4616461F4602212175A4
:101EE000012161750021E1822683618306F0800073
:101EF000802805D105F56B7000EB4710017605E0F1
:101F0000002105F56B7000EB4710417600231A465F
:101F100021462846FFF754FCBDE8F0817000002000
:101F20006E000020E80D002010B50446204602F0A7
:101F300085FC48B1F848F9490860F9484860002034
:101F400048730120F749C8700020F7490860F74935
:101F5000087010BD2DE9F04105460E4614460127D4
:101F600014B1012C12D108E0F1480378C27831464F
:101F70002846FFF7ADFF074609E0ED484378827831
:101F800031462846FFF7A4FF074600E000BF00BF28
:101F9000E5480068401CE4490860084600680428D9
:101FA00000D904273846BDE8F0812DE9F041054607
:101FB0000F4600260124284602F040FC20B3DC48EE
:101FC0000178284602F048FC06460D2E01D0022476
:101FD0001CE0D8480068D849884216D1D5484068E6
:101FE000CE494968884211D1D248007B08B9002403
:101FF0000CE0D048007B012801D1012406E0CD4847
:10200000007B022802D1022400E00224C548C473E8
:102010002046BDE8F0812DE9F0478046894600243E
:10202000404602F00BFC00287ED0BE48007909280B
:102030007BD2DFE800F07A051251A3FEFDFCFB0025
:10204000BB4843781F22B5494046FFF766FC012094
:10205000B4494871022008718BE1B5484178404687
:1020600002F0F5FB0446012C26D10020AE490860A1
:102070000220AC494871A948007B00F08007A748BE
:102080008068A8B1A5488068AC490860A548806808
:10209000AB49086008460068AA490860802F03D150
:1020A0000320A049087116E004209E49087112E03F
:1020B00005209C4908710EE0022C04D19948407912
:1020C0009849087107E0042C05D101209E49087049
:1020D0000820944908714CE195480178404602F087
:1020E000B6FB0446012C03D08E48407903283AD031
:1020F00000208D49086003208A4948718C488088F7
:102100008E490968884219D28948037882888C48A8
:1021100001684046FFF730FC854880888749096898
:10212000081A8649086001E024E121E1804880889E
:10213000834909680844824908601EE07F480068B6
:1021400018B905207749087117E0794803787B486A
:10215000008882B27A4801684046FFF70DFC0020F3
:102160007649086009E0042C07D100207649087000
:1021700007206C49087105204871FAE06C484178E5
:10218000404602F064FB0446012C3BD10020664926
:1021900008600420634948716548C0886749096838
:1021A00088421AD262484378C2886548016840462E
:1021B000FFF7B3FB62480068624908605C48C0886A
:1021C0005F49096808445E4908605948C0885B490E
:1021D0000968081A5949086042E05848006818B967
:1021E0000520504908713BE0514843785348008826
:1021F00082B2534801684046FFF78FFB00204F49E9
:1022000008602DE0022C21D14D4800684D49096835
:10221000884212D046484378C288C088DFF820C17F
:10222000DCF800C0ACEB0001404603E08EE058E073
:1022300036E016E0FFF771FB12E03D484378C288B4
:102240003F4801684046FFF768FB09E0042C07D1CE
:1022500001203D4908700820324908710520487165
:1022600087E005202F494871324888603F208881E7
:102270000D2604E000202F498855701EC6B2002E9E
:10228000F8D100202B4908702948037825483F22BF
:1022900081684046FFF770FB06202249087168E01C
:1022A00023480178404602F0D2FA0446012C0FD1AF
:1022B00000201D49086005201A49487108468078A9
:1022C000087049464046FFF770FE1649C87307E09C
:1022D000042C05D100201C49087007201149087101
:1022E00047E0002249464046FFF734FE054665B9FF
:1022F00015480078022803D108200A49087109E02E
:10230000084840790749087104E0042D02D10220F1
:102310000449C8732DE0000055534243E80F0020E4
:102320005040302018100020740000209000002041
:102330002810002008100020555342537800002038
:102340007C000020800000208400002001224946FB
:102350004046FFF7FFFD054625B907484079064985
:10236000087104E0042D02D102200349C87300E083
:1023700000BF00BFBDE8F087181000207CB50646FE
:102380000D462C4694F84300082856D194F8450091
:10239000502852D194F8520000F0800038B194F8DF
:1023A0005200C549C870B4F85400888006E094F81B
:1023B0005200C1498870B4F85400C88094F85A009B
:1023C00000F0800038B194F85A00BB49C870B4F8E6
:1023D0005C00888006E094F85A00B7498870B4F829
:1023E0005C00C880B44881783046FFF7ADF9B24947
:1023F00048700846C1783046FFF7A6F9AE49087024
:102400000846C0880221CDE900102120035D94F820
:102410002020A94841783046FFF703F9A648808874
:102420000221CDE900102120035D94F82020A2486C
:1024300001783046FFF7F5F803E0D4F88010086C17
:10244000804700207CBD70B504460D469A48407810
:1024500060B199484178204602F011F996484178D8
:102460002046FFF784F9002093494870924800788D
:1024700060B191480178204602F001F98E48017858
:102480002046FFF774F900208B49087070BD10B525
:10249000024600200023894C237010BD012812D170
:1024A00087490978491C864A1170114609780A291A
:1024B00005DA0621814A11700121D1700AE00A2152
:1024C0007E4A117006E0022803D10A217B4A11706E
:1024D00000E000BF704770B505460C46A12121758C
:1024E000FE2161750021E1822183012161830123A5
:1024F000714A083221462846FFF762F970BD70B56F
:1025000005460C4621212175FF2161750021E182DC
:102510002183618300231A4621462846FFF750F99C
:1025200070BD2DE9F04781460F463E460124032544
:102530004FF00008484602F081F9002878D05F4843
:1025400000780B2875D2DFE800F0060D1E5566797D
:102550008A999E44B0004846FFF7E6FC012057499F
:102560000870A5E039464846FFF7C9FF044614B98C
:10257000022052490870032C04D102204F494870B0
:102580000920087094E039464846FFF7A4FF044646
:10259000BCB94948007A484981F84800084690F893
:1025A000480000280ADD4748007838B9012045492D
:1025B0000870D6F88010086C804779E003203F4906
:1025C0000870032C04D103203C494870092008708E
:1025D0006EE07379002239464846FFF779FC0446DD
:1025E0003CB90020344981F84800344840783349E8
:1025F00008705DE0484600F017F905463DB9042033
:102600002E49087000202E490870002402E0284658
:10261000FFF744FF4CE0484600F057F905464DB936
:10262000052026490870002025490870002404E090
:102630003FE03CE02846FFF731FF39E0484600F034
:10264000A9F905463DB908201C49087000201C491D
:102650000870002402E02846FFF720FF28E04846E3
:1026600000F0F8F905462DB9144840781349087070
:10267000002402E02846FFF711FF19E039464846DA
:10268000FFF7C9FC14E0D6F88010C86B804700F053
:10269000FF08B8F1000F03D108200849087003E0D3
:1026A000B8F1010F00D1062402E0042400E000BFCD
:1026B00000BF2046BDE8F087281000201810002039
:1026C00090000020A400002010B50446524802F0FB
:1026D000B5F828B15148007820F001004F49087042
:1026E0004E48007810BD014609B1012070474B48A3
:1026F0000078FBE72DE9F04105460F4690461C4661
:10270000002605B914B90420BDE8F08143480078DB
:1027100000F0010008B10320F6E73F4802F08EF810
:1027200098B100BF6302424639463B4800F067FA61
:1027300006463B493848FFF76EFC374802F07EF802
:1027400008B90120E0E7032EECD00EB90020DBE74A
:102750000120D9E72DE9F04105460F4690461C4679
:10276000002605B914B90420BDE8F0812B48007893
:1027700000F0010008B10320F6E72848007800F0D7
:10278000040008B10220EFE7234802F057F898B19F
:1027900000BF6302424639461F4800F0C3F90646AF
:1027A0001F491D48FFF737FC1B4802F047F808B9DE
:1027B0000120D9E7032EECD00EB90020D4E7012088
:1027C000D2E710B5034600240BB1042010BD01244C
:1027D0001248007800F0010008B10320F6E731B19B
:1027E000012906D0022909D0032910D10BE00024C9
:1027F0000FE00C480068106000240AE04FF40070FD
:102800001080002405E04FF40070106001E0042403
:1028100000BF00BF2046D9E754010020A5000020DA
:10282000000700207410002070B5054603262846D6
:1028300002F004F8002846D0FB48C078012802D0F6
:1028400002283ED124E00020F84988600873062061
:102850008873F748F44988603F2088810320887096
:10286000102405E00021F1480F300155601EC4B26C
:10287000002CF7D10020ED49C8730120EA49087106
:10288000072008700320C8730220C870032619E0CF
:10289000E548C07B20B90120E349C87000260FE05D
:1028A000E148C07B012803D1DF49C870012607E059
:1028B000DD48C07B022803D10120DB49C870022615
:1028C00000E000BF00BF304670BD70B5054603266E
:1028D000284601F0B3FF00285AD0D348C078012819
:1028E00002D0022852D123E00820D04988608020FD
:1028F00008730A208873CF48CB4988600420887009
:10290000102405E00021C9480F300155601EC4B2F3
:10291000002CF7D12520C549C8730120C249087190
:10292000072008700320C8730220C87003262EE019
:10293000BD48C07BC8B9BF480078BF49C870BD4812
:1029400040788870BB4880784870BA48C078087072
:10295000B8488179B8484172B648C079B64908721A
:102960000120B149C87000260FE0AF48C07B0128A4
:1029700003D1AD49C870012607E0AB48C07B0228EF
:1029800003D10120A849C870022600E000BF00BFA3
:10299000304670BD70B505460326284601F04EFF4F
:1029A000002855D0A048C078012802D002284DD177
:1029B00027E03F209D498860802008730A208873A3
:1029C0009C489949886005208870102405E0002102
:1029D00096480F300155601EC4B2002CF7D11A2062
:1029E0009249C8733F2191484174C17401208E49B6
:1029F0000871072008700320C8730220C8700326DE
:102A000025E08948C07B80B98A48807800F0800042
:102A100018B101208849087302E000208649087334
:102A200001208149C87000260FE07F48C07B012843
:102A300003D17D49C870012607E07B48C07B02288E
:102A400003D101207849C870022600E000BF00BF12
:102A5000304670BD70B505460326284601F0EEFEEF
:102A600000285DD07048C078012802D0022855D1D6
:102A70002BE03F206D498860802008730A2088730E
:102A80006C486949886008468078487006208870DC
:102A9000102405E0002165480F300155601EC4B2C6
:102AA000002CF7D103206149C87300215F480174ED
:102AB0003F21C17401205C49087107200870032080
:102AC000C8730220C870032629E05748C07BA0B90C
:102AD000584801785848C171564841785648817124
:102AE00054488178544841715248C078524908711D
:102AF00001204D49C87000260FE04B48C07B0128DB
:102B000003D14949C870012607E04748C07B022825
:102B100003D101204449C870022600E000BF00BF75
:102B2000304670BD2DE9FF4182B007460E461D4676
:102B30004FF00308384601F081FE00285BD03A4888
:102B4000C078012802D0022853D138E03748856088
:102B50000020364908730A208873334886601024A1
:102B600005E0002131480F300155601EC4B2002C31
:102B7000F7D12A202D49C8739DF813102B484174B2
:102B80009DF8121081749DF81110C1749DF81010F9
:102B90000175C5F34F2001909DF8051023488175FC
:102BA0009DF80410C17501201F49087107200870A5
:102BB0000320C8730220C8704FF003081AE01A48B7
:102BC000C07B28B901201849C8704FF000080FE0F9
:102BD0001548C07B012802D11349C87008E012488B
:102BE000C07B022804D101200F49C8704FF00208B1
:102BF00000E000BF00BF404606B0BDE8F081FFB571
:102C000081B007460E461D4603200C490870384621
:102C100001F014FE002876D00348C07801280FD0B8
:102C200002286ED146E0000018100020E80F0020B6
:102C3000081000208410002074100020A60000203E
:102C4000334885608020324908730A2088733148F0
:102C50008660102405E000212D480F300155601ECC
:102C6000C4B2002CF7D128202949C8739DF80F1051
:102C7000274841749DF80E1081749DF80D10C174A1
:102C80009DF80C100175C5F34F2000909DF80110C0
:102C90001F4881759DF80010C17501201D490871FC
:102CA000072008700320C8730220C87003201A4947
:102CB000087027E01748C07B50B9384601F0BEFDC8
:102CC00030B101201349C87000201349087015E085
:102CD0001048C07B012807D1384601F0AFFD18B17C
:102CE00001200C49C87009E00A48C07B022805D1C0
:102CF00001200849C87002200749087002E002E07C
:102D0000FFE700BF00BF0448007805B0F0BD000039
:102D1000E80F002018100020A60000200CB5014686
:102D2000D1F8900000680090009820F0004000F179
:102D300000400090009820F0804000F1804000901A
:102D4000009AD1F89000026000200190019820F4D0
:102D5000001000F5001001900198CA685061012030
:102D60000CBD38B5044600200090FE48006881681C
:102D700020468847009820F0005000F10050009055
:102D80000098E1684861012038BDFEB50446002680
:102D900000250020009002900190D4F8CC0000683B
:102DA0000290D4F8CC0000680190019820F0040053
:102DB0000190019820F002000190019820F0080095
:102DC0000190019820F0200001900298C0F340008B
:102DD00058B1019820F00200801C0190E148006881
:102DE00041682046884745F001050298C0F3C000BD
:102DF000002842D0019820F0080008300190029885
:102E0000C0F38000002838D0D648006841682046CA
:102E100088470298C0F34140022804D00298C0F3CA
:102E20004140012828D16069006800900298C0F3F1
:102E30004140022811D141F27071606941600098EF
:102E400000F00300022818D0207A022803D10221C2
:102E5000204601F07AF901260FE04BF680316069D7
:102E60004160009800F00300012806D001212046AF
:102E700001F06BF9012600E001260298C0F3401032
:102E800030B1019820F020002030019045F001057C
:102E900016B1204601F039F90199D4F8CC0001604F
:102EA0002846FEBD7FB505460C4605F1900050F85A
:102EB0002460B0680390F0680290DDE902100840D9
:102EC000039005F1900050F82400006801900398E9
:102ED000C0F38000D0B100200090009820F00400E2
:102EE000001D00900098B06005F1900050F824009B
:102EF000C0680090009820F00200801C009005F14E
:102F0000900050F824000099C160B4E10398C0F328
:102F1000401048B100200090009820F020002030A0
:102F200000900098B060A6E10398C0F34020F8B18B
:102F300005F1900050F82400C0680090009820F03F
:102F40000200801C009005F1900050F824000099C8
:102F5000C160E1B2284601F092FB00200090009889
:102F600020F4007000F5007000900098B06082E1DD
:102F7000039800F0010038B3002105F5457040F8D2
:102F8000241005F1900050F82400C06800900098CB
:102F900020F00200801C009005F1900050F8240001
:102FA0000099C160E1B2284601F069FB0020009061
:102FB000009820F00100401C00900098B0600121B2
:102FC00005F56370015556E10398C0F3C00010B3D6
:102FD00000200090009820F0080008300090009831
:102FE000B06005F1900050F82400C068009000988F
:102FF00020F00200801C009005F1900050F82400A1
:103000000099C160E1B2284601F039FB052105F5C0
:10301000637001552FE10398C0F3001038B300210D
:1030200005F5457040F8241005F1900050F8240093
:10303000C0680090009820F00200801C009005F10C
:10304000900050F824000099C160E1B2284601F0D8
:1030500016FB00200090009820F010001030009027
:103060000098B060032105F56370015503E10398F2
:10307000C0F3C01040B305F1900050F82400C068C0
:103080000090009820F00200801C009005F1900054
:1030900050F824000099C160E1B2284601F0EFFA2F
:1030A00005F5457050F82410491C40F824100621FD
:1030B0007830015500200090009820F0800080308A
:1030C00000900098B060D6E00398C0F3801038B349
:1030D000002105F5457040F8241005F1900050F8E6
:1030E0002400C0680090009820F00200801C00902E
:1030F00005F1900050F824000099C160E1B2284623
:1031000001F0BDFA00200090009820F0400040300F
:1031100000900098B060042105F563700155AAE0A5
:103120000398C0F3802078B305F1900050F8240094
:10313000C0680090009820F00200801C009005F10B
:10314000900050F824000099C160E1B2284601F0D7
:1031500096FA00200090009820F0100010300090A7
:10316000009801E068000020B060082105F5637058
:10317000015500200090009820F4806000F58060E8
:1031800000900098B06076E0FFE70398C0F340003D
:10319000002870D005F1900050F82400C06800901D
:1031A000009820F00200009005F1900050F82400F3
:1031B0000099C16005F56370005D012815D10121FA
:1031C00005F29B3001550198C0F38140022848D197
:1031D00005F56B7000EB4410407E80F0010105F5B1
:1031E0006B7000EB441041763BE005F56370005DC9
:1031F000032804D1022105F29B30015531E005F589
:103200006370005D04280FD105F56B7000EB44106E
:103210000079012803D1E1B2284601F071FA0221B8
:1032200005F29B3001551CE005F56370005D052833
:1032300004D1042105F29B30015512E005F56370BD
:10324000005D06280DD105F5457050F824000328CF
:1032500007D1032105F29B3001550021873840F842
:10326000241000200090009820F00200801C0090A4
:103270000098B06000BF012004B070BD70B586B08A
:1032800005460C4605F1900050F82460B0680590A2
:10329000F0680490DDE904100840059005F1900005
:1032A00050F8240000680390002004900598C0F3B3
:1032B0008000D0B100200190019820F00400001D92
:1032C00001900198B06005F1900050F82400C068AA
:1032D0000190019820F00200801C019005F19000FF
:1032E00050F824000199C16073E00598C0F34010C4
:1032F00048B100200190019820F02000203001907A
:103300000198B06065E00598C0F3C00078B305F19E
:10331000900050F82400C0680190019820F002004D
:10332000801C019005F1900050F824000199C160C3
:10333000052105F56370015500200190019820F0EA
:103340001000103001900198B060002001900198A9
:1033500020F00800083001900198B060059820F036
:1033600010000590E1B2284601F089F931E0FFE74D
:103370000598C0F3802060B305F1900050F8240058
:10338000C0680190019820F00200801C019005F1B6
:10339000900050F824000199C160E1B2284601F084
:1033A0006EF900200190019820F01000103001907B
:1033B0000198B060082105F5637001550020019067
:1033C000019820F4806000F5806001900198B06061
:1033D00000BF0598C0F34020F8B105F1900050F807
:1033E0002400C0680190019820F00200801C019028
:1033F00005F1900050F824000199C160E1B228461F
:1034000001F03DF900200190019820F4007000F5D2
:10341000007001900198B06042E1059800F0010051
:10342000002871D0E878012812D105F1900050F8F9
:1034300024000069029005F56B7000EB44100069F0
:103440000299C1F31201411A05F5547040F8241095
:10345000012105F5637001550021783840F82410EA
:1034600000200190019820F00100401C019001987B
:10347000B0600398C0F3814020B10398C0F381404D
:1034800002282AD105F1900050F82400C06801906C
:10349000019820F00200801C019005F1900050F886
:1034A00024000199C160E1B2284601F0E8F800204B
:1034B0000190019820F01000103001900198B06048
:1034C00005F56B7000EB4410007E80F0010105F5FE
:1034D0006B7000EB44100176E2E00398C0F381408A
:1034E000032899D1039820F0005000F10050039078
:1034F00005F1900050F8240003990160012105F2C4
:103500009B300155CCE0FFE70598C0F34000002850
:1035100051D005F1900050F82400C0680190019846
:1035200020F00200019005F1900050F8240001996C
:10353000C16005F56370005D012804D1012105F229
:103540009B3001552DE005F56370005D052804D121
:10355000042105F29B30015523E005F56370005D01
:10356000062804D005F56370005D082808D1002105
:1035700005F5457040F8241003218730015510E00F
:103580000398C0F3814003280BD105F56B7000EB65
:103590004410007E80F0010105F56B7000EB4410D3
:1035A000017600200190019820F00200801C01901B
:1035B0000198B06074E00598C0F3C01040B305F105
:1035C000900050F82400C0680190019820F002009B
:1035D000801C019005F1900050F824000199C16011
:1035E00005F5457050F82410491C40F824100621B8
:1035F00078300155E1B2284601F041F800200190F1
:10360000019820F08000803001900198B06047E080
:103610000598C0F30010E8B30398C0F38140032875
:1036200015D105F1900050F82400C0680190019870
:1036300020F00200801C019005F1900050F8240059
:103640000199C160E1B2284601F019F818E0039829
:10365000C0F3814020B10398C0F3814002280FD10C
:10366000039820F0004000F100400390039820F000
:103670008040039005F1900050F824000399016008
:10368000032105F56370015500200190019820F099
:10369000100000E004E0103001900198B06000BF1D
:1036A000012006B070BD7CB50546002400262846E2
:1036B00000F0CAFD019000BF1BE0019880B201211B
:1036C000A1400840A0B105F1900050F82400006826
:1036D00000900098C0F3C03028B121462846FFF77B
:1036E000CDFD064304E021462846FFF7DBFB0643F9
:1036F000641C2878A042E0D830467CBDFEB5044664
:103700006069006900900198C0F3C30104F56B7013
:1037100000EB41100069C01CC0F38F0674E04FF647
:10372000FF71009801EA80050198C0F3C30104F518
:103730006B7000EB41100069A84216D20198C0F3EB
:10374000C30104F56B7000EB4110008A85B20020C4
:103750000290029820F0806000F180600290E068A2
:10376000806902998843E16888610198C0F3C301C8
:1037700004F56B7000EB41100069C01CC0F38F06AC
:103780000198C0F3C302C0F3C30304F56B7000EBF0
:1037900043102B46C168204600F04AFA0198C0F356
:1037A000C30104F56B7000EB4110C068411901982A
:1037B000C0F3C30204F56B7000EB4210C1600198C6
:1037C000C0F3C30104F56B7000EB41100069411BAD
:1037D0000198C0F3C30204F56B7000EB4210016165
:1037E0000198C0F3C30104F56B7000EB4110406910
:1037F00041190198C0F3C30204F56B7000EB42104D
:103800004161606900690090009880B2B0420ADDB1
:103810000198C0F3C30104F56B7000EB411000691F
:1038200000287FF47CAF0120FEBD7FB50446E06830
:10383000C06A00900198C0F3C30104F56B7000EBFF
:1038400041100069C01CC0F38F0673E04FF6FF7192
:10385000009801EA80050198C0F3C30104F56B707C
:1038600000EB41100069A84215D20198C0F3C301D2
:1038700004F56B7000EB4110008A85B200200390C4
:10388000039820F0200020300390E06880690399BD
:103890008843E16888610198C0F3C30104F56B7047
:1038A00000EB41100069C01CC0F38F060198C0F303
:1038B000C302C0F3C30304F56B7000EB43102B4647
:1038C000C168204600F0B4F90198C0F3C30104F5C3
:1038D0006B7000EB4110C06841190198C0F3C3023E
:1038E00004F56B7000EB4210C1600198C0F3C30196
:1038F00004F56B7000EB41100069411B0198C0F3A7
:10390000C30204F56B7000EB421001610198C0F333
:10391000C30104F56B7000EB411040694119019837
:10392000C0F3C30204F56B7000EB42104161E06824
:10393000C06A0090009880B2B0420ADD0198C0F3DE
:10394000C30104F56B7000EB4110006900287FF49F
:103950007DAF012004B070BD30B585B004460020B5
:1039600000900390039820F0100010300390E0685E
:10397000806903998843E1688861E068006A04907F
:10398000049800F00F00009004F190009DF80010E2
:1039900050F82100006801900498C0F343400228C9
:1039A00006D0032878D0052877D0072873D175E092
:1039B0000498C0F30A10002869DD04F56B709DF8C7
:1039C000001000EB4110C068002860D00498C0F3DC
:1039D0000A1204F56B709DF8003000EB4310C168CB
:1039E000204600F045F9049800F00F0104F56B70D3
:1039F00000EB4110C0680499C1F30A110144049816
:103A000000F00F0204F56B7000EB4210C1600498E7
:103A100000F00F0104F56B7000EB41104069049950
:103A2000C1F30A110144049800F00F0204F56B7011
:103A300000EB4210416104F56B709DF8001000EB43
:103A40004110456904F554709DF8001040F821506C
:103A500004F190009DF8001050F8210000690290D8
:103A60000298C0F3C940002811DD019820F0004001
:103A700000F100400190019820F08040019004F195
:103A800090009DF80020019950F82200016006E0A6
:103A900002E002E0FFE700BF00BF00BF00BF00BFC1
:103AA000039820F0100010300390E06880690399BB
:103AB0000843E1688861012005B030BD38B504468F
:103AC000002000903148006801682046884700982F
:103AD00020F00800083000900098E168486101205B
:103AE00038BD38B50546002400200090284600F077
:103AF00076FA002847D0284600F07BFA009000981C
:103B000008B9002038BD0098C0F3C00018B128469D
:103B1000FFF7D4FF04430098C0F3001018B1284603
:103B2000FFF71AFF04430098C0F3401018B128466D
:103B3000FFF77BFE04430098C0F3806018B128466D
:103B4000FFF7DCFD04430098C0F3406018B128463D
:103B5000FFF7A9FD04430098C0F3006018B12846A0
:103B6000FFF713F904430098C0F3407018B12846DA
:103B7000FFF7F7F804430098C0F3405018B1284607
:103B8000FFF7CCF804432046BCE7000068000020A3
:103B900008B500210091491EC26851606FF0804154
:103BA000C2685161009921F0004101F1004100918A
:103BB000009921F4006101F5006100910099C2684B
:103BC000916108BDF8B5044600260025002000904C
:103BD00000BF0320FCF727FCE06800690090681C28
:103BE0000546F749884201D90020F8BD0098C00F6A
:103BF0000028EED00025009820F00100401C009025
:103C00000098E168086100BFE06800690090681CE6
:103C10000546EB49884200D904E0009800F0010015
:103C20000028F1D100BF0320FCF7FDFB3046DCE7A4
:103C30002DE9F04104460026E078B0B900270020C5
:103C4000DD1C4FEAE57805EB98784FEAA80704F108
:103C5000D00555F822C000BF04E00D68CCF8005034
:103C6000401C091DB842F8D300BF3046BDE8F081C2
:103C7000F0B503460024D01CC71700EB9777BD10A2
:103C8000D3F8D06000BF03E030680860641C091DF1
:103C9000AC42F9D30846F0BD70B502460C4600238D
:103CA00000200025D5700125957040259580012CB8
:103CB0000CD14FF0A0430125D572082515700425BD
:103CC00055709D15D580022515720AE04CB9BD4B83
:103CD0000025D5720C251570062555704FF4A0658A
:103CE000D580D36003F500651561002110E003F570
:103CF000106505EB411602F1180545F8216003F542
:103D0000306505EB411602F1540545F82160491C68
:103D100055788D42EBD803F5806555614035C2F882
:103D2000CC50002108E003F5A06505EB411602F137
:103D3000900545F82160491C15788D42F3D8002183
:103D400008E003F5805505EB013602F1D00545F892
:103D50002160491C15788D42F3D803F56065C2F8DF
:103D60000C5170BD3EB50446002500200290019024
:103D70000090207A01283DD1E068806B0190019885
:103D800020F480300190607A28B1019820F48010EE
:103D900000F5801001900198E1688863002002908E
:103DA000E068C0680290029820F0400002900298FB
:103DB00020F480000290029820F4003002900298D3
:103DC00020F4002002900298E168C8602046FFF7C6
:103DD000F9FEE078012843D1009820F01E000A3057
:103DE0000090009820F02000203000900098E168BA
:103DF000886035E0E068C0680290029820F04000DA
:103E0000403002900298E168C8602046FFF7DAFE71
:103E100000200190019820F4803000F5803001905E
:103E2000019820F4802000F580200190019820F472
:103E3000002000F500200190019820F4001000F50A
:103E400000100190607A28B1019820F4801000F5EC
:103E5000801001900198E16888631420FCF7BDFA96
:103E6000E07801280FD1E06880680090009820F089
:103E70001E000A300090009820F0200020300090B2
:103E80000098E168886028463EBD08B501460020DC
:103E900000220092009A22F00102521C0092CA688D
:103EA0009268009B1A43CB689A6008BD08B501462A
:103EB000002000220092009A22F00102521C00927F
:103EC000CA689268009B9A43CB689A6008BDF8B5AF
:103ED00004460D460026002700200090009820F0A0
:103EE000200020300090009865F38A100090009820
:103EF000E168086100BFE06800690090781C07462F
:103F00002F49884200D904E00098C0F340100028EF
:103F1000F1D100BF0320FCF786FA3046F8BDF8B5B2
:103F200004460025002600200090009820F0100094
:103F3000103000900098E168086100BFE0680069F7
:103F40000090701C06461E49884200D904E0009883
:103F5000C0F300100028F1D100BF0320FCF763FA82
:103F60002846F8BDF8B504460D460026E068C0684E
:103F70000090009820F000500090009820F08040C1
:103F80000090012D06D1009820F0005000F1005063
:103F9000009006E02DB9009820F0804000F18040AC
:103FA00000900098E168C8603220FCF716FA3046AD
:103FB000F8BD0146C868406900F001007047000084
:103FC000400D03000000044000B502461046FFF714
:103FD000F0FF012801D0012000BD0020FCE700B562
:103FE00002461046FFF7E5FF012800D100BD002082
:103FF000FCE701460020CA685069CA68926910400F
:1040000070470146C8684068704738B504460025C7
:1040100000200090E1688861401EE1684861204608
:10402000FFF7B6FDE07820B9009820F010001030BE
:104030000090009820F0807000F18070009000984F
:1040400020F0007000F100700090009820F0005007
:1040500000F100500090009820F008000830009017
:10406000009820F4001000F500100090E0688069CE
:10407000009988430843E1688861284638BD08B53F
:104080000146D1F8CC0000680090009820F00400B0
:104090000090009820F002000090009820F00800A6
:1040A0000090009820F020000090009808BD38B5DE
:1040B00005460C460020009021462846FCF737F9BB
:1040C0002846FFF7DCFF00900098C0F3003058B995
:1040D000012C09D1009820F4805000F58050009008
:1040E0000099D5F8CC0001600098C0F3003040B1D1
:1040F0003CB9009820F4805000900099D5F8CC008D
:104100000160C820FCF769F938BD38B5044620467F
:10411000FFF7B5FF0090009820F4807000F58070E4
:1041200000900099D4F8CC0001600A20FCF755F902
:10413000009820F4807000900099D4F8CC000160C1
:104140001420FCF74AF9012038BD08B5426912680D
:104150000092009A61F301020092009B4269136091
:1041600008BDFEB5044600260025002002900190FF
:1041700000902046FCF738F90021D4F80C010160CA
:10418000207A012803D12046FFF7DFFF03E0012159
:104190002046FFF7DAFF2046FFF7B7FF60690068A7
:1041A0000090009820F00400009000996069016080
:1041B000E07A01281DD18020E168486202986FF3FF
:1041C0000F0080300290029880B200F5C00002908B
:1041D0000298E168886201986FF30F00E030019067
:1041E000019880B200F5C00001900198E168C1F823
:1041F000000110212046FFF76AFE2046FFF78FFEE0
:1042000000250DE04FF0FF3104F1900050F825003B
:104210008160002104F1900050F82500C1606D1C00
:104220002078A842EED801212046FFF740FF204623
:10423000FFF7EBFE3046FEBD01464869806800F09E
:10424000010080F0010070470146486940697047ED
:104250003FB50246002000230024029403940194F9
:10426000441E009402F1900454F82140009DA56082
:1042700000240394D478012C04D1039C24F004047A
:10428000241D039402F56B7404EB4114647934B17A
:10429000012C6AD0022C03D0032C38D138E000BFA7
:1042A000039C24F00104641C0394039C24F0080480
:1042B00008340394039C24F0800480340394039C0A
:1042C00024F4806404F580640394039C24F01004B7
:1042D0001034039402F56B7404EB4114A47834B1E8
:1042E000039C24F4807404F5807403940FE0039C11
:1042F00024F040044034039402F56B7404EB411441
:10430000247924B1039C24F02004203403944EE04B
:10431000039C24F00104641C0394039C24F0100407
:1043200010340394039C24F0080408340394039C81
:1043300024F0800480340394039C24F4806404F506
:1043400080640394039C24F4007404F500740394C3
:1043500002F56B7404EB4114A4782CB1039C24F493
:10436000807404F58074039421E0039C24F001041C
:10437000641C0394039C24F4007404F500740394F7
:10438000039C24F020042034039402F56B7404EBA6
:104390004114A47854B1039C24F080048034039425
:1043A000039C24F4807404F58074039400BF00BF60
:1043B00002F1900454F82140039DE560012404FAC1
:1043C00001F35469A4691C435569AC61029C24F053
:1043D000007404F100740294D468A469029D2C4313
:1043E000D568AC610024019402F56B7404EB4114B0
:1043F0002578019C65F39C54019402F56B7404EBE1
:1044000041146578019C65F3CE24019402F56B7428
:1044100004EB4114A578019C65F3CF34019402F5B7
:104420006B7404EB4114E478022C01D1012500E007
:104430000025019C65F35144019402F56B7404EB73
:1044400041146579019C65F39344019402F56B7402
:1044500004EB4114E588019C65F30A04019402F51C
:104460006B7404EB41146479032C05D1019C24F096
:10447000005404F10054019402F1900454F82140D6
:10448000019D256004B030BD2DE9F04388B004469D
:104490000D464FF00009C8464FF480770020069083
:1044A0000790009004F56B7000EB4510006910B3A5
:1044B00004F56B7000EB4510016904F56B7000EBBF
:1044C0004510C0880144491E04F56B7000EB45108F
:1044D000C088B1FBF0F086B2BE420DDD3E4604F569
:1044E0006B7000EB4510C188714304F56B7000EBF5
:1044F0004510016100E0012604F56B7000EB4510EA
:10450000807850B104F56B7000EB4510C1887143A1
:1045100004F56B7000EB4510016104F56B7000EB66
:1045200045100169069861F312000690069866F33B
:10453000DC40069004F56B7000EB4510017A06989C
:1045400061F35E70069004F1900050F82500069922
:104550000161E078012809D104F56B7000EB45108A
:10456000C16804F1900050F82500416104F1900009
:1045700050F82500006807902046FFF75DFE079978
:1045800060F35D710791079820F0004000F1004052
:104590000790079820F08040079004F1900050F8B1
:1045A000250007990160E078002864D104F56B705C
:1045B00000EB4510807800285DD104F56B7000EBAE
:1045C00045100069002856D004F56B7000EB4510CB
:1045D000407930B1012821D0022803D0032839D1F5
:1045E0001BE000BFE068C06A039004F56B7000EB4D
:1045F00045100069C01CC0F38F08039880B2404585
:104600000ADA009820F0200020300090E0688069ED
:1046100000990843E16888611DE000BF6069006996
:10462000019004F56B7000EB45100069C01CC0F3ED
:104630008F08019880B240450BDA009820F0806026
:1046400000F180600090E068806900990843E168AB
:10465000886100E000BF00BF04F56B7000EB4510FF
:10466000008A83B204F56B7000EB45102A46C168DE
:104670002046FFF7DDFA484608B0BDE8F08310B5E4
:1046800086B00246002000230393019302F19003B9
:1046900053F821301B680093009B23F0004303F183
:1046A00000430093009B23F0804303F18043009379
:1046B000009BC3F3814323B1009BC3F38143022BCF
:1046C0000BD1D368DB6A0393039BC3F307437BB926
:1046D000009B23F0004300930AE053691B69019398
:1046E000019BC3F307431BB9009B23F000430093D6
:1046F00002F1900353F82130009C1C6006B010BDFD
:104700001CB50246002000230093009B23F00043C9
:1047100003F1004300930124009B64F3DC43009306
:1047200002F1900353F82130009C1C6102F19003C8
:1047300053F821301B680193019B23F0004303F1E0
:1047400000430193019B23F08043019302F1900306
:1047500053F82130019C1C601CBD38B50446002173
:1047600060698161491E6069416100251AE004F1B8
:10477000900050F8250000680090009820F000405C
:104780000090009820F0804000F180400090009858
:1047900020F40040009004F1900050F825000099AA
:1047A00001606D1C2078A842E1D82046FFF7B7FBD6
:1047B00010212046FFF78BFB38BD70B504460E462E
:1047C00000250021C4F8101300BF0BE0002104F500
:1047D000457040F825103C3040F825103C304155DC
:1047E000681CC5B20F2DF1DB0821A4F8B2133146C5
:1047F0002046FFF751FA2046FFF758FB2046FFF707
:10480000B1FA01212046FFF7ADFB2046FFF7A9FCD6
:104810002046FFF73AFB002070BD08B50146D1F8ED
:10482000CC00006800900098C0F3414008BD10B56E
:1048300004462046FFF769FC002010BD0146D1F870
:104840001003704701464869806880B2704702468D
:1048500002F29B30405C7047024602F5547050F8FB
:1048600021007047024602F56370405C704770B5E6
:1048700004460D4629462046FFF7EAFC70BD70B598
:1048800004460D46002104F29B304155113000EBE7
:104890004510416129462046FFF7F6FD70BD002016
:1048A0007047000070B503460C4603E014F8015B46
:1048B00003F8015B151EA2F10102F7D170BD30B5FE
:1048C000034601E003F8011B141EA2F10102F9D115
:1048D00030BDF0B503461C460D46002000BF161E35
:1048E000A2F1010207D014F8017B15F801CBA7EB68
:1048F0000C06301EF3D0F0BD024600E0521C1078CA
:1049000010B110788842F9D1107870472DE9F04144
:1049100004460D46E66AAE422FD0207908B360788F
:104920000123324604F13001FDF714FF10B10120DC
:10493000BDE8F08100202071A169206A0844B042DE
:104940000FD9E7780AE0A06906446078012332466F
:1049500004F13001FDF7FEFE781EC7B2012FF2DC34
:1049600000BF55B1607801232A4604F13001FDF7FC
:10497000C1FE08B10120DBE7E5620020D8E770B591
:10498000044600212046FFF7C1FF0546002D59D1FE
:10499000207803284FD1607900284CD00020E062B5
:1049A0004FF40072002104F13000FFF788FF552119
:1049B00084F82E12AA2184F82F12522084F8300095
:1049C00052213120015561213220015541213320EE
:1049D0000155722184F8141284F81512412184F8CB
:1049E0001612612184F81712217C84F81812208A8B
:1049F000010A84F819122069010C84F81A1220693E
:104A0000010E84F81B12217B84F81C12A089010A74
:104A100084F81D12E068010C84F81E12E068010E93
:104A200084F81F126078012304F130016269FDF7F8
:104A300091FE00206071607800221146FDF7C1FEF2
:104A400000B10125284670BD2DE9F04105460C4610
:104A5000022C02D3E869A04202D80120BDE8F0810F
:104A60002F6A2878012804D002282AD0032870D180
:104A700040E0264606EB560607EB56212846FFF790
:104A800045FF00B165E0C6F3080105F1300010F8FC
:104A90000180761C07EB56212846FFF737FF00B14F
:104AA00057E0C6F3080105F13000405C48EA0028F1
:104AB00004F0010010B14FEA1810CFE7C8F30B0063
:104AC000CCE707EB14212846FFF720FF00B140E0B8
:104AD00040F2FF1000EA440105F13000415C40F271
:104AE000FF1000EA440205F130001044407841EA2A
:104AF0000020B3E707EBD4112846FFF707FF00B10A
:104B000027E040F2FF1000EA840105F1300008447C
:104B1000C078010640F2FF1000EA840205F130007F
:104B20001044807841EA004140F2FF1000EA84021C
:104B300005F130001044407841EA002040F2FF11B6
:104B400001EA840205F13001895C084320F07040DD
:104B500084E700BF4FF0FF3080E72DE9F0470546BE
:104B60000C461646022C02D3E869A04201D802275F
:104B700093E0D5F820A02878012804D0022841D05D
:104B800003287DD157E0A04608EB58080AEB5821CE
:104B90002846FFF7BBFE074607B17BE0C8F30801D4
:104BA00005F1300001EB000904F0010028B1F1B279
:104BB00099F8000061F31F1000E0304689F800000A
:104BC00008F10108012028710AEB58212846FFF757
:104BD0009DFE074607B15DE0C8F3080105F130000E
:104BE00001EB000904F0010010B1C6F3071006E064
:104BF00099F8000000F0F000C6F30321084389F89B
:104C0000000047E00AEB14212846FFF77FFE074625
:104C100007B13FE040F2FF1000EA440205F1300026
:104C20008654310A40F2FF1000EA440205F13000D8
:104C3000104441702EE00AEBD4112846FFF766FEBF
:104C4000074607B126E040F2FF1000EA840205F1B2
:104C500030008654310A40F2FF1000EA840205F168
:104C6000300010444170310C40F2FF1000EA840221
:104C700005F1300010448170310E40F2FF1000E069
:104C800006E000EA840205F130001044C17001E042
:104C9000022700BF00BF012028713846BDE8F08719
:104CA0002DE9F04104460E46022E02D3E069B042DF
:104CB00001D8022725E000271FE031462046FFF7F4
:104CC000C3FE054605B91BE0012D01D1022717E0FF
:104CD000681C08B9012713E0002231462046FFF77F
:104CE0003CFF074607B10BE02069401C20B120695A
:104CF000401C2061012060712E46E069B042DCD882
:104D000000BF3846BDE8F0812DE9F04705468846EA
:104D1000D5F81C90B8F1000F05D1EE680EB14E45E4
:104D200010D301260EE041462846FFF78DFE0746C8
:104D3000022F02D20120BDE8F0874F4501D238464C
:104D4000F9E74646344600BF641C4C4504D30224B0
:104D5000B44201D90020EEE721462846FFF774FE51
:104D6000074607B909E0781C08B1012F01D1384680
:104D7000E1E7B442E8D10020DDE700BF6FF0704208
:104D800021462846FFF7E9FE10B14FF0FF30D2E789
:104D9000B8F1000F08D0224641462846FFF7DDFE55
:104DA00010B14FF0FF30C6E7EC602869401C20B11D
:104DB0002869401E2861012068712046BBE7024631
:104DC000891ED069801E884201D8002070479378E0
:104DD000906A01FB0300F9E72DE9F04104460E4615
:104DE000E680A568012D03D02068C069A84202D8DA
:104DF0000220BDE8F0812DB920680078032801D198
:104E00002068456A65B9E56020680089B04201DC28
:104E10000220EEE72068406A00EB1610206120E0D7
:104E200020688078070112E029462068FFF70CFE11
:104E30000546681C08B90120DBE7022D03D3206872
:104E4000C069A84201D80220D3E7F01B86B2BE4257
:104E5000EADAE56029462068FFF7B1FF00EB16109B
:104E600020612068303006F00F0100EB41106061D6
:104E70000020BEE72DE9F04104468846E088401C4A
:104E800086B20EB1206910B90420BDE8F08106F0A9
:104E90000F0000286FD12069401C2061E06828B90C
:104EA00020680089B04266DC0420EEE72068807844
:104EB000401E00EA161000285DD1E1682068FFF767
:104EC000C3FD0546012D01D80220DEE7681C08B9A4
:104ED0000120DAE72068C069A84246D8B8F1000F7F
:104EE00001D10420D1E7E1682068FFF70DFF0546F6
:104EF0000DB90720C9E7012D01D10220C5E7681CC3
:104F000008B90120C1E700212068FFF7FFFC08B1C4
:104F10000120BAE7216801F130004FF4007200214E
:104F2000FFF7CDFC29462068FFF749FF2168C862DA
:104F3000002710E001202168087100212068FFF798
:104F4000E5FC08B10120A0E72068C06A401C216888
:104F5000C862781CC7B220688078B842EADC206852
:104F6000C06AC01B2168C86200BFE560294620688E
:104F7000FFF725FF2061E6802068303006F00F0142
:104F800000EB4110606100207FE72DE9F04104460D
:104F900000212046FFF720FF054615B12846BDE851
:104FA000F08100BF21692068FFF7B0FC054605B11C
:104FB00016E0666937780FB9042511E0F07A00F041
:104FC000080030B90B223046A169FFF782FC00B916
:104FD00006E000212046FFF74DFF0546002DE1D0F9
:104FE00000BF2846DBE72DE9F041044604251BE01D
:104FF00021692068FFF78AFC054605B117E067695B
:105000003E780EB9042512E0E52E06D02E2E04D0EF
:10501000F87A00F0080000B909E000212046FFF707
:1050200029FF054605B102E020690028E0D100BF54
:105030000DB1002020612846BDE8F0812DE9F04146
:10504000044600212046FFF7C7FE0546ADB900BF64
:1050500021692068FFF75AFC054605B10CE060693C
:105060000678E52E00D006B906E001212046FFF7BC
:1050700001FF0546002DEBD000BFC5B921692068AE
:10508000FFF744FC054695B96769202200213846A0
:10509000FFF715FC0B223846A169FFF703FCA06956
:1050A000C07A00F018003873012021680871284682
:1050B000BDE8F08170B50446E1882046FFF78CFE1C
:1050C00005465DB921692068FFF720FC05462DB92A
:1050D000E52061690870012021680871284670BDCB
:1050E0002DE9F35F0F46009886690B222021304698
:1050F000FFF7E5FB00200546814682464FF0080891
:10510000D7F800B000BF50460AF1010A1BF8004072
:10511000202C03DD2F2C01D05C2C00D134E02E2C70
:1051200001D0C1450EDBB8F1080F01D12E2C02D001
:105130000620BDE8FC9F4FF008094FF00B08A806B9
:10514000050EE0E7802C03DBA4F18000FE490C5C37
:105150002146FEA0FFF7D0FB08B10620E9E7412C6D
:1051600004DB5A2C02DC45F0020508E0612C06DB6A
:105170007A2C04DC45F00105A4F12000C4B24846B5
:1051800009F101093454BEE700BF0BEB0A00386097
:10519000202C01DC042000E000200446B9F1000FBF
:1051A00001D10620C5E73078E52801D1052030700F
:1051B000B8F1080F01D1A806050E05F0030001287B
:1051C00001D144F0100405F00C00042801D144F092
:1051D0000804F4720020ACE7F0B505460B4603F175
:1051E00009022F69002F40D06869067B00210AE080
:1051F000445C202C00D108E0052C00D1E52400BF40
:1052000002F8014B491C0829F2DB00BF077A202F66
:105210000FD02E2702F8017B082107E0445C202CE8
:1052200000D105E000BF02F8014B491C0B29F5DB5A
:1052300000BFC77A1F72C77F4FEA076C877F4CEAAF
:10524000074C477F4CEA072790F81CC047EA0C0739
:105250001F6090F818C0477E4CEA07279F8090F89F
:1052600016C0C77D4CEA0727DF8000271770F0BD06
:105270002DE9F341044602E00198401C0190019899
:1052800000782028F8D0019800782F2803D00198C2
:1052900000785C2802D10198401C01900020A06099
:1052A00001980078202807D200212046FFF794FDBE
:1052B0000646002060612BE000BF01A92046FFF7F1
:1052C0000FFF064606B122E02046FFF75EFE0646C7
:1052D000A069C07A00F0040726B1042E01D107B9F5
:1052E000052614E007B112E06569E87A00F01000C5
:1052F00008B905260BE0A97EE87E41EA00212A7D57
:10530000687D42EA002041EA0040A060D5E700BF86
:105310003046BDE8FC8170B504460D466078012337
:105320002A4604F13001FDF7E5F908B1032070BD0C
:1053300094F82E1294F82F0241EA00204AF65521E3
:10534000884201D00220F2E794F86900010694F83F
:10535000680041EA004194F8670041EA002094F8AF
:105360006610084320F07F407B49884201D100202D
:10537000DDE794F88500010694F8840041EA0041D5
:1053800094F8830041EA002094F88210084320F04A
:105390007F407149884201D10020C8E70120C6E75B
:1053A0002DE9F74F82B00298D0F800B09BF80000CA
:1053B000A0F13009B9F1090F09D89BF801003A288A
:1053C00005D10BF1020B0298C0F800B001E04FF0DC
:1053D0000009B9F1020F03D30B2005B0BDE8F08F2F
:1053E0005E4850F82940039804600CB90C20F4E79B
:1053F000207878B16078FDF776F9804608F00100F2
:1054000040B9049820B108F0040008B10A20E4E78C
:105410000020E2E70020207084F801906078FDF71A
:1054200053F9804608F0010008B10320D5E704983D
:1054300020B108F0040008B10A20CEE74FF0000ABE
:1054400051462046FFF767FF0546012D13D104F5AD
:10545000F777387978B1F87A0106B87A41EA0041ED
:10546000787A41EA0020397A40EA010A514620461A
:10547000FFF751FF0546032D01D10120ADE745B9E6
:105480003B20015D94F83C0041EA0020B0F5007F2C
:1054900001D00D20A1E74620015D94F8470041EAC4
:1054A000002676B994F85700010694F8560041EAB0
:1054B000004194F8550041EA002094F8541040EA65
:1054C0000106A6614020005DE070E07846433E2082
:1054D000015D94F83F0041EA0020504420623D20E5
:1054E000005DA0704120015D94F8420041EA002077
:1054F00020814320015D94F8440041EA002001909E
:10550000019870B994F85300010694F8520041EAEA
:10551000004194F8510041EA002094F850100843EB
:1055200001903E20015D94F83F0041EA002101987E
:10553000401A801B2189A0EB1110A178B0FBF1F07B
:10554000801C0090E0610BE0D4BA000820222A2BD6
:105550002C5B3D5D7C7F000046415400A80000208C
:10556000012540F6F7710098884200D302254FF6D6
:10557000F7710098884200D30325032D0FD194F8CA
:105580005F00010694F85E0041EA004194F85D0076
:1055900041EA002094F85C100843606202E0206A4F
:1055A00030446062206A3044218900EB1110A0620F
:1055B0004FF0FF30206100202071032D5CD160711D
:1055C00094F8601094F8610041EA00205044606152
:1055D0006078012304F130016269FDF78BF8E8BBC4
:1055E00094F82E1294F82F0241EA00204AF6552131
:1055F000884241D13320005D01063220005D41EA3E
:1056000000413120005D41EA002094F83010084349
:10561000F849884230D194F81702010694F816022E
:1056200041EA004194F8150241EA002094F814126E
:105630000843F14988421FD194F81F02010694F8EB
:105640001E0241EA004194F81D0241EA002094F84C
:105650001C120843E06094F81B0200E00CE0010615
:1056600094F81A0241EA004194F8190241EA002034
:1056700094F818120843206125700020E062DF488A
:105680000088401C80B2DD490880E0800020A4E64C
:1056900070B504460D4624B1207810B1E088A842C8
:1056A00001D0092070BD6078FDF71DF800F0010001
:1056B00008B10320F6E70020F4E70246022A01DBE6
:1056C0000B207047CE4850F822300BB100201870E4
:1056D00009B100200870CA4840F822100020F0E705
:1056E0002DE9F7438AB0054616460020286006F0EB
:1056F0001F0606F01E0203A90BA8FFF751FE07467E
:105700001FB138460DB0BDE8F083CDF824D003A812
:105710000B99FFF7ADFD074606F01C00002868D086
:1057200067B1042F03D103A8FFF788FC07460FB128
:105730003846E7E746F00806089C41E006F004001A
:1057400008B10820DEE7089C1CB1E07A00F01100E7
:1057500008B10720D6E706F0080080B3A17EE07EFE
:1057600041EA0021227D607D42EA002041EA0049B1
:105770000020207500216175A076E17620776177A1
:10578000A177E1770120039908710398D0F82C8064
:10579000B9F1000F0BD049460398FFF781FA07468D
:1057A0000FB13846AEE7A9F101000399C860414640
:1057B0000398FFF7ABF807460FB13846A2E7FFE7BB
:1057C00006F00800A0B10020E072FFF768F88046FC
:1057D00084F80E804FEA1821E1734FEA18412174D2
:1057E0004FEA1861617401200399087146F02006A0
:1057F00013E00FB1384685E7089C1CB1E07A00F051
:10580000100008B104207DE706F0020028B1E07A1C
:1058100000F0010008B1072074E70398C06AE8614E
:1058200008982862AE71A17EE07E41EA0021227DC7
:10583000607D42EA002041EA00402861E07F0106E5
:10584000A07F41EA0041607F41EA0020217F0843B8
:10585000E8600020A860FF20E8710020A86103989C
:1058600028600398C088A88000204BE72DE9FF4FEF
:1058700083B0044615469946DDF810A00020C9F80B
:105880000000A1882068FFF703FF0290029818B17A
:10589000029807B0BDE8F08FA07900F0800008B151
:1058A0000220F6E7A07900F0010008B90720F0E730
:1058B000D4E90210401A01900198854200D9019D57
:1058C000C1E02089C0F3080000287BD1E07921687D
:1058D000897888421EDBA06808B9206903E0616905
:1058E0002068FFF7B1F88346BBF1010F05D8A07916
:1058F00040F08000A0710220CBE70BF1010028B935
:10590000A07940F08000A0710120C2E7C4F814B073
:105910000020E07161692068FFF751FA06462EB950
:10592000A07940F08000A0710220B2E7E07906443F
:105930004FEA5528B8F1000F31D0E0794044216892
:105940008978884204D920688078E179A0EB010841
:1059500008F0FF032168487832465146FCF7CAFE3A
:1059600028B1A07940F08000A071012091E7A079D2
:1059700000F0400068B1A069801B404509D2A169D0
:10598000891B0AEB41204FF4007204F12401FEF759
:1059900089FFE0794044E0714FEA482749E0A07967
:1059A00000F0400098B121684878012304F12401F7
:1059B000A269FCF7CFFE30B1A07940F08000A07161
:1059C000012066E722E0A07920F04000A071A069E4
:1059D000B04217D0216848780123324604F12401EF
:1059E000FCF788FE70B1A07940F08000A071012022
:1059F0004FE700005252614172724161B0000020D5
:105A0000A8000020A661E079401CE0712089C0F365
:105A10000800C0F50077AF4200D92F462089C0F3B7
:105A2000080204F1240011183A465046FEF73AFFE6
:105A300000BFBA44A0683844A060D9F800003844D8
:105A4000C9F80000ED1B002D7FF43BAF002020E7DC
:105A50002DE9FF4F81B0044615469A46DDF808B09F
:105A60000020CAF80000A1882068FFF711FE00900E
:105A7000009818B1009805B0BDE8F08FA07900F04B
:105A8000800008B10220F6E7A07900F0020008B912
:105A90000720F0E7E0682844E168884200D200254A
:105AA000CEE02089C0F30800002875D1E079216894
:105AB000897888422CDBA06858B9D4F81090B9F1E5
:105AC000000F0BD100212068FFF71EF981462061ED
:105AD00004E061692068FFF717F98146B9F1000F0A
