:020000040800F2
:10000000900700204D020008AF170008A71700084E
:10001000AB17000861030008411B00080000000046
:100020000000000000000000000000002D18000883
:10003000CD04000800000000E91700082919000895
:1000400067020008670200086702000867020008EC
:1000500067020008670200086702000867020008DC
:10006000670200086F0500087905000867020008AC
:1000700067020008670200086702000867020008BC
:1000800067020008670200086702000867020008AC
:10009000670200086702000867020008830500087D
:1000A000670200086702000867020008670200088C
:1000B000670200086702000867020008670200087C
:1000C000670200086702000867020008670200086C
:1000D00067020008F11A00086702000867020008BA
:1000E000630500086702000867020008670200084D
:1000F000670200086702000867020008670200083C
:10010000670200086702000867020008670200082B
:10011000670200086702000867020008670200081B
:10012000670200086702000867020008670200080B
:1001300067020008670200086702000867020008FB
:1001400067020008670200086702000867020008EB
:1001500067020008670200086702000867020008DB
:1001600067020008670200086702000867020008CB
:10017000670200086702000867020008000000002C
:1001800067020008670200086702000867020008AB
:10019000670200086702000867020008670200089B
:1001A00067020008670200086702000800F002F812
:1001B00000F03CF80AA090E8000C82448344AAF1C5
:1001C0000107DA4501D100F031F8AFF2090EBAE8C3
:1001D0000F0013F0010F18BFFB1A43F0010318477B
:1001E000C01A0000E01A0000103A24BF78C878C195
:1001F000FAD8520724BF30C830C144BF04680C602D
:10020000704700000023002400250026103A28BF74
:1002100078C1FBD8520728BF30C148BF0B60704778
:100220001FB501F0F1FC1FBD10B510BD00F065F861
:100230001146FFF7F5FF01F0C1FC00F083F803B4AD
:10024000FFF7F2FF03BC01F07DFC00000948804786
:1002500009480047FEE7FEE7FEE7FEE7FEE7FEE7A8
:10026000FEE7FEE7FEE7FEE704480549054A064BC0
:100270007047000031190008AD010008900100200E
:10028000900700209003002090030020704710B5D5
:10029000203AC0F00B80B1E81850203AA0E818507E
:1002A000B1E81850A0E81850BFF4F5AF5FEA027C3F
:1002B00024BFB1E81850A0E8185044BF18C918C0AE
:1002C000BDE810405FEA827C24BF51F8043B40F84F
:1002D000043B08BF7047D20728BF31F8023B48BF34
:1002E00011F8012B28BF20F8023B48BF00F8012B72
:1002F00070477047704770477047754600F02CF89C
:10030000AE4605006946534620F00700854618B002
:1003100020B5FFF7A9FFBDE820404FF000064FF0E1
:1003200000074FF000084FF0000B21F00701AC462A
:10033000ACE8C009ACE8C009ACE8C009ACE8C00949
:100340008D46704710B50446AFF300802046BDE8E7
:100350001040FFF774BF00000048704730010020D4
:1003600000BFFEE700B587B000BF002001904F48F6
:10037000006840F002004D4908600846006800F03F
:100380000200019000BF00BF00BF0020019008469E
:10039000006840F0040008600846006800F00400AF
:1003A000019000BF00BF00BF002001900846006818
:1003B00040F0080008600846006800F0080001905E
:1003C00000BF00BF00BF002001900846006840F059
:1003D000800008600846006800F08000019000BFBF
:1003E00000BF00BF002001900846006840F04000B8
:1003F00008600846006800F04000019000BF00BFA0
:1004000000BF002001900846006840F4807008603A
:100410000846006800F48070019000BF00BF00BF74
:10042000002001900846006840F40070086008460B
:10043000006800F40070019000BF00BF4FF2404020
:100440000290012003900320059002A9184800F0B3
:100450007BFAA720029002A9164800F075FA4FF423
:10046000E140029002A9144800F06EFA4FF4C07007
:10047000029002A9114800F067FA8820029002A9B0
:100480000F4800F061FA4FF44070029002A90D4845
:1004900000F05AFA4FF42040029002A90A4800F0F6
:1004A00053FA002000F04AF807B000BD303802408F
:1004B000001C0240002002400024024000180240BC
:1004C000000C024000080240000402407047000097
:1004D0000020134908601349C1F8940212490860CA
:1004E000114908390860091D0860104908600F4962
:1004F000103908600E4908600D49103908600A4932
:100500001C3908600B4908600A49083108600A492B
:1005100008600949083908600749183908607047B8
:100520009C02444200004442B88244429C824142C0
:100530009C024342B4824042B082434200B502462C
:1005400000F084F812B1012A06D102E001F04EF960
:1005500003E001F06DF900E000BF00BFFFF7B8FF56
:1005600000BD10B54FF4806000F0E0F910BD10B58B
:10057000082000F0DBF910BD10B5102000F0D6F90E
:1005800010BD10B5202000F0D1F9402000F0CEF9C8
:1005900010BD000000B587B000BF002001902748C3
:1005A000006840F01000254908600846006800F027
:1005B0001000019000BF00BF00BF0020019008465E
:1005C000006840F4807008600846006800F480709D
:1005D000019000BF00BF78200290194803900120CD
:1005E000049002A9174800F0AFF94FF48060029020
:1005F00002A9154800F0A8F900220221092000F004
:1006000009FB092000F0F9FA012202210A2000F07A
:1006100001FB0A2000F0F1FA02221146172000F037
:10062000F9FA172000F0E9FA03220221282000F04D
:10063000F1FA282000F0E1FA07B000BD303802409E
:100640000000211000100240002002400120134948
:1006500008601349C1F89402124908601149083929
:100660000860091D0860104908600F4910390860CA
:100670000E4908600D49103908600A491C390860A4
:100680000B4908600A49083108600A4908600949AD
:100690000839086007491839086070479C024442CD
:1006A00000004442B88244429C8241429C02434240
:1006B000B4824042B082434210B50446202C1DD083
:1006C00004DC082C08D0102C0ED10EE0402C2AD0CF
:1006D000B4F5806FF8D1FBE00821834800F042FABE
:1006E00010B90020FFF72AFFFCE010217E4800F03F
:1006F00039FA10B90120FFF721FFF3E020217A48F1
:1007000000F030FA70B90120FFF718FF642001F003
:1007100025FA01207549086001F068F80020744945
:10072000C1F88C02DEE040216F4800F01BFA00287F
:1007300073D1642001F012FAFFF7CAFE6D48006819
:10074000401C6C49086008460068102801D1002050
:10075000086068480068102875D2DFE800F0B60825
:100760001E29333E49535F6A75808A95A0AB0020ED
:100770006149086001206149C1F884025E49083975
:1007800008605F490860091F0860091F08605D492B
:1007900008605D49C1F8A00298E0012056490C317B
:1007A000086001F045F800205449C1F894028DE03A
:1007B00001205649086001F03BF800205449C1F877
:1007C000B80283E0012051490839086001F030F88F
:1007D00000204F49C1F8B00278E001204B49091FC1
:1007E000086001F025F800204949C1F8B4026DE025
:1007F00001204849086001F01BF800204649C1F873
:100800009C0263E0012043491039086001F010F8B0
:1008100000204149C1F88C0258E058E001203349DA
:100820001031086001F004F800203149C1F89C0241
:100830004CE001202D49086000F0FAFF00202C490F
:10084000C1F88C0242E040E0012030491C390860C8
:1008500000F0EEFF00202E49C1F89C0236E0012096
:100860002E49086000F0E4FF00202D49C1F8B402D1
:100870002CE0012029490831086000F0D9FF002050
:100880002749C1F8BC0221E001201D490C3908604C
:1008900000F0CEFF00202349C1F8B00216E001208D
:1008A00017491439086000F0C3FF00201D49C1F842
:1008B000A8020BE0012012492439086000F0B8FFBB
:1008C00000201849C1F8980200E000BF00BF09E00D
:1008D0004FF48061144800F045F910B90020FFF78B
:1008E0002DFE00BF00BF10BD001002408C0243422D
:1008F0000000434224000020880244420000444299
:10090000BC824342A402414200004142B8824442B8
:10091000008044429C82414200804142B482404275
:1009200000804042008043420020024010B504464F
:1009300004480068204020B1024804602046FFF7C8
:10094000BBFE10BD143C0140F8B502460B46002525
:10095000002400200021E6E0012606FA01F51E68C9
:1009600006EA0504AC4273D15E68022E02D05E68CE
:10097000122E13D1CF0802F1200656F827004E0799
:10098000F70E0F26BE40B0434F07FF0E1E69BE4054
:100990003043CF0802F1200646F8270010684F00C8
:1009A0000326BE40B0431E7906F003064F00BE404A
:1009B000304310605E68012E08D05E68022E05D0BC
:1009C0005E68112E02D05E68122E13D190684F001F
:1009D0000326BE40B0434F00DE68BE403043906007
:1009E000506801268E40B0431E79C6F300168E4033
:1009F00030435060D0684F000326BE40B0434F00E4
:100A00009E68BE403043D0605E6806F08056B6F106
:100A1000805FA8D100BF00260096454E366846F498
:100A20008046434F3E603E46366806F48046009658
:100A300000BF00BF3F4E8F0856F827008E07370FC4
:100A40000F26BE40B0433C4EB24202D100262EE0FB
:100A500068E03A4EB24201D1012628E0384EB24257
:100A600001D1022623E0374EB24201D103261EE017
:100A7000354EB24201D1042619E0344EB24201D1C2
:100A8000052614E0324EB24201D106260FE0314E67
:100A9000B24201D107260AE02F4EB24201D1082608
:100AA00005E02E4EB24201D1092600E00A268F074A
:100AB0003F0FBE4030431F4E8F0846F82700284E98
:100AC0003068A0435E6806F48036B6F5803F00D1FA
:100AD0002043234E3060361D3068A0435E6806F424
:100AE0000036B6F5003F00D120431D4E361D306064
:100AF000361D3068A0435E6806F48016B6F5801F88
:100B000000D12043164E08363060361D3068A043B1
:100B10005E6806F40016B6F5001F00D12043104EA3
:100B20000C363060491C1029FFF416AFF8BD0000E8
:100B300044380240083801400000024000040240EE
:100B400000080240000C0240001002400014024065
:100B500000180240001C0240002002400024024015
:100B6000003C0140024613690B400BB1012000E03C
:100B70000020704701480068704700001400002002
:100B800002480068401C01490860704714000020BA
:100B900010B50D48006840F400700B490860084625
:100BA000006840F4806008600846006840F4807087
:100BB0000860052000F06CF80F2000F007F800F046
:100BC00017F8002010BD0000003C024070B504463C
:100BD00000F01CFA4FF47A71B0FBF1F5284600F0F2
:100BE000A3FC00222146501E00F014F8002070BD26
:100BF00008B50020009000BF08BD00BF00F01F0234
:100C0000012191404209920002F1E022C2F8001154
:100C100000BF70472DE9F05F80460D46164600275D
:100C200000F0C6FD074639462A46334601F0070064
:100C3000C0F1070ABAF1040F02D94FF0040A01E02B
:100C4000C0F1070AD14600F1040ABAF1070F02D237
:100C50004FF0000A01E0A0F1030AD4464FF0010A68
:100C60000AFA09FAAAF1010A0AEA020A0AFA0CFACD
:100C70004FF0010B0BFA0CFBABF1010B0BEA030B72
:100C80004AEA0B042146404600F09AFDBDE8F09F79
:100C900000BF00F00702064B19684FF6FF0319402A
:100CA000044B0B4343EA0221014B196000BF70471C
:100CB0000CED00E00000FA0538B5002400BF00206C
:100CC00000902348006840F08050214908600846A1
:100CD000006800F08050009000BF00BF01200104B8
:100CE00091FAA1F1B1FA81F11A4A42F82100FFF715
:100CF00041FF044607E0FFF73DFF001BB0F57A7F98
:100D000001D9032038BD1448406800F48030B0F5A4
:100D1000803FF0D10120410491FAA1F1B1FA81F1B3
:100D20000C4A42F82100FFF725FF044607E0FFF7D1
:100D300021FF001BB0F57A7F01D90320E2E70648C6
:100D4000406800F40030B0F5003FF0D10020D9E752
:100D50004038024000000E420070004070B504466A
:100D60000E460025A748006800F00F00B0426FD281
:100D7000A4490E700846006800F00F00B04201D090
:100D8000012070BD207800F00200022807D19E48A3
:100D9000006820F0F000A16808439B4908602078B3
:100DA00000F0010000283ED06068012807D1964875
:100DB00008380068C0F34040B8B90120E1E7606836
:100DC000022802D06068032807D18F4808380068DD
:100DD000C0F3406048B90120D3E78B480838006869
:100DE000C0F3400008B90120CBE78748006820F035
:100DF00003006168084384490860FFF7BBFE0546AD
:100E00006068012810D108E0FFF7B4FE401B41F2F2
:100E10008831884201D90320B3E77B48006800F09D
:100E20000C000428F0D1CDE06068022811D108E060
:100E3000FFF7A0FE401B41F28831884201D9032010
:100E40009FE77148006800F00C000828F0D1B9E075
:100E500024E06068032810D108E0FFF78BFE401BF8
:100E600041F28831884201D903208AE76648006848
:100E700000F00C000328F0D1A4E008E0FFF77AFEB0
:100E8000401B41F28831884201D9032079E75E484E
:100E9000006800F00C000028F0D193E0207800F00A
:100EA0000200022807D15848006820F0F000A1682D
:100EB000084355490860207800F00100002877D0E9
:100EC0006068012807D1504808380068C0F34040E6
:100ED000B8B9012055E76068022802D0606803288D
:100EE00007D1494808380068C0F3406048B901207C
:100EF00047E7454808380068C0F3400008B90120BA
:100F00003FE74148006820F00300616808433E491C
:100F10000860FFF72FFE05466068012810D108E041
:100F2000FFF728FE401B41F28831884201D9032097
:100F300027E73548006800F00C000428F0D137E0BE
:100F40006068022810D108E0FFF714FE401B41F250
:100F50008831884201D9032013E72B48006800F04C
:100F60000C000828F0D123E06068032810D108E0C5
:100F7000FFF700FE401B41F28831884201D903206F
:100F8000FFE62148006800F00C000328F0D10FE0D4
:100F900008E0FFF7EFFD401B41F28831884201D99C
:100FA0000320EEE61848006800F00C000028F0D19D
:100FB00014490E700846006800F00F00B04201D0DE
:100FC0000120DEE6207800F00400042807D10E4856
:100FD000006820F4E050E16808430B49086020787D
:100FE00000F00800082808D10748006820F4604095
:100FF000216940EAC100044908600F20FFF7E6FDBF
:101000000020BEE6003C02400838024010B500F067
:1010100019F80949096801F0F001F02292FAA2F2E8
:10102000B2FA82F2D140054A515CC84004490860D6
:101030000846006810BD000008380240121C000875
:101040000000002070B50021002200230020274C62
:10105000246804F00C0424B1042C04D0082C41D1E1
:1010600003E0234840E023483EE0204C241F24684E
:1010700004F03F011D4C241F246804F4800484B153
:101080001C4CB4FBF1F5194C241F246847F6C076BC
:10109000344096FAA6F6B6FA86F6F44005FB04F25A
:1010A0000FE0134CB4FBF1F5104C241F246847F6F5
:1010B000C076344096FAA6F6B6FA86F6F44005FBFA
:1010C00004F20A4C241F246804F440344FF44035E1
:1010D00095FAA5F5B5FA85F5EC40641C6300B2FB02
:1010E000F3F001E0024800BF00BF70BD08380240C5
:1010F0000024F40040787D0138B5044600252078AE
:1011000000F00100002866D0F748006800F00C00ED
:1011100004280DD0F448006800F00C00082813D112
:10112000F148001F006800F48000B0F5800F0BD17B
:10113000ED4808380068C0F3404000284BD0606894
:10114000002848D1012038BD0020E749891F0870D8
:10115000FFF710FD054608E0FFF70CFD401B41F2CC
:101160008831884201D90320EDE7DF48083800685C
:10117000C0F340400028EFD12079DB49891F087077
:101180006068A0B1FFF7F6FC054608E0FFF7F2FC47
:10119000401B41F28831884201D90320D3E7D2486D
:1011A00008380068C0F340400028EFD013E0FFF794
:1011B000E1FC054608E0FFF7DDFC401B41F2883109
:1011C000884201D90320BEE7C74808380068C0F349
:1011D00040400028EFD1207800F00200022869D1B9
:1011E000C148006800F00C0058B1BF48006800F02A
:1011F0000C00082821D1BC48001F006800F48000C2
:10120000D8B9B94808380068C0F3400020B1E06898
:10121000012801D0012096E7B3480838006820F083
:10122000F800F82292FAA2F2B2FA82F22169914011
:101230000843AD49083908603CE0E06828B3012064
:10124000AA490860FFF796FC054606E0FFF792FC06
:10125000401B642801D9032075E7A34808380068BB
:10126000C0F340000028F1D09F480838006820F003
:10127000F800F82292FAA2F2B2FA82F221699140C1
:10128000084399490839086014E00020974908602C
:10129000FFF770FC054606E0FFF76CFC401B642876
:1012A00001D903204FE7904808380068C0F3400098
:1012B0000028F1D1207800F0080008282CD16069BE
:1012C000A8B101208A490860FFF754FC054606E0F2
:1012D000FFF750FC401B642801D9032033E7824804
:1012E0006C300068C0F340000028F1D014E000200A
:1012F0007F490860FFF73EFC054606E0FFF73AFC31
:10130000401B642801D903201DE777486C30006832
:10131000C0F340000028F1D1207800F00400042838
:101320006FD100BF002000906F483830006840F057
:1013300080506D49383108600846006800F08050E0
:10134000009000BF00BF6B48006840F4807069499E
:101350000860FFF70FFC054606E0FFF70BFC401B9B
:10136000642801D90320EEE66248006800F480702A
:101370000028F2D000205C4968310870FFF7FAFBC2
:10138000054608E0FFF7F6FB401B41F28831884232
:1013900001D90320D7E6544868300068C0F3400004
:1013A0000028EFD1207A504968310870A068A0B1B8
:1013B000FFF7E0FB054608E0FFF7DCFB401B41F2CE
:1013C0008831884201D90320BDE64748683000686B
:1013D000C0F340000028EFD013E0FFF7CBFB054639
:1013E00008E0FFF7C7FB401B41F28831884201D972
:1013F0000320A8E63C4868300068C0F3400000289D
:10140000EFD1A069F0B33848006800F00C0008285C
:1014100072D0A069022850D1002034490866FFF735
:10142000A9FB054606E0FFF7A5FB401B642801D990
:10143000032088E62C4808380068C0F34060002884
:10144000F1D1D4E90701084347F6C07292FAA2F23B
:10145000B2FA82F2616A914008430122A16AC2EBAA
:1014600051014FF4403292FAA2F2B2FA82F2914064
:1014700008434FF0706292FAA2F2B2FA82F2E16A85
:10148000914000E03AE008431749091F0860012035
:1014900016490866FFF76EFB054606E0FFF76AFB94
:1014A000401B642801D903204DE60F480838006826
:1014B000C0F340600028F1D020E000200B4908660E
:1014C000FFF758FB054606E0FFF754FB401B642876
:1014D00001D9032037E6044808380068C0F34060AB
:1014E0000028F1D10AE007E0083802400000474236
:1014F000800E474200700040012024E6002022E6D2
:10150000042808D14FF0E021096941F004014FF0AF
:10151000E022116107E04FF0E021096921F00401A8
:101520004FF0E0221161704770B504462546681EF1
:10153000B0F1807F01D301200FE0681E4FF0E02161
:1015400048610F214FF0FF3000F03AF900204FF0D2
:10155000E021886107200861002070BD70470146C6
:1015600091F839007047F8B5044600250026206838
:10157000006800F001052068C06800F480767DB145
:1015800076B100BF002000902068006800902068BD
:101590004068009000BF00BFE06B40F00100E063D6
:1015A00020680068C0F340052068406900F001062B
:1015B0007DB176B100BF00200090206800680090E7
:1015C00020684068009000BF00BFE06B40F004005E
:1015D000E06320680068C0F380052068406900F07F
:1015E00001067DB176B100BF002000902068006840
:1015F000009020684068009000BF00BFE06B40F0A2
:101600000200E06320680068C0F3C00520684069FC
:1016100000F001067DB176B100BF00200090206887
:101620000068009020684068009000BF00BFE06B39
:1016300040F00800E06320680068C0F340152068AF
:10164000C06800F020061DB116B1204600F0BAF9BE
:1016500020680068C0F3C0152068C06800F08006EC
:101660001DB116B1204600F00BFA20680068C0F3E7
:1016700080152068C06800F040061DB116B12046F4
:1016800000F088F9E06B28B1012084F83900204689
:10169000FFF764FFF8BD30B50346002493F83940E6
:1016A000012C01D0122C37D101B10AB9012030BD73
:1016B00000BF93F83800012801D10220F7E701208C
:1016C00083F8380000BF99629A85DA850020D863D4
:1016D00093F83900122803D1322083F8390002E050
:1016E000222083F839001868C06840F480701D68B3
:1016F000E8601868406940F001001D68686100BF3B
:10170000002083F8380000BF1868C06840F020004F
:101710001D68E8600020CAE70220C8E71D4A01688A
:10172000914236D11C49098801F4004189BB1A490C
:10173000098801F4804171B1184909780A2903D058
:101740000021154A118024E01349098841F4004121
:10175000114A11801DE0114909780D2906D10E4961
:10176000098841F480410C4A118012E00B49097844
:10177000094A1288C2F30D02094B99540649098897
:10178000491C054A118011460988C72901DD00213D
:10179000118070470010014020000020220000202E
:1017A00028000020704700BFFEE700BFFEE770473B
:1017B00002480068C0F30220704700000CED00E012
:1017C00010B5002807DA0A07140E054A00F00F03C7
:1017D0001B1FD45403E00A07130E024A135410BD12
:1017E00018ED00E000E400E07047000000200A4926
:1017F00008600A49C1F884020749083908600849A5
:101800000860091F0860091F08600649086006494A
:10181000C1F8A00270470000880244420000444220
:10182000BC824342A4024142000041427047000092
:1018300001200A4908600A49C1F8840207490839A9
:10184000086008490860091F0860091F0860064908
:1018500008600649C1F8A0027047000088024442AF
:1018600000004442BC824342A40241420000414283
:101870002DE9F04192B00546884616461F460024E1
:1018800000BF002000902648006840F080502449A6
:1018900008600846006800F08050009000BF00BF5C
:1018A00000BF002000901F48006840F440401D49E0
:1018B00008600846006800F44040009000BF00BF88
:1018C00001200690079002200C9041050D91CDF863
:1018D00038800F951096119706A8FFF70DFC044667
:1018E0000CB100BFFEE7FFF7E7F904460CB100BFFB
:1018F000FEE70F20019002200290002003904FF499
:10190000A05004904FF480500590052101A8FFF7E6
:1019100025FA04460CB100BFFEE712B0BDE8F08125
:10192000403802400070004010B5FFF729F910BDA3
:101930001448006840F470001249086012480068BA
:1019400040F001001049086000200F49083108608C
:101950000D4800680D4908400B4908600C48091DF6
:101960000860081F006820F48020091F086000201C
:1019700005490C3108604FF0006002498039086069
:101980007047000088ED00E000380240FFFFF6FEDF
:101990001030002410B504462068C06820F04000D4
:1019A0002168C86094F83900322803D1222084F8D5
:1019B000390002E0012084F839002046FFF7F2FEEA
:1019C000002010BD70B50446002694F83960222E20
:1019D00001D0322E52D1A068B0F5805F13D1A56A34
:1019E000206940B920684068C0F308002880A06AD8
:1019F000801CA06219E020684068C0B22880A06AFC
:101A0000401CA06211E0206938B920684068C1B26A
:101A1000A26A501CA062117007E02068406800F0C4
:101A20007F01A26A501CA0621170E08D401E80B23E
:101A3000E08508BB2068C06820F020002168C860ED
:101A400094F83900322803D1122084F839000EE0CE
:101A50002068C06820F480702168C86020684069F0
:101A600020F0010021684861012084F839002046F7
:101A7000FFF754FE002070BD0020FCE70220FAE7CB
:101A800010B50146002391F83930122B01D0322BCA
:101A90002CD18868B0F5805F0FD10A6A1088C0F336
:101AA00008000C686060086918B9086A801C086240
:101AB00009E0086A401C086205E00C6A601C0862C4
:101AC00020780C686060C88C401E80B2C88458B909
:101AD0000868C06820F080000C68E0600868C06892
:101AE00040F040000C68E060002010BD0220FCE7E0
:101AF00070B500240F4D1048FFF735FD00BF03E01F
:101B0000641CAC4200D904E00B48FFF728FD012813
:101B1000F6D100BF002403E0641CAC4200D906E00B
:101B2000012206490448FFF7B6FD0028F4D100BFA2
:101B300070BD0000FFFF0100F00000202200002027
:101B400000BFFEE700BF704710B504460420FFF752
:101B5000D7FC0148046010BD1800002030B50446D1
:101B6000002504E04FF47A7000F004F86D1CA542E3
:101B7000F8D330BD70B5034600224FF0E0267569FA
:101B80000D4E366803FB06F44FF0E026B16910E015
:101B90004FF0E026B06988420BD0884202D20E1A7C
:101BA000324402E02E1A0E4432440146A24200D3CF
:101BB00000E0EDE700BF70BD18000020A4B000BF3A
:101BC0007C22104905A8FEF762FB002001900290DC
:101BD00003900490FEF7DCFF0823022219214FF442
:101BE000B470FFF745FEB420FFF7AEFFFEF7BAFB77
:101BF000FEF7D0FC0020FEF7A1FC02E00120FEF77A
:101C00009DFCFBE7241C00084FF04070E1EE100A39
:101C100070470000000001020304010203040607EC
:101C2000080900003130313130313031313031305C
:101C3000313130313031313031303131303130319A
:101C4000313031303131303130313130313031318A
:101C5000303130313130313031313031303131307B
:101C6000313031313031303131303130313130316A
:101C7000303131303130313130313031313031305B
:101C8000313130313031313031303131303130314A
:101C900031303130313130313031313000000000FD
:101CA000C01C00080000002028000000E801000817
:101CB000E81C000828000020680700000402000853
:101CC0000024F400000000000000000001020304F2
:101CD00006070809000000000000000000000000E6
:081CE0000000000000000000FC
:04000005080001AD41
:00000001FF
